{"abi":[{"type":"function","name":"accrueRewards","inputs":[{"name":"amount","type":"uint256","internalType":"uint256"}],"outputs":[],"stateMutability":"nonpayable"}],"bytecode":{"object":"0x608080604052346013576068908160188239f35b5f80fdfe6004361015600b575f80fd5b5f3560e01c63e1a472b914601d575f80fd5b34602e576020366003190112602e57005b5f80fdfea26469706673582212208aef86d923d3096bb0739f6ced802218714aaf4345177a5c4246a9bc6152733764736f6c634300081c0033","linkReferences":{}},"methodIdentifiers":{"accrueRewards(uint256)":"e1a472b9"},"id":62}