{"abi":[{"type":"constructor","inputs":[{"name":"_price","type":"int256","internalType":"int256"}],"stateMutability":"nonpayable"},{"type":"function","name":"latestRoundData","inputs":[],"outputs":[{"name":"","type":"uint80","internalType":"uint80"},{"name":"","type":"int256","internalType":"int256"},{"name":"","type":"uint256","internalType":"uint256"},{"name":"","type":"uint256","internalType":"uint256"},{"name":"","type":"uint80","internalType":"uint80"}],"stateMutability":"view"},{"type":"function","name":"setPrice","inputs":[{"name":"_price","type":"int256","internalType":"int256"}],"outputs":[],"stateMutability":"nonpayable"},{"type":"function","name":"setUpdatedAtTimestamp","inputs":[{"name":"_updatedAt","type":"uint256","internalType":"uint256"}],"outputs":[],"stateMutability":"nonpayable"}],"bytecode":{"object":"0x608034605057601f61013938819003918201601f19168301916001600160401b03831184841017605457808492602094604052833981010312605057515f554260015560405160d090816100698239f35b5f80fd5b634e487b7160e01b5f52604160045260245ffdfe60808060405260043610156011575f80fd5b5f3560e01c806374ef91e2146083578063f7a3080614606d5763feaf968c146037575f80fd5b346069575f36600319011260695760a0905f54600154905f835260208301525f604083015260608201525f6080820152f35b5f80fd5b3460695760203660031901126069576004355f55005b34606957602036600319011260695760043560015500fea26469706673582212200d2990e9f597fa6d09a83a21e2ddc37fa3ce65825c7a4639264250dcf9ef01ab64736f6c634300081c0033","linkReferences":{}},"methodIdentifiers":{"latestRoundData()":"feaf968c","setPrice(int256)":"f7a30806","setUpdatedAtTimestamp(uint256)":"74ef91e2"},"id":61}