{"abi":[{"type":"constructor","inputs":[],"stateMutability":"nonpayable"},{"type":"function","name":"AVAX","inputs":[],"outputs":[{"name":"","type":"address","internalType":"address"}],"stateMutability":"view"},{"type":"function","name":"DEFAULT_ADMIN_ROLE","inputs":[],"outputs":[{"name":"","type":"bytes32","internalType":"bytes32"}],"stateMutability":"view"},{"type":"function","name":"FEE_RECIPIENT","inputs":[],"outputs":[{"name":"","type":"address","internalType":"address"}],"stateMutability":"view"},{"type":"function","name":"ROLE_PAUSE","inputs":[],"outputs":[{"name":"","type":"bytes32","internalType":"bytes32"}],"stateMutability":"view"},{"type":"function","name":"ROLE_REGISTER_WITHOUT_COLLATERAL","inputs":[],"outputs":[{"name":"","type":"bytes32","internalType":"bytes32"}],"stateMutability":"view"},{"type":"function","name":"ROLE_REGISTER_WITH_FLEXIBLE_PRICE_CHECK","inputs":[],"outputs":[{"name":"","type":"bytes32","internalType":"bytes32"}],"stateMutability":"view"},{"type":"function","name":"ROLE_RELEASE_LOCKED_TOKENS","inputs":[],"outputs":[{"name":"","type":"bytes32","internalType":"bytes32"}],"stateMutability":"view"},{"type":"function","name":"ROLE_UNPAUSE","inputs":[],"outputs":[{"name":"","type":"bytes32","internalType":"bytes32"}],"stateMutability":"view"},{"type":"function","name":"ROLE_WITHDRAW","inputs":[],"outputs":[{"name":"","type":"bytes32","internalType":"bytes32"}],"stateMutability":"view"},{"type":"function","name":"SLASHED_TOKEN_RECIPIENT","inputs":[],"outputs":[{"name":"","type":"address","internalType":"address"}],"stateMutability":"view"},{"type":"function","name":"VALIDATION_DURATION_EIGHT_WEEKS","inputs":[],"outputs":[{"name":"","type":"uint256","internalType":"uint256"}],"stateMutability":"view"},{"type":"function","name":"VALIDATION_DURATION_FOUR_WEEKS","inputs":[],"outputs":[{"name":"","type":"uint256","internalType":"uint256"}],"stateMutability":"view"},{"type":"function","name":"VALIDATION_DURATION_ONE_YEAR","inputs":[],"outputs":[{"name":"","type":"uint256","internalType":"uint256"}],"stateMutability":"view"},{"type":"function","name":"VALIDATION_DURATION_TWELVE_WEEKS","inputs":[],"outputs":[{"name":"","type":"uint256","internalType":"uint256"}],"stateMutability":"view"},{"type":"function","name":"VALIDATION_DURATION_TWO_WEEKS","inputs":[],"outputs":[{"name":"","type":"uint256","internalType":"uint256"}],"stateMutability":"view"},{"type":"function","name":"accountRegistrationIndicesByNodeId","inputs":[{"name":"","type":"string","internalType":"string"}],"outputs":[{"name":"","type":"uint256","internalType":"uint256"}],"stateMutability":"view"},{"type":"function","name":"addPaymentToken","inputs":[{"name":"token","type":"address","internalType":"address"},{"name":"priceFeedAddress","type":"address","internalType":"address"},{"name":"maxPriceAge","type":"uint256","internalType":"uint256"}],"outputs":[],"stateMutability":"nonpayable"},{"type":"function","name":"avaxSlashPercentage","inputs":[],"outputs":[{"name":"","type":"uint256","internalType":"uint256"}],"stateMutability":"view"},{"type":"function","name":"blsProofOfPossessionByNodeId","inputs":[{"name":"","type":"string","internalType":"string"}],"outputs":[{"name":"","type":"bytes","internalType":"bytes"}],"stateMutability":"view"},{"type":"function","name":"configurePriceFeed","inputs":[{"name":"token","type":"address","internalType":"address"},{"name":"priceFeedAddress","type":"address","internalType":"address"},{"name":"maxPriceAge","type":"uint256","internalType":"uint256"}],"outputs":[],"stateMutability":"nonpayable"},{"type":"function","name":"getAccountRegistrationCount","inputs":[{"name":"account","type":"address","internalType":"address"}],"outputs":[{"name":"","type":"uint256","internalType":"uint256"}],"stateMutability":"view"},{"type":"function","name":"getErc20PaymentMethods","inputs":[],"outputs":[{"name":"","type":"address[]","internalType":"address[]"}],"stateMutability":"view"},{"type":"function","name":"getRegistrationFee","inputs":[{"name":"validationDuration","type":"uint256","internalType":"uint256"}],"outputs":[{"name":"","type":"uint256","internalType":"uint256"}],"stateMutability":"view"},{"type":"function","name":"getRegistrationsByAccount","inputs":[{"name":"account","type":"address","internalType":"address"},{"name":"from","type":"uint256","internalType":"uint256"},{"name":"to","type":"uint256","internalType":"uint256"}],"outputs":[{"name":"","type":"tuple[]","internalType":"struct IgniteStorage.Registration[]","components":[{"name":"registerer","type":"address","internalType":"address"},{"name":"nodeId","type":"string","internalType":"string"},{"name":"validationDuration","type":"uint256","internalType":"uint256"},{"name":"feePaid","type":"bool","internalType":"bool"},{"name":"tokenDeposits","type":"tuple","internalType":"struct IgniteStorage.TokenDepositDetails","components":[{"name":"avaxAmount","type":"uint256","internalType":"uint256"},{"name":"token","type":"address","internalType":"address"},{"name":"tokenAmount","type":"uint256","internalType":"uint256"}]},{"name":"rewardAmount","type":"uint256","internalType":"uint256"},{"name":"qiSlashPercentage","type":"uint256","internalType":"uint256"},{"name":"avaxSlashPercentage","type":"uint256","internalType":"uint256"},{"name":"slashed","type":"bool","internalType":"bool"},{"name":"withdrawable","type":"bool","internalType":"bool"}]}],"stateMutability":"view"},{"type":"function","name":"getRoleAdmin","inputs":[{"name":"role","type":"bytes32","internalType":"bytes32"}],"outputs":[{"name":"","type":"bytes32","internalType":"bytes32"}],"stateMutability":"view"},{"type":"function","name":"getTotalErc20PaymentMethods","inputs":[],"outputs":[{"name":"","type":"uint256","internalType":"uint256"}],"stateMutability":"view"},{"type":"function","name":"getTotalRegistrations","inputs":[],"outputs":[{"name":"","type":"uint256","internalType":"uint256"}],"stateMutability":"view"},{"type":"function","name":"grantRole","inputs":[{"name":"role","type":"bytes32","internalType":"bytes32"},{"name":"account","type":"address","internalType":"address"}],"outputs":[],"stateMutability":"nonpayable"},{"type":"function","name":"hasRole","inputs":[{"name":"role","type":"bytes32","internalType":"bytes32"},{"name":"account","type":"address","internalType":"address"}],"outputs":[{"name":"","type":"bool","internalType":"bool"}],"stateMutability":"view"},{"type":"function","name":"initialize","inputs":[{"name":"_sAVAX","type":"address","internalType":"address"},{"name":"_qi","type":"address","internalType":"address"},{"name":"_avaxPriceFeed","type":"address","internalType":"address"},{"name":"_maxAvaxPriceAge","type":"uint256","internalType":"uint256"},{"name":"_qiPriceFeed","type":"address","internalType":"address"},{"name":"_maxQiPriceAge","type":"uint256","internalType":"uint256"},{"name":"_minimumAvaxDeposit","type":"uint256","internalType":"uint256"},{"name":"_maximumAvaxDeposit","type":"uint256","internalType":"uint256"}],"outputs":[],"stateMutability":"nonpayable"},{"type":"function","name":"maxPriceAges","inputs":[{"name":"","type":"address","internalType":"address"}],"outputs":[{"name":"","type":"uint256","internalType":"uint256"}],"stateMutability":"view"},{"type":"function","name":"maximumAvaxDeposit","inputs":[],"outputs":[{"name":"","type":"uint256","internalType":"uint256"}],"stateMutability":"view"},{"type":"function","name":"maximumSubsidisationAmount","inputs":[],"outputs":[{"name":"","type":"uint256","internalType":"uint256"}],"stateMutability":"view"},{"type":"function","name":"minimumAvaxDeposit","inputs":[],"outputs":[{"name":"","type":"uint256","internalType":"uint256"}],"stateMutability":"view"},{"type":"function","name":"minimumContractBalance","inputs":[],"outputs":[{"name":"","type":"uint256","internalType":"uint256"}],"stateMutability":"view"},{"type":"function","name":"pause","inputs":[],"outputs":[],"stateMutability":"nonpayable"},{"type":"function","name":"paused","inputs":[],"outputs":[{"name":"","type":"bool","internalType":"bool"}],"stateMutability":"view"},{"type":"function","name":"priceFeeds","inputs":[{"name":"","type":"address","internalType":"address"}],"outputs":[{"name":"","type":"address","internalType":"contract IPriceFeed"}],"stateMutability":"view"},{"type":"function","name":"qi","inputs":[],"outputs":[{"name":"","type":"address","internalType":"contract IERC20Upgradeable"}],"stateMutability":"view"},{"type":"function","name":"qiPriceMultiplier","inputs":[],"outputs":[{"name":"","type":"uint256","internalType":"uint256"}],"stateMutability":"view"},{"type":"function","name":"qiRewardEligibilityByNodeId","inputs":[{"name":"","type":"string","internalType":"string"}],"outputs":[{"name":"","type":"bool","internalType":"bool"}],"stateMutability":"view"},{"type":"function","name":"qiSlashPercentage","inputs":[],"outputs":[{"name":"","type":"uint256","internalType":"uint256"}],"stateMutability":"view"},{"type":"function","name":"redeemAfterExpiry","inputs":[{"name":"nodeId","type":"string","internalType":"string"}],"outputs":[],"stateMutability":"nonpayable"},{"type":"function","name":"registerWithAvaxFee","inputs":[{"name":"nodeId","type":"string","internalType":"string"},{"name":"blsProofOfPossession","type":"bytes","internalType":"bytes"},{"name":"validationDuration","type":"uint256","internalType":"uint256"}],"outputs":[],"stateMutability":"payable"},{"type":"function","name":"registerWithErc20Fee","inputs":[{"name":"tokenAddress","type":"address","internalType":"address"},{"name":"nodeId","type":"string","internalType":"string"},{"name":"blsProofOfPossession","type":"bytes","internalType":"bytes"},{"name":"validationDuration","type":"uint256","internalType":"uint256"}],"outputs":[],"stateMutability":"nonpayable"},{"type":"function","name":"registerWithPrevalidatedQiStake","inputs":[{"name":"beneficiary","type":"address","internalType":"address"},{"name":"nodeId","type":"string","internalType":"string"},{"name":"blsProofOfPossession","type":"bytes","internalType":"bytes"},{"name":"validationDuration","type":"uint256","internalType":"uint256"},{"name":"qiAmount","type":"uint256","internalType":"uint256"}],"outputs":[],"stateMutability":"nonpayable"},{"type":"function","name":"registerWithStake","inputs":[{"name":"nodeId","type":"string","internalType":"string"},{"name":"blsProofOfPossession","type":"bytes","internalType":"bytes"},{"name":"validationDuration","type":"uint256","internalType":"uint256"}],"outputs":[],"stateMutability":"payable"},{"type":"function","name":"registerWithoutCollateral","inputs":[{"name":"nodeId","type":"string","internalType":"string"},{"name":"blsProofOfPossession","type":"bytes","internalType":"bytes"},{"name":"validationDuration","type":"uint256","internalType":"uint256"}],"outputs":[],"stateMutability":"nonpayable"},{"type":"function","name":"registeredNodeIdsByAccount","inputs":[{"name":"","type":"address","internalType":"address"},{"name":"","type":"uint256","internalType":"uint256"}],"outputs":[{"name":"","type":"string","internalType":"string"}],"stateMutability":"view"},{"type":"function","name":"registrationIndicesByNodeId","inputs":[{"name":"","type":"string","internalType":"string"}],"outputs":[{"name":"","type":"uint256","internalType":"uint256"}],"stateMutability":"view"},{"type":"function","name":"registrations","inputs":[{"name":"","type":"uint256","internalType":"uint256"}],"outputs":[{"name":"registerer","type":"address","internalType":"address"},{"name":"nodeId","type":"string","internalType":"string"},{"name":"validationDuration","type":"uint256","internalType":"uint256"},{"name":"feePaid","type":"bool","internalType":"bool"},{"name":"tokenDeposits","type":"tuple","internalType":"struct IgniteStorage.TokenDepositDetails","components":[{"name":"avaxAmount","type":"uint256","internalType":"uint256"},{"name":"token","type":"address","internalType":"address"},{"name":"tokenAmount","type":"uint256","internalType":"uint256"}]},{"name":"rewardAmount","type":"uint256","internalType":"uint256"},{"name":"qiSlashPercentage","type":"uint256","internalType":"uint256"},{"name":"avaxSlashPercentage","type":"uint256","internalType":"uint256"},{"name":"slashed","type":"bool","internalType":"bool"},{"name":"withdrawable","type":"bool","internalType":"bool"}],"stateMutability":"view"},{"type":"function","name":"releaseLockedTokens","inputs":[{"name":"nodeId","type":"string","internalType":"string"},{"name":"failed","type":"bool","internalType":"bool"}],"outputs":[],"stateMutability":"payable"},{"type":"function","name":"removePaymentToken","inputs":[{"name":"token","type":"address","internalType":"address"}],"outputs":[],"stateMutability":"nonpayable"},{"type":"function","name":"renounceRole","inputs":[{"name":"role","type":"bytes32","internalType":"bytes32"},{"name":"account","type":"address","internalType":"address"}],"outputs":[],"stateMutability":"nonpayable"},{"type":"function","name":"revokeRole","inputs":[{"name":"role","type":"bytes32","internalType":"bytes32"},{"name":"account","type":"address","internalType":"address"}],"outputs":[],"stateMutability":"nonpayable"},{"type":"function","name":"sAVAX","inputs":[],"outputs":[{"name":"","type":"address","internalType":"contract IStakedAvax"}],"stateMutability":"view"},{"type":"function","name":"setAvaxDepositRange","inputs":[{"name":"newMinimumAvaxDeposit","type":"uint256","internalType":"uint256"},{"name":"newMaximumAvaxDeposit","type":"uint256","internalType":"uint256"}],"outputs":[],"stateMutability":"nonpayable"},{"type":"function","name":"setAvaxSlashPercentage","inputs":[{"name":"newPercentage","type":"uint256","internalType":"uint256"}],"outputs":[],"stateMutability":"nonpayable"},{"type":"function","name":"setMaximumSubsidisationAmount","inputs":[{"name":"newMaximumSubsidisationAmount","type":"uint256","internalType":"uint256"}],"outputs":[],"stateMutability":"nonpayable"},{"type":"function","name":"setQiPriceMultiplier","inputs":[{"name":"newQiPriceMultiplier","type":"uint256","internalType":"uint256"}],"outputs":[],"stateMutability":"nonpayable"},{"type":"function","name":"setQiSlashPercentage","inputs":[{"name":"newPercentage","type":"uint256","internalType":"uint256"}],"outputs":[],"stateMutability":"nonpayable"},{"type":"function","name":"setValidatorRewarder","inputs":[{"name":"newValidatorRewarder","type":"address","internalType":"address"}],"outputs":[],"stateMutability":"nonpayable"},{"type":"function","name":"supportsInterface","inputs":[{"name":"interfaceId","type":"bytes4","internalType":"bytes4"}],"outputs":[{"name":"","type":"bool","internalType":"bool"}],"stateMutability":"view"},{"type":"function","name":"totalSubsidisedAmount","inputs":[],"outputs":[{"name":"","type":"uint256","internalType":"uint256"}],"stateMutability":"view"},{"type":"function","name":"unpause","inputs":[],"outputs":[],"stateMutability":"nonpayable"},{"type":"function","name":"validatorRewarder","inputs":[],"outputs":[{"name":"","type":"address","internalType":"contract ValidatorRewarder"}],"stateMutability":"view"},{"type":"function","name":"withdraw","inputs":[{"name":"amount","type":"uint256","internalType":"uint256"}],"outputs":[],"stateMutability":"nonpayable"},{"type":"event","name":"AvaxDepositRangeUpdated","inputs":[{"name":"oldMinimumAvaxDeposit","type":"uint256","indexed":false,"internalType":"uint256"},{"name":"newMinimumAvaxDeposit","type":"uint256","indexed":false,"internalType":"uint256"},{"name":"oldMaximumAvaxDeposit","type":"uint256","indexed":false,"internalType":"uint256"},{"name":"newMaximumAvaxDeposit","type":"uint256","indexed":false,"internalType":"uint256"}],"anonymous":false},{"type":"event","name":"AvaxSlashPercentageChanged","inputs":[{"name":"oldPercentage","type":"uint256","indexed":false,"internalType":"uint256"},{"name":"newPercentage","type":"uint256","indexed":false,"internalType":"uint256"}],"anonymous":false},{"type":"event","name":"Initialized","inputs":[{"name":"version","type":"uint8","indexed":false,"internalType":"uint8"}],"anonymous":false},{"type":"event","name":"MaximumSubsidisationAmountChanged","inputs":[{"name":"oldMaximumSubsidisationAmount","type":"uint256","indexed":false,"internalType":"uint256"},{"name":"newMaximumSubsidisationAmount","type":"uint256","indexed":false,"internalType":"uint256"}],"anonymous":false},{"type":"event","name":"NewRegistration","inputs":[{"name":"registerer","type":"address","indexed":false,"internalType":"address"},{"name":"nodeId","type":"string","indexed":false,"internalType":"string"},{"name":"blsProofOfPossession","type":"bytes","indexed":false,"internalType":"bytes"},{"name":"validationDuration","type":"uint256","indexed":false,"internalType":"uint256"},{"name":"feePaid","type":"bool","indexed":false,"internalType":"bool"},{"name":"avaxAmount","type":"uint256","indexed":false,"internalType":"uint256"},{"name":"token","type":"address","indexed":false,"internalType":"address"},{"name":"tokenAmount","type":"uint256","indexed":false,"internalType":"uint256"}],"anonymous":false},{"type":"event","name":"Paused","inputs":[{"name":"account","type":"address","indexed":false,"internalType":"address"}],"anonymous":false},{"type":"event","name":"PaymentTokenAdded","inputs":[{"name":"token","type":"address","indexed":false,"internalType":"address"}],"anonymous":false},{"type":"event","name":"PaymentTokenRemoved","inputs":[{"name":"token","type":"address","indexed":false,"internalType":"address"}],"anonymous":false},{"type":"event","name":"PriceFeedChanged","inputs":[{"name":"token","type":"address","indexed":false,"internalType":"address"},{"name":"oldFeed","type":"address","indexed":false,"internalType":"address"},{"name":"newFeed","type":"address","indexed":false,"internalType":"address"},{"name":"oldMaxPriceAge","type":"uint256","indexed":false,"internalType":"uint256"},{"name":"newMaxPriceAge","type":"uint256","indexed":false,"internalType":"uint256"}],"anonymous":false},{"type":"event","name":"QiPriceMultiplierUpdated","inputs":[{"name":"oldQiPriceMultiplier","type":"uint256","indexed":false,"internalType":"uint256"},{"name":"newQiPriceMultiplier","type":"uint256","indexed":false,"internalType":"uint256"}],"anonymous":false},{"type":"event","name":"QiSlashPercentageChanged","inputs":[{"name":"oldPercentage","type":"uint256","indexed":false,"internalType":"uint256"},{"name":"newPercentage","type":"uint256","indexed":false,"internalType":"uint256"}],"anonymous":false},{"type":"event","name":"Redeem","inputs":[{"name":"nodeId","type":"string","indexed":false,"internalType":"string"},{"name":"avaxAmount","type":"uint256","indexed":false,"internalType":"uint256"},{"name":"token","type":"address","indexed":false,"internalType":"address"},{"name":"tokenAmount","type":"uint256","indexed":false,"internalType":"uint256"}],"anonymous":false},{"type":"event","name":"RegistrationDeleted","inputs":[{"name":"nodeId","type":"string","indexed":false,"internalType":"string"}],"anonymous":false},{"type":"event","name":"RegistrationExpired","inputs":[{"name":"nodeId","type":"string","indexed":false,"internalType":"string"}],"anonymous":false},{"type":"event","name":"RoleAdminChanged","inputs":[{"name":"role","type":"bytes32","indexed":true,"internalType":"bytes32"},{"name":"previousAdminRole","type":"bytes32","indexed":true,"internalType":"bytes32"},{"name":"newAdminRole","type":"bytes32","indexed":true,"internalType":"bytes32"}],"anonymous":false},{"type":"event","name":"RoleGranted","inputs":[{"name":"role","type":"bytes32","indexed":true,"internalType":"bytes32"},{"name":"account","type":"address","indexed":true,"internalType":"address"},{"name":"sender","type":"address","indexed":true,"internalType":"address"}],"anonymous":false},{"type":"event","name":"RoleRevoked","inputs":[{"name":"role","type":"bytes32","indexed":true,"internalType":"bytes32"},{"name":"account","type":"address","indexed":true,"internalType":"address"},{"name":"sender","type":"address","indexed":true,"internalType":"address"}],"anonymous":false},{"type":"event","name":"Unpaused","inputs":[{"name":"account","type":"address","indexed":false,"internalType":"address"}],"anonymous":false},{"type":"event","name":"ValidatorRewarded","inputs":[{"name":"nodeId","type":"string","indexed":false,"internalType":"string"},{"name":"amount","type":"uint256","indexed":false,"internalType":"uint256"}],"anonymous":false},{"type":"event","name":"ValidatorSlashed","inputs":[{"name":"nodeId","type":"string","indexed":false,"internalType":"string"},{"name":"qiAmount","type":"uint256","indexed":false,"internalType":"uint256"},{"name":"avaxAmount","type":"uint256","indexed":false,"internalType":"uint256"}],"anonymous":false},{"type":"event","name":"Withdraw","inputs":[{"name":"amount","type":"uint256","indexed":false,"internalType":"uint256"}],"anonymous":false}],"bytecode":{"object":"0x608080604052346015576159a2908161001a8239f35b5f80fdfe6080806040526004361015610012575f80fd5b5f905f3560e01c90816301ffc9a714613bbc575080630c8c790014613b9e5780630ffbccdb14613b465780631679a96514613ad4578063190e9d4114613a455780631a75365714613a1c5780631df1a43314613357578063248a9ca3146133235780632576eed1146133045780632dbecc1a146132e65780632e1a7d4d146131f55780632f2ff15d146131355780633153caeb14613100578063341030f0146130c557806336568abe14613032578063395cc51214612ef75780633b72214414612e275780633cb8beb014612dab5780633f24a8e514612d7c5780633f4ba83a14612cae57806348e2678f146129735780634b7e23dc146129385780634bcad6f21461291a5780634ff0241a146128df57806353cc04a11461282057806358aa9000146128025780635b499a97146127b05780635c975abb1461278d5780635d36f34f1461271a5780635f4c5d33146126da5780635fa9237a146126bb5780635fcd62551461269157806375e271861461267257806378a66f15146126535780637d1aacad146120a25780638028673714611cf75780638079336c14611cd95780638456cb5914611c4557806384f826c714611bc15780638500bc8914611b295780638567a2e5146113a55780638d01d1c51461138657806391d148541461133c5780639922b43b1461131d5780639dcb511a146112dc578063a217fddf146112c0578063a2a5236c14611297578063a5125421146111a4578063a9316fd21461116a578063ac966e1514610cda578063ad18f0da14610866578063b59f091e14610837578063b6d1d67b146107bb578063bd65581e14610781578063c8fc9e4e14610746578063c92f58b214610727578063ce33992314610709578063d0c63d35146106d0578063d547741f14610689578063d964c25a1461064e578063d9723ea714610619578063d9ea5b03146104a3578063e34df3c114610484578063ebd0905414610455578063efe867e21461041a578063f38b8411146103fb5763f4ddb5be146102ff575f80fd5b346103f85760203660031901126103f857600435610101548110156103f45761032790613f02565b5080546001600160a01b031661033f60018301613e62565b9160ff600282015491816003820154169061035c60048201613f20565b60078201546103c8600884015492600a6009860154950154956103936040519b8c9b8c5261018060208d01526101808c0190613dc1565b60408b81019a909a5290151560608b0152815160808b015260208201516001600160a01b031660a08b015297015160c0890152565b60e0870152610100860152610120850152818116151561014085015260081c1615156101608301520390f35b5080fd5b80fd5b50346103f857806003193601126103f85760206040516301e133808152f35b50346103f857806003193601126103f85760206040517fbb4ab89723950398fbe0f1fe11ab060da193cf1f8b664c9831ac485bec8c6ca98152f35b50346103f857806003193601126103f857602060405173aaaaaaaaaaaaaaaaaaaaaaaaaaaaaaaaaaaaaaaa8152f35b50346103f857806003193601126103f857602061010654604051908152f35b50346103f8576104b236613d4f565b909183805260656020526040842060018060a01b0333165f5260205260ff60405f20541615610615576001600160a01b0390811680855260fd602090815260408087205483885260fe90925286205494921692909183156105c95782865260fd6020908152604080882080546001600160a01b0319166001600160a01b0394909416938417905584885260fe90915280872083905551633fabe5a360e21b81529094908660a0826004818a5afa91821561060857819082936105d1575b5013156105cd57610581839142613f7e565b116105c9577fcb61de73a9b971ce0608f81d0ce8617289d2a44503653d2c16693dc08bc0db2d9460a0946040519485526020850152604084015260608301526080820152a180f35b8580fd5b8680fd5b90506105f691925060a03d60a011610601575b6105ee8183613c9f565b810190614635565b50939250505f61056f565b503d6105e4565b50604051903d90823e3d90fd5b8380fd5b50346103f8576020808061062c36613d11565b604051928184925191829101835e810161010481520301902054604051908152f35b50346103f857806003193601126103f85760206040517f8a8d1de1c18abb94a793a1c642e9153de53c830daa68b212d4eb80a0fed540518152f35b50346103f85760403660031901126103f8576106cd6004356106a9613c52565b906106c86106c3825f526065602052600160405f20015490565b61536f565b6155b4565b80f35b50346103f85760203660031901126103f8576020906040906001600160a01b036106f8613c3c565b16815260fe83522054604051908152f35b50346103f857806003193601126103f85760206040516249d4008152f35b50346103f857806003193601126103f857602061010a54604051908152f35b50346103f857806003193601126103f85760206040517f6ef8b52debbf584bbeee3d104b589533cc529f3789bdbc2bae3dabb3fcde96f68152f35b50346103f857602060ff818061079636613d11565b604051928184925191829101835e810161010f81520301902054166040519015158152f35b50346103f85760203660031901126103f857808052606560209081526040808320335f90815292529020546004359060ff16156103f45761271081116103f45760407feb1cee51f4786b91756ab6e79cde8b4ae39e831e78f9ef5d813b9e40d37883b7916101075490806101075582519182526020820152a180f35b50346103f857806003193601126103f857602060405173eeeeeeeeeeeeeeeeeeeeeeeeeeeeeeeeeeeeeeee8152f35b50346103f8576101003660031901126103f857610881613c3c565b610889613c52565b6044356001600160a01b038116929083900361061557606435906084356001600160a01b038116908190036105c95760a4359160c4359360e4359588549260ff8460081c16159889809a610ccd575b8015610cb6575b15610c5a5760ff1985166001178b558a948a610c49575b50888811610c455760049260a09261093d60ff885460081c1661091881615635565b61092181615635565b61092a81615635565b600160975561093881615635565b615635565b60ff1960c9541660c955868052606560205260408720600180861b0333165f5260205260ff60405f20541615610bf1575b600180851b03166001600160601b03841b60ff54161760ff55600180841b0316806001600160601b03841b610100541617610100556109b360ff875460081c16615635565b73eeeeeeeeeeeeeeeeeeeeeeeeeeeeeeeeeeeeeeee865260fd60205260408620600180851b0383166001600160601b03851b82541617905580865260fd60205260408620600180851b0388166001600160601b03851b82541617905573eeeeeeeeeeeeeeeeeeeeeeeeeeeeeeeeeeeeeeee865260fe602052846040872055855260fe60205286604086205560405192838092633fabe5a360e21b82525afa908115610be657839081908293610bbf575b501315610bbb57610a749042613f7e565b116103f85760a060049260405193848092633fabe5a360e21b82525afa9182156106085781908293610b94575b5013156105c957610ab29042613f7e565b116106155761010a5561010b5561138861010755690a968163f0a57b4000006101065561271061010c55610b56604051610aeb81613c84565b83815283602082015283604082015260405190610b0782613c68565b848252604051610b18602082613c9f565b858152602083015284604083015284606083015260808201528360a08201528360c08201528360e08201528361010082015283610120820152614adf565b610b5d5780f35b61ff001981541681557f7f26b83ff96e1f2b6a682f133852f6798a09c465da95921460cefb3847402498602060405160018152a180f35b9050610bb091925060a03d60a011610601576105ee8183613c9f565b50939250505f610aa1565b8280fd5b9050610bdb91925060a03d60a011610601576105ee8183613c9f565b50939250505f610a63565b6040513d85823e3d90fd5b868052606560205260408720600180861b0333165f5260205260405f20600160ff198254161790553333887f2f8788117e7eff1d82e926ec794901d17c78024a50270940304540a733656f0d8180a461096e565b8480fd5b61ffff19166101011785555f6108f6565b60405162461bcd60e51b815260206004820152602e60248201527f496e697469616c697a61626c653a20636f6e747261637420697320616c72656160448201526d191e481a5b9a5d1a585b1a5e995960921b6064820152608490fd5b50303b1580156108df5750600160ff8616146108df565b50600160ff8616106108d8565b50346103f857610ce936613de5565b90949392917f8b6dced259e7c22d2c562be416e2454fe4c41318f8581c10be50deaca96d3536855260656020526040852060018060a01b0333165f5260205260ff60405f20541615610c4557621275008210158061115c575b1561111357610d4f614ca7565b6040518385823760208185810161010281520301902054158061110a575b156110c557610101546040518486823760208186810161010281520301902055610e08604051610d9c81613c84565b86815286602082015286604082015261010754610108549060405192610dc184613c68565b338452610dcf36898b613cdb565b602085015286604085015289606085015260808401528860a084015260c083015260e08201528661010082015286610120820152614adf565b6040518385823760208185810161010d8152030190206001600160401b03871161101c57610e4087610e3a8354613d89565b836149d8565b8587601f81116001146110635780610e6c928991611058575b508160011b915f199060031b1c19161790565b90555b6040518385823760208185810161010f81520301902060ff1981541690553385526101036020526040852054604051848682376020818681016101048152030190205533855261010360205260408520805490600160401b8210156110445790610ede91600182018155613e39565b969096611030576001600160401b03841161101c57610f0784610f018954613d89565b896149d8565b8596601f8511600114610fa75790610f789291610f4886808a9b5f8051602061594d8339815191529b91610f9c57508160011b915f199060031b1c19161790565b90555b610f6a6040519687963388526101006020890152610100880191613f51565b918583036040870152613f51565b9060608301528460808301528460a08301528460c08301528460e08301520390a180f35b90508901355f610e59565b80875260208720601f198616885b8181106110045750905f8051602061594d833981519152989987610f789695949310610feb575b5050600186811b019055610f4b565b8801355f19600389901b60f8161c191690555f80610fdc565b888b0135835560209a8b019a60019093019201610fb5565b634e487b7160e01b86526041600452602486fd5b634e487b7160e01b86526004869052602486fd5b634e487b7160e01b87526041600452602487fd5b90508401355f610e59565b50818752602087209088601f198116895b8181106110aa575010611091575b5050600187811b019055610e6f565b8301355f1960038a901b60f8161c191690555f80611082565b8684013585556001909401936020938401938c935001611074565b60405162461bcd60e51b815260206004820152601760248201527f4e6f646520616c726561647920726567697374657265640000000000000000006044820152606490fd5b50821515610d6d565b60405162461bcd60e51b815260206004820152601b60248201527f496e76616c69642076616c69646174696f6e206475726174696f6e00000000006044820152606490fd5b0390fd5b506301e13380821115610d42565b50346103f85760203660031901126103f8576020906040906001600160a01b03611192613c3c565b16815261010383522054604051908152f35b50346103f85760203660031901126103f8576111be613c3c565b818052606560209081526040808420335f908152925290205460ff16156103f4576001600160a01b03165f81815260fc6020526040902054156103f45760208173eeeeeeeeeeeeeeeeeeeeeeeeeeeeeeeeeeeeeeee7f85a3e72f8dd6db3794f93109c3c5f5b79d6112f6979431c45f98b26134b42af293141580611281575b611256575b61124b816157f1565b50604051908152a180f35b80845260fd8252604080852080546001600160a01b031916905581855260fe83528420849055611242565b50610100546001600160a01b031681141561123d565b50346103f857806003193601126103f85760ff546040516001600160a01b039091168152602090f35b50346103f857806003193601126103f857602090604051908152f35b50346103f85760203660031901126103f8576020906001600160a01b03611301613c3c565b16815260fd8252604060018060a01b0391205416604051908152f35b50346103f857806003193601126103f857602061010b54604051908152f35b50346103f85760403660031901126103f8576040611358613c52565b9160043581526065602052209060018060a01b03165f52602052602060ff60405f2054166040519015158152f35b50346103f857806003193601126103f857602061010554604051908152f35b50346103f85760803660031901126103f8576113bf613c3c565b906024356001600160401b0381116103f4576113df903690600401613c0f565b6044356001600160401b038111610615576113fe903690600401613c0f565b94906064359161140c614ceb565b611414614ca7565b6001600160a01b03165f81815260fc6020526040902054156105c95773eeeeeeeeeeeeeeeeeeeeeeeeeeeeeeeeeeeeeeee865260fd6020526040808720549051633fabe5a360e21b81529060a090829060049082906001600160a01b03165afa8015611b1e579060049188918991611af8575b5083895260fd6020526040808a20549051633fabe5a360e21b81529360a09185919082906001600160a01b03165afa908115611aed5789938a92611ac4575b5089831380611abb575b15611ab7576114df9042613f7e565b73eeeeeeeeeeeeeeeeeeeeeeeeeeeeeeeeeeeeeeee8a5260fe60205260408a205410611ab35761150f9042613f7e565b83895260fe602052604089205410611a9c579061153861153d9261153287614c06565b90613fba565b613fcd565b60405163313ce56760e01b8152602081600481865afa8015611aa8578890611a67575b60ff91501660120360ff8111611a535760ff16604d8111611a53579061158991600a0a90613fcd565b610100549092906001600160a01b03168214611a3a575b82156105cd576115b28330338561532b565b61010554686c6b935b8bbd400000810190818111611978576101065482116119f55762127500861480156119e9575b80156119dd575b80156119d1575b1561198c5781106119785761010555611606614ca7565b6040518587823760208187810161010281520301902054158061196f575b156110c5576101015460405186888237602081888101610102815203019020556116c060405161165381613c84565b8881528360208201528460408201526101075461010854906040519261167884613c68565b338452611686368b8d613cdb565b60208501528860408501526001606085015260808401528a60a084015260c083015260e08201528861010082015288610120820152614adf565b6040518587823760208187810161010d8152030190206001600160401b0389116118d1576116f289610e3a8354613d89565b8789601f811160011461190d578061171d928b9161105857508160011b915f199060031b1c19161790565b90555b6040518587823760208187810161010f81520301902060ff1981541690553387526101036020526040872054604051868882376020818881016101048152030190205533875261010360205260408720805490600160401b8210156118f9579061178f91600182018155613e39565b9890986118e5576001600160401b0386116118d1576117b8866117b28b54613d89565b8b6149d8565b8798601f871160011461185c579061182992916117f988808c9d5f8051602061594d8339815191529d9161185157508160011b915f199060031b1c19161790565b90555b61181b604051988998338a5261010060208b01526101008a0191613f51565b918783036040890152613f51565b926060850152600160808501528660a085015260c084015260e08301520390a1600160975580f35b90508b01355f610e59565b80895260208920601f1988168a5b8181106118b95750905f8051602061594d8339815191529a9b8961182996959493106118a0575b5050600188811b0190556117fc565b8a01355f1960038b901b60f8161c191690555f80611891565b8a8d0135835560209c8d019c6001909301920161186a565b634e487b7160e01b88526041600452602488fd5b634e487b7160e01b88526004889052602488fd5b634e487b7160e01b89526041600452602489fd5b5081895260208920908a601f1981168b5b81811061195457501061193b575b5050600189811b019055611720565b8301355f1960038c901b60f8161c191690555f8061192c565b8684013585556001909401936020938401938e93500161191e565b50841515611624565b634e487b7160e01b5f52601160045260245ffd5b60405162461bcd60e51b815260206004820152601860248201527f496e76616c6964207374616b696e67206475726174696f6e00000000000000006044820152606490fd5b50626ebe0086146115ef565b506249d40086146115e8565b506224ea0086146115e1565b60405162461bcd60e51b815260206004820152601a60248201527f53756273696469736174696f6e206361702065786365656465640000000000006044820152606490fd5b91611a4c6127109161010c5490613fba565b04916115a0565b634e487b7160e01b88526011600452602488fd5b506020813d602011611aa0575b81611a8160209383613c9f565b81010312611a9c575160ff81168103611a9c5760ff90611560565b8780fd5b3d9150611a74565b6040513d8a823e3d90fd5b8880fd5b8980fd5b508984136114d0565b909350611ae0915060a03d60a011610601576105ee8183613c9f565b509492505092905f6114c6565b6040513d8b823e3d90fd5b9050611b13915060a03d60a011610601576105ee8183613c9f565b50925050905f611487565b6040513d89823e3d90fd5b50346103f85760403660031901126103f85760043560243582805260656020526040832060018060a01b0333165f5260205260ff60405f20541615610bbb57808211610bbb577f32f07544d40b6594a49132ac8f5e83e155ea95048a4793168328979fbe18be1f9160809161010a549161010b54908061010a558261010b55604051938452602084015260408301526060820152a180f35b50346103f85760403660031901126103f857611bdb613c3c565b6001600160a01b0316815261010360205260408120805460243590811015610bbb57611c0691613e39565b919091611c3157611c2d611c1983613e62565b604051918291602083526020830190613dc1565b0390f35b634e487b7160e01b81526004819052602490fd5b50346103f857806003193601126103f8577ff146182d150a5b368b6d283f87aeae1f25c21b02ff55cf16848704ade176a5cb8152606560209081526040808320335f908152925290205460ff16156103f857611c9f614ca7565b600160ff1960c954161760c9557f62e78cea01bee320cd4e420270b5ea74000d11b0c9f74754ebdbfc544b05a2586020604051338152a180f35b50346103f857806003193601126103f8576020604051621275008152f35b50611d0136613de5565b9094939291611d0e614ceb565b611d16614ca7565b611d1f82614c06565b8034036105c9578580808080335af1611d36613f8b565b50156105c957611d499061010954613f71565b6101095561010554686c6b935b8bbd400000810190818111611978576101065482116119f5576212750084148015612096575b801561208a575b801561207e575b1561198c5781106119785761010555611da1614ca7565b60405183858237602081858101610102815203019020541580612075575b156110c557610101546040518486823760208186810161010281520301902055611e5b604051611dee81613c84565b34815286602082015286604082015261010754610108549060405192611e1384613c68565b338452611e2136898b613cdb565b60208501528660408501526001606085015260808401528860a084015260c083015260e08201528661010082015286610120820152614adf565b6040518385823760208185810161010d8152030190206001600160401b03871161101c57611e8d87610e3a8354613d89565b8587601f81116001146120135780611eb892899161105857508160011b915f199060031b1c19161790565b90555b6040518385823760208185810161010f81520301902060ff1981541690553385526101036020526040852054604051848682376020818681016101048152030190205533855261010360205260408520805490600160401b8210156110445790611f2a91600182018155613e39565b969096611030576001600160401b03841161101c57611f4d84610f018954613d89565b8596601f8511600114611fb85790611f8e9291610f4886808a9b5f8051602061594d8339815191529b91610f9c57508160011b915f199060031b1c19161790565b906060830152600160808301523460a08301528460c08301528460e08301520390a1600160975580f35b80875260208720601f198616885b818110611ffb5750905f8051602061594d833981519152989987611f8e9695949310610feb575050600186811b019055610f4b565b888b0135835560209a8b019a60019093019201611fc6565b50818752602087209088601f198116895b81811061205a575010612041575b5050600187811b019055611ebb565b8301355f1960038a901b60f8161c191690555f80612032565b8684013585556001909401936020938401938c935001612024565b50821515611dbf565b50626ebe008414611d8a565b506249d4008414611d83565b506224ea008414611d7c565b506120ac36613de5565b90949392916120b9614ceb565b61010a5434101580612646575b80612638575b15612603578480808080335af16120e1613f8b565b5015610c455773eeeeeeeeeeeeeeeeeeeeeeeeeeeeeeeeeeeeeeee855260fd6020526040808620549051633fabe5a360e21b81529060a090829060049082906001600160a01b03165afa9182156125f857869187936125d0575b50610100546001600160a01b0390811680895260fd6020526040808a20549051633fabe5a360e21b81529195919260a09184916004918391165afa908115611aed5789928a926125a7575b508983138061259e575b15611ab75761219f9042613f7e565b73eeeeeeeeeeeeeeeeeeeeeeeeeeeeeeeeeeeeeeee8a5260fe60205260408a205410611ab3576121cf9042613f7e565b84895260fe602052604089205410611a9c5734686c6b935b8bbd4000000392686c6b935b8bbd400000841161258a57600a916115388561220e93613fba565b04928315611a9c5783612224913090339061532b565b61010054610105546001600160a01b03909116926122428183613f71565b61010654106119f557621275008614801561257e575b8015612572575b8015612566575b1561198c5761227491613f71565b61010555612280614ca7565b6040518587823760208187810161010281520301902054158061255d575b156110c5576101015460405186888237602081888101610102815203019020556123396040516122cd81613c84565b348152836020820152846040820152610107546101085490604051926122f284613c68565b338452612300368b8d613cdb565b60208501528860408501528b606085015260808401528a60a084015260c083015260e08201528861010082015288610120820152614adf565b6040518587823760208187810161010d8152030190206001600160401b0389116118d15761236b89610e3a8354613d89565b8789601f81116001146124fb5780612396928b9161105857508160011b915f199060031b1c19161790565b90555b6123c4876040518789823760208189810161010f8152030190209060ff801983541691151516179055565b3387526101036020526040872054604051868882376020818881016101048152030190205533875261010360205260408720805490600160401b8210156118f9579061241591600182018155613e39565b9890986118e5576001600160401b0386116118d157612438866117b28b54613d89565b8798601f87116001146124a0579061247992916117f988808c9d5f8051602061594d8339815191529d9161185157508160011b915f199060031b1c19161790565b9260608501528660808501523460a085015260c084015260e08301520390a1600160975580f35b80895260208920601f1988168a5b8181106124e35750905f8051602061594d8339815191529a9b8961247996959493106118a0575050600188811b0190556117fc565b8a8d0135835560209c8d019c600190930192016124ae565b5081895260208920908a601f1981168b5b818110612542575010612529575b5050600189811b019055612399565b8301355f1960038c901b60f8161c191690555f8061251a565b8684013585556001909401936020938401938e93500161250c565b5084151561229e565b50626ebe008614612266565b506249d400861461225f565b506224ea008614612258565b634e487b7160e01b89526011600452602489fd5b50828513612190565b9092506125c3915060a03d60a011610601576105ee8183613c9f565b509392505091905f612186565b9092506125ec915060a03d60a011610601576105ee8183613c9f565b5092505090915f61213b565b6040513d88823e3d90fd5b60405162461bcd60e51b815260206004820152600d60248201526c496e76616c69642076616c756560981b6044820152606490fd5b50633b9aca003406156120cc565b5061010b543411156120c6565b50346103f857806003193601126103f857602061010954604051908152f35b50346103f857806003193601126103f857602061010754604051908152f35b50346103f857806003193601126103f857610100546040516001600160a01b039091168152602090f35b50346103f857806003193601126103f857602061010854604051908152f35b50346103f857806003193601126103f857610101545f1981019190821161270657602082604051908152f35b634e487b7160e01b81526011600452602490fd5b50346103f85760203660031901126103f857808052606560209081526040808320335f90815292529020546004359060ff16156103f45760407f3e0916468971c6a0496bb9e570a6490523f6f34b85407a78e713c5d0287fb898916101065490806101065582519182526020820152a180f35b50346103f857806003193601126103f857602060ff60c954166040519015158152f35b50346103f85760203660031901126103f8576004356001600160401b0381116103f4576127e46127fa913690600401613c0f565b906127ed614ceb565b6127f5614ca7565b614692565b600160975580f35b50346103f857806003193601126103f857602060fb54604051908152f35b50346103f857806003193601126103f85760405180602060fb549182815201809160fb85527f3e7257b7272bb46d49cd6019b04ddee20da7c0cb13f7c1ec3391291b2ccebabc90855b8181106128c9575050508261287f910383613c9f565b604051928392602084019060208552518091526040840192915b8181106128a7575050500390f35b82516001600160a01b0316845285945060209384019390920191600101612899565b8254845260209093019260019283019201612869565b50346103f857806003193601126103f85760206040517ff146182d150a5b368b6d283f87aeae1f25c21b02ff55cf16848704ade176a5cb8152f35b50346103f857806003193601126103f8576020604051626ebe008152f35b50346103f857806003193601126103f85760206040517f0f9dd4db10c87ffcc337f44200a5df16e545591d09c12f63c158b3d592fcf1888152f35b50346103f85760603660031901126103f85761298d613c3c565b60443560243561299d8183613f7e565b926129a784614667565b936129b56040519586613c9f565b8085526129c4601f1991614667565b01855b818110612c395750506001600160a01b0316815b838110612adf5784866040519182916020830160208452825180915260408401602060408360051b870101940192905b828210612a1a57505050500390f35b919360019193955060208091603f19898203018552875190848060a01b038251168152610160610120612a5c8585015161018087860152610180850190613dc1565b6040808601518582015260608087015115159086015260808087015180519187019190915260208101516001600160a01b031660a0870152015160c08501529360a081015160e085015260c081015161010085015260e0810151828501526101008101511515610140850152015115159101529601920192018594939192612a0b565b818652610103602052612af58160408820613e39565b50604051908790805490612b0882613d89565b9160018116908115612c205750600114612bec575b5050612b3c8260206001959484610102612be596520301902054613f02565b50612b478684613f7e565b9060ff600a60405192612b5984613c68565b878060a01b038154168452612b6f888201613e62565b6020850152600281015460408501528260038201541615156060850152612b9860048201613f20565b6080850152600781015460a0850152600881015460c0850152600981015460e08501520154818116151561010084015260081c161515610120820152612bde828a61467e565b528761467e565b50016129db565b90915088526020882088905b828210612c0c5750508101612b3c82612b1d565b600181602092548487015201910190612bf8565b60ff1916855250508015150282019050612b3c82612b1d565b602090604095939551612c4b81613c68565b888152606083820152886040820152886060820152604051612c6c81613c84565b898152898482015289604082015260808201528860a08201528860c08201528860e08201528861010082015288610120820152828289010152019391936129c7565b50346103f857806003193601126103f8577f8a8d1de1c18abb94a793a1c642e9153de53c830daa68b212d4eb80a0fed540518152606560209081526040808320335f908152925290205460ff16156103f85760c95460ff811615612d405760ff191660c9557f5db9ee0a495bf2e6ff9c91a7834c1ba4fdd244a5e8aa4e537bd38aeae4b073aa6020604051338152a180f35b60405162461bcd60e51b815260206004820152601460248201527314185d5cd8589b194e881b9bdd081c185d5cd95960621b6044820152606490fd5b50346103f857806003193601126103f857602060405173bbbbbbbbbbbbbbbbbbbbbbbbbbbbbbbbbbbbbbbb8152f35b50346103f85760203660031901126103f857808052606560209081526040808320335f90815292529020546004359060ff16156103f45761271081116103f45760407f70a47d9b6bc76b08da6f8f076f24e0cb3e9c1bfb280f89f72d5e6fe1ffbff577916101085490806101085582519182526020820152a180f35b50346103f857602080612e3936613d11565b604051928184925191829101835e810161010d815203019020906040519181815491612e6483613d89565b8086529260018116908115612ecd5750600114612e8c575b611c2d85611c1981870382613c9f565b815260208120939250905b808210612eb357509091508101602001611c1982611c2d612e7c565b919260018160209254838588010152019101909291612e97565b869550611c2d96935060209250611c1994915060ff191682840152151560051b8201019293612e7c565b50346103f857612f0636613d4f565b909183805260656020526040842060018060a01b0333165f5260205260ff60405f20541615610615576001600160a01b03169182156106155783612f55845f5260fc60205260405f2054151590565b6103f85760049160a0906001600160a01b0316612f7186615786565b5085835260fd60205260408320600180841b0382166001600160601b03841b82541617905585835260fe60205284604084205560405193848092633fabe5a360e21b82525afa918215610608578190829361300b575b50131561061557612fd89042613f7e565b116103f45760207fa317c10673baf4f03b3c1041bd5ddbb537d0333a86fec3607c75f9dbb630f48f91604051908152a180f35b905061302791925060a03d60a011610601576105ee8183613c9f565b50939250505f612fc7565b50346103f85760403660031901126103f85761304c613c52565b336001600160a01b03821603613068576106cd906004356155b4565b60405162461bcd60e51b815260206004820152602f60248201527f416363657373436f6e74726f6c3a2063616e206f6e6c792072656e6f756e636560448201526e103937b632b9903337b91039b2b63360891b6064820152608490fd5b50346103f857806003193601126103f85760206040517f8b6dced259e7c22d2c562be416e2454fe4c41318f8581c10be50deaca96d35368152f35b50346103f8576020808061311336613d11565b604051928184925191829101835e810161010281520301902054604051908152f35b50346103f85760403660031901126103f857600435613152613c52565b9061316c6106c3825f526065602052600160405f20015490565b80835260656020526040832060018060a01b0383165f5260205260ff60405f20541615613197578280f35b8083526065602090815260408085206001600160a01b03949094165f81815294909252909220805460ff191660011790553391907f2f8788117e7eff1d82e926ec794901d17c78024a50270940304540a733656f0d8480a45f808280f35b50346103f85760203660031901126103f857600435613212614ca7565b7f0f9dd4db10c87ffcc337f44200a5df16e545591d09c12f63c158b3d592fcf1888252606560209081526040808420335f908152925290205460ff16156103f4578180808084335af1613263613f8b565b50156103f4574761010954116132a15760207f5b6b431d4476a211bb7d41c20d1aab9ae2321deee0d20be3d9fc9b1093fa6e3d91604051908152a180f35b60405162461bcd60e51b815260206004820152601960248201527f5769746864726177616c20616d6f756e7420746f6f20626967000000000000006044820152606490fd5b50346103f857806003193601126103f85760206040516224ea008152f35b50346103f857806003193601126103f857602061010c54604051908152f35b50346103f85760203660031901126103f857602061334f6004355f526065602052600160405f20015490565b604051908152f35b346139615760a036600319011261396157613370613c3c565b6024356001600160401b0381116139615761338f903690600401613c0f565b90916044356001600160401b038111613961576133b0903690600401613c0f565b335f9081527f1d9c10a110e512a468767bbda60d5ed76f4aa0c91f0ee0510c9ed05475ceff5e6020526040902054919460643592608435929060ff16156139c75773eeeeeeeeeeeeeeeeeeeeeeeeeeeeeeeeeeeeeeee5f5260fd6020527f1df3cf4ed468092b87e8c16b2ef9a90bb8699bfc400ae4ae97452a2c27c21ebe54604051633fabe5a360e21b81529060a090829060049082906001600160a01b03165afa908115613997575f905f926139a2575b50610100546001600160a01b039081165f81815260fd602052604090819020549051633fabe5a360e21b81529194919260a09184916004918391165afa908115613997575f925f9261396e575b505f841380613965575b15613961576134c89042613f7e565b73eeeeeeeeeeeeeeeeeeeeeeeeeeeeeeeeeeeeeeee5f5260fe6020527f0ae3abc66e4bda7b39b71e4319fbae3aaf530387468f7ee4237e76041ab137a05410613961576135159042613f7e565b835f5260fe60205260405f20541061396157680ae56f730e6d840000820291808304680ae56f730e6d84000014901517156119785761355391613fcd565b60098102908082046009149015171561197857600a90048410613961578361357e913090339061532b565b61010054610105546001600160a01b039091169290686c6b935b8bbd400000810190818111611978576101065482116119f5576212750087148015613955575b8015613949575b801561393d575b1561198c57811061197857610105556135e3614ca7565b60405187828237602081898101610102815203019020541580613934575b156110c55761010154604051888382376020818a8101610102815203019020556136a76040519661363188613c84565b5f88528460208901528560408901526101075461010854906040519261365684613c68565b6001600160a01b03168084529961366e368d88613cdb565b60208501528960408501525f606085015260808401525f60a084015260c083015260e08201525f6101008201525f610120820152614adf565b6040518782823760208189810161010d8152030190206001600160401b03831161389e576136d983610e3a8354613d89565b5f83601f81116001146138d05780613704925f916138c557508160011b915f199060031b1c19161790565b90555b6040518782823760208189810161010f815203019020600160ff19825416179055855f5261010360205260405f2054604051888382376020818a810161010481520301902055855f5261010360205260405f208054600160401b81101561389e5761377791600182018155613e39565b6138b2576001600160401b03881161389e5761379788610e3a8354613d89565b5f601f8911600114613824575f8051602061594d83398151915299926137f894926137da8b8061181b955f9161381957508160011b915f199060031b1c19161790565b90555b604051998a998a5261010060208b01526101008a0191613f51565b9260608501525f60808501525f60a085015260c084015260e08301520390a1005b90508401358f610e59565b601f19891690825f5260205f20915f5b81811061388657509261181b925f8051602061594d8339815191529c95928c6137f898961061386d575b505060018b811b0190556137dd565b8301355f1960038e901b60f8161c191690558c8061385e565b91926020600181928689013581550194019201613834565b634e487b7160e01b5f52604160045260245ffd5b634e487b7160e01b5f525f60045260245ffd5b90508b01358c610e59565b50601f19841690825f528460205f20925f5b8d82821061391a57505010613901575b5050600183811b019055613707565b8a01355f19600386901b60f8161c1916905589806138f2565b8401358555600190940193602093840193889350016138e2565b50861515613601565b50626ebe0087146135cc565b506249d40087146135c5565b506224ea0087146135be565b5f80fd5b505f83136134b9565b90925061398a915060a03d60a011610601576105ee8183613c9f565b509392505091908c6134af565b6040513d5f823e3d90fd5b90506139bd915060a03d60a011610601576105ee8183613c9f565b5092505089613462565b60405162461bcd60e51b815260206004820152602760248201527f524f4c455f52454749535445525f574954485f464c455849424c455f50524943604482015266455f434845434b60c81b6064820152608490fd5b34613961575f3660031901126139615761010e546040516001600160a01b039091168152602090f35b3461396157602036600319011261396157335f9081527fffdfc1249c027f9191656349feb0761381bb32c9f557e01f419fd08754bf5a1b60205260409020546004359060ff16156139615761271081116139615760407f243f5920d630b2ce83f8881e8e61dfba5c13da5a74bf035e6b28827571b29fa19161010c54908061010c5582519182526020820152a1005b3461396157602036600319011261396157613aed613c3c565b335f9081527fffdfc1249c027f9191656349feb0761381bb32c9f557e01f419fd08754bf5a1b602052604090205460ff16156139615761010e80546001600160a01b0319166001600160a01b0392909216919091179055005b6040366003190112613961576004356001600160401b03811161396157613b71903690600401613c0f565b60243590811515820361396157613b9792613b8a614ca7565b613b92614ceb565b613feb565b6001609755005b3461396157602036600319011261396157602061334f600435614c06565b34613961576020366003190112613961576004359063ffffffff60e01b821680920361396157602091637965db0b60e01b8114908115613bfe575b5015158152f35b6301ffc9a760e01b14905083613bf7565b9181601f84011215613961578235916001600160401b038311613961576020838186019501011161396157565b600435906001600160a01b038216820361396157565b602435906001600160a01b038216820361396157565b61014081019081106001600160401b0382111761389e57604052565b606081019081106001600160401b0382111761389e57604052565b90601f801991011681019081106001600160401b0382111761389e57604052565b6001600160401b03811161389e57601f01601f191660200190565b929192613ce782613cc0565b91613cf56040519384613c9f565b829481845281830111613961578281602093845f960137010152565b602060031982011261396157600435906001600160401b038211613961578060238301121561396157816024613d4c93600401359101613cdb565b90565b6060906003190112613961576004356001600160a01b038116810361396157906024356001600160a01b0381168103613961579060443590565b90600182811c92168015613db7575b6020831014613da357565b634e487b7160e01b5f52602260045260245ffd5b91607f1691613d98565b805180835260209291819084018484015e5f828201840152601f01601f1916010190565b6060600319820112613961576004356001600160401b0381116139615781613e0f91600401613c0f565b92909291602435906001600160401b03821161396157613e3191600401613c0f565b909160443590565b8054821015613e4e575f5260205f2001905f90565b634e487b7160e01b5f52603260045260245ffd5b9060405191825f825492613e7584613d89565b8084529360018116908115613ee05750600114613e9c575b50613e9a92500383613c9f565b565b90505f9291925260205f20905f915b818310613ec4575050906020613e9a928201015f613e8d565b6020919350806001915483858901015201910190918492613eab565b905060209250613e9a94915060ff191682840152151560051b8201015f613e8d565b61010154811015613e4e576101015f52600b60205f20910201905f90565b90604051613f2d81613c84565b8254815260018301546001600160a01b031660208201526002909201546040830152565b908060209392818452848401375f828201840152601f01601f1916010190565b9190820180921161197857565b9190820391821161197857565b3d15613fb5573d90613f9c82613cc0565b91613faa6040519384613c9f565b82523d5f602084013e565b606090565b8181029291811591840414171561197857565b8115613fd7570490565b634e487b7160e01b5f52601260045260245ffd5b335f9081527f550cf24ee8cd1238fbb5b2b003ba2815aa7078d8d1f9ebe8aa8f16716a18431f602052604090205490919060ff16156145eb57604051818382376020818381016101028152030190205480156145ad5761404a90613f02565b5092600a84019060ff825460081c16614568577f834288ca549398403511a8b546b7e4885ac51b98630c0ffa3a07858dc5d9e40d6040516020815280614094602082018789613f51565b0390a16144455760ff6003850154166143a257600484019081541580614396575b6143835761010061ff00198254161781558154686c6b935b8bbd40000003686c6b935b8bbd4000008111611978576140f09061010554613f7e565b6101055560ff6040518486823760208186810161010f81520301902054165f1461418a575050346139615761416860067fc7b0487e0a21287b5a35f7ddf5ed5d8e9d30338d3ad76e60c0986c52addace48940180549061415460c983048093613f7e565b9055610100546001600160a01b03166152ac565b61417f604051928392604084526040840191613f51565b5f60208301520390a1565b819491548034115f146142005750506007906141c87fc7b0487e0a21287b5a35f7ddf5ed5d8e9d30338d3ad76e60c0986c52addace48955434613f7e565b91829101556141da3461010954613f71565b610109556141f5604051938493604085526040850191613f51565b9060208301520390a1565b340361396157600160ff198254161790555f935f9160088101548061430c575b506009018054909290156142d05750612710916142409154905490613fba565b049261425861424f8534613f7e565b61010954613f71565b610109555f8080808773bbbbbbbbbbbbbbbbbbbbbbbbbbbbbbbbbbbbbbbb5af1614280613f8b565b5015613961577feb8d450bff74ef3c1d9319f07855afedfdfa4dce6a223c1c1920a3ac1088d3b4935b6142c0604051948594606086526060860191613f51565b91602084015260408301520390a1565b90507feb8d450bff74ef3c1d9319f07855afedfdfa4dce6a223c1c1920a3ac1088d3b49491506143033461010954613f71565b610109556142a9565b8196506143226127109160066009940154613fba565b6101005460405163a9059cbb60e01b602082015273bbbbbbbbbbbbbbbbbbbbbbbbbbbbbbbbbbbbbbbb60248201529290910460448084018290528352979161437d916001600160a01b0316614378606483613c9f565b615695565b90614220565b50509091503461396157613e9a91614e15565b506006850154156140b5565b509091346139615761010554686c6b935b8bbd3fffff19810190811161197857610105556004810180549091901561441e57505f80936143f78294839454926143ee8461010954613f7e565b61010955614e15565b73aaaaaaaaaaaaaaaaaaaaaaaaaaaaaaaaaaaaaaaa5af1614416613f8b565b501561396157565b9050614440613e9a9392600660018060a01b0360058501541693015493614e15565b6152ac565b9260ff6003829493940154165f1461448b57505050346139615761010554686c6b935b8bbd3fffff19810190811161197857610105555b805461ff001916610100179055565b6004810154340361450a57600601546144a857613e9a9250614e15565b6144b53461010954613f71565b6101095534686c6b935b8bbd4000000390686c6b935b8bbd4000008211611978576144e560209261010554613f7e565b61010555826040519384928337810161010f81520301902060ff19815416905561447c565b60405162461bcd60e51b815260206004820152603060248201527f4d6573736167652076616c7565206d757374206d61746368207468652041564160448201526f160819195c1bdcda5d08185b5bdd5b9d60821b6064820152608490fd5b60405162461bcd60e51b815260206004820152601a60248201527f21726567697374726174696f6e2e776974686472617761626c650000000000006044820152606490fd5b60405162461bcd60e51b81526020600482015260166024820152750726567697374726174696f6e496e64657820213d20360541b6044820152606490fd5b60405162461bcd60e51b815260206004820152600b60248201526a03937b6329032b93937b9160ad1b6044820152606490fd5b519069ffffffffffffffffffff8216820361396157565b908160a0910312613961576146498161461e565b91602082015191604081015191613d4c60806060840151930161461e565b6001600160401b03811161389e5760051b60200190565b8051821015613e4e5760209160051b010190565b60405182828237602081848101610102815203019020548015613961576146b890613f02565b5080549092906001600160a01b0316330361396157600a830160ff815460081c16156139615760ff6003850154166148b65760068401549060ff60048601549154165f146147df579061271061471f600861472661472f958461471f60098c015483613fba565b0490613f7e565b97015483613fba565b9261473d8161010954613f7e565b610109555b6101005461475c90859033906001600160a01b03166152f0565b6147668284614e15565b806147c6575b7fee444713008e3c266c8fb74c287dd853d5eb23d60c7e77730b0ed536556efd9a9360018060a01b0361010054166147b1604051958695608087526080870191613f51565b926020850152604084015260608301520390a1565b5f80808084335af16147d6613f8b565b5061476c575f80fd5b60078501546147ed91613f71565b90809460ff6040518587823760208187810161010f8152030190205416614827575b505061481e8161010954613f7e565b61010955614742565b5f9295506020906044600260018060a01b0361010e54169201546040519586938492632ca6ea1960e11b845260048401528660248401525af1908115613997575f91614880575b6148789250613f71565b925f8061480f565b90506020823d6020116148ae575b8161489b60209383613c9f565b810103126139615761487891519061486e565b3d915061488e565b50600483018054919390911561494a575054916148d68361010954613f7e565b610109556148e48183614e15565b5f80808086335af16148f4613f8b565b5015613961577fee444713008e3c266c8fb74c287dd853d5eb23d60c7e77730b0ed536556efd9a92614933604051938493608085526080850191613f51565b9060208301525f60408301525f60608301520390a1565b7fee444713008e3c266c8fb74c287dd853d5eb23d60c7e77730b0ed536556efd9a939150600660018060a01b0360058301541691015461498a8385614e15565b6149958133846152f0565b6149ac604051948594608086526080860191613f51565b915f6020850152604084015260608301520390a1565b8181106149cd575050565b5f81556001016149c2565b9190601f81116149e757505050565b613e9a925f5260205f20906020601f840160051c83019310614a11575b601f0160051c01906149c2565b9091508190614a04565b91909182516001600160401b03811161389e57614a4281614a3c8454613d89565b846149d8565b6020601f8211600114614a81578190614a729394955f92614a76575b50508160011b915f199060031b1c19161790565b9055565b015190505f80614a5e565b601f19821690835f52805f20915f5b818110614ac757509583600195969710614aaf575b505050811b019055565b01515f1960f88460031b161c191690555f8080614aa5565b9192602060018192868b015181550194019201614a90565b61010154600160401b81101561389e5760018101610101556101018054821015613e4e575f52600b60205f20910201905f6138b257805182546001600160a01b0319166001600160a01b03919091161782556020810151613e9a9261012091600a9190614b4f9060018301614a1b565b60408401516002820155614b7860608501511515600383019060ff801983541691151516179055565b60808401518051600483015560208101516005830180546001600160a01b039092166001600160a01b031990921691909117905560400151600682015560a0840151600782015560c0840151600882015560e084015160098201556101008401519101805460ff191691151560ff16919091178155910151815461ff00191690151560081b61ff0016179055565b621275008114614c9a576224ea008114614c8d576249d4008114614c7f57626ebe0014614c725760405162461bcd60e51b815260206004820152601b60248201527f496e76616c69642076616c69646174696f6e206475726174696f6e00000000006044820152606490fd5b68022b1c8c1227a0000090565b5068018493fba64ef0000090565b5067d02ab486cedc000090565b50676f05b59d3b20000090565b60ff60c95416614cb357565b60405162461bcd60e51b815260206004820152601060248201526f14185d5cd8589b194e881c185d5cd95960821b6044820152606490fd5b600260975414614cfc576002609755565b60405162461bcd60e51b815260206004820152601f60248201527f5265656e7472616e637947756172643a207265656e7472616e742063616c6c006044820152606490fd5b919091828114614e1057614d558354613d89565b6001600160401b03811161389e57614d7181614a3c8454613d89565b5f93601f8211600114614dab57614a7292939482915f92614da05750508160011b915f199060031b1c19161790565b015490505f80614a5e565b601f198216905f5260205f2094835f5260205f20915f5b818110614df857509583600195969710614de057505050811b019055565b01545f1960f88460031b161c191690555f8080614aa5565b9192600180602092868b015481550194019201614dc2565b509050565b6040518282823760208184810161010281520301902054801561396157614e3b81613f02565b50546040516001600160a01b03909116908484823760208186810161010481520301902054815f5261010360205260405f20545f19810190811161197857808203615244575b50505f5261010360205260405f208054801561503f575f190190614ea58282613e39565b6138b257614eb38154613d89565b9081615201575b5050555f60405184848237602081868101610104815203019020556040518383823760208185810161010d815203019020614ef58154613d89565b90816151be575b50506040518383823760208185810161010f81520301902060ff198154169055610101545f19810190811161197857808203615053575b505061010154801561503f575f190191614f4c83613f02565b9390936138b2575f600a85827f04393636f796e0824c4807e9d1a98080042d261b6d4feea240a3d698ee713b52975560018101614f898154613d89565b9081614ffc575b50508260028201558260038201558260048201558260058201558260068201558260078201558260088201558260098201550155610101555f6040518284823760208184810161010281520301902055614ff7604051928392602084526020840191613f51565b0390a1565b81601f8693116001146150135750555b5f80614f90565b8183526020832061502f91601f0160051c8101906001016149c2565b808252816020812091555561500c565b634e487b7160e01b5f52603160045260245ffd5b61507161506b600161506484613f02565b5001613e62565b91613f02565b5061507b83613f02565b9290926138b25760209283928082036150b2575b5050604051928184925191829101835e8101610102815203019020555f80614f33565b805482546001600160a01b0319166001600160a01b039190911617825561517c9160ff90600a9081906150eb6001868101908301614d41565b6002850154600282015561511484600387015416600383019060ff801983541691151516179055565b6004810160048601808203615183575b505060078501546007820155600885015460088201556009850154600982015501920161516082825416849060ff801983541691151516179055565b5460081c1661ff00825491151560081b169061ff001916179055565b5f8061508f565b54905560058581015490820180546001600160a01b0319166001600160a01b0392909216919091179055600680860154908201555f80615124565b81601f5f93116001146151d55750555b5f80614efc565b818352602083206151f191601f0160051c8101906001016149c2565b80825281602081209155556151ce565b81601f5f93116001146152185750555b5f80614eba565b8183526020832061523491601f0160051c8101906001016149c2565b8082528160208120915555615211565b61525d61526391845f5261010360205260405f20613e39565b50613e62565b825f526101036020526152798260405f20613e39565b6138b2578161528b6020938493614a1b565b604051928184925191829101835e8101610104815203019020555f80614e81565b90613e9a916040519163a9059cbb60e01b602084015273aaaaaaaaaaaaaaaaaaaaaaaaaaaaaaaaaaaaaaaa6024840152604483015260448252614378606483613c9f565b60405163a9059cbb60e01b60208201526001600160a01b039092166024830152604480830193909352918152613e9a91614378606483613c9f565b6040516323b872dd60e01b60208201526001600160a01b039283166024820152929091166044830152606480830193909352918152613e9a91614378608483613c9f565b5f81815260656020908152604080832033845290915290205460ff16156153935750565b3361539e602a613cc0565b916153ac6040519384613c9f565b602a83526153ba602a613cc0565b602084019290601f1901368437835115613e4e5760308353835160011015613e4e576078602185015360295b6001811161557357506154ee576153fd6042613cc0565b9061540b6040519283613c9f565b604282526154196042613cc0565b602083019190601f1901368337825115613e4e5760308253825160011015613e4e576078602184015360415b6001811161553257506154ee57611158936037601192846154ce95506040519687947f416363657373436f6e74726f6c3a206163636f756e742000000000000000000060208701525180918587015e8401907001034b99036b4b9b9b4b733903937b6329607d1b84830152518092604883015e01015f838201520301601f198101835282613c9f565b60405162461bcd60e51b8152602060048201529182916024830190613dc1565b606460405162461bcd60e51b815260206004820152602060248201527f537472696e67733a20686578206c656e67746820696e73756666696369656e746044820152fd5b90600f81166010811015613e4e576f181899199a1a9b1b9c1cb0b131b232b360811b901a61556083866158a2565b5360041c908015611978575f1901615445565b90600f81166010811015613e4e576f181899199a1a9b1b9c1cb0b131b232b360811b901a6155a183876158a2565b5360041c908015611978575f19016153e6565b805f52606560205260405f2060018060a01b0383165f5260205260ff60405f2054166155de575050565b5f8181526065602090815260408083206001600160a01b0395909516808452949091528120805460ff19169055339291907ff6391f5c32d9c69d2a47ea670b442974b53935d1edc7fd64eb21e047a839171b9080a4565b1561563c57565b60405162461bcd60e51b815260206004820152602b60248201527f496e697469616c697a61626c653a20636f6e7472616374206973206e6f74206960448201526a6e697469616c697a696e6760a81b6064820152608490fd5b906156f59160018060a01b03165f80604051936156b3604086613c9f565b602085527f5361666545524332303a206c6f772d6c6576656c2063616c6c206661696c6564602086015260208151910182855af16156ef613f8b565b916158b3565b8051908115918215615763575b50501561570b57565b60405162461bcd60e51b815260206004820152602a60248201527f5361666545524332303a204552433230206f7065726174696f6e20646964206e6044820152691bdd081cdd58d8d9595960b21b6064820152608490fd5b819250906020918101031261396157602001518015158103613961575f80615702565b805f5260fc60205260405f2054155f146157ec5760fb54600160401b81101561389e576157d56157bf82600185940160fb5560fb613e39565b819391549060031b91821b915f19901b19161790565b905560fb54905f5260fc60205260405f2055600190565b505f90565b5f81815260fc6020526040902054801561589c575f1981018181116119785760fb545f1981019190821161197857808203615864575b50505060fb54801561503f575f19016158418160fb613e39565b8154905f199060031b1b1916905560fb555f5260fc6020525f6040812055600190565b6158866158756157bf9360fb613e39565b90549060031b1c92839260fb613e39565b90555f5260fc60205260405f20555f8080615827565b50505f90565b908151811015613e4e570160200190565b9192901561591557508151156158c7575090565b3b156158d05790565b60405162461bcd60e51b815260206004820152601d60248201527f416464726573733a2063616c6c20746f206e6f6e2d636f6e74726163740000006044820152606490fd5b8251909150156159285750805190602001fd5b60405162461bcd60e51b815260206004820152908190611158906024830190613dc156fe911545ab01a7553b2c4eb100eb4054703d821e76fc5d0504a07b8246aa3b1232a2646970667358221220f6396c9ca3b7177975ffbc7048ca4171b7a0597b0f8f71107b2faa2359f41eb564736f6c634300081a0033","linkReferences":{}},"methodIdentifiers":{"AVAX()":"b59f091e","DEFAULT_ADMIN_ROLE()":"a217fddf","FEE_RECIPIENT()":"ebd09054","ROLE_PAUSE()":"4ff0241a","ROLE_REGISTER_WITHOUT_COLLATERAL()":"341030f0","ROLE_REGISTER_WITH_FLEXIBLE_PRICE_CHECK()":"c8fc9e4e","ROLE_RELEASE_LOCKED_TOKENS()":"efe867e2","ROLE_UNPAUSE()":"d964c25a","ROLE_WITHDRAW()":"4b7e23dc","SLASHED_TOKEN_RECIPIENT()":"3f24a8e5","VALIDATION_DURATION_EIGHT_WEEKS()":"ce339923","VALIDATION_DURATION_FOUR_WEEKS()":"2dbecc1a","VALIDATION_DURATION_ONE_YEAR()":"f38b8411","VALIDATION_DURATION_TWELVE_WEEKS()":"4bcad6f2","VALIDATION_DURATION_TWO_WEEKS()":"8079336c","accountRegistrationIndicesByNodeId(string)":"d9723ea7","addPaymentToken(address,address,uint256)":"395cc512","avaxSlashPercentage()":"5fa9237a","blsProofOfPossessionByNodeId(string)":"3b722144","configurePriceFeed(address,address,uint256)":"d9ea5b03","getAccountRegistrationCount(address)":"a9316fd2","getErc20PaymentMethods()":"53cc04a1","getRegistrationFee(uint256)":"0c8c7900","getRegistrationsByAccount(address,uint256,uint256)":"48e2678f","getRoleAdmin(bytes32)":"248a9ca3","getTotalErc20PaymentMethods()":"58aa9000","getTotalRegistrations()":"5f4c5d33","grantRole(bytes32,address)":"2f2ff15d","hasRole(bytes32,address)":"91d14854","initialize(address,address,address,uint256,address,uint256,uint256,uint256)":"ad18f0da","maxPriceAges(address)":"d0c63d35","maximumAvaxDeposit()":"9922b43b","maximumSubsidisationAmount()":"e34df3c1","minimumAvaxDeposit()":"c92f58b2","minimumContractBalance()":"78a66f15","pause()":"8456cb59","paused()":"5c975abb","priceFeeds(address)":"9dcb511a","qi()":"5fcd6255","qiPriceMultiplier()":"2576eed1","qiRewardEligibilityByNodeId(string)":"bd65581e","qiSlashPercentage()":"75e27186","redeemAfterExpiry(string)":"5b499a97","registerWithAvaxFee(string,bytes,uint256)":"80286737","registerWithErc20Fee(address,string,bytes,uint256)":"8567a2e5","registerWithPrevalidatedQiStake(address,string,bytes,uint256,uint256)":"1df1a433","registerWithStake(string,bytes,uint256)":"7d1aacad","registerWithoutCollateral(string,bytes,uint256)":"ac966e15","registeredNodeIdsByAccount(address,uint256)":"84f826c7","registrationIndicesByNodeId(string)":"3153caeb","registrations(uint256)":"f4ddb5be","releaseLockedTokens(string,bool)":"0ffbccdb","removePaymentToken(address)":"a5125421","renounceRole(bytes32,address)":"36568abe","revokeRole(bytes32,address)":"d547741f","sAVAX()":"a2a5236c","setAvaxDepositRange(uint256,uint256)":"8500bc89","setAvaxSlashPercentage(uint256)":"3cb8beb0","setMaximumSubsidisationAmount(uint256)":"5d36f34f","setQiPriceMultiplier(uint256)":"190e9d41","setQiSlashPercentage(uint256)":"b6d1d67b","setValidatorRewarder(address)":"1679a965","supportsInterface(bytes4)":"01ffc9a7","totalSubsidisedAmount()":"8d01d1c5","unpause()":"3f4ba83a","validatorRewarder()":"1a753657","withdraw(uint256)":"2e1a7d4d"},"id":19}