{"abi":[{"type":"constructor","inputs":[],"stateMutability":"nonpayable"},{"type":"function","name":"AVAX","inputs":[],"outputs":[{"name":"","type":"address","internalType":"address"}],"stateMutability":"view"},{"type":"function","name":"DEFAULT_ADMIN_ROLE","inputs":[],"outputs":[{"name":"","type":"bytes32","internalType":"bytes32"}],"stateMutability":"view"},{"type":"function","name":"FEE_RECIPIENT","inputs":[],"outputs":[{"name":"","type":"address","internalType":"address"}],"stateMutability":"view"},{"type":"function","name":"ROLE_PAUSE","inputs":[],"outputs":[{"name":"","type":"bytes32","internalType":"bytes32"}],"stateMutability":"view"},{"type":"function","name":"ROLE_REGISTER_WITHOUT_COLLATERAL","inputs":[],"outputs":[{"name":"","type":"bytes32","internalType":"bytes32"}],"stateMutability":"view"},{"type":"function","name":"ROLE_REGISTER_WITH_FLEXIBLE_PRICE_CHECK","inputs":[],"outputs":[{"name":"","type":"bytes32","internalType":"bytes32"}],"stateMutability":"view"},{"type":"function","name":"ROLE_RELEASE_LOCKED_TOKENS","inputs":[],"outputs":[{"name":"","type":"bytes32","internalType":"bytes32"}],"stateMutability":"view"},{"type":"function","name":"ROLE_UNPAUSE","inputs":[],"outputs":[{"name":"","type":"bytes32","internalType":"bytes32"}],"stateMutability":"view"},{"type":"function","name":"ROLE_WITHDRAW","inputs":[],"outputs":[{"name":"","type":"bytes32","internalType":"bytes32"}],"stateMutability":"view"},{"type":"function","name":"SLASHED_TOKEN_RECIPIENT","inputs":[],"outputs":[{"name":"","type":"address","internalType":"address"}],"stateMutability":"view"},{"type":"function","name":"VALIDATION_DURATION_EIGHT_WEEKS","inputs":[],"outputs":[{"name":"","type":"uint256","internalType":"uint256"}],"stateMutability":"view"},{"type":"function","name":"VALIDATION_DURATION_FOUR_WEEKS","inputs":[],"outputs":[{"name":"","type":"uint256","internalType":"uint256"}],"stateMutability":"view"},{"type":"function","name":"VALIDATION_DURATION_ONE_YEAR","inputs":[],"outputs":[{"name":"","type":"uint256","internalType":"uint256"}],"stateMutability":"view"},{"type":"function","name":"VALIDATION_DURATION_TWELVE_WEEKS","inputs":[],"outputs":[{"name":"","type":"uint256","internalType":"uint256"}],"stateMutability":"view"},{"type":"function","name":"VALIDATION_DURATION_TWO_WEEKS","inputs":[],"outputs":[{"name":"","type":"uint256","internalType":"uint256"}],"stateMutability":"view"},{"type":"function","name":"accountRegistrationIndicesByNodeId","inputs":[{"name":"","type":"string","internalType":"string"}],"outputs":[{"name":"","type":"uint256","internalType":"uint256"}],"stateMutability":"view"},{"type":"function","name":"addPaymentToken","inputs":[{"name":"token","type":"address","internalType":"address"},{"name":"priceFeedAddress","type":"address","internalType":"address"},{"name":"maxPriceAge","type":"uint256","internalType":"uint256"}],"outputs":[],"stateMutability":"nonpayable"},{"type":"function","name":"avaxSlashPercentage","inputs":[],"outputs":[{"name":"","type":"uint256","internalType":"uint256"}],"stateMutability":"view"},{"type":"function","name":"blsProofOfPossessionByNodeId","inputs":[{"name":"","type":"string","internalType":"string"}],"outputs":[{"name":"","type":"bytes","internalType":"bytes"}],"stateMutability":"view"},{"type":"function","name":"configurePriceFeed","inputs":[{"name":"token","type":"address","internalType":"address"},{"name":"priceFeedAddress","type":"address","internalType":"address"},{"name":"maxPriceAge","type":"uint256","internalType":"uint256"}],"outputs":[],"stateMutability":"nonpayable"},{"type":"function","name":"getAccountRegistrationCount","inputs":[{"name":"account","type":"address","internalType":"address"}],"outputs":[{"name":"","type":"uint256","internalType":"uint256"}],"stateMutability":"view"},{"type":"function","name":"getErc20PaymentMethods","inputs":[],"outputs":[{"name":"","type":"address[]","internalType":"address[]"}],"stateMutability":"view"},{"type":"function","name":"getRegistrationFee","inputs":[{"name":"validationDuration","type":"uint256","internalType":"uint256"}],"outputs":[{"name":"","type":"uint256","internalType":"uint256"}],"stateMutability":"view"},{"type":"function","name":"getRegistrationsByAccount","inputs":[{"name":"account","type":"address","internalType":"address"},{"name":"from","type":"uint256","internalType":"uint256"},{"name":"to","type":"uint256","internalType":"uint256"}],"outputs":[{"name":"","type":"tuple[]","internalType":"struct IgniteStorage.Registration[]","components":[{"name":"registerer","type":"address","internalType":"address"},{"name":"nodeId","type":"string","internalType":"string"},{"name":"validationDuration","type":"uint256","internalType":"uint256"},{"name":"feePaid","type":"bool","internalType":"bool"},{"name":"tokenDeposits","type":"tuple","internalType":"struct IgniteStorage.TokenDepositDetails","components":[{"name":"avaxAmount","type":"uint256","internalType":"uint256"},{"name":"token","type":"address","internalType":"address"},{"name":"tokenAmount","type":"uint256","internalType":"uint256"}]},{"name":"rewardAmount","type":"uint256","internalType":"uint256"},{"name":"qiSlashPercentage","type":"uint256","internalType":"uint256"},{"name":"avaxSlashPercentage","type":"uint256","internalType":"uint256"},{"name":"slashed","type":"bool","internalType":"bool"},{"name":"withdrawable","type":"bool","internalType":"bool"}]}],"stateMutability":"view"},{"type":"function","name":"getRoleAdmin","inputs":[{"name":"role","type":"bytes32","internalType":"bytes32"}],"outputs":[{"name":"","type":"bytes32","internalType":"bytes32"}],"stateMutability":"view"},{"type":"function","name":"getTotalErc20PaymentMethods","inputs":[],"outputs":[{"name":"","type":"uint256","internalType":"uint256"}],"stateMutability":"view"},{"type":"function","name":"getTotalRegistrations","inputs":[],"outputs":[{"name":"","type":"uint256","internalType":"uint256"}],"stateMutability":"view"},{"type":"function","name":"grantRole","inputs":[{"name":"role","type":"bytes32","internalType":"bytes32"},{"name":"account","type":"address","internalType":"address"}],"outputs":[],"stateMutability":"nonpayable"},{"type":"function","name":"hasRole","inputs":[{"name":"role","type":"bytes32","internalType":"bytes32"},{"name":"account","type":"address","internalType":"address"}],"outputs":[{"name":"","type":"bool","internalType":"bool"}],"stateMutability":"view"},{"type":"function","name":"initialize","inputs":[{"name":"_sAVAX","type":"address","internalType":"address"},{"name":"_qi","type":"address","internalType":"address"},{"name":"_avaxPriceFeed","type":"address","internalType":"address"},{"name":"_maxAvaxPriceAge","type":"uint256","internalType":"uint256"},{"name":"_qiPriceFeed","type":"address","internalType":"address"},{"name":"_maxQiPriceAge","type":"uint256","internalType":"uint256"},{"name":"_minimumAvaxDeposit","type":"uint256","internalType":"uint256"},{"name":"_maximumAvaxDeposit","type":"uint256","internalType":"uint256"}],"outputs":[],"stateMutability":"nonpayable"},{"type":"function","name":"maxPriceAges","inputs":[{"name":"","type":"address","internalType":"address"}],"outputs":[{"name":"","type":"uint256","internalType":"uint256"}],"stateMutability":"view"},{"type":"function","name":"maximumAvaxDeposit","inputs":[],"outputs":[{"name":"","type":"uint256","internalType":"uint256"}],"stateMutability":"view"},{"type":"function","name":"maximumSubsidisationAmount","inputs":[],"outputs":[{"name":"","type":"uint256","internalType":"uint256"}],"stateMutability":"view"},{"type":"function","name":"minimumAvaxDeposit","inputs":[],"outputs":[{"name":"","type":"uint256","internalType":"uint256"}],"stateMutability":"view"},{"type":"function","name":"minimumContractBalance","inputs":[],"outputs":[{"name":"","type":"uint256","internalType":"uint256"}],"stateMutability":"view"},{"type":"function","name":"pause","inputs":[],"outputs":[],"stateMutability":"nonpayable"},{"type":"function","name":"paused","inputs":[],"outputs":[{"name":"","type":"bool","internalType":"bool"}],"stateMutability":"view"},{"type":"function","name":"priceFeeds","inputs":[{"name":"","type":"address","internalType":"address"}],"outputs":[{"name":"","type":"address","internalType":"contract IPriceFeed"}],"stateMutability":"view"},{"type":"function","name":"qi","inputs":[],"outputs":[{"name":"","type":"address","internalType":"contract IERC20Upgradeable"}],"stateMutability":"view"},{"type":"function","name":"qiPriceMultiplier","inputs":[],"outputs":[{"name":"","type":"uint256","internalType":"uint256"}],"stateMutability":"view"},{"type":"function","name":"qiRewardEligibilityByNodeId","inputs":[{"name":"","type":"string","internalType":"string"}],"outputs":[{"name":"","type":"bool","internalType":"bool"}],"stateMutability":"view"},{"type":"function","name":"qiSlashPercentage","inputs":[],"outputs":[{"name":"","type":"uint256","internalType":"uint256"}],"stateMutability":"view"},{"type":"function","name":"redeemAfterExpiry","inputs":[{"name":"nodeId","type":"string","internalType":"string"}],"outputs":[],"stateMutability":"nonpayable"},{"type":"function","name":"registerWithAvaxFee","inputs":[{"name":"nodeId","type":"string","internalType":"string"},{"name":"blsProofOfPossession","type":"bytes","internalType":"bytes"},{"name":"validationDuration","type":"uint256","internalType":"uint256"}],"outputs":[],"stateMutability":"payable"},{"type":"function","name":"registerWithErc20Fee","inputs":[{"name":"tokenAddress","type":"address","internalType":"address"},{"name":"nodeId","type":"string","internalType":"string"},{"name":"blsProofOfPossession","type":"bytes","internalType":"bytes"},{"name":"validationDuration","type":"uint256","internalType":"uint256"}],"outputs":[],"stateMutability":"nonpayable"},{"type":"function","name":"registerWithPrevalidatedQiStake","inputs":[{"name":"beneficiary","type":"address","internalType":"address"},{"name":"nodeId","type":"string","internalType":"string"},{"name":"blsProofOfPossession","type":"bytes","internalType":"bytes"},{"name":"validationDuration","type":"uint256","internalType":"uint256"},{"name":"qiAmount","type":"uint256","internalType":"uint256"}],"outputs":[],"stateMutability":"nonpayable"},{"type":"function","name":"registerWithStake","inputs":[{"name":"nodeId","type":"string","internalType":"string"},{"name":"blsProofOfPossession","type":"bytes","internalType":"bytes"},{"name":"validationDuration","type":"uint256","internalType":"uint256"}],"outputs":[],"stateMutability":"payable"},{"type":"function","name":"registerWithoutCollateral","inputs":[{"name":"nodeId","type":"string","internalType":"string"},{"name":"blsProofOfPossession","type":"bytes","internalType":"bytes"},{"name":"validationDuration","type":"uint256","internalType":"uint256"}],"outputs":[],"stateMutability":"nonpayable"},{"type":"function","name":"registeredNodeIdsByAccount","inputs":[{"name":"","type":"address","internalType":"address"},{"name":"","type":"uint256","internalType":"uint256"}],"outputs":[{"name":"","type":"string","internalType":"string"}],"stateMutability":"view"},{"type":"function","name":"registrationIndicesByNodeId","inputs":[{"name":"","type":"string","internalType":"string"}],"outputs":[{"name":"","type":"uint256","internalType":"uint256"}],"stateMutability":"view"},{"type":"function","name":"registrations","inputs":[{"name":"","type":"uint256","internalType":"uint256"}],"outputs":[{"name":"registerer","type":"address","internalType":"address"},{"name":"nodeId","type":"string","internalType":"string"},{"name":"validationDuration","type":"uint256","internalType":"uint256"},{"name":"feePaid","type":"bool","internalType":"bool"},{"name":"tokenDeposits","type":"tuple","internalType":"struct IgniteStorage.TokenDepositDetails","components":[{"name":"avaxAmount","type":"uint256","internalType":"uint256"},{"name":"token","type":"address","internalType":"address"},{"name":"tokenAmount","type":"uint256","internalType":"uint256"}]},{"name":"rewardAmount","type":"uint256","internalType":"uint256"},{"name":"qiSlashPercentage","type":"uint256","internalType":"uint256"},{"name":"avaxSlashPercentage","type":"uint256","internalType":"uint256"},{"name":"slashed","type":"bool","internalType":"bool"},{"name":"withdrawable","type":"bool","internalType":"bool"}],"stateMutability":"view"},{"type":"function","name":"releaseLockedTokens","inputs":[{"name":"nodeId","type":"string","internalType":"string"},{"name":"failed","type":"bool","internalType":"bool"}],"outputs":[],"stateMutability":"payable"},{"type":"function","name":"removePaymentToken","inputs":[{"name":"token","type":"address","internalType":"address"}],"outputs":[],"stateMutability":"nonpayable"},{"type":"function","name":"renounceRole","inputs":[{"name":"role","type":"bytes32","internalType":"bytes32"},{"name":"account","type":"address","internalType":"address"}],"outputs":[],"stateMutability":"nonpayable"},{"type":"function","name":"revokeRole","inputs":[{"name":"role","type":"bytes32","internalType":"bytes32"},{"name":"account","type":"address","internalType":"address"}],"outputs":[],"stateMutability":"nonpayable"},{"type":"function","name":"sAVAX","inputs":[],"outputs":[{"name":"","type":"address","internalType":"contract IStakedAvax"}],"stateMutability":"view"},{"type":"function","name":"setAvaxDepositRange","inputs":[{"name":"newMinimumAvaxDeposit","type":"uint256","internalType":"uint256"},{"name":"newMaximumAvaxDeposit","type":"uint256","internalType":"uint256"}],"outputs":[],"stateMutability":"nonpayable"},{"type":"function","name":"setAvaxSlashPercentage","inputs":[{"name":"newPercentage","type":"uint256","internalType":"uint256"}],"outputs":[],"stateMutability":"nonpayable"},{"type":"function","name":"setMaximumSubsidisationAmount","inputs":[{"name":"newMaximumSubsidisationAmount","type":"uint256","internalType":"uint256"}],"outputs":[],"stateMutability":"nonpayable"},{"type":"function","name":"setQiPriceMultiplier","inputs":[{"name":"newQiPriceMultiplier","type":"uint256","internalType":"uint256"}],"outputs":[],"stateMutability":"nonpayable"},{"type":"function","name":"setQiSlashPercentage","inputs":[{"name":"newPercentage","type":"uint256","internalType":"uint256"}],"outputs":[],"stateMutability":"nonpayable"},{"type":"function","name":"setValidatorRewarder","inputs":[{"name":"newValidatorRewarder","type":"address","internalType":"address"}],"outputs":[],"stateMutability":"nonpayable"},{"type":"function","name":"supportsInterface","inputs":[{"name":"interfaceId","type":"bytes4","internalType":"bytes4"}],"outputs":[{"name":"","type":"bool","internalType":"bool"}],"stateMutability":"view"},{"type":"function","name":"totalSubsidisedAmount","inputs":[],"outputs":[{"name":"","type":"uint256","internalType":"uint256"}],"stateMutability":"view"},{"type":"function","name":"unpause","inputs":[],"outputs":[],"stateMutability":"nonpayable"},{"type":"function","name":"validatorRewarder","inputs":[],"outputs":[{"name":"","type":"address","internalType":"contract ValidatorRewarder"}],"stateMutability":"view"},{"type":"function","name":"withdraw","inputs":[{"name":"amount","type":"uint256","internalType":"uint256"}],"outputs":[],"stateMutability":"nonpayable"},{"type":"event","name":"AvaxDepositRangeUpdated","inputs":[{"name":"oldMinimumAvaxDeposit","type":"uint256","indexed":false,"internalType":"uint256"},{"name":"newMinimumAvaxDeposit","type":"uint256","indexed":false,"internalType":"uint256"},{"name":"oldMaximumAvaxDeposit","type":"uint256","indexed":false,"internalType":"uint256"},{"name":"newMaximumAvaxDeposit","type":"uint256","indexed":false,"internalType":"uint256"}],"anonymous":false},{"type":"event","name":"AvaxSlashPercentageChanged","inputs":[{"name":"oldPercentage","type":"uint256","indexed":false,"internalType":"uint256"},{"name":"newPercentage","type":"uint256","indexed":false,"internalType":"uint256"}],"anonymous":false},{"type":"event","name":"Initialized","inputs":[{"name":"version","type":"uint8","indexed":false,"internalType":"uint8"}],"anonymous":false},{"type":"event","name":"MaximumSubsidisationAmountChanged","inputs":[{"name":"oldMaximumSubsidisationAmount","type":"uint256","indexed":false,"internalType":"uint256"},{"name":"newMaximumSubsidisationAmount","type":"uint256","indexed":false,"internalType":"uint256"}],"anonymous":false},{"type":"event","name":"NewRegistration","inputs":[{"name":"registerer","type":"address","indexed":false,"internalType":"address"},{"name":"nodeId","type":"string","indexed":false,"internalType":"string"},{"name":"blsProofOfPossession","type":"bytes","indexed":false,"internalType":"bytes"},{"name":"validationDuration","type":"uint256","indexed":false,"internalType":"uint256"},{"name":"feePaid","type":"bool","indexed":false,"internalType":"bool"},{"name":"avaxAmount","type":"uint256","indexed":false,"internalType":"uint256"},{"name":"token","type":"address","indexed":false,"internalType":"address"},{"name":"tokenAmount","type":"uint256","indexed":false,"internalType":"uint256"}],"anonymous":false},{"type":"event","name":"Paused","inputs":[{"name":"account","type":"address","indexed":false,"internalType":"address"}],"anonymous":false},{"type":"event","name":"PaymentTokenAdded","inputs":[{"name":"token","type":"address","indexed":false,"internalType":"address"}],"anonymous":false},{"type":"event","name":"PaymentTokenRemoved","inputs":[{"name":"token","type":"address","indexed":false,"internalType":"address"}],"anonymous":false},{"type":"event","name":"PriceFeedChanged","inputs":[{"name":"token","type":"address","indexed":false,"internalType":"address"},{"name":"oldFeed","type":"address","indexed":false,"internalType":"address"},{"name":"newFeed","type":"address","indexed":false,"internalType":"address"},{"name":"oldMaxPriceAge","type":"uint256","indexed":false,"internalType":"uint256"},{"name":"newMaxPriceAge","type":"uint256","indexed":false,"internalType":"uint256"}],"anonymous":false},{"type":"event","name":"QiPriceMultiplierUpdated","inputs":[{"name":"oldQiPriceMultiplier","type":"uint256","indexed":false,"internalType":"uint256"},{"name":"newQiPriceMultiplier","type":"uint256","indexed":false,"internalType":"uint256"}],"anonymous":false},{"type":"event","name":"QiSlashPercentageChanged","inputs":[{"name":"oldPercentage","type":"uint256","indexed":false,"internalType":"uint256"},{"name":"newPercentage","type":"uint256","indexed":false,"internalType":"uint256"}],"anonymous":false},{"type":"event","name":"Redeem","inputs":[{"name":"nodeId","type":"string","indexed":false,"internalType":"string"},{"name":"avaxAmount","type":"uint256","indexed":false,"internalType":"uint256"},{"name":"token","type":"address","indexed":false,"internalType":"address"},{"name":"tokenAmount","type":"uint256","indexed":false,"internalType":"uint256"}],"anonymous":false},{"type":"event","name":"RegistrationDeleted","inputs":[{"name":"nodeId","type":"string","indexed":false,"internalType":"string"}],"anonymous":false},{"type":"event","name":"RegistrationExpired","inputs":[{"name":"nodeId","type":"string","indexed":false,"internalType":"string"}],"anonymous":false},{"type":"event","name":"RoleAdminChanged","inputs":[{"name":"role","type":"bytes32","indexed":true,"internalType":"bytes32"},{"name":"previousAdminRole","type":"bytes32","indexed":true,"internalType":"bytes32"},{"name":"newAdminRole","type":"bytes32","indexed":true,"internalType":"bytes32"}],"anonymous":false},{"type":"event","name":"RoleGranted","inputs":[{"name":"role","type":"bytes32","indexed":true,"internalType":"bytes32"},{"name":"account","type":"address","indexed":true,"internalType":"address"},{"name":"sender","type":"address","indexed":true,"internalType":"address"}],"anonymous":false},{"type":"event","name":"RoleRevoked","inputs":[{"name":"role","type":"bytes32","indexed":true,"internalType":"bytes32"},{"name":"account","type":"address","indexed":true,"internalType":"address"},{"name":"sender","type":"address","indexed":true,"internalType":"address"}],"anonymous":false},{"type":"event","name":"Unpaused","inputs":[{"name":"account","type":"address","indexed":false,"internalType":"address"}],"anonymous":false},{"type":"event","name":"ValidatorRewarded","inputs":[{"name":"nodeId","type":"string","indexed":false,"internalType":"string"},{"name":"amount","type":"uint256","indexed":false,"internalType":"uint256"}],"anonymous":false},{"type":"event","name":"ValidatorSlashed","inputs":[{"name":"nodeId","type":"string","indexed":false,"internalType":"string"},{"name":"qiAmount","type":"uint256","indexed":false,"internalType":"uint256"},{"name":"avaxAmount","type":"uint256","indexed":false,"internalType":"uint256"}],"anonymous":false},{"type":"event","name":"Withdraw","inputs":[{"name":"amount","type":"uint256","indexed":false,"internalType":"uint256"}],"anonymous":false}],"bytecode":{"object":"0x608080604052346015576159aa908161001a8239f35b5f80fdfe6080806040526004361015610012575f80fd5b5f905f3560e01c90816301ffc9a714613b9d575080630c8c790014613b7f5780630ffbccdb14613b275780631679a96514613ab5578063190e9d4114613a265780631a753657146139fd5780631df1a4331461333e578063248a9ca31461330a5780632576eed1146132eb5780632dbecc1a146132cd5780632e1a7d4d146131dc5780632f2ff15d1461311c5780633153caeb146130e7578063341030f0146130ac57806336568abe14613019578063395cc51214612ede5780633b72214414612e0e5780633cb8beb014612d925780633f24a8e514612d635780633f4ba83a14612c9557806348e2678f1461295a5780634b7e23dc1461291f5780634bcad6f2146129015780634ff0241a146128c657806353cc04a11461280757806358aa9000146127e95780635b499a97146127975780635c975abb146127745780635d36f34f146127015780635f4c5d33146126c15780635fa9237a146126a25780635fcd62551461267857806375e271861461265957806378a66f151461263a5780637d1aacad1461208f5780638028673714611cdc5780638079336c14611cbe5780638456cb5914611c2a57806384f826c714611ba65780638500bc8914611b0e5780638567a2e5146113905780638d01d1c51461137157806391d14854146113275780639922b43b146113085780639dcb511a146112c7578063a217fddf146112ab578063a2a5236c14611282578063a512542114611196578063a9316fd21461115c578063ac966e1514610cc3578063ad18f0da1461085d578063b59f091e14610835578063b6d1d67b146107b9578063bd65581e1461077f578063c8fc9e4e14610744578063c92f58b214610725578063ce33992314610707578063d0c63d35146106ce578063d547741f14610687578063d964c25a1461064c578063d9723ea714610617578063d9ea5b03146104a1578063e34df3c114610482578063ebd0905414610453578063efe867e214610418578063f38b8411146103f95763f4ddb5be146102ff575f80fd5b346103f65760203660031901126103f657600435610101548110156103f45761032790613ee3565b5080546001600160a01b031661033f60018301613e43565b9160ff600282015491816003820154169061035c60048201613f01565b60078201546103c8600884015492600a6009860154950154956103936040519b8c9b8c5261018060208d01526101808c0190613da2565b60408b81019a909a5290151560608b0152815160808b015260208201516001600160a01b031660a08b015297015160c0890152565b60e0870152610100860152610120850152818116151561014085015260081c1615156101608301520390f35b505b80fd5b50346103f657806003193601126103f65760206040516301e133808152f35b50346103f657806003193601126103f65760206040517fbb4ab89723950398fbe0f1fe11ab060da193cf1f8b664c9831ac485bec8c6ca98152f35b50346103f657806003193601126103f657602060405173aaaaaaaaaaaaaaaaaaaaaaaaaaaaaaaaaaaaaaaa8152f35b50346103f657806003193601126103f657602061010654604051908152f35b50346103f6576104b036613d30565b909183805260656020526040842060018060a01b0333165f5260205260ff60405f20541615610613576001600160a01b0390811680855260fd602090815260408087205483885260fe90925286205494921692909183156105c75782865260fd6020908152604080882080546001600160a01b0319166001600160a01b0394909416938417905584885260fe90915280872083905551633fabe5a360e21b81529094908660a0826004818a5afa91821561060657819082936105cf575b5013156105cb5761057f839142613f5f565b116105c7577fcb61de73a9b971ce0608f81d0ce8617289d2a44503653d2c16693dc08bc0db2d9460a0946040519485526020850152604084015260608301526080820152a180f35b8580fd5b8680fd5b90506105f491925060a03d60a0116105ff575b6105ec8183613c80565b81019061462b565b50939250505f61056d565b503d6105e2565b50604051903d90823e3d90fd5b8380fd5b50346103f6576020808061062a36613cf2565b604051928184925191829101835e810161010481520301902054604051908152f35b50346103f657806003193601126103f65760206040517f8a8d1de1c18abb94a793a1c642e9153de53c830daa68b212d4eb80a0fed540518152f35b50346103f65760403660031901126103f6576106cb6004356106a7613c33565b906106c66106c1825f526065602052600160405f20015490565b615365565b6155aa565b80f35b50346103f65760203660031901126103f6576020906040906001600160a01b036106f6613c1d565b16815260fe83522054604051908152f35b50346103f657806003193601126103f65760206040516249d4008152f35b50346103f657806003193601126103f657602061010a54604051908152f35b50346103f657806003193601126103f65760206040517f6ef8b52debbf584bbeee3d104b589533cc529f3789bdbc2bae3dabb3fcde96f68152f35b50346103f657602060ff818061079436613cf2565b604051928184925191829101835e810161010f81520301902054166040519015158152f35b50346103f65760203660031901126103f657808052606560209081526040808320335f90815292529020546004359060ff16156103f45761271081116103f45760407feb1cee51f4786b91756ab6e79cde8b4ae39e831e78f9ef5d813b9e40d37883b7916101075490806101075582519182526020820152a180f35b50346103f657806003193601126103f65760206040515f5160206159555f395f51905f528152f35b50346103f6576101003660031901126103f657610878613c1d565b610880613c33565b6044356001600160a01b038116929083900361061357606435906084356001600160a01b038116908190036105c75760a4359160c4359360e4359588549260ff8460081c16159889809a610cb6575b8015610c9f575b15610c435760ff1985166001178b558a948a610c32575b50888811610c2e5760049260a09261093460ff885460081c1661090f8161562b565b6109188161562b565b6109218161562b565b600160975561092f8161562b565b61562b565b60ff1960c9541660c955868052606560205260408720600180861b0333165f5260205260ff60405f20541615610bda575b600180851b03166001600160601b03841b60ff54161760ff55600180841b0316806001600160601b03841b610100541617610100556109aa60ff875460081c1661562b565b5f5160206159555f395f51905f52865260fd60205260408620600180851b0383166001600160601b03851b82541617905580865260fd60205260408620600180851b0388166001600160601b03851b8254161790555f5160206159555f395f51905f52865260fe602052846040872055855260fe60205286604086205560405192838092633fabe5a360e21b82525afa908115610bcf57839081908293610ba8575b501315610ba457610a5d9042613f5f565b116103f65760a060049260405193848092633fabe5a360e21b82525afa9182156106065781908293610b7d575b5013156105c757610a9b9042613f5f565b116106135761010a5561010b5561138861010755690a968163f0a57b4000006101065561271061010c55610b3f604051610ad481613c65565b83815283602082015283604082015260405190610af082613c49565b848252604051610b01602082613c80565b858152602083015284604083015284606083015260808201528360a08201528360c08201528360e08201528361010082015283610120820152614ad5565b610b465780f35b61ff001981541681557f7f26b83ff96e1f2b6a682f133852f6798a09c465da95921460cefb3847402498602060405160018152a180f35b9050610b9991925060a03d60a0116105ff576105ec8183613c80565b50939250505f610a8a565b8280fd5b9050610bc491925060a03d60a0116105ff576105ec8183613c80565b50939250505f610a4c565b6040513d85823e3d90fd5b868052606560205260408720600180861b0333165f5260205260405f20600160ff198254161790553333887f2f8788117e7eff1d82e926ec794901d17c78024a50270940304540a733656f0d8180a4610965565b8480fd5b61ffff19166101011785555f6108ed565b60405162461bcd60e51b815260206004820152602e60248201527f496e697469616c697a61626c653a20636f6e747261637420697320616c72656160448201526d191e481a5b9a5d1a585b1a5e995960921b6064820152608490fd5b50303b1580156108d65750600160ff8616146108d6565b50600160ff8616106108cf565b50346103f657610cd236613dc6565b90949392917f8b6dced259e7c22d2c562be416e2454fe4c41318f8581c10be50deaca96d3536855260656020526040852060018060a01b0333165f5260205260ff60405f20541615610c2e57621275008210158061114e575b1561110457610d38614c9d565b604051838582376020818581016101028152030190205415806110fb575b156110b65760908603610c2e57610101546040518486823760208186810161010281520301902055610df9604051610d8d81613c65565b86815286602082015286604082015261010754610108549060405192610db284613c49565b338452610dc036898b613cbc565b602085015286604085015289606085015260808401528860a084015260c083015260e08201528661010082015286610120820152614ad5565b6040518385823760208185810161010d8152030190206001600160401b03871161100d57610e3187610e2b8354613d6a565b836149ce565b8587601f81116001146110545780610e5d928991611049575b508160011b915f199060031b1c19161790565b90555b6040518385823760208185810161010f81520301902060ff1981541690553385526101036020526040852054604051848682376020818681016101048152030190205533855261010360205260408520805490600160401b8210156110355790610ecf91600182018155613e1a565b969096611021576001600160401b03841161100d57610ef884610ef28954613d6a565b896149ce565b8596601f8511600114610f985790610f699291610f3986808a9b5f5160206159355f395f51905f529b91610f8d57508160011b915f199060031b1c19161790565b90555b610f5b6040519687963388526101006020890152610100880191613f32565b918583036040870152613f32565b9060608301528460808301528460a08301528460c08301528460e08301520390a180f35b90508901355f610e4a565b80875260208720601f198616885b818110610ff55750905f5160206159355f395f51905f52989987610f699695949310610fdc575b5050600186811b019055610f3c565b8801355f19600389901b60f8161c191690555f80610fcd565b888b0135835560209a8b019a60019093019201610fa6565b634e487b7160e01b86526041600452602486fd5b634e487b7160e01b86526004869052602486fd5b634e487b7160e01b87526041600452602487fd5b90508401355f610e4a565b50818752602087209088601f198116895b81811061109b575010611082575b5050600187811b019055610e60565b8301355f1960038a901b60f8161c191690555f80611073565b8684013585556001909401936020938401938c935001611065565b60405162461bcd60e51b815260206004820152601760248201527f4e6f646520616c726561647920726567697374657265640000000000000000006044820152606490fd5b50821515610d56565b60405162461bcd60e51b815260206004820152601b60248201527f496e76616c69642076616c69646174696f6e206475726174696f6e0000000000604482015280606481015b0390fd5b506301e13380821115610d2b565b50346103f65760203660031901126103f6576020906040906001600160a01b03611184613c1d565b16815261010383522054604051908152f35b50346103f65760203660031901126103f6576111b0613c1d565b818052606560209081526040808420335f908152925290205460ff16156103f4576001600160a01b03165f81815260fc6020526040902054156103f4576020815f5160206159555f395f51905f527f85a3e72f8dd6db3794f93109c3c5f5b79d6112f6979431c45f98b26134b42af29314158061126c575b611241575b611236816157d9565b50604051908152a180f35b80845260fd8252604080852080546001600160a01b031916905581855260fe8352842084905561122d565b50610100546001600160a01b0316811415611228565b50346103f657806003193601126103f65760ff546040516001600160a01b039091168152602090f35b50346103f657806003193601126103f657602090604051908152f35b50346103f65760203660031901126103f6576020906001600160a01b036112ec613c1d565b16815260fd8252604060018060a01b0391205416604051908152f35b50346103f657806003193601126103f657602061010b54604051908152f35b50346103f65760403660031901126103f6576040611343613c33565b9160043581526065602052209060018060a01b03165f52602052602060ff60405f2054166040519015158152f35b50346103f657806003193601126103f657602061010554604051908152f35b50346103f65760803660031901126103f6576113aa613c1d565b906024356001600160401b0381116103f4576113ca903690600401613bf0565b6044356001600160401b038111610613576113e9903690600401613bf0565b9490606435916113f7614ce1565b6113ff614c9d565b6001600160a01b03165f81815260fc6020526040902054156105c7575f5160206159555f395f51905f52865260fd6020526040808720549051633fabe5a360e21b81529060a090829060049082906001600160a01b03165afa8015611b03579060049188918991611add575b5083895260fd6020526040808a20549051633fabe5a360e21b81529360a09185919082906001600160a01b03165afa908115611ad25789938a92611aa9575b5089831380611aa0575b15611a9c576114c39042613f5f565b5f5160206159555f395f51905f528a5260fe60205260408a205410611a98576114ec9042613f5f565b83895260fe602052604089205410611a81579061151561151a9261150f87614bfc565b90613f9b565b613fae565b60405163313ce56760e01b8152602081600481865afa8015611a8d578890611a4c575b60ff91501660120360ff8111611a385760ff16604d8111611a38579061156691600a0a90613fae565b610100549092906001600160a01b03168214611a1f575b82156105cb5761158f83303385615321565b61010554686c6b935b8bbd40000081019081811161195d576101065482116119da5762127500861480156119ce575b80156119c2575b80156119b6575b1561197157811061195d57610105556115e3614c9d565b60405185878237602081878101610102815203019020541580611954575b156110b657609088036105cb576101015460405186888237602081888101610102815203019020556116a560405161163881613c65565b8881528360208201528460408201526101075461010854906040519261165d84613c49565b33845261166b368b8d613cbc565b60208501528860408501526001606085015260808401528a60a084015260c083015260e08201528861010082015288610120820152614ad5565b6040518587823760208187810161010d8152030190206001600160401b0389116118b6576116d789610e2b8354613d6a565b8789601f81116001146118f25780611702928b9161104957508160011b915f199060031b1c19161790565b90555b6040518587823760208187810161010f81520301902060ff1981541690553387526101036020526040872054604051868882376020818881016101048152030190205533875261010360205260408720805490600160401b8210156118de579061177491600182018155613e1a565b9890986118ca576001600160401b0386116118b65761179d866117978b54613d6a565b8b6149ce565b8798601f8711600114611841579061180e92916117de88808c9d5f5160206159355f395f51905f529d9161183657508160011b915f199060031b1c19161790565b90555b611800604051988998338a5261010060208b01526101008a0191613f32565b918783036040890152613f32565b926060850152600160808501528660a085015260c084015260e08301520390a1600160975580f35b90508b01355f610e4a565b80895260208920601f1988168a5b81811061189e5750905f5160206159355f395f51905f529a9b8961180e9695949310611885575b5050600188811b0190556117e1565b8a01355f1960038b901b60f8161c191690555f80611876565b8a8d0135835560209c8d019c6001909301920161184f565b634e487b7160e01b88526041600452602488fd5b634e487b7160e01b88526004889052602488fd5b634e487b7160e01b89526041600452602489fd5b5081895260208920908a601f1981168b5b818110611939575010611920575b5050600189811b019055611705565b8301355f1960038c901b60f8161c191690555f80611911565b8684013585556001909401936020938401938e935001611903565b50841515611601565b634e487b7160e01b5f52601160045260245ffd5b60405162461bcd60e51b815260206004820152601860248201527f496e76616c6964207374616b696e67206475726174696f6e00000000000000006044820152606490fd5b50626ebe0086146115cc565b506249d40086146115c5565b506224ea0086146115be565b60405162461bcd60e51b815260206004820152601a60248201527f53756273696469736174696f6e206361702065786365656465640000000000006044820152606490fd5b91611a316127109161010c5490613f9b565b049161157d565b634e487b7160e01b88526011600452602488fd5b506020813d602011611a85575b81611a6660209383613c80565b81010312611a81575160ff81168103611a815760ff9061153d565b8780fd5b3d9150611a59565b6040513d8a823e3d90fd5b8880fd5b8980fd5b508984136114b4565b909350611ac5915060a03d60a0116105ff576105ec8183613c80565b509492505092905f6114aa565b6040513d8b823e3d90fd5b9050611af8915060a03d60a0116105ff576105ec8183613c80565b50925050905f61146b565b6040513d89823e3d90fd5b50346103f65760403660031901126103f65760043560243582805260656020526040832060018060a01b0333165f5260205260ff60405f20541615610ba457808211610ba4577f32f07544d40b6594a49132ac8f5e83e155ea95048a4793168328979fbe18be1f9160809161010a549161010b54908061010a558261010b55604051938452602084015260408301526060820152a180f35b50346103f65760403660031901126103f657611bc0613c1d565b6001600160a01b0316815261010360205260408120805460243590811015610ba457611beb91613e1a565b919091611c1657611c12611bfe83613e43565b604051918291602083526020830190613da2565b0390f35b634e487b7160e01b81526004819052602490fd5b50346103f657806003193601126103f6577ff146182d150a5b368b6d283f87aeae1f25c21b02ff55cf16848704ade176a5cb8152606560209081526040808320335f908152925290205460ff16156103f657611c84614c9d565b600160ff1960c954161760c9557f62e78cea01bee320cd4e420270b5ea74000d11b0c9f74754ebdbfc544b05a2586020604051338152a180f35b50346103f657806003193601126103f6576020604051621275008152f35b50611ce636613dc6565b9094939291611cf3614ce1565b611cfb614c9d565b611d0482614bfc565b8034036105c7578580808080335af1611d1b613f6c565b50156105c757611d2e9061010954613f52565b6101095561010554686c6b935b8bbd40000081019081811161195d576101065482116119da576212750084148015612083575b8015612077575b801561206b575b1561197157811061195d5761010555611d86614c9d565b60405183858237602081858101610102815203019020541580612062575b156110b65760908603610c2e57610101546040518486823760208186810161010281520301902055611e48604051611ddb81613c65565b34815286602082015286604082015261010754610108549060405192611e0084613c49565b338452611e0e36898b613cbc565b60208501528660408501526001606085015260808401528860a084015260c083015260e08201528661010082015286610120820152614ad5565b6040518385823760208185810161010d8152030190206001600160401b03871161100d57611e7a87610e2b8354613d6a565b8587601f81116001146120005780611ea592899161104957508160011b915f199060031b1c19161790565b90555b6040518385823760208185810161010f81520301902060ff1981541690553385526101036020526040852054604051848682376020818681016101048152030190205533855261010360205260408520805490600160401b8210156110355790611f1791600182018155613e1a565b969096611021576001600160401b03841161100d57611f3a84610ef28954613d6a565b8596601f8511600114611fa55790611f7b9291610f3986808a9b5f5160206159355f395f51905f529b91610f8d57508160011b915f199060031b1c19161790565b906060830152600160808301523460a08301528460c08301528460e08301520390a1600160975580f35b80875260208720601f198616885b818110611fe85750905f5160206159355f395f51905f52989987611f7b9695949310610fdc575050600186811b019055610f3c565b888b0135835560209a8b019a60019093019201611fb3565b50818752602087209088601f198116895b81811061204757501061202e575b5050600187811b019055611ea8565b8301355f1960038a901b60f8161c191690555f8061201f565b8684013585556001909401936020938401938c935001612011565b50821515611da4565b50626ebe008414611d6f565b506249d4008414611d68565b506224ea008414611d61565b5061209936613dc6565b90949392916120a6614ce1565b61010a543410158061262d575b8061261f575b156125ea578480808080335af16120ce613f6c565b5015610c2e575f5160206159555f395f51905f52855260fd6020526040808620549051633fabe5a360e21b81529060a090829060049082906001600160a01b03165afa9182156125df57869187936125b7575b50610100546001600160a01b0390811680895260fd6020526040808a20549051633fabe5a360e21b81529195919260a09184916004918391165afa908115611ad25789928a9261258e575b5089831380612585575b15611a9c576121859042613f5f565b5f5160206159555f395f51905f528a5260fe60205260408a205410611a98576121ae9042613f5f565b84895260fe602052604089205410611a815734686c6b935b8bbd4000000392686c6b935b8bbd400000841161257157600a91611515856121ed93613f9b565b04928315611a8157836122039130903390615321565b61010054610105546001600160a01b03909116926122218183613f52565b61010654106119da576212750086148015612565575b8015612559575b801561254d575b156119715761225391613f52565b6101055561225f614c9d565b60405185878237602081878101610102815203019020541580612544575b156110b657609088036105cb576101015460405186888237602081888101610102815203019020556123206040516122b481613c65565b348152836020820152846040820152610107546101085490604051926122d984613c49565b3384526122e7368b8d613cbc565b60208501528860408501528b606085015260808401528a60a084015260c083015260e08201528861010082015288610120820152614ad5565b6040518587823760208187810161010d8152030190206001600160401b0389116118b65761235289610e2b8354613d6a565b8789601f81116001146124e2578061237d928b9161104957508160011b915f199060031b1c19161790565b90555b6123ab876040518789823760208189810161010f8152030190209060ff801983541691151516179055565b3387526101036020526040872054604051868882376020818881016101048152030190205533875261010360205260408720805490600160401b8210156118de57906123fc91600182018155613e1a565b9890986118ca576001600160401b0386116118b65761241f866117978b54613d6a565b8798601f8711600114612487579061246092916117de88808c9d5f5160206159355f395f51905f529d9161183657508160011b915f199060031b1c19161790565b9260608501528660808501523460a085015260c084015260e08301520390a1600160975580f35b80895260208920601f1988168a5b8181106124ca5750905f5160206159355f395f51905f529a9b896124609695949310611885575050600188811b0190556117e1565b8a8d0135835560209c8d019c60019093019201612495565b5081895260208920908a601f1981168b5b818110612529575010612510575b5050600189811b019055612380565b8301355f1960038c901b60f8161c191690555f80612501565b8684013585556001909401936020938401938e9350016124f3565b5084151561227d565b50626ebe008614612245565b506249d400861461223e565b506224ea008614612237565b634e487b7160e01b89526011600452602489fd5b50828513612176565b9092506125aa915060a03d60a0116105ff576105ec8183613c80565b509392505091905f61216c565b9092506125d3915060a03d60a0116105ff576105ec8183613c80565b5092505090915f612121565b6040513d88823e3d90fd5b60405162461bcd60e51b815260206004820152600d60248201526c496e76616c69642076616c756560981b6044820152606490fd5b50633b9aca003406156120b9565b5061010b543411156120b3565b50346103f657806003193601126103f657602061010954604051908152f35b50346103f657806003193601126103f657602061010754604051908152f35b50346103f657806003193601126103f657610100546040516001600160a01b039091168152602090f35b50346103f657806003193601126103f657602061010854604051908152f35b50346103f657806003193601126103f657610101545f198101919082116126ed57602082604051908152f35b634e487b7160e01b81526011600452602490fd5b50346103f65760203660031901126103f657808052606560209081526040808320335f90815292529020546004359060ff16156103f45760407f3e0916468971c6a0496bb9e570a6490523f6f34b85407a78e713c5d0287fb898916101065490806101065582519182526020820152a180f35b50346103f657806003193601126103f657602060ff60c954166040519015158152f35b50346103f65760203660031901126103f6576004356001600160401b0381116103f4576127cb6127e1913690600401613bf0565b906127d4614ce1565b6127dc614c9d565b614688565b600160975580f35b50346103f657806003193601126103f657602060fb54604051908152f35b50346103f657806003193601126103f65760405180602060fb549182815201809160fb85527f3e7257b7272bb46d49cd6019b04ddee20da7c0cb13f7c1ec3391291b2ccebabc90855b8181106128b05750505082612866910383613c80565b604051928392602084019060208552518091526040840192915b81811061288e575050500390f35b82516001600160a01b0316845285945060209384019390920191600101612880565b8254845260209093019260019283019201612850565b50346103f657806003193601126103f65760206040517ff146182d150a5b368b6d283f87aeae1f25c21b02ff55cf16848704ade176a5cb8152f35b50346103f657806003193601126103f6576020604051626ebe008152f35b50346103f657806003193601126103f65760206040517f0f9dd4db10c87ffcc337f44200a5df16e545591d09c12f63c158b3d592fcf1888152f35b50346103f65760603660031901126103f657612974613c1d565b6044356024356129848183613f5f565b9261298e8461465d565b9361299c6040519586613c80565b8085526129ab601f199161465d565b01855b818110612c205750506001600160a01b0316815b838110612ac65784866040519182916020830160208452825180915260408401602060408360051b870101940192905b828210612a0157505050500390f35b919360019193955060208091603f19898203018552875190848060a01b038251168152610160610120612a438585015161018087860152610180850190613da2565b6040808601518582015260608087015115159086015260808087015180519187019190915260208101516001600160a01b031660a0870152015160c08501529360a081015160e085015260c081015161010085015260e08101518285015261010081015115156101408501520151151591015296019201920185949391926129f2565b818652610103602052612adc8160408820613e1a565b50604051908790805490612aef82613d6a565b9160018116908115612c075750600114612bd3575b5050612b238260206001959484610102612bcc96520301902054613ee3565b50612b2e8684613f5f565b9060ff600a60405192612b4084613c49565b878060a01b038154168452612b56888201613e43565b6020850152600281015460408501528260038201541615156060850152612b7f60048201613f01565b6080850152600781015460a0850152600881015460c0850152600981015460e08501520154818116151561010084015260081c161515610120820152612bc5828a614674565b5287614674565b50016129c2565b90915088526020882088905b828210612bf35750508101612b2382612b04565b600181602092548487015201910190612bdf565b60ff1916855250508015150282019050612b2382612b04565b602090604095939551612c3281613c49565b888152606083820152886040820152886060820152604051612c5381613c65565b898152898482015289604082015260808201528860a08201528860c08201528860e08201528861010082015288610120820152828289010152019391936129ae565b50346103f657806003193601126103f6577f8a8d1de1c18abb94a793a1c642e9153de53c830daa68b212d4eb80a0fed540518152606560209081526040808320335f908152925290205460ff16156103f65760c95460ff811615612d275760ff191660c9557f5db9ee0a495bf2e6ff9c91a7834c1ba4fdd244a5e8aa4e537bd38aeae4b073aa6020604051338152a180f35b60405162461bcd60e51b815260206004820152601460248201527314185d5cd8589b194e881b9bdd081c185d5cd95960621b6044820152606490fd5b50346103f657806003193601126103f657602060405173bbbbbbbbbbbbbbbbbbbbbbbbbbbbbbbbbbbbbbbb8152f35b50346103f65760203660031901126103f657808052606560209081526040808320335f90815292529020546004359060ff16156103f45761271081116103f45760407f70a47d9b6bc76b08da6f8f076f24e0cb3e9c1bfb280f89f72d5e6fe1ffbff577916101085490806101085582519182526020820152a180f35b50346103f657602080612e2036613cf2565b604051928184925191829101835e810161010d815203019020906040519181815491612e4b83613d6a565b8086529260018116908115612eb45750600114612e73575b611c1285611bfe81870382613c80565b815260208120939250905b808210612e9a57509091508101602001611bfe82611c12612e63565b919260018160209254838588010152019101909291612e7e565b869550611c1296935060209250611bfe94915060ff191682840152151560051b8201019293612e63565b50346103f657612eed36613d30565b909183805260656020526040842060018060a01b0333165f5260205260ff60405f20541615610613576001600160a01b03169182156106135783612f3c845f5260fc60205260405f2054151590565b6103f65760049160a0906001600160a01b0316612f588661576e565b5085835260fd60205260408320600180841b0382166001600160601b03841b82541617905585835260fe60205284604084205560405193848092633fabe5a360e21b82525afa9182156106065781908293612ff2575b50131561061357612fbf9042613f5f565b116103f45760207fa317c10673baf4f03b3c1041bd5ddbb537d0333a86fec3607c75f9dbb630f48f91604051908152a180f35b905061300e91925060a03d60a0116105ff576105ec8183613c80565b50939250505f612fae565b50346103f65760403660031901126103f657613033613c33565b336001600160a01b0382160361304f576106cb906004356155aa565b60405162461bcd60e51b815260206004820152602f60248201527f416363657373436f6e74726f6c3a2063616e206f6e6c792072656e6f756e636560448201526e103937b632b9903337b91039b2b63360891b6064820152608490fd5b50346103f657806003193601126103f65760206040517f8b6dced259e7c22d2c562be416e2454fe4c41318f8581c10be50deaca96d35368152f35b50346103f657602080806130fa36613cf2565b604051928184925191829101835e810161010281520301902054604051908152f35b50346103f65760403660031901126103f657600435613139613c33565b906131536106c1825f526065602052600160405f20015490565b80835260656020526040832060018060a01b0383165f5260205260ff60405f2054161561317e578280f35b8083526065602090815260408085206001600160a01b03949094165f81815294909252909220805460ff191660011790553391907f2f8788117e7eff1d82e926ec794901d17c78024a50270940304540a733656f0d8480a45f808280f35b50346103f65760203660031901126103f6576004356131f9614c9d565b7f0f9dd4db10c87ffcc337f44200a5df16e545591d09c12f63c158b3d592fcf1888252606560209081526040808420335f908152925290205460ff16156103f4578180808084335af161324a613f6c565b50156103f4574761010954116132885760207f5b6b431d4476a211bb7d41c20d1aab9ae2321deee0d20be3d9fc9b1093fa6e3d91604051908152a180f35b60405162461bcd60e51b815260206004820152601960248201527f5769746864726177616c20616d6f756e7420746f6f20626967000000000000006044820152606490fd5b50346103f657806003193601126103f65760206040516224ea008152f35b50346103f657806003193601126103f657602061010c54604051908152f35b50346103f65760203660031901126103f65760206133366004355f526065602052600160405f20015490565b604051908152f35b346139155760a036600319011261391557613357613c1d565b6024356001600160401b03811161391557613376903690600401613bf0565b90916044356001600160401b03811161391557613397903690600401613bf0565b335f9081527f1d9c10a110e512a468767bbda60d5ed76f4aa0c91f0ee0510c9ed05475ceff5e6020526040902054919460643592608435929060ff16156139a8575f5160206159555f395f51905f525f5260fd6020527f1df3cf4ed468092b87e8c16b2ef9a90bb8699bfc400ae4ae97452a2c27c21ebe54604051633fabe5a360e21b81529060a090829060049082906001600160a01b03165afa908115613978575f905f92613983575b50610100546001600160a01b039081165f81815260fd602052604090819020549051633fabe5a360e21b81529194919260a09184916004918391165afa908115613978575f925f9261394f575b505f841380613946575b15613915576134a89042613f5f565b5f5160206159555f395f51905f525f5260fe6020527f0ae3abc66e4bda7b39b71e4319fbae3aaf530387468f7ee4237e76041ab137a05410613915576134ee9042613f5f565b835f5260fe60205260405f20541061391557680ae56f730e6d840000820291808304680ae56f730e6d840000149015171561195d5761352c91613fae565b60098102908082046009149015171561195d57600a9004841061391557836135579130903390615321565b61010054610105546001600160a01b039091169290686c6b935b8bbd40000081019081811161195d576101065482116119da57621275008714801561393a575b801561392e575b8015613922575b1561197157811061195d57610105556135bc614c9d565b60405187828237602081898101610102815203019020541580613919575b156110b657609082036139155761010154604051888382376020818a8101610102815203019020556136886040519661361288613c65565b5f88528460208901528560408901526101075461010854906040519261363784613c49565b6001600160a01b03168084529961364f368d88613cbc565b60208501528960408501525f606085015260808401525f60a084015260c083015260e08201525f6101008201525f610120820152614ad5565b6040518782823760208189810161010d8152030190206001600160401b03831161387f576136ba83610e2b8354613d6a565b5f83601f81116001146138b157806136e5925f916138a657508160011b915f199060031b1c19161790565b90555b6040518782823760208189810161010f815203019020600160ff19825416179055855f5261010360205260405f2054604051888382376020818a810161010481520301902055855f5261010360205260405f208054600160401b81101561387f5761375891600182018155613e1a565b613893576001600160401b03881161387f5761377888610e2b8354613d6a565b5f601f8911600114613805575f5160206159355f395f51905f5299926137d994926137bb8b80611800955f916137fa57508160011b915f199060031b1c19161790565b90555b604051998a998a5261010060208b01526101008a0191613f32565b9260608501525f60808501525f60a085015260c084015260e08301520390a1005b90508401358f610e4a565b601f19891690825f5260205f20915f5b818110613867575092611800925f5160206159355f395f51905f529c95928c6137d998961061384e575b505060018b811b0190556137be565b8301355f1960038e901b60f8161c191690558c8061383f565b91926020600181928689013581550194019201613815565b634e487b7160e01b5f52604160045260245ffd5b634e487b7160e01b5f525f60045260245ffd5b90508b01358c610e4a565b50601f19841690825f528460205f20925f5b8d8282106138fb575050106138e2575b5050600183811b0190556136e8565b8a01355f19600386901b60f8161c1916905589806138d3565b8401358555600190940193602093840193889350016138c3565b5f80fd5b508615156135da565b50626ebe0087146135a5565b506249d400871461359e565b506224ea008714613597565b505f8313613499565b90925061396b915060a03d60a0116105ff576105ec8183613c80565b509392505091908c61348f565b6040513d5f823e3d90fd5b905061399e915060a03d60a0116105ff576105ec8183613c80565b5092505089613442565b60405162461bcd60e51b815260206004820152602760248201527f524f4c455f52454749535445525f574954485f464c455849424c455f50524943604482015266455f434845434b60c81b6064820152608490fd5b34613915575f3660031901126139155761010e546040516001600160a01b039091168152602090f35b3461391557602036600319011261391557335f9081527fffdfc1249c027f9191656349feb0761381bb32c9f557e01f419fd08754bf5a1b60205260409020546004359060ff16156139155761271081116139155760407f243f5920d630b2ce83f8881e8e61dfba5c13da5a74bf035e6b28827571b29fa19161010c54908061010c5582519182526020820152a1005b3461391557602036600319011261391557613ace613c1d565b335f9081527fffdfc1249c027f9191656349feb0761381bb32c9f557e01f419fd08754bf5a1b602052604090205460ff16156139155761010e80546001600160a01b0319166001600160a01b0392909216919091179055005b6040366003190112613915576004356001600160401b03811161391557613b52903690600401613bf0565b60243590811515820361391557613b7892613b6b614c9d565b613b73614ce1565b613fcc565b6001609755005b34613915576020366003190112613915576020613336600435614bfc565b34613915576020366003190112613915576004359063ffffffff60e01b821680920361391557602091637965db0b60e01b8114908115613bdf575b5015158152f35b6301ffc9a760e01b14905083613bd8565b9181601f84011215613915578235916001600160401b038311613915576020838186019501011161391557565b600435906001600160a01b038216820361391557565b602435906001600160a01b038216820361391557565b61014081019081106001600160401b0382111761387f57604052565b606081019081106001600160401b0382111761387f57604052565b90601f801991011681019081106001600160401b0382111761387f57604052565b6001600160401b03811161387f57601f01601f191660200190565b929192613cc882613ca1565b91613cd66040519384613c80565b829481845281830111613915578281602093845f960137010152565b602060031982011261391557600435906001600160401b038211613915578060238301121561391557816024613d2d93600401359101613cbc565b90565b6060906003190112613915576004356001600160a01b038116810361391557906024356001600160a01b0381168103613915579060443590565b90600182811c92168015613d98575b6020831014613d8457565b634e487b7160e01b5f52602260045260245ffd5b91607f1691613d79565b805180835260209291819084018484015e5f828201840152601f01601f1916010190565b6060600319820112613915576004356001600160401b0381116139155781613df091600401613bf0565b92909291602435906001600160401b03821161391557613e1291600401613bf0565b909160443590565b8054821015613e2f575f5260205f2001905f90565b634e487b7160e01b5f52603260045260245ffd5b9060405191825f825492613e5684613d6a565b8084529360018116908115613ec15750600114613e7d575b50613e7b92500383613c80565b565b90505f9291925260205f20905f915b818310613ea5575050906020613e7b928201015f613e6e565b6020919350806001915483858901015201910190918492613e8c565b905060209250613e7b94915060ff191682840152151560051b8201015f613e6e565b61010154811015613e2f576101015f52600b60205f20910201905f90565b90604051613f0e81613c65565b8254815260018301546001600160a01b031660208201526002909201546040830152565b908060209392818452848401375f828201840152601f01601f1916010190565b9190820180921161195d57565b9190820391821161195d57565b3d15613f96573d90613f7d82613ca1565b91613f8b6040519384613c80565b82523d5f602084013e565b606090565b8181029291811591840414171561195d57565b8115613fb8570490565b634e487b7160e01b5f52601260045260245ffd5b335f9081527f550cf24ee8cd1238fbb5b2b003ba2815aa7078d8d1f9ebe8aa8f16716a18431f602052604090205490919060ff16156145e157604051818382376020818381016101028152030190205480156145a35761402b90613ee3565b5092600a84019060ff825460081c1661455e577f834288ca549398403511a8b546b7e4885ac51b98630c0ffa3a07858dc5d9e40d6040516020815280614075602082018789613f32565b0390a16144265760ff60038501541661438357600484019081541580614377575b6143645761010061ff00198254161781558154686c6b935b8bbd40000003686c6b935b8bbd400000811161195d576140d19061010554613f5f565b6101055560ff6040518486823760208186810161010f81520301902054165f1461416b575050346139155761414960067fc7b0487e0a21287b5a35f7ddf5ed5d8e9d30338d3ad76e60c0986c52addace48940180549061413560c983048093613f5f565b9055610100546001600160a01b03166152a2565b614160604051928392604084526040840191613f32565b5f60208301520390a1565b819491548034115f146141e15750506007906141a97fc7b0487e0a21287b5a35f7ddf5ed5d8e9d30338d3ad76e60c0986c52addace48955434613f5f565b91829101556141bb3461010954613f52565b610109556141d6604051938493604085526040850191613f32565b9060208301520390a1565b340361391557600160ff198254161790555f935f916008810154806142ed575b506009018054909290156142b15750612710916142219154905490613f9b565b04926142396142308534613f5f565b61010954613f52565b610109555f8080808773bbbbbbbbbbbbbbbbbbbbbbbbbbbbbbbbbbbbbbbb5af1614261613f6c565b5015613915577feb8d450bff74ef3c1d9319f07855afedfdfa4dce6a223c1c1920a3ac1088d3b4935b6142a1604051948594606086526060860191613f32565b91602084015260408301520390a1565b90507feb8d450bff74ef3c1d9319f07855afedfdfa4dce6a223c1c1920a3ac1088d3b49491506142e43461010954613f52565b6101095561428a565b8196506143036127109160066009940154613f9b565b6101005460405163a9059cbb60e01b602082015273bbbbbbbbbbbbbbbbbbbbbbbbbbbbbbbbbbbbbbbb60248201529290910460448084018290528352979161435e916001600160a01b0316614359606483613c80565b61568b565b90614201565b50509091503461391557613e7b91614e0b565b50600685015415614096565b509091346139155761010554686c6b935b8bbd3fffff19810190811161195d5761010555600481018054909190156143ff57505f80936143d88294839454926143cf8461010954613f5f565b61010955614e0b565b73aaaaaaaaaaaaaaaaaaaaaaaaaaaaaaaaaaaaaaaa5af16143f7613f6c565b501561391557565b9050614421613e7b9392600660018060a01b0360058501541693015493614e0b565b6152a2565b9260ff6003829493940154165f1461446c57505050346139155761010554686c6b935b8bbd3fffff19810190811161195d57610105555b805461ff001916610100179055565b60048101549081340361450057600601541590816144f7575b501561449557613e7b9250614e0b565b6144a23461010954613f52565b6101095534686c6b935b8bbd4000000390686c6b935b8bbd400000821161195d576144d260209261010554613f5f565b61010555826040519384928337810161010f81520301902060ff19815416905561445d565b9050155f614485565b60405162461bcd60e51b815260206004820152603060248201527f4d6573736167652076616c7565206d757374206d61746368207468652041564160448201526f160819195c1bdcda5d08185b5bdd5b9d60821b6064820152608490fd5b60405162461bcd60e51b815260206004820152601a60248201527f21726567697374726174696f6e2e776974686472617761626c650000000000006044820152606490fd5b60405162461bcd60e51b81526020600482015260166024820152750726567697374726174696f6e496e64657820213d20360541b6044820152606490fd5b60405162461bcd60e51b815260206004820152600b60248201526a03937b6329032b93937b9160ad1b6044820152606490fd5b519069ffffffffffffffffffff8216820361391557565b908160a09103126139155761463f81614614565b91602082015191604081015191613d2d608060608401519301614614565b6001600160401b03811161387f5760051b60200190565b8051821015613e2f5760209160051b010190565b60405182828237602081848101610102815203019020548015613915576146ae90613ee3565b5080549092906001600160a01b0316330361391557600a830160ff815460081c16156139155760ff6003850154166148ac5760068401549060ff60048601549154165f146147d55790612710614715600861471c614725958461471560098c015483613f9b565b0490613f5f565b97015483613f9b565b926147338161010954613f5f565b610109555b6147428284614e0b565b6101005461475c90859033906001600160a01b03166152e6565b806147bc575b7fee444713008e3c266c8fb74c287dd853d5eb23d60c7e77730b0ed536556efd9a9360018060a01b0361010054166147a7604051958695608087526080870191613f32565b926020850152604084015260608301520390a1565b5f80808084335af16147cc613f6c565b50614762575f80fd5b60078501546147e391613f52565b90809460ff6040518587823760208187810161010f815203019020541661481d575b50506148148161010954613f5f565b61010955614738565b5f9295506020906044600260018060a01b0361010e54169201546040519586938492632ca6ea1960e11b845260048401528660248401525af1908115613978575f91614876575b61486e9250613f52565b925f80614805565b90506020823d6020116148a4575b8161489160209383613c80565b810103126139155761486e915190614864565b3d9150614884565b506004830180549193909115614940575054916148cc8361010954613f5f565b610109556148da8183614e0b565b5f80808086335af16148ea613f6c565b5015613915577fee444713008e3c266c8fb74c287dd853d5eb23d60c7e77730b0ed536556efd9a92614929604051938493608085526080850191613f32565b9060208301525f60408301525f60608301520390a1565b7fee444713008e3c266c8fb74c287dd853d5eb23d60c7e77730b0ed536556efd9a939150600660018060a01b036005830154169101546149808385614e0b565b61498b8133846152e6565b6149a2604051948594608086526080860191613f32565b915f6020850152604084015260608301520390a1565b8181106149c3575050565b5f81556001016149b8565b9190601f81116149dd57505050565b613e7b925f5260205f20906020601f840160051c83019310614a07575b601f0160051c01906149b8565b90915081906149fa565b91909182516001600160401b03811161387f57614a3881614a328454613d6a565b846149ce565b6020601f8211600114614a77578190614a689394955f92614a6c575b50508160011b915f199060031b1c19161790565b9055565b015190505f80614a54565b601f19821690835f52805f20915f5b818110614abd57509583600195969710614aa5575b505050811b019055565b01515f1960f88460031b161c191690555f8080614a9b565b9192602060018192868b015181550194019201614a86565b61010154600160401b81101561387f5760018101610101556101018054821015613e2f575f52600b60205f20910201905f61389357805182546001600160a01b0319166001600160a01b03919091161782556020810151613e7b9261012091600a9190614b459060018301614a11565b60408401516002820155614b6e60608501511515600383019060ff801983541691151516179055565b60808401518051600483015560208101516005830180546001600160a01b039092166001600160a01b031990921691909117905560400151600682015560a0840151600782015560c0840151600882015560e084015160098201556101008401519101805460ff191691151560ff16919091178155910151815461ff00191690151560081b61ff0016179055565b621275008114614c90576224ea008114614c83576249d4008114614c7557626ebe0014614c685760405162461bcd60e51b815260206004820152601b60248201527f496e76616c69642076616c69646174696f6e206475726174696f6e00000000006044820152606490fd5b68022b1c8c1227a0000090565b5068018493fba64ef0000090565b5067d02ab486cedc000090565b50676f05b59d3b20000090565b60ff60c95416614ca957565b60405162461bcd60e51b815260206004820152601060248201526f14185d5cd8589b194e881c185d5cd95960821b6044820152606490fd5b600260975414614cf2576002609755565b60405162461bcd60e51b815260206004820152601f60248201527f5265656e7472616e637947756172643a207265656e7472616e742063616c6c006044820152606490fd5b919091828114614e0657614d4b8354613d6a565b6001600160401b03811161387f57614d6781614a328454613d6a565b5f93601f8211600114614da157614a6892939482915f92614d965750508160011b915f199060031b1c19161790565b015490505f80614a54565b601f198216905f5260205f2094835f5260205f20915f5b818110614dee57509583600195969710614dd657505050811b019055565b01545f1960f88460031b161c191690555f8080614a9b565b9192600180602092868b015481550194019201614db8565b509050565b6040518282823760208184810161010281520301902054801561391557614e3181613ee3565b50546040516001600160a01b03909116908484823760208186810161010481520301902054815f5261010360205260405f20545f19810190811161195d5780820361523a575b50505f5261010360205260405f2080548015615035575f190190614e9b8282613e1a565b61389357614ea98154613d6a565b90816151f7575b5050555f60405184848237602081868101610104815203019020556040518383823760208185810161010d815203019020614eeb8154613d6a565b90816151b4575b50506040518383823760208185810161010f81520301902060ff198154169055610101545f19810190811161195d57808203615049575b5050610101548015615035575f190191614f4283613ee3565b939093613893575f600a85827f04393636f796e0824c4807e9d1a98080042d261b6d4feea240a3d698ee713b52975560018101614f7f8154613d6a565b9081614ff2575b50508260028201558260038201558260048201558260058201558260068201558260078201558260088201558260098201550155610101555f6040518284823760208184810161010281520301902055614fed604051928392602084526020840191613f32565b0390a1565b81601f8693116001146150095750555b5f80614f86565b8183526020832061502591601f0160051c8101906001016149b8565b8082528160208120915555615002565b634e487b7160e01b5f52603160045260245ffd5b615067615061600161505a84613ee3565b5001613e43565b91613ee3565b5061507183613ee3565b9290926138935760209283928082036150a8575b5050604051928184925191829101835e8101610102815203019020555f80614f29565b805482546001600160a01b0319166001600160a01b03919091161782556151729160ff90600a9081906150e16001868101908301614d37565b6002850154600282015561510a84600387015416600383019060ff801983541691151516179055565b6004810160048601808203615179575b505060078501546007820155600885015460088201556009850154600982015501920161515682825416849060ff801983541691151516179055565b5460081c1661ff00825491151560081b169061ff001916179055565b5f80615085565b54905560058581015490820180546001600160a01b0319166001600160a01b0392909216919091179055600680860154908201555f8061511a565b81601f5f93116001146151cb5750555b5f80614ef2565b818352602083206151e791601f0160051c8101906001016149b8565b80825281602081209155556151c4565b81601f5f931160011461520e5750555b5f80614eb0565b8183526020832061522a91601f0160051c8101906001016149b8565b8082528160208120915555615207565b61525361525991845f5261010360205260405f20613e1a565b50613e43565b825f5261010360205261526f8260405f20613e1a565b61389357816152816020938493614a11565b604051928184925191829101835e8101610104815203019020555f80614e77565b90613e7b916040519163a9059cbb60e01b602084015273aaaaaaaaaaaaaaaaaaaaaaaaaaaaaaaaaaaaaaaa6024840152604483015260448252614359606483613c80565b60405163a9059cbb60e01b60208201526001600160a01b039092166024830152604480830193909352918152613e7b91614359606483613c80565b6040516323b872dd60e01b60208201526001600160a01b039283166024820152929091166044830152606480830193909352918152613e7b91614359608483613c80565b5f81815260656020908152604080832033845290915290205460ff16156153895750565b33615394602a613ca1565b916153a26040519384613c80565b602a83526153b0602a613ca1565b602084019290601f1901368437835115613e2f5760308353835160011015613e2f576078602185015360295b6001811161556957506154e4576153f36042613ca1565b906154016040519283613c80565b6042825261540f6042613ca1565b602083019190601f1901368337825115613e2f5760308253825160011015613e2f576078602184015360415b6001811161552857506154e45761114a936037601192846154c495506040519687947f416363657373436f6e74726f6c3a206163636f756e742000000000000000000060208701525180918587015e8401907001034b99036b4b9b9b4b733903937b6329607d1b84830152518092604883015e01015f838201520301601f198101835282613c80565b60405162461bcd60e51b8152602060048201529182916024830190613da2565b606460405162461bcd60e51b815260206004820152602060248201527f537472696e67733a20686578206c656e67746820696e73756666696369656e746044820152fd5b90600f81166010811015613e2f576f181899199a1a9b1b9c1cb0b131b232b360811b901a615556838661588a565b5360041c90801561195d575f190161543b565b90600f81166010811015613e2f576f181899199a1a9b1b9c1cb0b131b232b360811b901a615597838761588a565b5360041c90801561195d575f19016153dc565b805f52606560205260405f2060018060a01b0383165f5260205260ff60405f2054166155d4575050565b5f8181526065602090815260408083206001600160a01b0395909516808452949091528120805460ff19169055339291907ff6391f5c32d9c69d2a47ea670b442974b53935d1edc7fd64eb21e047a839171b9080a4565b1561563257565b60405162461bcd60e51b815260206004820152602b60248201527f496e697469616c697a61626c653a20636f6e7472616374206973206e6f74206960448201526a6e697469616c697a696e6760a81b6064820152608490fd5b906156eb9160018060a01b03165f80604051936156a9604086613c80565b602085527f5361666545524332303a206c6f772d6c6576656c2063616c6c206661696c6564602086015260208151910182855af16156e5613f6c565b9161589b565b8051806156f6575050565b816020918101031261391557602001518015908115036139155761571657565b60405162461bcd60e51b815260206004820152602a60248201527f5361666545524332303a204552433230206f7065726174696f6e20646964206e6044820152691bdd081cdd58d8d9595960b21b6064820152608490fd5b805f5260fc60205260405f2054155f146157d45760fb54600160401b81101561387f576157bd6157a782600185940160fb5560fb613e1a565b819391549060031b91821b915f19901b19161790565b905560fb54905f5260fc60205260405f2055600190565b505f90565b5f81815260fc60205260409020548015615884575f19810181811161195d5760fb545f1981019190821161195d5780820361584c575b50505060fb548015615035575f19016158298160fb613e1a565b8154905f199060031b1b1916905560fb555f5260fc6020525f6040812055600190565b61586e61585d6157a79360fb613e1a565b90549060031b1c92839260fb613e1a565b90555f5260fc60205260405f20555f808061580f565b50505f90565b908151811015613e2f570160200190565b919290156158fd57508151156158af575090565b3b156158b85790565b60405162461bcd60e51b815260206004820152601d60248201527f416464726573733a2063616c6c20746f206e6f6e2d636f6e74726163740000006044820152606490fd5b8251909150156159105750805190602001fd5b60405162461bcd60e51b81526020600482015290819061114a906024830190613da256fe911545ab01a7553b2c4eb100eb4054703d821e76fc5d0504a07b8246aa3b1232000000000000000000000000eeeeeeeeeeeeeeeeeeeeeeeeeeeeeeeeeeeeeeeea2646970667358221220fec90849ec39da9ca6e7f99564cb1bf8e44a97988d5ea3a9fa975abc945cbaca64736f6c634300081c0033","linkReferences":{}},"methodIdentifiers":{"AVAX()":"b59f091e","DEFAULT_ADMIN_ROLE()":"a217fddf","FEE_RECIPIENT()":"ebd09054","ROLE_PAUSE()":"4ff0241a","ROLE_REGISTER_WITHOUT_COLLATERAL()":"341030f0","ROLE_REGISTER_WITH_FLEXIBLE_PRICE_CHECK()":"c8fc9e4e","ROLE_RELEASE_LOCKED_TOKENS()":"efe867e2","ROLE_UNPAUSE()":"d964c25a","ROLE_WITHDRAW()":"4b7e23dc","SLASHED_TOKEN_RECIPIENT()":"3f24a8e5","VALIDATION_DURATION_EIGHT_WEEKS()":"ce339923","VALIDATION_DURATION_FOUR_WEEKS()":"2dbecc1a","VALIDATION_DURATION_ONE_YEAR()":"f38b8411","VALIDATION_DURATION_TWELVE_WEEKS()":"4bcad6f2","VALIDATION_DURATION_TWO_WEEKS()":"8079336c","accountRegistrationIndicesByNodeId(string)":"d9723ea7","addPaymentToken(address,address,uint256)":"395cc512","avaxSlashPercentage()":"5fa9237a","blsProofOfPossessionByNodeId(string)":"3b722144","configurePriceFeed(address,address,uint256)":"d9ea5b03","getAccountRegistrationCount(address)":"a9316fd2","getErc20PaymentMethods()":"53cc04a1","getRegistrationFee(uint256)":"0c8c7900","getRegistrationsByAccount(address,uint256,uint256)":"48e2678f","getRoleAdmin(bytes32)":"248a9ca3","getTotalErc20PaymentMethods()":"58aa9000","getTotalRegistrations()":"5f4c5d33","grantRole(bytes32,address)":"2f2ff15d","hasRole(bytes32,address)":"91d14854","initialize(address,address,address,uint256,address,uint256,uint256,uint256)":"ad18f0da","maxPriceAges(address)":"d0c63d35","maximumAvaxDeposit()":"9922b43b","maximumSubsidisationAmount()":"e34df3c1","minimumAvaxDeposit()":"c92f58b2","minimumContractBalance()":"78a66f15","pause()":"8456cb59","paused()":"5c975abb","priceFeeds(address)":"9dcb511a","qi()":"5fcd6255","qiPriceMultiplier()":"2576eed1","qiRewardEligibilityByNodeId(string)":"bd65581e","qiSlashPercentage()":"75e27186","redeemAfterExpiry(string)":"5b499a97","registerWithAvaxFee(string,bytes,uint256)":"80286737","registerWithErc20Fee(address,string,bytes,uint256)":"8567a2e5","registerWithPrevalidatedQiStake(address,string,bytes,uint256,uint256)":"1df1a433","registerWithStake(string,bytes,uint256)":"7d1aacad","registerWithoutCollateral(string,bytes,uint256)":"ac966e15","registeredNodeIdsByAccount(address,uint256)":"84f826c7","registrationIndicesByNodeId(string)":"3153caeb","registrations(uint256)":"f4ddb5be","releaseLockedTokens(string,bool)":"0ffbccdb","removePaymentToken(address)":"a5125421","renounceRole(bytes32,address)":"36568abe","revokeRole(bytes32,address)":"d547741f","sAVAX()":"a2a5236c","setAvaxDepositRange(uint256,uint256)":"8500bc89","setAvaxSlashPercentage(uint256)":"3cb8beb0","setMaximumSubsidisationAmount(uint256)":"5d36f34f","setQiPriceMultiplier(uint256)":"190e9d41","setQiSlashPercentage(uint256)":"b6d1d67b","setValidatorRewarder(address)":"1679a965","supportsInterface(bytes4)":"01ffc9a7","totalSubsidisedAmount()":"8d01d1c5","unpause()":"3f4ba83a","validatorRewarder()":"1a753657","withdraw(uint256)":"2e1a7d4d"},"id":51}