{"abi":[{"type":"constructor","inputs":[],"stateMutability":"payable"},{"type":"function","name":"FEE_RECIPIENT","inputs":[],"outputs":[{"name":"","type":"address","internalType":"address"}],"stateMutability":"view"},{"type":"function","name":"SLASHED_TOKEN_RECIPIENT","inputs":[],"outputs":[{"name":"","type":"address","internalType":"address"}],"stateMutability":"view"},{"type":"function","name":"VALIDATION_DURATION_EIGHT_WEEKS","inputs":[],"outputs":[{"name":"","type":"uint256","internalType":"uint256"}],"stateMutability":"view"},{"type":"function","name":"VALIDATION_DURATION_FOUR_WEEKS","inputs":[],"outputs":[{"name":"","type":"uint256","internalType":"uint256"}],"stateMutability":"view"},{"type":"function","name":"VALIDATION_DURATION_TWELVE_WEEKS","inputs":[],"outputs":[{"name":"","type":"uint256","internalType":"uint256"}],"stateMutability":"view"},{"type":"function","name":"VALIDATION_DURATION_TWO_WEEKS","inputs":[],"outputs":[{"name":"","type":"uint256","internalType":"uint256"}],"stateMutability":"view"},{"type":"function","name":"amountArr","inputs":[{"name":"","type":"uint256","internalType":"uint256"}],"outputs":[{"name":"","type":"uint256","internalType":"uint256"}],"stateMutability":"view"},{"type":"function","name":"avaxFee","inputs":[],"outputs":[{"name":"","type":"uint256","internalType":"uint256"}],"stateMutability":"view"},{"type":"function","name":"avaxSlash","inputs":[],"outputs":[{"name":"","type":"uint256","internalType":"uint256"}],"stateMutability":"view"},{"type":"function","name":"blsKey","inputs":[],"outputs":[{"name":"","type":"bytes","internalType":"bytes"}],"stateMutability":"view"},{"type":"function","name":"blsPoP","inputs":[],"outputs":[{"name":"","type":"bytes","internalType":"bytes"}],"stateMutability":"view"},{"type":"function","name":"blsSignature","inputs":[],"outputs":[{"name":"","type":"bytes","internalType":"bytes"}],"stateMutability":"view"},{"type":"function","name":"boundValue","inputs":[{"name":"value","type":"uint256","internalType":"uint256"},{"name":"min","type":"uint256","internalType":"uint256"},{"name":"max","type":"uint256","internalType":"uint256"}],"outputs":[{"name":"","type":"uint256","internalType":"uint256"}],"stateMutability":"pure"},{"type":"function","name":"durations","inputs":[{"name":"","type":"uint256","internalType":"uint256"}],"outputs":[{"name":"","type":"uint256","internalType":"uint256"}],"stateMutability":"view"},{"type":"function","name":"echidna_check_eth_balance","inputs":[],"outputs":[{"name":"","type":"bool","internalType":"bool"}],"stateMutability":"nonpayable"},{"type":"function","name":"echidna_check_fail_registration_withdrawal","inputs":[],"outputs":[{"name":"","type":"bool","internalType":"bool"}],"stateMutability":"view"},{"type":"function","name":"echidna_check_minimum_eth_balance","inputs":[],"outputs":[{"name":"","type":"bool","internalType":"bool"}],"stateMutability":"view"},{"type":"function","name":"echidna_check_qi_balance","inputs":[],"outputs":[{"name":"","type":"bool","internalType":"bool"}],"stateMutability":"view"},{"type":"function","name":"echidna_check_success_registration_withdrawal","inputs":[],"outputs":[{"name":"","type":"bool","internalType":"bool"}],"stateMutability":"nonpayable"},{"type":"function","name":"echidna_check_success_slashed","inputs":[],"outputs":[{"name":"","type":"bool","internalType":"bool"}],"stateMutability":"nonpayable"},{"type":"function","name":"failRegistrationIndices","inputs":[{"name":"","type":"uint256","internalType":"uint256"}],"outputs":[{"name":"","type":"uint256","internalType":"uint256"}],"stateMutability":"view"},{"type":"function","name":"gostMinimumContractBalance","inputs":[],"outputs":[{"name":"","type":"uint256","internalType":"uint256"}],"stateMutability":"view"},{"type":"function","name":"isRegisteredCalled","inputs":[],"outputs":[{"name":"","type":"bool","internalType":"bool"}],"stateMutability":"view"},{"type":"function","name":"nodeIds","inputs":[{"name":"","type":"uint256","internalType":"uint256"}],"outputs":[{"name":"","type":"string","internalType":"string"}],"stateMutability":"view"},{"type":"function","name":"qiPriceMultiplier","inputs":[],"outputs":[{"name":"","type":"uint256","internalType":"uint256"}],"stateMutability":"view"},{"type":"function","name":"register_with_avax_fee","inputs":[{"name":"userIndex","type":"uint256","internalType":"uint256"},{"name":"validationDurationIndex","type":"uint256","internalType":"uint256"},{"name":"nodeId","type":"uint256","internalType":"uint256"}],"outputs":[],"stateMutability":"nonpayable"},{"type":"function","name":"register_with_erc20_fee","inputs":[{"name":"userIndex","type":"uint256","internalType":"uint256"},{"name":"nodeId","type":"uint256","internalType":"uint256"},{"name":"validationDurationIndex","type":"uint256","internalType":"uint256"}],"outputs":[],"stateMutability":"nonpayable"},{"type":"function","name":"register_with_prevalidated_qiStake","inputs":[{"name":"userIndex","type":"uint256","internalType":"uint256"},{"name":"nodeId","type":"uint256","internalType":"uint256"},{"name":"validationDurationIndex","type":"uint256","internalType":"uint256"}],"outputs":[],"stateMutability":"nonpayable"},{"type":"function","name":"register_with_stake","inputs":[{"name":"userIndex","type":"uint256","internalType":"uint256"},{"name":"amountIndex","type":"uint256","internalType":"uint256"},{"name":"nodeId","type":"uint256","internalType":"uint256"},{"name":"validationDurationIndex","type":"uint256","internalType":"uint256"}],"outputs":[],"stateMutability":"nonpayable"},{"type":"function","name":"register_without_collateral","inputs":[{"name":"userIndex","type":"uint256","internalType":"uint256"},{"name":"nodeId","type":"uint256","internalType":"uint256"},{"name":"validationDurationIndex","type":"uint256","internalType":"uint256"}],"outputs":[],"stateMutability":"nonpayable"},{"type":"function","name":"releaseLockTokenFailedCalled","inputs":[],"outputs":[{"name":"","type":"bool","internalType":"bool"}],"stateMutability":"view"},{"type":"function","name":"releaseLockTokenSlashedCalled","inputs":[],"outputs":[{"name":"","type":"bool","internalType":"bool"}],"stateMutability":"view"},{"type":"function","name":"releaseLockTokenSuccessCalled","inputs":[],"outputs":[{"name":"","type":"bool","internalType":"bool"}],"stateMutability":"view"},{"type":"function","name":"release_locked_tokens_failed","inputs":[{"name":"nodeIdIndex","type":"uint256","internalType":"uint256"}],"outputs":[],"stateMutability":"nonpayable"},{"type":"function","name":"release_locked_tokens_slash","inputs":[{"name":"nodeIdIndex","type":"uint256","internalType":"uint256"}],"outputs":[],"stateMutability":"nonpayable"},{"type":"function","name":"release_locked_tokens_success","inputs":[{"name":"nodeIdIndex","type":"uint256","internalType":"uint256"}],"outputs":[],"stateMutability":"nonpayable"},{"type":"function","name":"successRegistrationIndices","inputs":[{"name":"","type":"uint256","internalType":"uint256"}],"outputs":[{"name":"","type":"uint256","internalType":"uint256"}],"stateMutability":"view"},{"type":"function","name":"tokenFee","inputs":[],"outputs":[{"name":"","type":"uint256","internalType":"uint256"}],"stateMutability":"view"},{"type":"function","name":"tokenSlash","inputs":[],"outputs":[{"name":"","type":"uint256","internalType":"uint256"}],"stateMutability":"view"},{"type":"function","name":"withdraw_eth","inputs":[{"name":"amount","type":"uint256","internalType":"uint256"}],"outputs":[],"stateMutability":"nonpayable"},{"type":"event","name":"Log","inputs":[{"name":"","type":"string","indexed":false,"internalType":"string"}],"anonymous":false},{"type":"event","name":"LogAsad","inputs":[{"name":"","type":"uint256","indexed":false,"internalType":"uint256"}],"anonymous":false}],"bytecode":{"object":"0x60806040525f80546001600160a01b031916632345764317815560025461002590611285565b601f811161123c575b50606160029081555f527f8d609cdd38ffc9ad01c91d1ae4fccb8cd6c75a6ad33a401da42283b0c3b59bba5f51602061aaae5f395f51905f52556ff5abc172335ea4d9c31baa936818f0ab60801b7f405787fa12a823e0f2b7631cc41b3ba8828b3321ca811111fa75cd3aa3bb5acf556003546100aa90611285565b601f81116111f3575b5060c160039081555f9081527f8c12c805e7dfe4bfe38be44685ee852d931d73b3c0820a1343d731909120cee45f51602061aace5f395f51905f52557f895f9b60990520a90d06a031a42e0f8616d415b543408c24be0da90d5e7fa8247fc2575a0e9e593c00f959f8c92f12db2869c3395a3b0502d05e2516446f71f85c557f2f4fd32dadf34c790996ca474dbdbcd763f82c53880db19fd3b30d13cee278b47fc2575a0e9e593c00f959f8c92f12db2869c3395a3b0502d05e2516446f71f85d556040516002549092919061018881611285565b90600181169081156111d85750600114611196575b50825f600354926101ad84611285565b936001811690811561117e575060011461113a575b506101d6925003601f1981018452836112d3565b81516001600160401b038111610fee576101f1600454611285565b601f81116110e1575b50602092601f821160011461108057928192935f92611075575b50508160011b915f199060031b1c1916176004555b612710600c5560405161028081016001600160401b03811182821017610fee5760405268015af1d78b58c4000081526802b5e3af16b18800006020820152680410d586a20a4c0000604082015268056bc75e2d6310000060608201526806c6b935b8bbd400006080820152680821ab0d441498000060a082015268097c9ce4cf6d5c000060c0820152680ad78ebc5ac620000060e0820152680c328093e61ee40000610100820152680d8d726b7177a80000610120820152680ee86442fcd06c0000610140820152681043561a882930000061016082015268119e47f21381f400006101808201526812f939c99edab800006101a08201526814542ba12a337c00006101c08201526815af1d78b58c4000006101e082015268170a0f5040e50400006102008201526818650127cc3dc800006102208201526819bff2ff57968c0000610240820152681b1ae4d6e2ef500000610260820152600f546014600f558060141061101f575b50600f5f5260205f20905f5b60148110611002578360015468010000000000000000811015610fee578060016103cd92016001556001611322565b81546001600160a01b0360039290921b91821b191660019182901b179091555468010000000000000000811015610fee5780600161041092016001556001611322565b81546001600160a01b0360039290921b91821b1916600290911b17905560015468010000000000000000811015610fee5780600161045392016001556001611322565b8154600391821b91821b6001600160a01b039283901b19909116179091555f54165f51602061aa8e5f395f51905f523b15610fea576040519063ca669fa760e01b825260048201525f81602481835f51602061aa8e5f395f51905f525af18015610fdf57610fcc575b5060405161013990818101906001600160401b03821181831017610f505760208161431d9385858339620f4240815203019084f08015610ac557600880546001600160a01b0319166001600160a01b0392831617905583548491165f51602061aa8e5f395f51905f523b15610ab5576040519063ca669fa760e01b825260048201528181602481835f51602061aa8e5f395f51905f525af18015610ae557610fb7575b505060405191808301916001600160401b03831184841017610fa35791839160209383396377359400815203019082f08015610f4357600980546001600160a01b0319166001600160a01b0392831617905581548291165f51602061aa8e5f395f51905f523b15610eba576040519063ca669fa760e01b825260048201528181602481835f51602061aa8e5f395f51905f525af18015610ae557610f8e575b50506040516080808201906001600160401b03821183831017610f50579082916144568339039082f08015610f4357600780546001600160a01b0319166001600160a01b0392831617905581548291165f51602061aa8e5f395f51905f523b15610eba576040519063ca669fa760e01b825260048201528181602481835f51602061aa8e5f395f51905f525af18015610ae557610f79575b5050604051610d15808201906001600160401b03821183831017610f505760e09183916144d6833960608152600560608201526442454e514960d81b608082015260a06020820152600260a082015261514960f01b60c08201526012604082015203019082f08015610f4357600680546001600160a01b0319166001600160a01b0392831617905581548291165f51602061aa8e5f395f51905f523b15610eba576040519063ca669fa760e01b825260048201528181602481835f51602061aa8e5f395f51905f525af18015610ae557610f64575b50506040516158a3808201906001600160401b03821183831017610f50579082916151eb8339039082f08015610f4357600580546001600160a01b0319166001600160a01b0392831617905581548291165f51602061aa8e5f395f51905f523b15610eba576040519063ca669fa760e01b825260048201528181602481835f51602061aa8e5f395f51905f525af18015610ae557610f2e575b506005546007546006546009546008546001600160a01b039182169490821693928216929082169116813b15610f2a5785610104928195604051978896879563568c786d60e11b875260048701526024860152604485015262015180606485015260848401526201518060a484015268015af1d78b58c4000060c4840152685150ae84a8cdf0000060e48401525af18015610ae557610f15575b505b600154811015610b2f57816108b4826112f6565b905460039190911b1c6001600160a01b03165f51602061aa8e5f395f51905f523b15610ab5576040519063ca669fa760e01b825260048201528181602481835f51602061aa8e5f395f51905f525af18015610ae557610b1a575b506006546001600160a01b0316803b15610ab55781809160246040518094819363140e25ad60e31b83526e01ed09bead87c0378d8e640000000060048401525af18015610ae557610b05575b50610964826112f6565b905460039190911b1c6001600160a01b03165f51602061aa8e5f395f51905f523b15610ab5576040519063c88a5e6d60e01b825260048201526e01ed09bead87c0378d8e640000000060248201528181604481835f51602061aa8e5f395f51905f525af18015610ae557610af0575b506109dd826112f6565b905460039190911b1c6001600160a01b03165f51602061aa8e5f395f51905f523b15610ab5576040519063ca669fa760e01b825260048201528181602481835f51602061aa8e5f395f51905f525af18015610ae557610ad0575b5060065460055460405163095ea7b360e01b81526001600160a01b0391821660048201525f19602482015292602092849260449284929091165af18015610ac557610a86575b506001016108a0565b6020813d8211610abd575b81610a9e602093836112d3565b81010312610ab9575180151503610ab55782610a7d565b5080fd5b8280fd5b3d9150610a91565b6040513d85823e3d90fd5b81610ada916112d3565b610ab5578183610a37565b6040513d84823e3d90fd5b81610afa916112d3565b610ab55781836109d3565b81610b0f916112d3565b610ab557818361095a565b81610b24916112d3565b610ab557818361090e565b50805481906001600160a01b03165f51602061aa8e5f395f51905f523b15610eba576040519063ca669fa760e01b825260048201528181602481835f51602061aa8e5f395f51905f525af18015610ae557610f00575b5060055481546001600160a01b039182169116813b15610ed2578291604483926040519485938492632f2ff15d60e01b84527f0f9dd4db10c87ffcc337f44200a5df16e545591d09c12f63c158b3d592fcf188600485015260248401525af18015610ae557610eeb575b5080546001600160a01b03165f51602061aa8e5f395f51905f523b15610eba576040519063ca669fa760e01b825260048201528181602481835f51602061aa8e5f395f51905f525af18015610ae557610ed6575b5060055481546001600160a01b039182169116813b15610ed2578291604483926040519485938492632f2ff15d60e01b84527fbb4ab89723950398fbe0f1fe11ab060da193cf1f8b664c9831ac485bec8c6ca9600485015260248401525af18015610ae557610ebd575b5080546001600160a01b03165f51602061aa8e5f395f51905f523b15610eba576040519063ca669fa760e01b825260048201528181602481835f51602061aa8e5f395f51905f525af18015610ae557610ea5575b506005546006546008546001600160a01b03928316929182169116823b15610ea05760648492836040519586948593631cae628960e11b8552600485015260248401526201518060448401525af18015610ae557610e88575b5050600e5468010000000000000000811015610e7457806001610d829201600e55600e611322565b81549060031b9062127500821b915f19901b1916179055600e5468010000000000000000811015610e7457806001610dbf9201600e55600e611322565b81549060031b906224ea00821b915f19901b1916179055600e5468010000000000000000811015610e7457806001610dfc9201600e55600e611322565b81549060031b906249d400821b915f19901b1916179055600e549068010000000000000000821015610e6057610e3a8260018101600e55600e611322565b81549060031b90626ebe00821b915f19901b1916179055604051612fe590816113388239f35b634e487b7160e01b81526041600452602490fd5b634e487b7160e01b82526041600452602482fd5b81610e92916112d3565b610e9d578082610d5a565b80fd5b505050fd5b81610eaf916112d3565b610e9d578082610d01565b50fd5b81610ec7916112d3565b610e9d578082610cad565b5050fd5b81610ee0916112d3565b610e9d578082610c43565b81610ef5916112d3565b610e9d578082610bef565b81610f0a916112d3565b610e9d578082610b85565b81610f1f916112d3565b610e9d57808261089e565b8580fd5b81610f38916112d3565b610e9d578082610804565b50604051903d90823e3d90fd5b634e487b7160e01b84526041600452602484fd5b81610f6e916112d3565b610e9d57808261076b565b81610f83916112d3565b610e9d578082610696565b81610f98916112d3565b610e9d5780826105fe565b634e487b7160e01b85526041600452602485fd5b81610fc1916112d3565b610ab957828461055f565b610fd891505f906112d3565b5f816104bc565b6040513d5f823e3d90fd5b5f80fd5b634e487b7160e01b5f52604160045260245ffd5b81516001600160481b03168184015560209091019060010161039e565b600f5f5261106f907f8d1108e10bcb7c27dddfc02ed9d693a074039d026cf4ea4240b40f7d581ac802017f8d1108e10bcb7c27dddfc02ed9d693a074039d026cf4ea4240b40f7d581ac8166112bd565b5f610392565b015190505f80610214565b601f1982169360045f52805f20915f5b8681106110c957508360019596106110b1575b505050811b01600455610229565b01515f1960f88460031b161c191690555f80806110a3565b91926020600181928685015181550194019201611090565b60045f5261112a907f8a35acfbc15ff81a39ae7d344fd709f28e8600b4aa8c65c6b64bfe7fe36bd19b601f840160051c81019160208510611130575b601f0160051c01906112bd565b5f6101fa565b909150819061111d565b60035f9081529091505f51602061aace5f395f51905f525b848210611167575050916101d692015f6101c2565b805482840152869350602090910190600101611152565b60ff19168252506101d693801515020190505f6101c2565b60025f9081529091505f51602061aaae5f395f51905f525b8282106111c257505082016020015f61019d565b60018160209254838589010152019101906111ae565b90506020925060ff191682850152801515028301015f61019d565b60035f5261123690601f0160051c5f51602061aace5f395f51905f52017fc2575a0e9e593c00f959f8c92f12db2869c3395a3b0502d05e2516446f71f85e6112bd565b5f6100b3565b60025f5261127f90601f0160051c5f51602061aaae5f395f51905f52017f405787fa12a823e0f2b7631cc41b3ba8828b3321ca811111fa75cd3aa3bb5ad06112bd565b5f61002e565b90600182811c921680156112b3575b602083101461129f57565b634e487b7160e01b5f52602260045260245ffd5b91607f1691611294565b8181106112c8575050565b5f81556001016112bd565b601f909101601f19168101906001600160401b03821190821017610fee57604052565b60015481101561130e5760015f5260205f2001905f90565b634e487b7160e01b5f52603260045260245ffd5b805482101561130e575f5260205f2001905f9056fe60806040526004361015610011575f80fd5b5f5f3560e01c8063098c817314611dcc5780630d501d8714611a4557806310fe6eb6146117575780631b4229291461172c5780631d791f3e1461170e5780632576eed1146116f05780632b247af6146116d25780632dbecc1a146116b457806330a95e67146114e757806332e9aa8c146114bc5780633a71765d146114965780633f24a8e51461146757806345599136146114495780634bcad6f21461142b5780634e7320ce146113855780635ab6bc3b146112fe578063666f35a4146112e35780636d9ce5b5146112c35780636f07a042146112a05780637438c4b7146110f657806375bff18114610da6578063774860a414610d805780638079336c14610d62578063846f81c514610d2b578063973ca200146109725780639854316614610913578063a049b04c146108f5578063bb15ab1b14610857578063bc20a7af1461081d578063cb9a2f44146107fa578063ce339923146107dc578063cf2f00af14610736578063da69821e1461071b578063dea06dec146103f3578063e3afe87e146103ce578063e579a04d1461035d578063eba349111461033f578063ebd0905414610310578063ede32943146102b75763f9bf4553146101d2575f80fd5b346102b457806003193601126102b4576040515f6004546101f2816121e1565b80845290600181169081156102905750600114610232575b61022e8361021a81850382612219565b60405191829160208352602083019061223b565b0390f35b60045f9081527f8a35acfbc15ff81a39ae7d344fd709f28e8600b4aa8c65c6b64bfe7fe36bd19b939250905b8082106102765750909150810160200161021a61020a565b91926001816020925483858801015201910190929161025e565b60ff191660208086019190915291151560051b8401909101915061021a905061020a565b80fd5b50346102b457806003193601126102b4576020600a545f516020612f905f395f51905f5282604051838152a160018060a01b03600554165f516020612f905f395f51905f52838231604051908152a13114604051908152f35b50346102b457806003193601126102b457602060405173aaaaaaaaaaaaaaaaaaaaaaaaaaaaaaaaaaaaaaaa8152f35b50346102b457806003193601126102b4576020601454604051908152f35b50346102b45760203660031901126102b457600435906012548210156102b457506012548110156103ba5760125f527fbb8a6a4669ba250d26cd7a459eca9d215f8307e33aebe50379bc5a3617ec34440154604051908152602090f35b634e487b7160e01b5f52603260045260245ffd5b50346102b457806003193601126102b45760206103e9612df7565b6040519015158152f35b50346102b45760803660031901126102b457600f546044359180610707575061041e90602435612d4b565b9061042d600154600435612d4b565b5f9261047061045861044b610446600e54606435612d4b565b6121b4565b90549060031b1c93612154565b905460039190911b1c6001600160a01b03169161219c565b90549060031b1c90600460a0600180821b036009541660405192838092633fabe5a360e21b82525afa801561068a576004915f916106e3575b50600854604051633fabe5a360e21b81529260a09184919082906001600160a01b03165afa91821561068a575f926106ad575b5083686c6b935b8bbd40000003686c6b935b8bbd40000081116106995761051a9261050c61051192600a9461261d565b612630565b04600b5461237f565b600b5561052982600a5461237f565b600a555f516020612f705f395f51905f523b15610695576040519063ca669fa760e01b825260048201525f81602481835f516020612f705f395f51905f525af1801561068a57610673575b50600554604051664e6f646549442d60c81b60208201526027808201869052815285939290916001600160a01b03166105ae604784612219565b803b1561066f576105e36105f492869460405196879586948593637d1aacad60e01b855260606004860152606485019061223b565b83810360031901602485015261225f565b90604483015203925af180156106645761064b575b5061063b8260405190664e6f646549442d60c81b6020830152602782015260278152610636604782612219565b61238c565b600160ff19601854161760185580f35b8161065591612219565b61066057815f610609565b5080fd5b6040513d84823e3d90fd5b8480fd5b610681919294505f90612219565b5f92905f610574565b6040513d5f823e3d90fd5b5f80fd5b634e487b7160e01b5f52601160045260245ffd5b6106d091925060a03d60a0116106dc575b6106c88183612219565b810190612d19565b5050509050905f6104dc565b503d6106be565b6106fc915060a03d60a0116106dc576106c88183612219565b50505090505f6104a9565b634e487b7160e01b81526011600452602490fd5b50346102b457806003193601126102b45760206103e9612d55565b50346102b457806003193601126102b4576040515f600254610757816121e1565b8084529060018116908115610290575060011461077e5761022e8361021a81850382612219565b60025f9081527f405787fa12a823e0f2b7631cc41b3ba8828b3321ca811111fa75cd3aa3bb5ace939250905b8082106107c25750909150810160200161021a61020a565b9192600181602092548385880101520191019092916107aa565b50346102b457806003193601126102b45760206040516249d4008152f35b50346102b457806003193601126102b457602060ff601854166040519015158152f35b50346102b45760203660031901126102b45760043590600e548210156102b4576020610848836121b4565b90549060031b1c604051908152f35b50346102b457806003193601126102b4576006546005546040516370a0823160e01b81526001600160a01b039182166004820152929160209184916024918391165afa9081156108e957906108b6575b602090600b5414604051908152f35b506020813d6020116108e1575b816108d060209383612219565b8101031261069557602090516108a7565b3d91506108c3565b604051903d90823e3d90fd5b50346102b457806003193601126102b4576020600d54604051908152f35b50346102b45760203660031901126102b4576004356010548110156106605761093b9061216c565b91909161095e5760405161022e9061021a8161095781876122fe565b0382612219565b634e487b7160e01b81526004819052602490fd5b50346102b4576109813661213a565b929091816001549261070757506109a59161099b91612d4b565b92600e5490612d4b565b916109c06109b35f946121b4565b90549060031b1c91612154565b90545f5460039290921b1c6001600160a01b0390811691165f516020612f705f395f51905f523b15610695576040519063ca669fa760e01b825260048201525f81602481835f516020612f705f395f51905f525af1801561068a57610d16575b5060055484906001600160a01b0316803b1561066057818091604460405180948193632f2ff15d60e01b83527f6ef8b52debbf584bbeee3d104b589533cc529f3789bdbc2bae3dabb3fcde96f660048401528860248401525af1801561066457610d01575b5050600954604051633fabe5a360e21b81529060a090829060049082906001600160a01b03165afa8015610c79576004918691610cdd575b50600854604051633fabe5a360e21b81529260a09184919082906001600160a01b03165afa918215610cd2578692610cac575b50680ae56f730e6d840000810290808204680ae56f730e6d8400001490151715610c985790610b1e91612630565b600981029080820460091490151715610c845790600a8593920491610b4583600b5461237f565b600b555f516020612f705f395f51905f523b15610c755760405163ca669fa760e01b8152600481018390528481602481835f516020612f705f395f51905f525af1908115610c79578591610c60575b505060018060a01b0360055416604051664e6f646549442d60c81b602082015286602782015260278152610bc9604782612219565b813b15610c5c57858094610c0594610c169760405198899788968795631df1a43360e01b8752600487015260a0602487015260a486019061223b565b84810360031901604486015261225f565b916064840152608483015203925af180156106645761064b575061063b8260405190664e6f646549442d60c81b6020830152602782015260278152610636604782612219565b8580fd5b81610c6a91612219565b610c7557835f610b94565b8380fd5b6040513d87823e3d90fd5b634e487b7160e01b85526011600452602485fd5b634e487b7160e01b86526011600452602486fd5b610cc691925060a03d60a0116106dc576106c88183612219565b5050509050905f610af0565b6040513d88823e3d90fd5b610cf6915060a03d60a0116106dc576106c88183612219565b50505090505f610abd565b81610d0b91612219565b610c7557835f610a85565b610d239194505f90612219565b5f925f610a20565b50346102b4576020610d5a610d4e610d54610d453661213a565b9080949161264e565b90612d4b565b9061237f565b604051908152f35b50346102b457806003193601126102b4576020604051621275008152f35b50346102b457806003193601126102b457602060ff60135460081c166040519015158152f35b50346102b457610db53661213a565b92909181600154926107075750610dcf9161099b91612d4b565b91610ddd6109b35f946121b4565b60018060a01b0391549060031b1c166024602060018060a01b036005541660405192838092620c8c7960e81b82528760048301525afa801561068a575f906110c3575b600954604051633fabe5a360e21b8152925060a090839060049082906001600160a01b03165afa90811561068a576004925f9261109d575b50600854604051633fabe5a360e21b81529360a09185919082906001600160a01b03165afa90811561068a57610e9a935f92611075575b5061050c919261261d565b60065460405163313ce56760e01b815290602090829060049082906001600160a01b03165afa801561068a575f90611038575b60ff91501660120360ff81116106995760ff16604d811161069957610511610eff610f089361271093600a0a90612630565b600c549061261d565b600b555f516020612f705f395f51905f523b15610695576040519063ca669fa760e01b825260048201525f81602481835f516020612f705f395f51905f525af1801561068a57611023575b50600554600654604051664e6f646549442d60c81b6020820152602780820186905281528593909290916001600160a01b039081169116610f95604785612219565b803b1561066f57610fe29385610fd193819560405197889687958694638567a2e560e01b8652600486015260806024860152608485019061223b565b83810360031901604485015261225f565b90606483015203925af180156106645761064b575061063b8260405190664e6f646549442d60c81b6020830152602782015260278152610636604782612219565b6110309193505f90612219565b5f915f610f53565b506020813d60201161106d575b8161105260209383612219565b81010312610695575160ff811681036106955760ff90610ecd565b3d9150611045565b61050c92506110929060a03d60a0116106dc576106c88183612219565b505050905091610e8f565b6110b791925060a03d60a0116106dc576106c88183612219565b5050509050905f610e58565b506020813d6020116110ee575b816110dd60209383612219565b810103126106955760049051610e20565b3d91506110d0565b50346102b4576111053661213a565b91836001949294549261070757506111209161099b91612d4b565b91602461113d6111305f956121b4565b90549060031b1c92612154565b60018060a01b0391549060031b1c16602060018060a01b036005541660405193848092620c8c7960e81b82528760048301525afa91821561068a575f9261126c575b5061118c82600d5461237f565b600d5561119b82600a5461237f565b600a555f516020612f705f395f51905f523b15610695576040519063ca669fa760e01b825260048201525f81602481835f516020612f705f395f51905f525af1801561068a57611255575b50600554604051664e6f646549442d60c81b60208201526027808201869052815285939290916001600160a01b0316611220604784612219565b803b1561066f576105e36105f492869460405196879586948593638028673760e01b855260606004860152606485019061223b565b611263919294505f90612219565b5f92905f6111e6565b9091506020813d602011611298575b8161128860209383612219565b810103126106955751905f61117f565b3d915061127b565b50346102b457806003193601126102b457602060ff601354166040519015158152f35b50346102b45760203660031901126102b4576112e0600435612747565b80f35b50346102b457806003193601126102b45760206103e961265b565b50346102b457806003193601126102b4576005546040516378a66f1560e01b81529190602090839060049082906001600160a01b03165afa9081156108e95790611352575b602090600d5414604051908152f35b506020813d60201161137d575b8161136c60209383612219565b810103126106955760209051611343565b3d915061135f565b50346102b457806003193601126102b4576040515f6003546113a6816121e1565b808452906001811690811561029057506001146113cd5761022e8361021a81850382612219565b60035f9081527fc2575a0e9e593c00f959f8c92f12db2869c3395a3b0502d05e2516446f71f85b939250905b8082106114115750909150810160200161021a61020a565b9192600181602092548385880101520191019092916113f9565b50346102b457806003193601126102b4576020604051626ebe008152f35b50346102b457806003193601126102b4576020601654604051908152f35b50346102b457806003193601126102b457602060405173bbbbbbbbbbbbbbbbbbbbbbbbbbbbbbbbbbbbbbbb8152f35b50346102b457806003193601126102b457602060ff60135460101c166040519015158152f35b50346102b45760203660031901126102b45760043590600f548210156102b45760206108488361219c565b50346102b45760203660031901126102b4576005546040516378a66f1560e01b81526001600160a01b0390911690602081600481855afa90811561164f578391611682575b50600181019182821161166e5790611544913161264e565b6001810180911161165a5781610d5461156185946115699461264e565b600435612d4b565b61157581600a5461264e565b600a5581546001600160a01b03165f516020612f705f395f51905f523b15611631576040519063ca669fa760e01b825260048201528281602481835f516020612f705f395f51905f525af1801561164f578390611635575b50506005546001600160a01b031690813b15611631578291602483926040519586938492632e1a7d4d60e01b845260048401525af180156116245761160f5780f35b61161891612219565b805f126102b4575f8180f35b50604051903d90823e3d90fd5b5050fd5b61163e91612219565b815f1261164c575f826115cd565b50fd5b6040513d85823e3d90fd5b634e487b7160e01b83526011600452602483fd5b634e487b7160e01b84526011600452602484fd5b90506020813d6020116116ac575b8161169d60209383612219565b8101031261069557515f61152c565b3d9150611690565b50346102b457806003193601126102b45760206040516224ea008152f35b50346102b457806003193601126102b4576020601754604051908152f35b50346102b457806003193601126102b4576020600c54604051908152f35b50346102b457806003193601126102b4576020601554604051908152f35b50346102b45760203660031901126102b457600435906011548210156102b457602061084883612184565b50346102b45760203660031901126102b45780601054916107075761095761179961178c61178785600435612d4b565b61216c565b50604051928380926122fe565b60018060a01b036005541660405191633153caeb60e01b835260206004840152602083806117ca602482018561223b565b0381855afa92831561068a575f935f90611a13575b5f9150602460405180958193637a6edadf60e11b835260048301525afa90811561068a575f5f915f915f955f956119db575b5083519415611830575b866201000062ff000019601354161760135580f35b15806119d2575b611842575b8061181b565b5f546001600160a01b03165f516020612f705f395f51905f523b15610695576040519063ca669fa760e01b825260048201525f81602481835f516020612f705f395f51905f525af1801561068a576119bd575b506005548691906001600160a01b0316803b156119b9576118d783918793604051948580948193630ffbccdb60e01b835260406004840152604483019061223b565b86602483015203925af18015610664576119a4575b50506118fa83600a5461237f565b600a558061196f575b5082156119595761192961271061192161194b95611931945161261d565b04809361264e565b600d5461237f565b600d556119408160155461237f565b601555600a5461264e565b600a555b818080808061183c565b506119679150600d5461237f565b600d5561194f565b61271061198361199b92604085015161261d565b046119908160175461237f565b601755600b5461264e565b600b5584611903565b816119ae91612219565b61066f5784866118ec565b8280fd5b6119ca9196505f90612219565b5f9486611895565b50831515611837565b9350509350506119fd91503d805f833e6119f58183612219565b8101906124e6565b9995949850509450945050939291949387611811565b506020813d602011611a3d575b81611a2d60209383612219565b81010312610695575f90516117df565b3d9150611a20565b50346102b45760203660031901126102b457806010549161070757610957611a7561178c61178785600435612d4b565b600554604051633153caeb60e01b81526020600482018190526001600160a01b039092169290918280611aab602482018561223b565b0381865afa92831561068a575f925f94611d98575b50925f60249460405195868092637a6edadf60e11b82528560048301525afa801561068a575f905f955f91611d6d575b5015611b08575b83600160ff19601354161760135580f35b15611bf65750815491925082916001600160a01b03165f516020612f705f395f51905f523b15611631576040519063ca669fa760e01b825260048201528281602481835f516020612f705f395f51905f525af190811561164f578391611be1575b50506005546001600160a01b0316803b1561163157611baa8392918392604051948580948193630ffbccdb60e01b835260406004840152604483019061223b565b6001602483015203925af1801561066457611bcc575b50505b80828080611af7565b81611bd691612219565b6102b4578082611bc0565b81611beb91612219565b61164c578184611b69565b8351151580611d60575b611d09575b50611c138351600a5461237f565b600a55611c238351600d5461237f565b600d555f546001600160a01b0316925f516020612f705f395f51905f523b15610695576040519363ca669fa760e01b855260048501525f84602481835f516020612f705f395f51905f525af1801561068a57611cf3575b82935060018060a01b0360055416905191813b15611cee578391611cbc91604051948580948193630ffbccdb60e01b835260406004840152604483019061223b565b6001602483015203925af1801561066457611cd9575b5050611bc3565b81611ce391612219565b6102b4578082611cd2565b505050fd5b9150915f611d0091612219565b5f908290611c7a565b60115490600160401b821015611d4c57611d2e826001611d46940160115560116121cc565b90919082549060031b91821b915f19901b1916179055565b83611c05565b634e487b7160e01b5f52604160045260245ffd5b5060408401511515611c00565b915050611d859194503d805f833e6119f58183612219565b9b98505050505092509050909486611af0565b93506020843d602011611dc4575b81611db360209383612219565b81010312610695579251925f611ac0565b3d9150611da6565b3461069557611de9611ddd3661213a565b92909160015490612d4b565b91600e546001810180911161069957611e0191612d4b565b915f9260405160a0810181811067ffffffffffffffff821117611d4c57604052600e54156103ba57600e5f8190527fbb7b4a454dc3493923482f07822329ed19e8244eff582cc204f8554c3620c3fd54825254600110156103ba57600e5f8190527fbb7b4a454dc3493923482f07822329ed19e8244eff582cc204f8554c3620c3fe54602083015254600210156103ba57600e5f8190527fbb7b4a454dc3493923482f07822329ed19e8244eff582cc204f8554c3620c3ff54604083015254600310156103ba57600e5f527fbb7b4a454dc3493923482f07822329ed19e8244eff582cc204f8554c3620c4005460608201526301e13380608082015260058210156103ba57611f159160051b015191612154565b90545f5460039290921b1c6001600160a01b0390811691165f516020612f705f395f51905f523b15610695576040519063ca669fa760e01b825260048201525f81602481835f516020612f705f395f51905f525af1801561068a57612123575b50600554849291906001600160a01b0316803b15610c7557838091604460405180948193632f2ff15d60e01b83527f8b6dced259e7c22d2c562be416e2454fe4c41318f8581c10be50deaca96d353660048401528760248401525af1908115612118578491612103575b50505f516020612f705f395f51905f523b156119b9576040519063ca669fa760e01b825260048201528281602481835f516020612f705f395f51905f525af190811561164f5783916120ee575b505060018060a01b0360055416604051664e6f646549442d60c81b602082015284602782015260278152612061604782612219565b813b15610c755783916105e383612097936040519687958694859363ac966e1560e01b855260606004860152606485019061223b565b90604483015203925af18015610664576120d9575b506112e08260405190664e6f646549442d60c81b6020830152602782015260278152610636604782612219565b816120e391612219565b6106605781836120ac565b816120f891612219565b61066057818561202c565b8161210d91612219565b6119b9578286611fdf565b6040513d86823e3d90fd5b612131919294505f90612219565b5f929084611f75565b606090600319011261069557600435906024359060443590565b6001548110156103ba5760015f5260205f2001905f90565b6010548110156103ba5760105f5260205f2001905f90565b6011548110156103ba5760115f5260205f2001905f90565b600f548110156103ba57600f5f5260205f2001905f90565b600e548110156103ba57600e5f5260205f2001905f90565b80548210156103ba575f5260205f2001905f90565b90600182811c9216801561220f575b60208310146121fb57565b634e487b7160e01b5f52602260045260245ffd5b91607f16916121f0565b90601f8019910116810190811067ffffffffffffffff821117611d4c57604052565b805180835260209291819084018484015e5f828201840152601f01601f1916010190565b6004545f929161226e826121e1565b80825291600181169081156122e25750600114612289575050565b60045f9081529293509091907f8a35acfbc15ff81a39ae7d344fd709f28e8600b4aa8c65c6b64bfe7fe36bd19b5b8383106122c8575060209250010190565b6001816020929493945483858701015201910191906122b7565b9050602093945060ff929192191683830152151560051b010190565b5f929181549161230d836121e1565b8083529260018116908115612362575060011461232957505050565b5f9081526020812093945091925b838310612348575060209250010190565b600181602092949394548385870101520191019190612337565b915050602093945060ff929192191683830152151560051b010190565b9190820180921161069957565b90601054600160401b811015611d4c578060016123ae920160105560106121cc565b6124b257825167ffffffffffffffff8111611d4c576123cd82546121e1565b601f811161246d575b506020601f821160011461240f57819293945f92612404575b50508160011b915f199060031b1c1916179055565b015190505f806123ef565b601f19821690835f52805f20915f5b8181106124555750958360019596971061243d575b505050811b019055565b01515f1960f88460031b161c191690555f8080612433565b9192602060018192868b01518155019401920161241e565b825f5260205f20601f830160051c810191602084106124a8575b601f0160051c01905b81811061249d57506123d6565b5f8155600101612490565b9091508190612487565b634e487b7160e01b5f525f60045260245ffd5b51906001600160a01b038216820361069557565b5190811515820361069557565b90918183036101808112610695576124fd836124c5565b93602084015167ffffffffffffffff811161069557840181601f820112156106955780519067ffffffffffffffff8211611d4c5760405192612549601f8401601f191660200185612219565b8284526020838301011161069557815f9260208093018386015e8301015292604081015192606061257b8184016124d9565b93607f190112610695576040516060810181811067ffffffffffffffff821117611d4c57604052608083015181526125b560a084016124c5565b602082015260c083015160408201529160e08101519161010082015191610120810151916125f36101606125ec61014085016124d9565b93016124d9565b90565b60125490600160401b821015611d4c57611d2e82600161261b940160125560126121cc565b565b8181029291811591840414171561069957565b811561263a570490565b634e487b7160e01b5f52601260045260245ffd5b9190820391821161069957565b60ff60135460081c1661266d57600190565b6014545f516020612f905f395f51905f526020604051838152a1601654905f516020612f905f395f51905f526020604051848152a173aaaaaaaaaaaaaaaaaaaaaaaaaaaaaaaaaaaaaaaa311490816126c3575090565b6006546040516370a0823160e01b815273aaaaaaaaaaaaaaaaaaaaaaaaaaaaaaaaaaaaaaaa6004820152919250602090829060249082906001600160a01b03165afa90811561068a575f9161271757501490565b90506020813d60201161273f575b8161273260209383612219565b8101031261069557511490565b3d9150612725565b60ff6018541615612cff5761276861178c6117876109579360105490612d4b565b600554604051633153caeb60e01b81526020600482018190526001600160a01b03909216929091828061279e602482018561223b565b0381865afa801561068a575f925f91612ccd575b50604051637a6edadf60e11b815260048101829052935f85602481845afa801561068a575f905f965f91612ca2575b50156127ff575b50505050505061010061ff00196013541617601355565b15612a35575083511561292957612815906125f6565b6128228351600a5461264e565b600a5581546001600160a01b03165f516020612f705f395f51905f523b156119b9576040519063ca669fa760e01b825260048201528281602481835f516020612f705f395f51905f525af1801561164f57908391612914575b50506005546001600160a01b031690813b156119b9576128bc83928392604051948580948193630ffbccdb60e01b835260406004840152604483019061223b565b82602483015203925af18015610664576128ff575b5050806128e46128f0925160145461237f565b60145551600d5461264e565b600d555b5f80808080806127e8565b61290a828092612219565b6102b457806128d1565b8161291e91612219565b61066057815f61287b565b92612936604092946125f6565b01916129458351600b5461264e565b600b5581546001600160a01b03165f516020612f705f395f51905f523b156119b9576040519063ca669fa760e01b825260048201528281602481835f516020612f705f395f51905f525af1801561164f57908391612a20575b50506005546001600160a01b031690813b156119b9576129df83928392604051948580948193630ffbccdb60e01b835260406004840152604483019061223b565b82602483015203925af1801561066457612a0b575b5050612a03905160165461237f565b6016556128f4565b612a16828092612219565b6102b457806129f4565b81612a2a91612219565b61066057815f61299e565b90506020604094929394518092635eb2ac0f60e11b82528260048301528180612a61602482018961223b565b03915afa90811561068a575f91612c68575b5015612b7b5760c96040612a9b92015104612a9081600b5461264e565b600b5560165461237f565b60165581546001600160a01b03165f516020612f705f395f51905f523b156119b9576040519063ca669fa760e01b825260048201528281602481835f516020612f705f395f51905f525af1801561164f57908391612b66575b50506005546001600160a01b031690813b156119b957612b3583928392604051948580948193630ffbccdb60e01b835260406004840152604483019061223b565b82602483015203925af1801561066457612b51575b50506128f4565b612b5c828092612219565b6102b45780612b4a565b81612b7091612219565b61066057815f612af4565b5190600a820180921161069957612b9482600a5461237f565b600a55612ba382600d5461237f565b600d555f546001600160a01b03165f516020612f705f395f51905f523b15610695576040519063ca669fa760e01b825260048201525f81602481835f516020612f705f395f51905f525af1801561068a57612c53575b506005546001600160a01b031690813b15610c75578391612c3891604051948580948193630ffbccdb60e01b835260406004840152604483019061223b565b86602483015203925af1801561066457612b515750506128f4565b612c609193505f90612219565b5f915f612bf9565b90506020813d602011612c9a575b81612c8360209383612219565b8101031261069557612c94906124d9565b5f612a73565b3d9150612c76565b915050612cba9195503d805f833e6119f58183612219565b9c9850505050509250905090955f6127e1565b90506020813d602011612cf7575b81612ce860209383612219565b8101031261069557515f6127b2565b3d9150612cdb565b50565b519069ffffffffffffffffffff8216820361069557565b908160a091031261069557612d2d81612d02565b916020820151916040810151916125f3608060608401519301612d02565b811561263a570690565b60ff60135416612d6457600190565b6011546005546001600160a01b03165f5b828110612d8457505050600190565b612d8d81612184565b9054604051637a6edadf60e11b815260039290921b1c60048201525f81602481865afa90811561068a575f91612dd3575b5015612dcc57600101612d75565b5050505f90565b612de791503d805f833e6119f58183612219565b985050505050505050505f612dbe565b60ff60135460101c16612e0957600190565b6017545f516020612f905f395f51905f526020604051838152a1601554905f516020612f905f395f51905f526020604051848152a15f516020612f905f395f51905f52602073bbbbbbbbbbbbbbbbbbbbbbbbbbbbbbbbbbbbbbbb31604051908152a16006546040516370a0823160e01b815273bbbbbbbbbbbbbbbbbbbbbbbbbbbbbbbbbbbbbbbb60048201526001600160a01b039091169290602081602481875afa90811561068a575f91612f3c575b5060205f516020612f905f395f51905f5291604051908152a173bbbbbbbbbbbbbbbbbbbbbbbbbbbbbbbbbbbbbbbb31149182612ef457505090565b6040516370a0823160e01b815273bbbbbbbbbbbbbbbbbbbbbbbbbbbbbbbbbbbbbbbb6004820152919250602090829060249082905afa90811561068a575f9161271757501490565b90506020813d602011612f67575b81612f5760209383612219565b8101031261069557516020612eb9565b3d9150612f4a56fe0000000000000000000000007109709ecfa91a80626ff3989d68f67f5b1dd12d8288dcf33d251240d423fe799e50345ae04e585a6e088ba2220aac6a1537c4dba26469706673582212200224b493bca0bb5d0ca7d632561334e66f695bc4d03cebfc3bcb32d6e466924964736f6c634300081c0033608034605057601f61013938819003918201601f19168301916001600160401b03831184841017605457808492602094604052833981010312605057515f554260015560405160d090816100698239f35b5f80fd5b634e487b7160e01b5f52604160045260245ffdfe60808060405260043610156011575f80fd5b5f3560e01c806374ef91e2146083578063f7a3080614606d5763feaf968c146037575f80fd5b346069575f36600319011260695760a0905f54600154905f835260208301525f604083015260608201525f6080820152f35b5f80fd5b3460695760203660031901126069576004355f55005b34606957602036600319011260695760043560015500fea26469706673582212200d2990e9f597fa6d09a83a21e2ddc37fa3ce65825c7a4639264250dcf9ef01ab64736f6c634300081c0033608080604052346013576068908160188239f35b5f80fdfe6004361015600b575f80fd5b5f3560e01c63e1a472b914601d575f80fd5b34602e576020366003190112602e57005b5f80fdfea26469706673582212208aef86d923d3096bb0739f6ced802218714aaf4345177a5c4246a9bc6152733764736f6c634300081c00336080806040523461036c57610d15803803809161001c8285610370565b8339810160608282031261036c5781516001600160401b03811161036c5781610046918401610393565b60208301519091906001600160401b03811161036c5760409161006a918501610393565b92015160ff811680910361036c576100b3602093846040519586928651808389018487015e8401908282015f8152815193849201905e01015f815203601f198101855284610370565b82516001600160401b03811161027d57600354600181811c91168015610362575b602082101461025f57601f81116102ff575b506020601f821160011461029c57819293945f92610291575b50508160011b915f199060031b1c1916176003555b81516001600160401b03811161027d57600454600181811c91168015610273575b602082101461025f57601f81116101fc575b50602092601f821160011461019b57928192935f92610190575b50508160011b915f199060031b1c1916176004555b60ff19600554161760055560405161092c90816103e98239f35b015190505f80610161565b601f1982169360045f52805f20915f5b8681106101e457508360019596106101cc575b505050811b01600455610176565b01515f1960f88460031b161c191690555f80806101be565b919260206001819286850151815501940192016101ab565b60045f527f8a35acfbc15ff81a39ae7d344fd709f28e8600b4aa8c65c6b64bfe7fe36bd19b601f830160051c81019160208410610255575b601f0160051c01905b81811061024a5750610147565b5f815560010161023d565b9091508190610234565b634e487b7160e01b5f52602260045260245ffd5b90607f1690610135565b634e487b7160e01b5f52604160045260245ffd5b015190505f806100ff565b601f1982169060035f52805f20915f5b8181106102e7575095836001959697106102cf575b505050811b01600355610114565b01515f1960f88460031b161c191690555f80806102c1565b9192602060018192868b0151815501940192016102ac565b60035f527fc2575a0e9e593c00f959f8c92f12db2869c3395a3b0502d05e2516446f71f85b601f830160051c81019160208410610358575b601f0160051c01905b81811061034d57506100e6565b5f8155600101610340565b9091508190610337565b90607f16906100d4565b5f80fd5b601f909101601f19168101906001600160401b0382119082101761027d57604052565b81601f8201121561036c578051906001600160401b03821161027d57604051926103c7601f8401601f191660200185610370565b8284526020838301011161036c57815f9260208093018386015e830101529056fe6080806040526004361015610012575f80fd5b5f3560e01c90816306fdde031461053657508063095ea7b31461051057806318160ddd146104f357806323b872dd14610436578063313ce5671461041657806339509351146103c857806370a082311461039157806395d89b4114610276578063a0712d68146101c8578063a457c2d714610125578063a9059cbb146100f45763dd62ed3e146100a0575f80fd5b346100f05760403660031901126100f0576100b961062f565b6100c1610645565b6001600160a01b039182165f908152600160209081526040808320949093168252928352819020549051908152f35b5f80fd5b346100f05760403660031901126100f05761011a61011061062f565b6024359033610780565b602060405160018152f35b346100f05760403660031901126100f05761013e61062f565b60243590335f52600160205260405f2060018060a01b0382165f5260205260405f2054918083106101755761011a9203903361067c565b60405162461bcd60e51b815260206004820152602560248201527f45524332303a2064656372656173656420616c6c6f77616e63652062656c6f77604482015264207a65726f60d81b6064820152608490fd5b346100f05760203660031901126100f0576004353315610231576101ee8160025461065b565b600255335f525f60205260405f208181540190556040519081525f7fddf252ad1be2c89b69c2b068fc378daa952ba7f163c4a11628f55a4df523b3ef60203393a3005b60405162461bcd60e51b815260206004820152601f60248201527f45524332303a206d696e7420746f20746865207a65726f2061646472657373006044820152606490fd5b346100f0575f3660031901126100f0576040515f6004548060011c90600181168015610387575b602083108114610373578285529081156103575750600114610302575b50819003601f01601f191681019067ffffffffffffffff8211818310176102ee576102ea82918260405282610605565b0390f35b634e487b7160e01b5f52604160045260245ffd5b905060045f527f8a35acfbc15ff81a39ae7d344fd709f28e8600b4aa8c65c6b64bfe7fe36bd19b5f905b828210610341575060209150820101826102ba565b600181602092548385880101520191019061032c565b90506020925060ff191682840152151560051b820101826102ba565b634e487b7160e01b5f52602260045260245ffd5b91607f169161029d565b346100f05760203660031901126100f0576001600160a01b036103b261062f565b165f525f602052602060405f2054604051908152f35b346100f05760403660031901126100f05761011a6103e461062f565b335f52600160205260405f2060018060a01b0382165f5260205261040f60405f20602435905461065b565b903361067c565b346100f0575f3660031901126100f057602060ff60055416604051908152f35b346100f05760603660031901126100f05761044f61062f565b610457610645565b6001600160a01b0382165f908152600160208181526040808420338552909152909120549260443592918401610492575b61011a9350610780565b8284106104ae576104a98361011a9503338361067c565b610488565b60405162461bcd60e51b815260206004820152601d60248201527f45524332303a20696e73756666696369656e7420616c6c6f77616e63650000006044820152606490fd5b346100f0575f3660031901126100f0576020600254604051908152f35b346100f05760403660031901126100f05761011a61052c61062f565b602435903361067c565b346100f0575f3660031901126100f0575f6003548060011c906001811680156105fb575b6020831081146103735782855290811561035757506001146105a65750819003601f01601f191681019067ffffffffffffffff8211818310176102ee576102ea82918260405282610605565b905060035f527fc2575a0e9e593c00f959f8c92f12db2869c3395a3b0502d05e2516446f71f85b5f905b8282106105e5575060209150820101826102ba565b60018160209254838588010152019101906105d0565b91607f169161055a565b602060409281835280519182918282860152018484015e5f828201840152601f01601f1916010190565b600435906001600160a01b03821682036100f057565b602435906001600160a01b03821682036100f057565b9190820180921161066857565b634e487b7160e01b5f52601160045260245ffd5b6001600160a01b031690811561072f576001600160a01b03169182156106df5760207f8c5be1e5ebec7d5bd14f71427d1e84f3dd0314c0f7b2291e5b200ac8c7c3b92591835f526001825260405f20855f5282528060405f2055604051908152a3565b60405162461bcd60e51b815260206004820152602260248201527f45524332303a20617070726f766520746f20746865207a65726f206164647265604482015261737360f01b6064820152608490fd5b60405162461bcd60e51b8152602060048201526024808201527f45524332303a20617070726f76652066726f6d20746865207a65726f206164646044820152637265737360e01b6064820152608490fd5b6001600160a01b03169081156108a3576001600160a01b031691821561085257815f525f60205260405f20548181106107fe57817fddf252ad1be2c89b69c2b068fc378daa952ba7f163c4a11628f55a4df523b3ef92602092855f525f84520360405f2055845f525f825260405f20818154019055604051908152a3565b60405162461bcd60e51b815260206004820152602660248201527f45524332303a207472616e7366657220616d6f756e7420657863656564732062604482015265616c616e636560d01b6064820152608490fd5b60405162461bcd60e51b815260206004820152602360248201527f45524332303a207472616e7366657220746f20746865207a65726f206164647260448201526265737360e81b6064820152608490fd5b60405162461bcd60e51b815260206004820152602560248201527f45524332303a207472616e736665722066726f6d20746865207a65726f206164604482015264647265737360d81b6064820152608490fdfea2646970667358221220af142047ab1caec6fbe99ceb4bbcb4549819d0ba5abfea0c52e54fdeeed212e164736f6c634300081c003360808060405234601557615889908161001a8239f35b5f80fdfe6080806040526004361015610012575f80fd5b5f905f3560e01c90816301ffc9a714613a7c575080630c8c790014613a5e5780630ffbccdb14613a065780631679a96514613994578063190e9d41146139055780631a753657146138dc5780631df1a43314613249578063248a9ca3146132155780632576eed1146131f65780632dbecc1a146131d85780632e1a7d4d146130e75780632f2ff15d146130275780633153caeb14612ff2578063341030f014612fb757806336568abe14612f24578063395cc51214612de95780633b72214414612d195780633cb8beb014612c9d5780633f24a8e514612c6e5780633f4ba83a14612ba057806348e2678f146128655780634b7e23dc1461282a5780634bcad6f21461280c5780634ff0241a146127d157806353cc04a11461271257806358aa9000146126f45780635b499a97146126a25780635c975abb1461267f5780635d36f34f1461260c5780635f4c5d33146125cc5780635fa9237a146125ad5780635fcd62551461258357806375e271861461256457806378a66f15146125455780637d1aacad14611fc65780638028673714611c3f5780638079336c14611c215780638456cb5914611b8d57806384f826c714611b095780638500bc8914611a715780638567a2e51461131f5780638d01d1c51461130057806391d14854146112b65780639922b43b146112975780639dcb511a14611256578063a217fddf1461123a578063a2a5236c14611211578063a512542114611125578063a9316fd2146110eb578063ac966e1514610cc3578063ad18f0da1461085d578063b59f091e14610835578063b6d1d67b146107b9578063bd65581e1461077f578063c8fc9e4e14610744578063c92f58b214610725578063ce33992314610707578063d0c63d35146106ce578063d547741f14610687578063d964c25a1461064c578063d9723ea714610617578063d9ea5b03146104a1578063e34df3c114610482578063ebd0905414610453578063efe867e214610418578063f38b8411146103f95763f4ddb5be146102ff575f80fd5b346103f65760203660031901126103f657600435610101548110156103f45761032790613dc2565b5080546001600160a01b031661033f60018301613d22565b9160ff600282015491816003820154169061035c60048201613de0565b60078201546103c8600884015492600a6009860154950154956103936040519b8c9b8c5261018060208d01526101808c0190613c81565b60408b81019a909a5290151560608b0152815160808b015260208201516001600160a01b031660a08b015297015160c0890152565b60e0870152610100860152610120850152818116151561014085015260081c1615156101608301520390f35b505b80fd5b50346103f657806003193601126103f65760206040516301e133808152f35b50346103f657806003193601126103f65760206040517fbb4ab89723950398fbe0f1fe11ab060da193cf1f8b664c9831ac485bec8c6ca98152f35b50346103f657806003193601126103f657602060405173aaaaaaaaaaaaaaaaaaaaaaaaaaaaaaaaaaaaaaaa8152f35b50346103f657806003193601126103f657602061010654604051908152f35b50346103f6576104b036613c0f565b909183805260656020526040842060018060a01b0333165f5260205260ff60405f20541615610613576001600160a01b0390811680855260fd602090815260408087205483885260fe90925286205494921692909183156105c75782865260fd6020908152604080882080546001600160a01b0319166001600160a01b0394909416938417905584885260fe90915280872083905551633fabe5a360e21b81529094908660a0826004818a5afa91821561060657819082936105cf575b5013156105cb5761057f839142613e3e565b116105c7577fcb61de73a9b971ce0608f81d0ce8617289d2a44503653d2c16693dc08bc0db2d9460a0946040519485526020850152604084015260608301526080820152a180f35b8580fd5b8680fd5b90506105f491925060a03d60a0116105ff575b6105ec8183613b5f565b81019061450a565b50939250505f61056d565b503d6105e2565b50604051903d90823e3d90fd5b8380fd5b50346103f6576020808061062a36613bd1565b604051928184925191829101835e810161010481520301902054604051908152f35b50346103f657806003193601126103f65760206040517f8a8d1de1c18abb94a793a1c642e9153de53c830daa68b212d4eb80a0fed540518152f35b50346103f65760403660031901126103f6576106cb6004356106a7613b12565b906106c66106c1825f526065602052600160405f20015490565b615244565b615489565b80f35b50346103f65760203660031901126103f6576020906040906001600160a01b036106f6613afc565b16815260fe83522054604051908152f35b50346103f657806003193601126103f65760206040516249d4008152f35b50346103f657806003193601126103f657602061010a54604051908152f35b50346103f657806003193601126103f65760206040517f6ef8b52debbf584bbeee3d104b589533cc529f3789bdbc2bae3dabb3fcde96f68152f35b50346103f657602060ff818061079436613bd1565b604051928184925191829101835e810161010f81520301902054166040519015158152f35b50346103f65760203660031901126103f657808052606560209081526040808320335f90815292529020546004359060ff16156103f45761271081116103f45760407feb1cee51f4786b91756ab6e79cde8b4ae39e831e78f9ef5d813b9e40d37883b7916101075490806101075582519182526020820152a180f35b50346103f657806003193601126103f65760206040515f5160206158345f395f51905f528152f35b50346103f6576101003660031901126103f657610878613afc565b610880613b12565b6044356001600160a01b038116929083900361061357606435906084356001600160a01b038116908190036105c75760a4359160c4359360e4359588549260ff8460081c16159889809a610cb6575b8015610c9f575b15610c435760ff1985166001178b558a948a610c32575b50888811610c2e5760049260a09261093460ff885460081c1661090f8161550a565b6109188161550a565b6109218161550a565b600160975561092f8161550a565b61550a565b60ff1960c9541660c955868052606560205260408720600180861b0333165f5260205260ff60405f20541615610bda575b600180851b03166001600160601b03841b60ff54161760ff55600180841b0316806001600160601b03841b610100541617610100556109aa60ff875460081c1661550a565b5f5160206158345f395f51905f52865260fd60205260408620600180851b0383166001600160601b03851b82541617905580865260fd60205260408620600180851b0388166001600160601b03851b8254161790555f5160206158345f395f51905f52865260fe602052846040872055855260fe60205286604086205560405192838092633fabe5a360e21b82525afa908115610bcf57839081908293610ba8575b501315610ba457610a5d9042613e3e565b116103f65760a060049260405193848092633fabe5a360e21b82525afa9182156106065781908293610b7d575b5013156105c757610a9b9042613e3e565b116106135761010a5561010b5561138861010755690a968163f0a57b4000006101065561271061010c55610b3f604051610ad481613b44565b83815283602082015283604082015260405190610af082613b28565b848252604051610b01602082613b5f565b858152602083015284604083015284606083015260808201528360a08201528360c08201528360e082015283610100820152836101208201526149b4565b610b465780f35b61ff001981541681557f7f26b83ff96e1f2b6a682f133852f6798a09c465da95921460cefb3847402498602060405160018152a180f35b9050610b9991925060a03d60a0116105ff576105ec8183613b5f565b50939250505f610a8a565b8280fd5b9050610bc491925060a03d60a0116105ff576105ec8183613b5f565b50939250505f610a4c565b6040513d85823e3d90fd5b868052606560205260408720600180861b0333165f5260205260405f20600160ff198254161790553333887f2f8788117e7eff1d82e926ec794901d17c78024a50270940304540a733656f0d8180a4610965565b8480fd5b61ffff19166101011785555f6108ed565b60405162461bcd60e51b815260206004820152602e60248201527f496e697469616c697a61626c653a20636f6e747261637420697320616c72656160448201526d191e481a5b9a5d1a585b1a5e995960921b6064820152608490fd5b50303b1580156108d65750600160ff8616146108d6565b50600160ff8616106108cf565b50346103f657610cd236613ca5565b90949392917f8b6dced259e7c22d2c562be416e2454fe4c41318f8581c10be50deaca96d3536855260656020526040852060018060a01b0333165f5260205260ff60405f20541615610c2e5762127500821015806110dd575b1561109357610d38614b7c565b60908603610c2e57610101546040518486823760208186810161010281520301902055610dd6604051610d6a81613b44565b86815286602082015286604082015261010754610108549060405192610d8f84613b28565b338452610d9d36898b613b9b565b602085015286604085015289606085015260808401528860a084015260c083015260e082015286610100820152866101208201526149b4565b6040518385823760208185810161010d8152030190206001600160401b038711610fea57610e0e87610e088354613c49565b836148ad565b8587601f81116001146110315780610e3a928991611026575b508160011b915f199060031b1c19161790565b90555b6040518385823760208185810161010f81520301902060ff1981541690553385526101036020526040852054604051848682376020818681016101048152030190205533855261010360205260408520805490600160401b8210156110125790610eac91600182018155613cf9565b969096610ffe576001600160401b038411610fea57610ed584610ecf8954613c49565b896148ad565b8596601f8511600114610f755790610f469291610f1686808a9b5f5160206158145f395f51905f529b91610f6a57508160011b915f199060031b1c19161790565b90555b610f386040519687963388526101006020890152610100880191613e11565b918583036040870152613e11565b9060608301528460808301528460a08301528460c08301528460e08301520390a180f35b90508901355f610e27565b80875260208720601f198616885b818110610fd25750905f5160206158145f395f51905f52989987610f469695949310610fb9575b5050600186811b019055610f19565b8801355f19600389901b60f8161c191690555f80610faa565b888b0135835560209a8b019a60019093019201610f83565b634e487b7160e01b86526041600452602486fd5b634e487b7160e01b86526004869052602486fd5b634e487b7160e01b87526041600452602487fd5b90508401355f610e27565b50818752602087209088601f198116895b81811061107857501061105f575b5050600187811b019055610e3d565b8301355f1960038a901b60f8161c191690555f80611050565b8684013585556001909401936020938401938c935001611042565b60405162461bcd60e51b815260206004820152601b60248201527f496e76616c69642076616c69646174696f6e206475726174696f6e0000000000604482015280606481015b0390fd5b506301e13380821115610d2b565b50346103f65760203660031901126103f6576020906040906001600160a01b03611113613afc565b16815261010383522054604051908152f35b50346103f65760203660031901126103f65761113f613afc565b818052606560209081526040808420335f908152925290205460ff16156103f4576001600160a01b03165f81815260fc6020526040902054156103f4576020815f5160206158345f395f51905f527f85a3e72f8dd6db3794f93109c3c5f5b79d6112f6979431c45f98b26134b42af2931415806111fb575b6111d0575b6111c5816156b8565b50604051908152a180f35b80845260fd8252604080852080546001600160a01b031916905581855260fe835284208490556111bc565b50610100546001600160a01b03168114156111b7565b50346103f657806003193601126103f65760ff546040516001600160a01b039091168152602090f35b50346103f657806003193601126103f657602090604051908152f35b50346103f65760203660031901126103f6576020906001600160a01b0361127b613afc565b16815260fd8252604060018060a01b0391205416604051908152f35b50346103f657806003193601126103f657602061010b54604051908152f35b50346103f65760403660031901126103f65760406112d2613b12565b9160043581526065602052209060018060a01b03165f52602052602060ff60405f2054166040519015158152f35b50346103f657806003193601126103f657602061010554604051908152f35b50346103f65760803660031901126103f657611339613afc565b906024356001600160401b0381116103f457611359903690600401613acf565b6044356001600160401b03811161061357611378903690600401613acf565b949060643591611386614bc0565b61138e614b7c565b6001600160a01b03165f81815260fc6020526040902054156105c7575f5160206158345f395f51905f52865260fd6020526040808720549051633fabe5a360e21b81529060a090829060049082906001600160a01b03165afa8015611a66579060049188918991611a40575b5083895260fd6020526040808a20549051633fabe5a360e21b81529360a09185919082906001600160a01b03165afa908115611a355789938a92611a0c575b5089831380611a03575b156119ff576114529042613e3e565b5f5160206158345f395f51905f528a5260fe60205260408a2054106119fb5761147b9042613e3e565b83895260fe6020526040892054106119e457906114a46114a99261149e87614adb565b90613e7a565b613e8d565b60405163313ce56760e01b8152602081600481865afa80156119f05788906119af575b60ff91501660120360ff811161199b5760ff16604d811161199b57906114f591600a0a90613e8d565b610100549092906001600160a01b03168214611982575b82156105cb5761151e83303385615200565b61010554686c6b935b8bbd4000008101908181116118c05761010654821161193d576212750086148015611931575b8015611925575b8015611919575b156118d45781106118c05761010555611572614b7c565b609088036105cb576101015460405186888237602081888101610102815203019020556116116040516115a481613b44565b888152836020820152846040820152610107546101085490604051926115c984613b28565b3384526115d7368b8d613b9b565b60208501528860408501526001606085015260808401528a60a084015260c083015260e082015288610100820152886101208201526149b4565b6040518587823760208187810161010d8152030190206001600160401b0389116118225761164389610e088354613c49565b8789601f811160011461185e578061166e928b9161102657508160011b915f199060031b1c19161790565b90555b6040518587823760208187810161010f81520301902060ff1981541690553387526101036020526040872054604051868882376020818881016101048152030190205533875261010360205260408720805490600160401b82101561184a57906116e091600182018155613cf9565b989098611836576001600160401b03861161182257611709866117038b54613c49565b8b6148ad565b8798601f87116001146117ad579061177a929161174a88808c9d5f5160206158145f395f51905f529d916117a257508160011b915f199060031b1c19161790565b90555b61176c604051988998338a5261010060208b01526101008a0191613e11565b918783036040890152613e11565b926060850152600160808501528660a085015260c084015260e08301520390a1600160975580f35b90508b01355f610e27565b80895260208920601f1988168a5b81811061180a5750905f5160206158145f395f51905f529a9b8961177a96959493106117f1575b5050600188811b01905561174d565b8a01355f1960038b901b60f8161c191690555f806117e2565b8a8d0135835560209c8d019c600190930192016117bb565b634e487b7160e01b88526041600452602488fd5b634e487b7160e01b88526004889052602488fd5b634e487b7160e01b89526041600452602489fd5b5081895260208920908a601f1981168b5b8181106118a557501061188c575b5050600189811b019055611671565b8301355f1960038c901b60f8161c191690555f8061187d565b8684013585556001909401936020938401938e93500161186f565b634e487b7160e01b5f52601160045260245ffd5b60405162461bcd60e51b815260206004820152601860248201527f496e76616c6964207374616b696e67206475726174696f6e00000000000000006044820152606490fd5b50626ebe00861461155b565b506249d4008614611554565b506224ea00861461154d565b60405162461bcd60e51b815260206004820152601a60248201527f53756273696469736174696f6e206361702065786365656465640000000000006044820152606490fd5b916119946127109161010c5490613e7a565b049161150c565b634e487b7160e01b88526011600452602488fd5b506020813d6020116119e8575b816119c960209383613b5f565b810103126119e4575160ff811681036119e45760ff906114cc565b8780fd5b3d91506119bc565b6040513d8a823e3d90fd5b8880fd5b8980fd5b50898413611443565b909350611a28915060a03d60a0116105ff576105ec8183613b5f565b509492505092905f611439565b6040513d8b823e3d90fd5b9050611a5b915060a03d60a0116105ff576105ec8183613b5f565b50925050905f6113fa565b6040513d89823e3d90fd5b50346103f65760403660031901126103f65760043560243582805260656020526040832060018060a01b0333165f5260205260ff60405f20541615610ba457808211610ba4577f32f07544d40b6594a49132ac8f5e83e155ea95048a4793168328979fbe18be1f9160809161010a549161010b54908061010a558261010b55604051938452602084015260408301526060820152a180f35b50346103f65760403660031901126103f657611b23613afc565b6001600160a01b0316815261010360205260408120805460243590811015610ba457611b4e91613cf9565b919091611b7957611b75611b6183613d22565b604051918291602083526020830190613c81565b0390f35b634e487b7160e01b81526004819052602490fd5b50346103f657806003193601126103f6577ff146182d150a5b368b6d283f87aeae1f25c21b02ff55cf16848704ade176a5cb8152606560209081526040808320335f908152925290205460ff16156103f657611be7614b7c565b600160ff1960c954161760c9557f62e78cea01bee320cd4e420270b5ea74000d11b0c9f74754ebdbfc544b05a2586020604051338152a180f35b50346103f657806003193601126103f6576020604051621275008152f35b50611c4936613ca5565b9094939291611c56614bc0565b611c5e614b7c565b611c6782614adb565b8034036105c7578580808080335af1611c7e613e4b565b50156105c757611c919061010954613e31565b6101095561010554686c6b935b8bbd4000008101908181116118c05761010654821161193d576212750084148015611fba575b8015611fae575b8015611fa2575b156118d45781106118c05761010555611ce9614b7c565b60908603610c2e57610101546040518486823760208186810161010281520301902055611d88604051611d1b81613b44565b34815286602082015286604082015261010754610108549060405192611d4084613b28565b338452611d4e36898b613b9b565b60208501528660408501526001606085015260808401528860a084015260c083015260e082015286610100820152866101208201526149b4565b6040518385823760208185810161010d8152030190206001600160401b038711610fea57611dba87610e088354613c49565b8587601f8111600114611f405780611de592899161102657508160011b915f199060031b1c19161790565b90555b6040518385823760208185810161010f81520301902060ff1981541690553385526101036020526040852054604051848682376020818681016101048152030190205533855261010360205260408520805490600160401b8210156110125790611e5791600182018155613cf9565b969096610ffe576001600160401b038411610fea57611e7a84610ecf8954613c49565b8596601f8511600114611ee55790611ebb9291610f1686808a9b5f5160206158145f395f51905f529b91610f6a57508160011b915f199060031b1c19161790565b906060830152600160808301523460a08301528460c08301528460e08301520390a1600160975580f35b80875260208720601f198616885b818110611f285750905f5160206158145f395f51905f52989987611ebb9695949310610fb9575050600186811b019055610f19565b888b0135835560209a8b019a60019093019201611ef3565b50818752602087209088601f198116895b818110611f87575010611f6e575b5050600187811b019055611de8565b8301355f1960038a901b60f8161c191690555f80611f5f565b8684013585556001909401936020938401938c935001611f51565b50626ebe008414611cd2565b506249d4008414611ccb565b506224ea008414611cc4565b50611fd036613ca5565b9094939291611fdd614bc0565b61010a5434101580612538575b8061252a575b156124f5578480808080335af1612005613e4b565b5015610c2e575f5160206158345f395f51905f52855260fd6020526040808620549051633fabe5a360e21b81529060a090829060049082906001600160a01b03165afa9182156124ea57869187936124c2575b50610100546001600160a01b0390811680895260fd6020526040808a20549051633fabe5a360e21b81529195919260a09184916004918391165afa908115611a355789928a92612499575b5089831380612490575b156119ff576120bc9042613e3e565b5f5160206158345f395f51905f528a5260fe60205260408a2054106119fb576120e59042613e3e565b84895260fe6020526040892054106119e45734686c6b935b8bbd4000000392686c6b935b8bbd400000841161247c57600a916114a48561212493613e7a565b049283156119e4578361213a9130903390615200565b61010054610105546001600160a01b03909116926121588183613e31565b610106541061193d576212750086148015612470575b8015612464575b8015612458575b156118d45761218a91613e31565b61010555612196614b7c565b609088036105cb576101015460405186888237602081888101610102815203019020556122346040516121c881613b44565b348152836020820152846040820152610107546101085490604051926121ed84613b28565b3384526121fb368b8d613b9b565b60208501528860408501528b606085015260808401528a60a084015260c083015260e082015288610100820152886101208201526149b4565b6040518587823760208187810161010d8152030190206001600160401b0389116118225761226689610e088354613c49565b8789601f81116001146123f65780612291928b9161102657508160011b915f199060031b1c19161790565b90555b6122bf876040518789823760208189810161010f8152030190209060ff801983541691151516179055565b3387526101036020526040872054604051868882376020818881016101048152030190205533875261010360205260408720805490600160401b82101561184a579061231091600182018155613cf9565b989098611836576001600160401b03861161182257612333866117038b54613c49565b8798601f871160011461239b5790612374929161174a88808c9d5f5160206158145f395f51905f529d916117a257508160011b915f199060031b1c19161790565b9260608501528660808501523460a085015260c084015260e08301520390a1600160975580f35b80895260208920601f1988168a5b8181106123de5750905f5160206158145f395f51905f529a9b8961237496959493106117f1575050600188811b01905561174d565b8a8d0135835560209c8d019c600190930192016123a9565b5081895260208920908a601f1981168b5b81811061243d575010612424575b5050600189811b019055612294565b8301355f1960038c901b60f8161c191690555f80612415565b8684013585556001909401936020938401938e935001612407565b50626ebe00861461217c565b506249d4008614612175565b506224ea00861461216e565b634e487b7160e01b89526011600452602489fd5b508285136120ad565b9092506124b5915060a03d60a0116105ff576105ec8183613b5f565b509392505091905f6120a3565b9092506124de915060a03d60a0116105ff576105ec8183613b5f565b5092505090915f612058565b6040513d88823e3d90fd5b60405162461bcd60e51b815260206004820152600d60248201526c496e76616c69642076616c756560981b6044820152606490fd5b50633b9aca00340615611ff0565b5061010b54341115611fea565b50346103f657806003193601126103f657602061010954604051908152f35b50346103f657806003193601126103f657602061010754604051908152f35b50346103f657806003193601126103f657610100546040516001600160a01b039091168152602090f35b50346103f657806003193601126103f657602061010854604051908152f35b50346103f657806003193601126103f657610101545f198101919082116125f857602082604051908152f35b634e487b7160e01b81526011600452602490fd5b50346103f65760203660031901126103f657808052606560209081526040808320335f90815292529020546004359060ff16156103f45760407f3e0916468971c6a0496bb9e570a6490523f6f34b85407a78e713c5d0287fb898916101065490806101065582519182526020820152a180f35b50346103f657806003193601126103f657602060ff60c954166040519015158152f35b50346103f65760203660031901126103f6576004356001600160401b0381116103f4576126d66126ec913690600401613acf565b906126df614bc0565b6126e7614b7c565b614567565b600160975580f35b50346103f657806003193601126103f657602060fb54604051908152f35b50346103f657806003193601126103f65760405180602060fb549182815201809160fb85527f3e7257b7272bb46d49cd6019b04ddee20da7c0cb13f7c1ec3391291b2ccebabc90855b8181106127bb5750505082612771910383613b5f565b604051928392602084019060208552518091526040840192915b818110612799575050500390f35b82516001600160a01b031684528594506020938401939092019160010161278b565b825484526020909301926001928301920161275b565b50346103f657806003193601126103f65760206040517ff146182d150a5b368b6d283f87aeae1f25c21b02ff55cf16848704ade176a5cb8152f35b50346103f657806003193601126103f6576020604051626ebe008152f35b50346103f657806003193601126103f65760206040517f0f9dd4db10c87ffcc337f44200a5df16e545591d09c12f63c158b3d592fcf1888152f35b50346103f65760603660031901126103f65761287f613afc565b60443560243561288f8183613e3e565b926128998461453c565b936128a76040519586613b5f565b8085526128b6601f199161453c565b01855b818110612b2b5750506001600160a01b0316815b8381106129d15784866040519182916020830160208452825180915260408401602060408360051b870101940192905b82821061290c57505050500390f35b919360019193955060208091603f19898203018552875190848060a01b03825116815261016061012061294e8585015161018087860152610180850190613c81565b6040808601518582015260608087015115159086015260808087015180519187019190915260208101516001600160a01b031660a0870152015160c08501529360a081015160e085015260c081015161010085015260e08101518285015261010081015115156101408501520151151591015296019201920185949391926128fd565b8186526101036020526129e78160408820613cf9565b506040519087908054906129fa82613c49565b9160018116908115612b125750600114612ade575b5050612a2e8260206001959484610102612ad796520301902054613dc2565b50612a398684613e3e565b9060ff600a60405192612a4b84613b28565b878060a01b038154168452612a61888201613d22565b6020850152600281015460408501528260038201541615156060850152612a8a60048201613de0565b6080850152600781015460a0850152600881015460c0850152600981015460e08501520154818116151561010084015260081c161515610120820152612ad0828a614553565b5287614553565b50016128cd565b90915088526020882088905b828210612afe5750508101612a2e82612a0f565b600181602092548487015201910190612aea565b60ff1916855250508015150282019050612a2e82612a0f565b602090604095939551612b3d81613b28565b888152606083820152886040820152886060820152604051612b5e81613b44565b898152898482015289604082015260808201528860a08201528860c08201528860e08201528861010082015288610120820152828289010152019391936128b9565b50346103f657806003193601126103f6577f8a8d1de1c18abb94a793a1c642e9153de53c830daa68b212d4eb80a0fed540518152606560209081526040808320335f908152925290205460ff16156103f65760c95460ff811615612c325760ff191660c9557f5db9ee0a495bf2e6ff9c91a7834c1ba4fdd244a5e8aa4e537bd38aeae4b073aa6020604051338152a180f35b60405162461bcd60e51b815260206004820152601460248201527314185d5cd8589b194e881b9bdd081c185d5cd95960621b6044820152606490fd5b50346103f657806003193601126103f657602060405173bbbbbbbbbbbbbbbbbbbbbbbbbbbbbbbbbbbbbbbb8152f35b50346103f65760203660031901126103f657808052606560209081526040808320335f90815292529020546004359060ff16156103f45761271081116103f45760407f70a47d9b6bc76b08da6f8f076f24e0cb3e9c1bfb280f89f72d5e6fe1ffbff577916101085490806101085582519182526020820152a180f35b50346103f657602080612d2b36613bd1565b604051928184925191829101835e810161010d815203019020906040519181815491612d5683613c49565b8086529260018116908115612dbf5750600114612d7e575b611b7585611b6181870382613b5f565b815260208120939250905b808210612da557509091508101602001611b6182611b75612d6e565b919260018160209254838588010152019101909291612d89565b869550611b7596935060209250611b6194915060ff191682840152151560051b8201019293612d6e565b50346103f657612df836613c0f565b909183805260656020526040842060018060a01b0333165f5260205260ff60405f20541615610613576001600160a01b03169182156106135783612e47845f5260fc60205260405f2054151590565b6103f65760049160a0906001600160a01b0316612e638661564d565b5085835260fd60205260408320600180841b0382166001600160601b03841b82541617905585835260fe60205284604084205560405193848092633fabe5a360e21b82525afa9182156106065781908293612efd575b50131561061357612eca9042613e3e565b116103f45760207fa317c10673baf4f03b3c1041bd5ddbb537d0333a86fec3607c75f9dbb630f48f91604051908152a180f35b9050612f1991925060a03d60a0116105ff576105ec8183613b5f565b50939250505f612eb9565b50346103f65760403660031901126103f657612f3e613b12565b336001600160a01b03821603612f5a576106cb90600435615489565b60405162461bcd60e51b815260206004820152602f60248201527f416363657373436f6e74726f6c3a2063616e206f6e6c792072656e6f756e636560448201526e103937b632b9903337b91039b2b63360891b6064820152608490fd5b50346103f657806003193601126103f65760206040517f8b6dced259e7c22d2c562be416e2454fe4c41318f8581c10be50deaca96d35368152f35b50346103f6576020808061300536613bd1565b604051928184925191829101835e810161010281520301902054604051908152f35b50346103f65760403660031901126103f657600435613044613b12565b9061305e6106c1825f526065602052600160405f20015490565b80835260656020526040832060018060a01b0383165f5260205260ff60405f20541615613089578280f35b8083526065602090815260408085206001600160a01b03949094165f81815294909252909220805460ff191660011790553391907f2f8788117e7eff1d82e926ec794901d17c78024a50270940304540a733656f0d8480a45f808280f35b50346103f65760203660031901126103f657600435613104614b7c565b7f0f9dd4db10c87ffcc337f44200a5df16e545591d09c12f63c158b3d592fcf1888252606560209081526040808420335f908152925290205460ff16156103f4578180808084335af1613155613e4b565b50156103f4574761010954116131935760207f5b6b431d4476a211bb7d41c20d1aab9ae2321deee0d20be3d9fc9b1093fa6e3d91604051908152a180f35b60405162461bcd60e51b815260206004820152601960248201527f5769746864726177616c20616d6f756e7420746f6f20626967000000000000006044820152606490fd5b50346103f657806003193601126103f65760206040516224ea008152f35b50346103f657806003193601126103f657602061010c54604051908152f35b50346103f65760203660031901126103f65760206132416004355f526065602052600160405f20015490565b604051908152f35b346137fd5760a03660031901126137fd57613262613afc565b6024356001600160401b0381116137fd57613281903690600401613acf565b90916044356001600160401b0381116137fd576132a2903690600401613acf565b335f9081527f1d9c10a110e512a468767bbda60d5ed76f4aa0c91f0ee0510c9ed05475ceff5e6020526040902054919460643592608435929060ff1615613887575f5160206158345f395f51905f525f5260fd6020527f1df3cf4ed468092b87e8c16b2ef9a90bb8699bfc400ae4ae97452a2c27c21ebe54604051633fabe5a360e21b81529060a090829060049082906001600160a01b03165afa908115613857575f905f92613862575b50610100546001600160a01b039081165f81815260fd602052604090819020549051633fabe5a360e21b81529194919260a09184916004918391165afa908115613857575f925f9261382e575b505f841380613825575b156137fd576133b39042613e3e565b5f5160206158345f395f51905f525f5260fe6020527f0ae3abc66e4bda7b39b71e4319fbae3aaf530387468f7ee4237e76041ab137a054106137fd576133f99042613e3e565b835f5260fe60205260405f2054106137fd57680ae56f730e6d840000820291808304680ae56f730e6d84000014901517156118c05761343791613e8d565b6009810290808204600914901517156118c057600a900484106137fd57836134629130903390615200565b61010054610105546001600160a01b039091169290686c6b935b8bbd4000008101908181116118c05761010654821161193d576212750087148015613819575b801561380d575b8015613801575b156118d45781106118c057610105556134c7614b7c565b609082036137fd5761010154604051888382376020818a810161010281520301902055613570604051966134fa88613b44565b5f88528460208901528560408901526101075461010854906040519261351f84613b28565b6001600160a01b031680845299613537368d88613b9b565b60208501528960408501525f606085015260808401525f60a084015260c083015260e08201525f6101008201525f6101208201526149b4565b6040518782823760208189810161010d8152030190206001600160401b038311613767576135a283610e088354613c49565b5f83601f811160011461379957806135cd925f9161378e57508160011b915f199060031b1c19161790565b90555b6040518782823760208189810161010f815203019020600160ff19825416179055855f5261010360205260405f2054604051888382376020818a810161010481520301902055855f5261010360205260405f208054600160401b8110156137675761364091600182018155613cf9565b61377b576001600160401b0388116137675761366088610e088354613c49565b5f601f89116001146136ed575f5160206158145f395f51905f5299926136c194926136a38b8061176c955f916136e257508160011b915f199060031b1c19161790565b90555b604051998a998a5261010060208b01526101008a0191613e11565b9260608501525f60808501525f60a085015260c084015260e08301520390a1005b90508401358f610e27565b601f19891690825f5260205f20915f5b81811061374f57509261176c925f5160206158145f395f51905f529c95928c6136c1989610613736575b505060018b811b0190556136a6565b8301355f1960038e901b60f8161c191690558c80613727565b919260206001819286890135815501940192016136fd565b634e487b7160e01b5f52604160045260245ffd5b634e487b7160e01b5f525f60045260245ffd5b90508b01358c610e27565b50601f19841690825f528460205f20925f5b8d8282106137e3575050106137ca575b5050600183811b0190556135d0565b8a01355f19600386901b60f8161c1916905589806137bb565b8401358555600190940193602093840193889350016137ab565b5f80fd5b50626ebe0087146134b0565b506249d40087146134a9565b506224ea0087146134a2565b505f83136133a4565b90925061384a915060a03d60a0116105ff576105ec8183613b5f565b509392505091908c61339a565b6040513d5f823e3d90fd5b905061387d915060a03d60a0116105ff576105ec8183613b5f565b509250508961334d565b60405162461bcd60e51b815260206004820152602760248201527f524f4c455f52454749535445525f574954485f464c455849424c455f50524943604482015266455f434845434b60c81b6064820152608490fd5b346137fd575f3660031901126137fd5761010e546040516001600160a01b039091168152602090f35b346137fd5760203660031901126137fd57335f9081527fffdfc1249c027f9191656349feb0761381bb32c9f557e01f419fd08754bf5a1b60205260409020546004359060ff16156137fd5761271081116137fd5760407f243f5920d630b2ce83f8881e8e61dfba5c13da5a74bf035e6b28827571b29fa19161010c54908061010c5582519182526020820152a1005b346137fd5760203660031901126137fd576139ad613afc565b335f9081527fffdfc1249c027f9191656349feb0761381bb32c9f557e01f419fd08754bf5a1b602052604090205460ff16156137fd5761010e80546001600160a01b0319166001600160a01b0392909216919091179055005b60403660031901126137fd576004356001600160401b0381116137fd57613a31903690600401613acf565b6024359081151582036137fd57613a5792613a4a614b7c565b613a52614bc0565b613eab565b6001609755005b346137fd5760203660031901126137fd576020613241600435614adb565b346137fd5760203660031901126137fd576004359063ffffffff60e01b82168092036137fd57602091637965db0b60e01b8114908115613abe575b5015158152f35b6301ffc9a760e01b14905083613ab7565b9181601f840112156137fd578235916001600160401b0383116137fd57602083818601950101116137fd57565b600435906001600160a01b03821682036137fd57565b602435906001600160a01b03821682036137fd57565b61014081019081106001600160401b0382111761376757604052565b606081019081106001600160401b0382111761376757604052565b90601f801991011681019081106001600160401b0382111761376757604052565b6001600160401b03811161376757601f01601f191660200190565b929192613ba782613b80565b91613bb56040519384613b5f565b8294818452818301116137fd578281602093845f960137010152565b60206003198201126137fd57600435906001600160401b0382116137fd57806023830112156137fd57816024613c0c93600401359101613b9b565b90565b60609060031901126137fd576004356001600160a01b03811681036137fd57906024356001600160a01b03811681036137fd579060443590565b90600182811c92168015613c77575b6020831014613c6357565b634e487b7160e01b5f52602260045260245ffd5b91607f1691613c58565b805180835260209291819084018484015e5f828201840152601f01601f1916010190565b60606003198201126137fd576004356001600160401b0381116137fd5781613ccf91600401613acf565b92909291602435906001600160401b0382116137fd57613cf191600401613acf565b909160443590565b8054821015613d0e575f5260205f2001905f90565b634e487b7160e01b5f52603260045260245ffd5b9060405191825f825492613d3584613c49565b8084529360018116908115613da05750600114613d5c575b50613d5a92500383613b5f565b565b90505f9291925260205f20905f915b818310613d84575050906020613d5a928201015f613d4d565b6020919350806001915483858901015201910190918492613d6b565b905060209250613d5a94915060ff191682840152151560051b8201015f613d4d565b61010154811015613d0e576101015f52600b60205f20910201905f90565b90604051613ded81613b44565b8254815260018301546001600160a01b031660208201526002909201546040830152565b908060209392818452848401375f828201840152601f01601f1916010190565b919082018092116118c057565b919082039182116118c057565b3d15613e75573d90613e5c82613b80565b91613e6a6040519384613b5f565b82523d5f602084013e565b606090565b818102929181159184041417156118c057565b8115613e97570490565b634e487b7160e01b5f52601260045260245ffd5b335f9081527f550cf24ee8cd1238fbb5b2b003ba2815aa7078d8d1f9ebe8aa8f16716a18431f602052604090205490919060ff16156144c0576040518183823760208183810161010281520301902054801561448257613f0a90613dc2565b5092600a84019060ff825460081c1661443d577f834288ca549398403511a8b546b7e4885ac51b98630c0ffa3a07858dc5d9e40d6040516020815280613f54602082018789613e11565b0390a16143055760ff60038501541661426257600484019081541580614256575b6142435761010061ff00198254161781558154686c6b935b8bbd40000003686c6b935b8bbd40000081116118c057613fb09061010554613e3e565b6101055560ff6040518486823760208186810161010f81520301902054165f1461404a575050346137fd5761402860067fc7b0487e0a21287b5a35f7ddf5ed5d8e9d30338d3ad76e60c0986c52addace48940180549061401460c983048093613e3e565b9055610100546001600160a01b0316615181565b61403f604051928392604084526040840191613e11565b5f60208301520390a1565b819491548034115f146140c05750506007906140887fc7b0487e0a21287b5a35f7ddf5ed5d8e9d30338d3ad76e60c0986c52addace48955434613e3e565b918291015561409a3461010954613e31565b610109556140b5604051938493604085526040850191613e11565b9060208301520390a1565b34036137fd57600160ff198254161790555f935f916008810154806141cc575b506009018054909290156141905750612710916141009154905490613e7a565b049261411861410f8534613e3e565b61010954613e31565b610109555f8080808773bbbbbbbbbbbbbbbbbbbbbbbbbbbbbbbbbbbbbbbb5af1614140613e4b565b50156137fd577feb8d450bff74ef3c1d9319f07855afedfdfa4dce6a223c1c1920a3ac1088d3b4935b614180604051948594606086526060860191613e11565b91602084015260408301520390a1565b90507feb8d450bff74ef3c1d9319f07855afedfdfa4dce6a223c1c1920a3ac1088d3b49491506141c33461010954613e31565b61010955614169565b8196506141e26127109160066009940154613e7a565b6101005460405163a9059cbb60e01b602082015273bbbbbbbbbbbbbbbbbbbbbbbbbbbbbbbbbbbbbbbb60248201529290910460448084018290528352979161423d916001600160a01b0316614238606483613b5f565b61556a565b906140e0565b5050909150346137fd57613d5a91614cea565b50600685015415613f75565b509091346137fd5761010554686c6b935b8bbd3fffff1981019081116118c05761010555600481018054909190156142de57505f80936142b78294839454926142ae8461010954613e3e565b61010955614cea565b73aaaaaaaaaaaaaaaaaaaaaaaaaaaaaaaaaaaaaaaa5af16142d6613e4b565b50156137fd57565b9050614300613d5a9392600660018060a01b0360058501541693015493614cea565b615181565b9260ff6003829493940154165f1461434b57505050346137fd5761010554686c6b935b8bbd3fffff1981019081116118c057610105555b805461ff001916610100179055565b6004810154908134036143df57600601541590816143d6575b501561437457613d5a9250614cea565b6143813461010954613e31565b6101095534686c6b935b8bbd4000000390686c6b935b8bbd40000082116118c0576143b160209261010554613e3e565b61010555826040519384928337810161010f81520301902060ff19815416905561433c565b9050155f614364565b60405162461bcd60e51b815260206004820152603060248201527f4d6573736167652076616c7565206d757374206d61746368207468652041564160448201526f160819195c1bdcda5d08185b5bdd5b9d60821b6064820152608490fd5b60405162461bcd60e51b815260206004820152601a60248201527f21726567697374726174696f6e2e776974686472617761626c650000000000006044820152606490fd5b60405162461bcd60e51b81526020600482015260166024820152750726567697374726174696f6e496e64657820213d20360541b6044820152606490fd5b60405162461bcd60e51b815260206004820152600b60248201526a03937b6329032b93937b9160ad1b6044820152606490fd5b519069ffffffffffffffffffff821682036137fd57565b908160a09103126137fd5761451e816144f3565b91602082015191604081015191613c0c6080606084015193016144f3565b6001600160401b0381116137675760051b60200190565b8051821015613d0e5760209160051b010190565b604051828282376020818481016101028152030190205480156137fd5761458d90613dc2565b5080549092906001600160a01b031633036137fd57600a830160ff815460081c16156137fd5760ff60038501541661478b5760068401549060ff60048601549154165f146146b457906127106145f460086145fb61460495846145f460098c015483613e7a565b0490613e3e565b97015483613e7a565b926146128161010954613e3e565b610109555b6146218284614cea565b6101005461463b90859033906001600160a01b03166151c5565b8061469b575b7fee444713008e3c266c8fb74c287dd853d5eb23d60c7e77730b0ed536556efd9a9360018060a01b036101005416614686604051958695608087526080870191613e11565b926020850152604084015260608301520390a1565b5f80808084335af16146ab613e4b565b50614641575f80fd5b60078501546146c291613e31565b90809460ff6040518587823760208187810161010f81520301902054166146fc575b50506146f38161010954613e3e565b61010955614617565b5f9295506020906044600260018060a01b0361010e54169201546040519586938492632ca6ea1960e11b845260048401528660248401525af1908115613857575f91614755575b61474d9250613e31565b925f806146e4565b90506020823d602011614783575b8161477060209383613b5f565b810103126137fd5761474d915190614743565b3d9150614763565b50600483018054919390911561481f575054916147ab8361010954613e3e565b610109556147b98183614cea565b5f80808086335af16147c9613e4b565b50156137fd577fee444713008e3c266c8fb74c287dd853d5eb23d60c7e77730b0ed536556efd9a92614808604051938493608085526080850191613e11565b9060208301525f60408301525f60608301520390a1565b7fee444713008e3c266c8fb74c287dd853d5eb23d60c7e77730b0ed536556efd9a939150600660018060a01b0360058301541691015461485f8385614cea565b61486a8133846151c5565b614881604051948594608086526080860191613e11565b915f6020850152604084015260608301520390a1565b8181106148a2575050565b5f8155600101614897565b9190601f81116148bc57505050565b613d5a925f5260205f20906020601f840160051c830193106148e6575b601f0160051c0190614897565b90915081906148d9565b91909182516001600160401b03811161376757614917816149118454613c49565b846148ad565b6020601f82116001146149565781906149479394955f9261494b575b50508160011b915f199060031b1c19161790565b9055565b015190505f80614933565b601f19821690835f52805f20915f5b81811061499c57509583600195969710614984575b505050811b019055565b01515f1960f88460031b161c191690555f808061497a565b9192602060018192868b015181550194019201614965565b61010154600160401b8110156137675760018101610101556101018054821015613d0e575f52600b60205f20910201905f61377b57805182546001600160a01b0319166001600160a01b03919091161782556020810151613d5a9261012091600a9190614a2490600183016148f0565b60408401516002820155614a4d60608501511515600383019060ff801983541691151516179055565b60808401518051600483015560208101516005830180546001600160a01b039092166001600160a01b031990921691909117905560400151600682015560a0840151600782015560c0840151600882015560e084015160098201556101008401519101805460ff191691151560ff16919091178155910151815461ff00191690151560081b61ff0016179055565b621275008114614b6f576224ea008114614b62576249d4008114614b5457626ebe0014614b475760405162461bcd60e51b815260206004820152601b60248201527f496e76616c69642076616c69646174696f6e206475726174696f6e00000000006044820152606490fd5b68022b1c8c1227a0000090565b5068018493fba64ef0000090565b5067d02ab486cedc000090565b50676f05b59d3b20000090565b60ff60c95416614b8857565b60405162461bcd60e51b815260206004820152601060248201526f14185d5cd8589b194e881c185d5cd95960821b6044820152606490fd5b600260975414614bd1576002609755565b60405162461bcd60e51b815260206004820152601f60248201527f5265656e7472616e637947756172643a207265656e7472616e742063616c6c006044820152606490fd5b919091828114614ce557614c2a8354613c49565b6001600160401b03811161376757614c46816149118454613c49565b5f93601f8211600114614c805761494792939482915f92614c755750508160011b915f199060031b1c19161790565b015490505f80614933565b601f198216905f5260205f2094835f5260205f20915f5b818110614ccd57509583600195969710614cb557505050811b019055565b01545f1960f88460031b161c191690555f808061497a565b9192600180602092868b015481550194019201614c97565b509050565b604051828282376020818481016101028152030190205480156137fd57614d1081613dc2565b50546040516001600160a01b03909116908484823760208186810161010481520301902054815f5261010360205260405f20545f1981019081116118c057808203615119575b50505f5261010360205260405f2080548015614f14575f190190614d7a8282613cf9565b61377b57614d888154613c49565b90816150d6575b5050555f60405184848237602081868101610104815203019020556040518383823760208185810161010d815203019020614dca8154613c49565b9081615093575b50506040518383823760208185810161010f81520301902060ff198154169055610101545f1981019081116118c057808203614f28575b5050610101548015614f14575f190191614e2183613dc2565b93909361377b575f600a85827f04393636f796e0824c4807e9d1a98080042d261b6d4feea240a3d698ee713b52975560018101614e5e8154613c49565b9081614ed1575b50508260028201558260038201558260048201558260058201558260068201558260078201558260088201558260098201550155610101555f6040518284823760208184810161010281520301902055614ecc604051928392602084526020840191613e11565b0390a1565b81601f869311600114614ee85750555b5f80614e65565b81835260208320614f0491601f0160051c810190600101614897565b8082528160208120915555614ee1565b634e487b7160e01b5f52603160045260245ffd5b614f46614f406001614f3984613dc2565b5001613d22565b91613dc2565b50614f5083613dc2565b92909261377b576020928392808203614f87575b5050604051928184925191829101835e8101610102815203019020555f80614e08565b805482546001600160a01b0319166001600160a01b03919091161782556150519160ff90600a908190614fc06001868101908301614c16565b60028501546002820155614fe984600387015416600383019060ff801983541691151516179055565b6004810160048601808203615058575b505060078501546007820155600885015460088201556009850154600982015501920161503582825416849060ff801983541691151516179055565b5460081c1661ff00825491151560081b169061ff001916179055565b5f80614f64565b54905560058581015490820180546001600160a01b0319166001600160a01b0392909216919091179055600680860154908201555f80614ff9565b81601f5f93116001146150aa5750555b5f80614dd1565b818352602083206150c691601f0160051c810190600101614897565b80825281602081209155556150a3565b81601f5f93116001146150ed5750555b5f80614d8f565b8183526020832061510991601f0160051c810190600101614897565b80825281602081209155556150e6565b61513261513891845f5261010360205260405f20613cf9565b50613d22565b825f5261010360205261514e8260405f20613cf9565b61377b578161516060209384936148f0565b604051928184925191829101835e8101610104815203019020555f80614d56565b90613d5a916040519163a9059cbb60e01b602084015273aaaaaaaaaaaaaaaaaaaaaaaaaaaaaaaaaaaaaaaa6024840152604483015260448252614238606483613b5f565b60405163a9059cbb60e01b60208201526001600160a01b039092166024830152604480830193909352918152613d5a91614238606483613b5f565b6040516323b872dd60e01b60208201526001600160a01b039283166024820152929091166044830152606480830193909352918152613d5a91614238608483613b5f565b5f81815260656020908152604080832033845290915290205460ff16156152685750565b33615273602a613b80565b916152816040519384613b5f565b602a835261528f602a613b80565b602084019290601f1901368437835115613d0e5760308353835160011015613d0e576078602185015360295b6001811161544857506153c3576152d26042613b80565b906152e06040519283613b5f565b604282526152ee6042613b80565b602083019190601f1901368337825115613d0e5760308253825160011015613d0e576078602184015360415b6001811161540757506153c3576110d9936037601192846153a395506040519687947f416363657373436f6e74726f6c3a206163636f756e742000000000000000000060208701525180918587015e8401907001034b99036b4b9b9b4b733903937b6329607d1b84830152518092604883015e01015f838201520301601f198101835282613b5f565b60405162461bcd60e51b8152602060048201529182916024830190613c81565b606460405162461bcd60e51b815260206004820152602060248201527f537472696e67733a20686578206c656e67746820696e73756666696369656e746044820152fd5b90600f81166010811015613d0e576f181899199a1a9b1b9c1cb0b131b232b360811b901a6154358386615769565b5360041c9080156118c0575f190161531a565b90600f81166010811015613d0e576f181899199a1a9b1b9c1cb0b131b232b360811b901a6154768387615769565b5360041c9080156118c0575f19016152bb565b805f52606560205260405f2060018060a01b0383165f5260205260ff60405f2054166154b3575050565b5f8181526065602090815260408083206001600160a01b0395909516808452949091528120805460ff19169055339291907ff6391f5c32d9c69d2a47ea670b442974b53935d1edc7fd64eb21e047a839171b9080a4565b1561551157565b60405162461bcd60e51b815260206004820152602b60248201527f496e697469616c697a61626c653a20636f6e7472616374206973206e6f74206960448201526a6e697469616c697a696e6760a81b6064820152608490fd5b906155ca9160018060a01b03165f8060405193615588604086613b5f565b602085527f5361666545524332303a206c6f772d6c6576656c2063616c6c206661696c6564602086015260208151910182855af16155c4613e4b565b9161577a565b8051806155d5575050565b81602091810103126137fd57602001518015908115036137fd576155f557565b60405162461bcd60e51b815260206004820152602a60248201527f5361666545524332303a204552433230206f7065726174696f6e20646964206e6044820152691bdd081cdd58d8d9595960b21b6064820152608490fd5b805f5260fc60205260405f2054155f146156b35760fb54600160401b8110156137675761569c61568682600185940160fb5560fb613cf9565b819391549060031b91821b915f19901b19161790565b905560fb54905f5260fc60205260405f2055600190565b505f90565b5f81815260fc60205260409020548015615763575f1981018181116118c05760fb545f198101919082116118c05780820361572b575b50505060fb548015614f14575f19016157088160fb613cf9565b8154905f199060031b1b1916905560fb555f5260fc6020525f6040812055600190565b61574d61573c6156869360fb613cf9565b90549060031b1c92839260fb613cf9565b90555f5260fc60205260405f20555f80806156ee565b50505f90565b908151811015613d0e570160200190565b919290156157dc575081511561578e575090565b3b156157975790565b60405162461bcd60e51b815260206004820152601d60248201527f416464726573733a2063616c6c20746f206e6f6e2d636f6e74726163740000006044820152606490fd5b8251909150156157ef5750805190602001fd5b60405162461bcd60e51b8152602060048201529081906110d9906024830190613c8156fe911545ab01a7553b2c4eb100eb4054703d821e76fc5d0504a07b8246aa3b1232000000000000000000000000eeeeeeeeeeeeeeeeeeeeeeeeeeeeeeeeeeeeeeeea26469706673582212209416eb542e32958e25884e47e6b4a055753e486b6e894a12517d5998d2d27e7864736f6c634300081c00330000000000000000000000007109709ecfa91a80626ff3989d68f67f5b1dd12d405787fa12a823e0f2b7631cc41b3ba8828b3321ca811111fa75cd3aa3bb5acec2575a0e9e593c00f959f8c92f12db2869c3395a3b0502d05e2516446f71f85b","linkReferences":{}},"methodIdentifiers":{"FEE_RECIPIENT()":"ebd09054","SLASHED_TOKEN_RECIPIENT()":"3f24a8e5","VALIDATION_DURATION_EIGHT_WEEKS()":"ce339923","VALIDATION_DURATION_FOUR_WEEKS()":"2dbecc1a","VALIDATION_DURATION_TWELVE_WEEKS()":"4bcad6f2","VALIDATION_DURATION_TWO_WEEKS()":"8079336c","amountArr(uint256)":"32e9aa8c","avaxFee()":"eba34911","avaxSlash()":"1d791f3e","blsKey()":"cf2f00af","blsPoP()":"f9bf4553","blsSignature()":"4e7320ce","boundValue(uint256,uint256,uint256)":"846f81c5","durations(uint256)":"bc20a7af","echidna_check_eth_balance()":"ede32943","echidna_check_fail_registration_withdrawal()":"da69821e","echidna_check_minimum_eth_balance()":"5ab6bc3b","echidna_check_qi_balance()":"bb15ab1b","echidna_check_success_registration_withdrawal()":"666f35a4","echidna_check_success_slashed()":"e3afe87e","failRegistrationIndices(uint256)":"1b422929","gostMinimumContractBalance()":"a049b04c","isRegisteredCalled()":"cb9a2f44","nodeIds(uint256)":"98543166","qiPriceMultiplier()":"2576eed1","register_with_avax_fee(uint256,uint256,uint256)":"7438c4b7","register_with_erc20_fee(uint256,uint256,uint256)":"75bff181","register_with_prevalidated_qiStake(uint256,uint256,uint256)":"973ca200","register_with_stake(uint256,uint256,uint256,uint256)":"dea06dec","register_without_collateral(uint256,uint256,uint256)":"098c8173","releaseLockTokenFailedCalled()":"6f07a042","releaseLockTokenSlashedCalled()":"3a71765d","releaseLockTokenSuccessCalled()":"774860a4","release_locked_tokens_failed(uint256)":"0d501d87","release_locked_tokens_slash(uint256)":"10fe6eb6","release_locked_tokens_success(uint256)":"6d9ce5b5","successRegistrationIndices(uint256)":"e579a04d","tokenFee()":"45599136","tokenSlash()":"2b247af6","withdraw_eth(uint256)":"30a95e67"},"id":56}