{"abi":[{"type":"constructor","inputs":[],"stateMutability":"payable"},{"type":"function","name":"FEE_RECIPIENT","inputs":[],"outputs":[{"name":"","type":"address","internalType":"address"}],"stateMutability":"view"},{"type":"function","name":"SLASHED_TOKEN_RECIPIENT","inputs":[],"outputs":[{"name":"","type":"address","internalType":"address"}],"stateMutability":"view"},{"type":"function","name":"VALIDATION_DURATION_EIGHT_WEEKS","inputs":[],"outputs":[{"name":"","type":"uint256","internalType":"uint256"}],"stateMutability":"view"},{"type":"function","name":"VALIDATION_DURATION_FOUR_WEEKS","inputs":[],"outputs":[{"name":"","type":"uint256","internalType":"uint256"}],"stateMutability":"view"},{"type":"function","name":"VALIDATION_DURATION_TWELVE_WEEKS","inputs":[],"outputs":[{"name":"","type":"uint256","internalType":"uint256"}],"stateMutability":"view"},{"type":"function","name":"VALIDATION_DURATION_TWO_WEEKS","inputs":[],"outputs":[{"name":"","type":"uint256","internalType":"uint256"}],"stateMutability":"view"},{"type":"function","name":"amountArr","inputs":[{"name":"","type":"uint256","internalType":"uint256"}],"outputs":[{"name":"","type":"uint256","internalType":"uint256"}],"stateMutability":"view"},{"type":"function","name":"avaxFee","inputs":[],"outputs":[{"name":"","type":"uint256","internalType":"uint256"}],"stateMutability":"view"},{"type":"function","name":"avaxSlash","inputs":[],"outputs":[{"name":"","type":"uint256","internalType":"uint256"}],"stateMutability":"view"},{"type":"function","name":"blsKey","inputs":[],"outputs":[{"name":"","type":"bytes","internalType":"bytes"}],"stateMutability":"view"},{"type":"function","name":"blsPoP","inputs":[],"outputs":[{"name":"","type":"bytes","internalType":"bytes"}],"stateMutability":"view"},{"type":"function","name":"blsSignature","inputs":[],"outputs":[{"name":"","type":"bytes","internalType":"bytes"}],"stateMutability":"view"},{"type":"function","name":"boundValue","inputs":[{"name":"value","type":"uint256","internalType":"uint256"},{"name":"min","type":"uint256","internalType":"uint256"},{"name":"max","type":"uint256","internalType":"uint256"}],"outputs":[{"name":"","type":"uint256","internalType":"uint256"}],"stateMutability":"pure"},{"type":"function","name":"durations","inputs":[{"name":"","type":"uint256","internalType":"uint256"}],"outputs":[{"name":"","type":"uint256","internalType":"uint256"}],"stateMutability":"view"},{"type":"function","name":"echidna_check_eth_balance","inputs":[],"outputs":[{"name":"","type":"bool","internalType":"bool"}],"stateMutability":"nonpayable"},{"type":"function","name":"echidna_check_fail_registration_withdrawal","inputs":[],"outputs":[{"name":"","type":"bool","internalType":"bool"}],"stateMutability":"view"},{"type":"function","name":"echidna_check_minimum_eth_balance","inputs":[],"outputs":[{"name":"","type":"bool","internalType":"bool"}],"stateMutability":"view"},{"type":"function","name":"echidna_check_qi_balance","inputs":[],"outputs":[{"name":"","type":"bool","internalType":"bool"}],"stateMutability":"view"},{"type":"function","name":"echidna_check_success_registration_withdrawal","inputs":[],"outputs":[{"name":"","type":"bool","internalType":"bool"}],"stateMutability":"nonpayable"},{"type":"function","name":"echidna_check_success_slashed","inputs":[],"outputs":[{"name":"","type":"bool","internalType":"bool"}],"stateMutability":"nonpayable"},{"type":"function","name":"echidna_check_total_subsidised","inputs":[],"outputs":[{"name":"","type":"bool","internalType":"bool"}],"stateMutability":"view"},{"type":"function","name":"echidna_total_sub_gost","inputs":[],"outputs":[{"name":"","type":"bool","internalType":"bool"}],"stateMutability":"view"},{"type":"function","name":"failRegistrationIndices","inputs":[{"name":"","type":"uint256","internalType":"uint256"}],"outputs":[{"name":"","type":"string","internalType":"string"}],"stateMutability":"view"},{"type":"function","name":"gostMinimumContractBalance","inputs":[],"outputs":[{"name":"","type":"uint256","internalType":"uint256"}],"stateMutability":"view"},{"type":"function","name":"isRegisteredCalled","inputs":[],"outputs":[{"name":"","type":"bool","internalType":"bool"}],"stateMutability":"view"},{"type":"function","name":"nodeIds","inputs":[{"name":"","type":"uint256","internalType":"uint256"}],"outputs":[{"name":"","type":"string","internalType":"string"}],"stateMutability":"view"},{"type":"function","name":"qiPriceMultiplier","inputs":[],"outputs":[{"name":"","type":"uint256","internalType":"uint256"}],"stateMutability":"view"},{"type":"function","name":"register_with_avax_fee","inputs":[{"name":"userIndex","type":"uint256","internalType":"uint256"},{"name":"validationDurationIndex","type":"uint256","internalType":"uint256"}],"outputs":[],"stateMutability":"nonpayable"},{"type":"function","name":"register_with_erc20_fee","inputs":[{"name":"userIndex","type":"uint256","internalType":"uint256"},{"name":"validationDurationIndex","type":"uint256","internalType":"uint256"}],"outputs":[],"stateMutability":"nonpayable"},{"type":"function","name":"register_with_prevalidated_qiStake","inputs":[{"name":"userIndex","type":"uint256","internalType":"uint256"},{"name":"validationDurationIndex","type":"uint256","internalType":"uint256"}],"outputs":[],"stateMutability":"nonpayable"},{"type":"function","name":"register_with_stake","inputs":[{"name":"userIndex","type":"uint256","internalType":"uint256"},{"name":"amountIndex","type":"uint256","internalType":"uint256"},{"name":"validationDurationIndex","type":"uint256","internalType":"uint256"}],"outputs":[],"stateMutability":"nonpayable"},{"type":"function","name":"register_without_collateral","inputs":[{"name":"userIndex","type":"uint256","internalType":"uint256"},{"name":"validationDurationIndex","type":"uint256","internalType":"uint256"}],"outputs":[],"stateMutability":"nonpayable"},{"type":"function","name":"releaseLockTokenFailedCalled","inputs":[],"outputs":[{"name":"","type":"bool","internalType":"bool"}],"stateMutability":"view"},{"type":"function","name":"releaseLockTokenSlashedCalled","inputs":[],"outputs":[{"name":"","type":"bool","internalType":"bool"}],"stateMutability":"view"},{"type":"function","name":"releaseLockTokenSuccessCalled","inputs":[],"outputs":[{"name":"","type":"bool","internalType":"bool"}],"stateMutability":"view"},{"type":"function","name":"release_locked_tokens_failed","inputs":[{"name":"nodeIdIndex","type":"uint256","internalType":"uint256"}],"outputs":[],"stateMutability":"nonpayable"},{"type":"function","name":"release_locked_tokens_slash","inputs":[{"name":"nodeIdIndex","type":"uint256","internalType":"uint256"}],"outputs":[],"stateMutability":"nonpayable"},{"type":"function","name":"release_locked_tokens_success","inputs":[{"name":"nodeIdIndex","type":"uint256","internalType":"uint256"}],"outputs":[],"stateMutability":"nonpayable"},{"type":"function","name":"successRegistrationIndices","inputs":[{"name":"","type":"uint256","internalType":"uint256"}],"outputs":[{"name":"","type":"uint256","internalType":"uint256"}],"stateMutability":"view"},{"type":"function","name":"tokenFee","inputs":[],"outputs":[{"name":"","type":"uint256","internalType":"uint256"}],"stateMutability":"view"},{"type":"function","name":"tokenSlash","inputs":[],"outputs":[{"name":"","type":"uint256","internalType":"uint256"}],"stateMutability":"view"},{"type":"function","name":"withdraw_eth","inputs":[{"name":"amount","type":"uint256","internalType":"uint256"}],"outputs":[],"stateMutability":"nonpayable"},{"type":"event","name":"Log","inputs":[{"name":"","type":"string","indexed":false,"internalType":"string"}],"anonymous":false},{"type":"event","name":"LogAsad","inputs":[{"name":"","type":"uint256","indexed":false,"internalType":"uint256"}],"anonymous":false}],"bytecode":{"object":"0x60806040525f80546001600160a01b0319166323457643178155600254610025906113a4565b601f811161135b575b50606160029081555f527f8d609cdd38ffc9ad01c91d1ae4fccb8cd6c75a6ad33a401da42283b0c3b59bba5f51602061c3715f395f51905f52556ff5abc172335ea4d9c31baa936818f0ab60801b7f405787fa12a823e0f2b7631cc41b3ba8828b3321ca811111fa75cd3aa3bb5acf556003546100aa906113a4565b601f8111611312575b5060c160039081555f9081527f8c12c805e7dfe4bfe38be44685ee852d931d73b3c0820a1343d731909120cee45f51602061c3915f395f51905f52557f895f9b60990520a90d06a031a42e0f8616d415b543408c24be0da90d5e7fa8247fc2575a0e9e593c00f959f8c92f12db2869c3395a3b0502d05e2516446f71f85c557f2f4fd32dadf34c790996ca474dbdbcd763f82c53880db19fd3b30d13cee278b47fc2575a0e9e593c00f959f8c92f12db2869c3395a3b0502d05e2516446f71f85d5560405160025490929190610188816113a4565b90600181169081156112f757506001146112b5575b50825f600354926101ad846113a4565b936001811690811561129d5750600114611259575b506101d6925003601f1981018452836113f2565b81516001600160401b03811161110d576101f16004546113a4565b601f8111611200575b50602092601f821160011461119f57928192935f92611194575b50508160011b915f199060031b1c1916176004555b612710600c5560405161028081016001600160401b0381118282101761110d5760405268015af1d78b58c4000081526802b5e3af16b18800006020820152680410d586a20a4c0000604082015268056bc75e2d6310000060608201526806c6b935b8bbd400006080820152680821ab0d441498000060a082015268097c9ce4cf6d5c000060c0820152680ad78ebc5ac620000060e0820152680c328093e61ee40000610100820152680d8d726b7177a80000610120820152680ee86442fcd06c0000610140820152681043561a882930000061016082015268119e47f21381f400006101808201526812f939c99edab800006101a08201526814542ba12a337c00006101c08201526815af1d78b58c4000006101e082015268170a0f5040e50400006102008201526818650127cc3dc800006102208201526819bff2ff57968c0000610240820152681b1ae4d6e2ef500000610260820152600f546014600f558060141061113e575b50600f5f5260205f20905f5b6014811061112157836001546801000000000000000081101561110d578060016103cd92016001556001611441565b81546001600160a01b0360039290921b91821b191660019182901b17909155546801000000000000000081101561110d5780600161041092016001556001611441565b81546001600160a01b0360039290921b91821b1916600290911b1790556001546801000000000000000081101561110d5780600161045392016001556001611441565b8154600391821b91821b6001600160a01b039283901b19909116179091555f54165f51602061c3515f395f51905f523b15611109576040519063ca669fa760e01b825260048201525f81602481835f51602061c3515f395f51905f525af180156110fe576110eb575b5060405161013990818101906001600160401b0382118183101761104157602081614a1e9385858339620f4240815203019084f08015610bba57600880546001600160a01b0319166001600160a01b0392831617905583548491165f51602061c3515f395f51905f523b15610baa576040519063ca669fa760e01b825260048201528181602481835f51602061c3515f395f51905f525af18015610bda576110d6575b505060405191808301916001600160401b038311848410176110c25791839160209383396377359400815203019082f0801561103457600980546001600160a01b0319166001600160a01b0392831617905581548291165f51602061c3515f395f51905f523b15610faf576040519063ca669fa760e01b825260048201528181602481835f51602061c3515f395f51905f525af18015610bda576110ad575b50506040516080808201906001600160401b0382118383101761104157908291614b578339039082f0801561103457600780546001600160a01b0319166001600160a01b0392831617905581548291165f51602061c3515f395f51905f523b15610faf576040519063ca669fa760e01b825260048201528181602481835f51602061c3515f395f51905f525af18015610bda57611098575b5050604051610d15808201906001600160401b038211838310176110415760e0918391614bd7833960608152600560608201526442454e514960d81b608082015260a06020820152600260a082015261514960f01b60c08201526012604082015203019082f0801561103457600680546001600160a01b0319166001600160a01b0392831617905581548291165f51602061c3515f395f51905f523b15610faf576040519063ca669fa760e01b825260048201528181602481835f51602061c3515f395f51905f525af18015610bda57611083575b50506040516159c4808201906001600160401b03821183831017611041579082916158ec8339039082f0801561103457600580546001600160a01b0319166001600160a01b0392831617905581548291165f51602061c3515f395f51905f523b15610faf576040519063ca669fa760e01b825260048201528181602481835f51602061c3515f395f51905f525af18015610bda5761106e575b506005546007546006546009546008546001600160a01b039182169490821693928216929082169116813b1561106a5785610104928195604051978896879563568c786d60e11b875260048701526024860152604485015262015180606485015260848401526201518060a484015268015af1d78b58c4000060c4840152685150ae84a8cdf0000060e48401525af18015610bda57611055575b50506040516110a1808201906001600160401b038211838310176110415790829161b2b08339039082f080156110345760188054610100600160a81b03191660089290921b610100600160a81b0316919091179055805481906001600160a01b03165f51602061c3515f395f51905f523b15610faf576040519063ca669fa760e01b825260048201528181602481835f51602061c3515f395f51905f525af18015610bda5761101f575b506005546018546001600160a01b039182169160089190911c16813b15610fc7578291602483926040519485938492631679a96560e01b845260048401525af18015610bda5761100a575b505b600154811015610c2457816109a982611415565b905460039190911b1c6001600160a01b03165f51602061c3515f395f51905f523b15610baa576040519063ca669fa760e01b825260048201528181602481835f51602061c3515f395f51905f525af18015610bda57610c0f575b506006546001600160a01b0316803b15610baa5781809160246040518094819363140e25ad60e31b83526e01ed09bead87c0378d8e640000000060048401525af18015610bda57610bfa575b50610a5982611415565b905460039190911b1c6001600160a01b03165f51602061c3515f395f51905f523b15610baa576040519063c88a5e6d60e01b825260048201526e01ed09bead87c0378d8e640000000060248201528181604481835f51602061c3515f395f51905f525af18015610bda57610be5575b50610ad282611415565b905460039190911b1c6001600160a01b03165f51602061c3515f395f51905f523b15610baa576040519063ca669fa760e01b825260048201528181602481835f51602061c3515f395f51905f525af18015610bda57610bc5575b5060065460055460405163095ea7b360e01b81526001600160a01b0391821660048201525f19602482015292602092849260449284929091165af18015610bba57610b7b575b50600101610995565b6020813d8211610bb2575b81610b93602093836113f2565b81010312610bae575180151503610baa5782610b72565b5080fd5b8280fd5b3d9150610b86565b6040513d85823e3d90fd5b81610bcf916113f2565b610baa578183610b2c565b6040513d84823e3d90fd5b81610bef916113f2565b610baa578183610ac8565b81610c04916113f2565b610baa578183610a4f565b81610c19916113f2565b610baa578183610a03565b50805481906001600160a01b03165f51602061c3515f395f51905f523b15610faf576040519063ca669fa760e01b825260048201528181602481835f51602061c3515f395f51905f525af18015610bda57610ff5575b5060055481546001600160a01b039182169116813b15610fc7578291604483926040519485938492632f2ff15d60e01b84527f0f9dd4db10c87ffcc337f44200a5df16e545591d09c12f63c158b3d592fcf188600485015260248401525af18015610bda57610fe0575b5080546001600160a01b03165f51602061c3515f395f51905f523b15610faf576040519063ca669fa760e01b825260048201528181602481835f51602061c3515f395f51905f525af18015610bda57610fcb575b5060055481546001600160a01b039182169116813b15610fc7578291604483926040519485938492632f2ff15d60e01b84527fbb4ab89723950398fbe0f1fe11ab060da193cf1f8b664c9831ac485bec8c6ca9600485015260248401525af18015610bda57610fb2575b5080546001600160a01b03165f51602061c3515f395f51905f523b15610faf576040519063ca669fa760e01b825260048201528181602481835f51602061c3515f395f51905f525af18015610bda57610f9a575b506005546006546008546001600160a01b03928316929182169116823b15610f955760648492836040519586948593631cae628960e11b8552600485015260248401526201518060448401525af18015610bda57610f7d575b5050600e5468010000000000000000811015610f6957806001610e779201600e55600e611441565b81549060031b9062127500821b915f19901b1916179055600e5468010000000000000000811015610f6957806001610eb49201600e55600e611441565b81549060031b906224ea00821b915f19901b1916179055600e5468010000000000000000811015610f6957806001610ef19201600e55600e611441565b81549060031b906249d400821b915f19901b1916179055600e549068010000000000000000821015610f5557610f2f8260018101600e55600e611441565b81549060031b90626ebe00821b915f19901b19161790556040516135c790816114578239f35b634e487b7160e01b81526041600452602490fd5b634e487b7160e01b82526041600452602482fd5b81610f87916113f2565b610f92578082610e4f565b80fd5b505050fd5b81610fa4916113f2565b610f92578082610df6565b50fd5b81610fbc916113f2565b610f92578082610da2565b5050fd5b81610fd5916113f2565b610f92578082610d38565b81610fea916113f2565b610f92578082610ce4565b81610fff916113f2565b610f92578082610c7a565b81611014916113f2565b610f92578082610993565b81611029916113f2565b610f92578082610948565b50604051903d90823e3d90fd5b634e487b7160e01b84526041600452602484fd5b8161105f916113f2565b610f9257808261089e565b8580fd5b81611078916113f2565b610f92578082610804565b8161108d916113f2565b610f9257808261076b565b816110a2916113f2565b610f92578082610696565b816110b7916113f2565b610f925780826105fe565b634e487b7160e01b85526041600452602485fd5b816110e0916113f2565b610bae57828461055f565b6110f791505f906113f2565b5f816104bc565b6040513d5f823e3d90fd5b5f80fd5b634e487b7160e01b5f52604160045260245ffd5b81516001600160481b03168184015560209091019060010161039e565b600f5f5261118e907f8d1108e10bcb7c27dddfc02ed9d693a074039d026cf4ea4240b40f7d581ac802017f8d1108e10bcb7c27dddfc02ed9d693a074039d026cf4ea4240b40f7d581ac8166113dc565b5f610392565b015190505f80610214565b601f1982169360045f52805f20915f5b8681106111e857508360019596106111d0575b505050811b01600455610229565b01515f1960f88460031b161c191690555f80806111c2565b919260206001819286850151815501940192016111af565b60045f52611249907f8a35acfbc15ff81a39ae7d344fd709f28e8600b4aa8c65c6b64bfe7fe36bd19b601f840160051c8101916020851061124f575b601f0160051c01906113dc565b5f6101fa565b909150819061123c565b60035f9081529091505f51602061c3915f395f51905f525b848210611286575050916101d692015f6101c2565b805482840152869350602090910190600101611271565b60ff19168252506101d693801515020190505f6101c2565b60025f9081529091505f51602061c3715f395f51905f525b8282106112e157505082016020015f61019d565b60018160209254838589010152019101906112cd565b90506020925060ff191682850152801515028301015f61019d565b60035f5261135590601f0160051c5f51602061c3915f395f51905f52017fc2575a0e9e593c00f959f8c92f12db2869c3395a3b0502d05e2516446f71f85e6113dc565b5f6100b3565b60025f5261139e90601f0160051c5f51602061c3715f395f51905f52017f405787fa12a823e0f2b7631cc41b3ba8828b3321ca811111fa75cd3aa3bb5ad06113dc565b5f61002e565b90600182811c921680156113d2575b60208310146113be57565b634e487b7160e01b5f52602260045260245ffd5b91607f16916113b3565b8181106113e7575050565b5f81556001016113dc565b601f909101601f19168101906001600160401b0382119082101761110d57604052565b60015481101561142d5760015f5260205f2001905f90565b634e487b7160e01b5f52603260045260245ffd5b805482101561142d575f5260205f2001905f9056fe60806040526004361015610011575f80fd5b5f5f3560e01c80630d501d87146120d857806310fe6eb614611df85780631b42292914611dc95780631d791f3e14611dab5780632576eed114611d8d57806327fffcdd1461193d5780632b247af61461191f5780632dbecc1a1461190157806330a95e671461176057806332e9aa8c146117355780633a71765d1461170f5780633f24a8e5146116e057806345599136146116c25780634bcad6f2146116a45780634e7320ce146115fe5780635ab6bc3b14611577578063666f35a41461155c5780636d9ce5b51461153f5780636f07a0421461151c578063774860a4146114f65780638079336c146114d8578063846f81c5146114a1578063985431661461146c5780639ac35531146113e4578063a049b04c146113c6578063ad91a52a1461107e578063afc48a9d14610f8f578063b21f41de14610d07578063bb15ab1b14610c69578063bc20a7af14610c2f578063c0f819bc146108bb578063cb9a2f4414610898578063ce3399231461087a578063cf2f00af146107af578063da69821e14610794578063e3afe87e1461076f578063e579a04d146106fe578063e862e8ab146102d3578063eba34911146102b5578063ebd0905414610286578063ede329431461022d5763f9bf4553146101e8575f80fd5b3461022a578060031936011261022a576102266040516102128161020b81612758565b038261264b565b60405191829160208352602083019061271e565b0390f35b80fd5b503461022a578060031936011261022a576020600a545f5160206135725f395f51905f5282604051838152a160018060a01b03600554165f5160206135725f395f51905f52838231604051908152a13114604051908152f35b503461022a578060031936011261022a57602060405173aaaaaaaaaaaaaaaaaaaaaaaaaaaaaaaaaaaaaaaa8152f35b503461022a578060031936011261022a576020601454604051908152f35b503461022a576102e236612742565b919081600154926106ea5750610305916102fb9161323f565b91600e549061323f565b906103206103135f936125b6565b90549060031b1c916125ce565b90545f5460039290921b1c6001600160a01b039081169291165f5160206135525f395f51905f523b156106e6576040519063ca669fa760e01b825260048201525f81602481835f5160206135525f395f51905f525af180156106db576106c6575b5060055483906001600160a01b0316803b156105e957818091604460405180948193632f2ff15d60e01b83527f6ef8b52debbf584bbeee3d104b589533cc529f3789bdbc2bae3dabb3fcde96f660048401528960248401525af180156105ed576106ad575b5050600954604051633fabe5a360e21b81529060a090829060049082906001600160a01b03165afa80156106a257600491859161067e575b50600854604051633fabe5a360e21b81529260a09184919082906001600160a01b03165afa918215610615578592610648575b50680ae56f730e6d840000810290808204680ae56f730e6d8400001490151715610634579061047f91612a92565b6009810290808204600914901517156106205790600a849204926104a584600b54612a72565b600b55604051936104cd856104bf42434460208501612af9565b03601f19810187528661264b565b5f5160206135525f395f51905f523b156106115760405163ca669fa760e01b8152600481018390528481602481835f5160206135525f395f51905f525af19081156106155785916105fc575b50506005546001600160a01b0316803b156105f857849283604051809681958294631df1a43360e01b8452600484015260a0602484015261057161056060a485018d61271e565b848103600319016044860152612758565b916064840152608483015203925af180156105ed576105d4575b50506105969061293f565b600160ff196018541617601855686c6b935b8bbd4000006019549081018091116105c05760195580f35b634e487b7160e01b5f52601160045260245ffd5b816105de9161264b565b6105e957815f61058b565b5080fd5b6040513d84823e3d90fd5b8480fd5b816106069161264b565b61061157835f610519565b8380fd5b6040513d87823e3d90fd5b634e487b7160e01b84526011600452602484fd5b634e487b7160e01b85526011600452602485fd5b61066b91925060a03d60a011610677575b610663818361264b565b810190612ac7565b5050509050905f610451565b503d610659565b610697915060a03d60a01161067757610663818361264b565b50505090505f61041e565b6040513d86823e3d90fd5b816106b79161264b565b6106c257825f6103e6565b8280fd5b6106d39193505f9061264b565b5f915f610381565b6040513d5f823e3d90fd5b5f80fd5b634e487b7160e01b81526011600452602490fd5b503461022a57602036600319011261022a576004359060125482101561022a575060125481101561075b5760125f527fbb8a6a4669ba250d26cd7a459eca9d215f8307e33aebe50379bc5a3617ec34440154604051908152602090f35b634e487b7160e01b5f52603260045260245ffd5b503461022a578060031936011261022a57602061078a6133d9565b6040519015158152f35b503461022a578060031936011261022a57602061078a613249565b503461022a578060031936011261022a576040515f6002546107d081612613565b808452906001811690811561085657506001146107f8575b610226836102128185038261264b565b60025f9081527f405787fa12a823e0f2b7631cc41b3ba8828b3321ca811111fa75cd3aa3bb5ace939250905b80821061083c575090915081016020016102126107e8565b919260018160209254838588010152019101909291610824565b60ff191660208086019190915291151560051b8401909101915061021290506107e8565b503461022a578060031936011261022a5760206040516249d4008152f35b503461022a578060031936011261022a57602060ff601854166040519015158152f35b503461022a57806108cb36612742565b91906001549161062057906108df9161323f565b90600e54600181018091116105c0576108f79161323f565b905f9160405160a0810181811067ffffffffffffffff821117610c1b57604052600e541561075b57600e5f8190527fbb7b4a454dc3493923482f07822329ed19e8244eff582cc204f8554c3620c3fd548252546001101561075b57600e5f8190527fbb7b4a454dc3493923482f07822329ed19e8244eff582cc204f8554c3620c3fe546020830152546002101561075b57600e5f8190527fbb7b4a454dc3493923482f07822329ed19e8244eff582cc204f8554c3620c3ff546040830152546003101561075b57600e5f527fbb7b4a454dc3493923482f07822329ed19e8244eff582cc204f8554c3620c4005460608201526301e133806080820152600582101561075b57610a0b9160051b0151916125ce565b90545f5460039290921b1c6001600160a01b039081169291165f5160206135525f395f51905f523b156106e6576040519063ca669fa760e01b825260048201525f81602481835f5160206135525f395f51905f525af180156106db57610c06575b506005548391906001600160a01b0316803b156106c257828091604460405180948193632f2ff15d60e01b83527f8b6dced259e7c22d2c562be416e2454fe4c41318f8581c10be50deaca96d353660048401528960248401525af1908115610be6578391610bf1575b505060405192610afc84610aee42434460208501612af9565b03601f19810186528561264b565b5f5160206135525f395f51905f523b156106c2576040519063ca669fa760e01b825260048201528281602481835f5160206135525f395f51905f525af1908115610be6578391610bd1575b50506005546001600160a01b0316803b156106c25782918291604051809481809463ac966e1560e01b825260606004830152610b9a610b89606484018c61271e565b838103600319016024850152612758565b90604483015203925af180156105ed57610bbc575b50610bb98261293f565b80f35b81610bc69161264b565b6105e9578183610baf565b81610bdb9161264b565b6105e9578185610b47565b6040513d85823e3d90fd5b81610bfb9161264b565b6105e9578185610ad5565b610c139193505f9061264b565b5f9183610a6c565b634e487b7160e01b5f52604160045260245ffd5b503461022a57602036600319011261022a5760043590600e5482101561022a576020610c5a836125b6565b90549060031b1c604051908152f35b503461022a578060031936011261022a576006546005546040516370a0823160e01b81526001600160a01b039182166004820152929160209184916024918391165afa908115610cfb5790610cc8575b602090600b5414604051908152f35b506020813d602011610cf3575b81610ce26020938361264b565b810103126106e65760209051610cb9565b3d9150610cd5565b604051903d90823e3d90fd5b503461022a57610d16366127f7565b929081600f54926106ea5750610d31600492610d3b9261323f565b926001549061323f565b610d7c610d64610d57610d525f97600e549061323f565b6125b6565b90549060031b1c926125ce565b905460039190911b1c6001600160a01b0316936125e6565b90549060031b1c9060a0600180821b036009541660405194858092633fabe5a360e21b82525afa80156106db576004935f91610f6b575b50600854604051633fabe5a360e21b81529460a09186919082906001600160a01b03165afa9384156106db575f94610f45575b5082686c6b935b8bbd4000000393686c6b935b8bbd40000085116105c057610e1c600a91610e1787610e2595612a7f565b612a92565b04600b54612a72565b600b55610e3482600a54612a72565b600a5560405193610e4e856104bf42434460208501612af9565b5f5160206135525f395f51905f523b156106e6576040519063ca669fa760e01b825260048201525f81602481835f5160206135525f395f51905f525af180156106db57610f2e575b506005548592916001600160a01b0390911690813b156106115783916040518094818094637d1aacad60e01b825260606004830152610edb610b89606484018d61271e565b90604483015203925af180156105ed57610f19575b5050610efe610f139261293f565b600160ff196018541617601855601954612a72565b60195580f35b81610f239161264b565b6106c257825f610ef0565b610f3c919295505f9061264b565b5f93905f610e96565b610f5f91945060a03d60a01161067757610663818361264b565b5050509050925f610de6565b610f84915060a03d60a01161067757610663818361264b565b50505090505f610db3565b503461022a578060031936011261022a57600554604051638d01d1c560e01b81526001600160a01b0390911691602082600481865afa91821561107157819261103a575b5060206004936040519485809263e34df3c160e01b82525afa908115610cfb5790611007575b602092506040519111158152f35b506020823d602011611032575b816110216020938361264b565b810103126106e65760209151610ff9565b3d9150611014565b9291506020833d602011611069575b816110566020938361264b565b810103126106e657915190916020610fd3565b3d9150611049565b50604051903d90823e3d90fd5b503461022a5761108d36612742565b919081600154926106ea57506110a6916102fb9161323f565b60246110c26110b55f936125b6565b90549060031b1c936125ce565b60018060a01b0391549060031b1c1692602060018060a01b036005541660405193848092620c8c7960e81b82528560048301525afa9182156106db575f92611392575b5061111282600d54612a72565b600d5561112182600a54612a72565b600a556040519361113b856104bf42434460208501612af9565b5f5160206135525f395f51905f523b156106e6576040519063ca669fa760e01b825260048201525f81602481835f5160206135525f395f51905f525af180156106db5761137d575b506005546001600160a01b0316803b15610611579083916040518094818094638028673760e01b8252606060048301526111c3610b89606484018c61271e565b90604483015203925af180156105ed57908291611368575b5050601054600160401b811015611354578060016111fe920160105560106125fe565b61134057825167ffffffffffffffff811161132c5761121d8254612613565b601f81116112e7575b506020601f82116001146112875783948293949261127c575b50508160011b915f199060031b1c1916179055600160ff196018541617601855686c6b935b8bbd4000006019549081018091116105c05760195580f35b015190505f8061123f565b82845280842090601f198316855b8181106112cf575095836001959697106112b7575b505050811b019055610596565b01515f1960f88460031b161c191690555f80806112aa565b9192602060018192868b015181550194019201611295565b82845260208420601f830160051c81019160208410611322575b601f0160051c01905b8181106113175750611226565b84815560010161130a565b9091508190611301565b634e487b7160e01b83526041600452602483fd5b634e487b7160e01b82526004829052602482fd5b634e487b7160e01b82526041600452602482fd5b816113729161264b565b61022a57805f6111db565b61138a9193505f9061264b565b5f915f611183565b9091506020813d6020116113be575b816113ae6020938361264b565b810103126106e65751905f611105565b3d91506113a1565b503461022a578060031936011261022a576020600d54604051908152f35b503461022a578060031936011261022a57601954600554604051638d01d1c560e01b81529290602090849060049082906001600160a01b03165afa908115610cfb5790611439575b6020925060405191148152f35b506020823d602011611464575b816114536020938361264b565b810103126106e6576020915161142c565b3d9150611446565b503461022a57602036600319011261022a576004359060105482101561022a5761022661021261149b84612586565b9061270d565b503461022a5760206114d06114c46114ca6114bb366127f7565b90809491612a65565b9061323f565b90612a72565b604051908152f35b503461022a578060031936011261022a576020604051621275008152f35b503461022a578060031936011261022a57602060ff60135460081c166040519015158152f35b503461022a578060031936011261022a57602060ff601354166040519015158152f35b503461022a57602036600319011261022a57610bb9600435612c42565b503461022a578060031936011261022a57602061078a612b1e565b503461022a578060031936011261022a576005546040516378a66f1560e01b81529190602090839060049082906001600160a01b03165afa908115610cfb57906115cb575b602090600d5414604051908152f35b506020813d6020116115f6575b816115e56020938361264b565b810103126106e657602090516115bc565b3d91506115d8565b503461022a578060031936011261022a576040515f60035461161f81612613565b8084529060018116908115610856575060011461164657610226836102128185038261264b565b60035f9081527fc2575a0e9e593c00f959f8c92f12db2869c3395a3b0502d05e2516446f71f85b939250905b80821061168a575090915081016020016102126107e8565b919260018160209254838588010152019101909291611672565b503461022a578060031936011261022a576020604051626ebe008152f35b503461022a578060031936011261022a576020601654604051908152f35b503461022a578060031936011261022a57602060405173bbbbbbbbbbbbbbbbbbbbbbbbbbbbbbbbbbbbbbbb8152f35b503461022a578060031936011261022a57602060ff60135460101c166040519015158152f35b503461022a57602036600319011261022a5760043590600f5482101561022a576020610c5a836125e6565b503461022a57602036600319011261022a576005546040516378a66f1560e01b81526001600160a01b0390911690602081600481855afa908115610be65783916118cf575b50600181019182821161062057906117bd9131612a65565b600181018091116118bb57816114ca6117da85946117e294612a65565b60043561323f565b6117ee81600a54612a65565b600a5581546001600160a01b03165f5160206135525f395f51905f523b1561189d576040519063ca669fa760e01b825260048201528281602481835f5160206135525f395f51905f525af18015610be65783906118a1575b50506005546001600160a01b031690813b1561189d578291602483926040519586938492632e1a7d4d60e01b845260048401525af18015611071576118885780f35b6118919161264b565b805f1261022a575f8180f35b5050fd5b6118aa9161264b565b815f126118b8575f82611846565b50fd5b634e487b7160e01b83526011600452602483fd5b90506020813d6020116118f9575b816118ea6020938361264b565b810103126106e657515f6117a5565b3d91506118dd565b503461022a578060031936011261022a5760206040516224ea008152f35b503461022a578060031936011261022a576020601754604051908152f35b503461022a5761194c36612742565b919081600154926106ea5750611965916102fb9161323f565b611972610d575f926125b6565b60018060a01b0391549060031b1c16916024602060018060a01b036005541660405192838092620c8c7960e81b82528660048301525afa80156106db575f90611d5a575b600954604051633fabe5a360e21b8152925060a090839060049082906001600160a01b03165afa9081156106db576004925f92611d34575b50600854604051633fabe5a360e21b81529360a09185919082906001600160a01b03165afa9081156106db57611a30935f92611d0c575b50610e179192612a7f565b60065460405163313ce56760e01b815290602090829060049082906001600160a01b03165afa80156106db575f90611ccf575b60ff91501660120360ff81116105c05760ff16604d81116105c057610e1c611a95611a9e9361271093600a0a90612a92565b600c5490612a7f565b600b5560405192611ab884610aee42434460208501612af9565b5f5160206135525f395f51905f523b156106e6576040519063ca669fa760e01b825260048201525f81602481835f5160206135525f395f51905f525af180156106db57611cba575b506005546006546001600160a01b039182169116813b1561061157918392918392604051948580948193638567a2e560e01b8352600483015260806024830152611b61611b50608484018c61271e565b838103600319016044850152612758565b90606483015203925af180156105ed57908291611ca5575b5050601054600160401b81101561135457806001611b9c920160105560106125fe565b61134057825167ffffffffffffffff811161132c57611bbb8254612613565b601f8111611c60575b506020601f8211600114611c195783948293949261127c5750508160011b915f199060031b1c1916179055600160ff196018541617601855686c6b935b8bbd4000006019549081018091116105c05760195580f35b82845280842090601f198316855b818110611c48575095836001959697106112b757505050811b019055610596565b9192602060018192868b015181550194019201611c27565b82845260208420601f830160051c81019160208410611c9b575b601f0160051c01905b818110611c905750611bc4565b848155600101611c83565b9091508190611c7a565b81611caf9161264b565b61022a57805f611b79565b611cc79192505f9061264b565b5f905f611b00565b506020813d602011611d04575b81611ce96020938361264b565b810103126106e6575160ff811681036106e65760ff90611a63565b3d9150611cdc565b610e179250611d299060a03d60a01161067757610663818361264b565b505050905091611a25565b611d4e91925060a03d60a01161067757610663818361264b565b5050509050905f6119ee565b506020813d602011611d85575b81611d746020938361264b565b810103126106e657600490516119b6565b3d9150611d67565b503461022a578060031936011261022a576020600c54604051908152f35b503461022a578060031936011261022a576020601554604051908152f35b503461022a57602036600319011261022a576004359060115482101561022a5761022661021261149b8461259e565b503461022a57602036600319011261022a5780601054916106ea57611e30611e2a611e258460043561323f565b612586565b5061266d565b60018060a01b036005541660405191633153caeb60e01b83526020600484015260208380611e61602482018561271e565b0381855afa9283156106db575f935f906120a6575b5f9150602460405180958193637a6edadf60e11b835260048301525afa9081156106db575f5f915f915f955f9561206e575b5083519415611ec7575b866201000062ff000019601354161760135580f35b1580612065575b611ed9575b80611eb2565b5f546001600160a01b03165f5160206135525f395f51905f523b156106e6576040519063ca669fa760e01b825260048201525f81602481835f5160206135525f395f51905f525af180156106db57612050575b506005548691906001600160a01b0316803b156106c257611f6e83918793604051948580948193630ffbccdb60e01b835260406004840152604483019061271e565b86602483015203925af180156105ed5761203b575b5050611f9183600a54612a72565b600a5580612006575b508215611ff057611fc0612710611fb8611fe295611fc89451612a7f565b048093612a65565b600d54612a72565b600d55611fd781601554612a72565b601555600a54612a65565b600a555b8180808080611ed3565b50611ffe9150600d54612a72565b600d55611fe6565b61271061201a612032926040850151612a7f565b0461202781601754612a72565b601755600b54612a65565b600b5584611f9a565b816120459161264b565b6105f8578486611f83565b61205d9196505f9061264b565b5f9486611f2c565b50831515611ece565b93505093505061209091503d805f833e612088818361264b565b810190612832565b9995949850509450945050939291949387611ea8565b506020813d6020116120d0575b816120c06020938361264b565b810103126106e6575f9051611e76565b3d91506120b3565b346106e65760203660031901126106e6576120fd611e2a611e2560105460043561323f565b600554604051633153caeb60e01b815260206004820181905290916001600160a01b0316908280612131602482018761271e565b0381845afa9182156106db575f925f90612554575b5f9150602460405180948193637a6edadf60e11b835260048301525afa80156106db575f905f925f9161252b575b501561218c575b82600160ff19601354161760135580f35b156122a45750601954686c6b935b8bbd3fffff1981019290831161229057819260195560018060a01b038254165f5160206135525f395f51905f523b1561189d576040519063ca669fa760e01b825260048201528281602481835f5160206135525f395f51905f525af1908115610be657839161227b575b50506005546001600160a01b0316803b1561189d576122458392918392604051948580948193630ffbccdb60e01b835260406004840152604483019061271e565b6001602483015203925af180156105ed57612266575b50505b80828061217b565b816122709161264b565b61022a57808261225b565b816122859161264b565b6118b8578184612204565b634e487b7160e01b82526011600452602482fd5b91825115158061251e575b6123b7575b6122c18351600a54612a72565b600a556122d18351600d54612a72565b600d555f546001600160a01b0316925f5160206135525f395f51905f523b156106e6576040519363ca669fa760e01b855260048501525f84602481835f5160206135525f395f51905f525af180156106db576123a1575b82935060018060a01b0360055416905191813b1561239c57839161236a91604051948580948193630ffbccdb60e01b835260406004840152604483019061271e565b6001602483015203925af180156105ed57612387575b505061225e565b816123919161264b565b61022a578082612380565b505050fd5b9150915f6123ae9161264b565b5f908290612328565b601154600160401b811015610c1b578060016123d8920160115560116125fe565b61250b57815167ffffffffffffffff8111610c1b576123f78254612613565b601f81116124c6575b50806020601f8211600114612465575f9161245a575b508160011b915f199060031b1c19161790555b8251686c6b935b8bbd40000003686c6b935b8bbd40000081116105c05761245290601954612a65565b6019556122b4565b905083015186612416565b5f8481528181209250601f198416905b8181106124ae57509083600194939210612496575b5050811b019055612429565b8501515f1960f88460031b161c19169055868061248a565b9192602060018192868a015181550194019201612475565b825f5260205f20601f830160051c81019160208410612501575b601f0160051c01905b8181106124f65750612400565b5f81556001016124e9565b90915081906124e0565b634e487b7160e01b5f525f60045260245ffd5b50604083015115156122af565b91505061254291503d805f833e612088818361264b565b98505050505092509050909185612174565b506020813d60201161257e575b8161256e6020938361264b565b810103126106e6575f9051612146565b3d9150612561565b60105481101561075b5760105f5260205f2001905f90565b60115481101561075b5760115f5260205f2001905f90565b600e5481101561075b57600e5f5260205f2001905f90565b60015481101561075b5760015f5260205f2001905f90565b600f5481101561075b57600f5f5260205f2001905f90565b805482101561075b575f5260205f2001905f90565b90600182811c92168015612641575b602083101461262d57565b634e487b7160e01b5f52602260045260245ffd5b91607f1691612622565b90601f8019910116810190811067ffffffffffffffff821117610c1b57604052565b9060405191825f82549261268084612613565b80845293600181169081156126eb57506001146126a7575b506126a59250038361264b565b565b90505f9291925260205f20905f915b8183106126cf5750509060206126a5928201015f612698565b60209193508060019154838589010152019101909184926126b6565b9050602092506126a594915060ff191682840152151560051b8201015f612698565b9061250b5761271b9061266d565b90565b805180835260209291819084018484015e5f828201840152601f01601f1916010190565b60409060031901126106e6576004359060243590565b6004545f929161276782612613565b80825291600181169081156127db5750600114612782575050565b60045f9081529293509091907f8a35acfbc15ff81a39ae7d344fd709f28e8600b4aa8c65c6b64bfe7fe36bd19b5b8383106127c1575060209250010190565b6001816020929493945483858701015201910191906127b0565b9050602093945060ff929192191683830152151560051b010190565b60609060031901126106e657600435906024359060443590565b51906001600160a01b03821682036106e657565b519081151582036106e657565b909181830361018081126106e65761284983612811565b93602084015167ffffffffffffffff81116106e657840181601f820112156106e65780519067ffffffffffffffff8211610c1b5760405192612895601f8401601f19166020018561264b565b828452602083830101116106e657815f9260208093018386015e830101529260408101519260606128c7818401612825565b93607f1901126106e6576040516060810181811067ffffffffffffffff821117610c1b576040526080830151815261290160a08401612811565b602082015260c083015160408201529160e081015191610100820151916101208101519161271b6101606129386101408501612825565b9301612825565b90601054600160401b811015610c1b57806001612961920160105560106125fe565b61250b57825167ffffffffffffffff8111610c1b576129808254612613565b601f8111612a20575b506020601f82116001146129c257819293945f926129b7575b50508160011b915f199060031b1c1916179055565b015190505f806129a2565b601f19821690835f52805f20915f5b818110612a08575095836001959697106129f0575b505050811b019055565b01515f1960f88460031b161c191690555f80806129e6565b9192602060018192868b0151815501940192016129d1565b825f5260205f20601f830160051c81019160208410612a5b575b601f0160051c01905b818110612a505750612989565b5f8155600101612a43565b9091508190612a3a565b919082039182116105c057565b919082018092116105c057565b818102929181159184041417156105c057565b8115612a9c570490565b634e487b7160e01b5f52601260045260245ffd5b519069ffffffffffffffffffff821682036106e657565b908160a09103126106e657612adb81612ab0565b9160208201519160408101519161271b608060608401519301612ab0565b9160679391664e6f646549442d60c81b84526007840152602783015260478201520190565b60ff60135460081c16612b3057600190565b6014545f5160206135725f395f51905f526020604051838152a1601654905f5160206135725f395f51905f526020604051848152a173aaaaaaaaaaaaaaaaaaaaaaaaaaaaaaaaaaaaaaaa31149081612b86575090565b6006546040516370a0823160e01b815273aaaaaaaaaaaaaaaaaaaaaaaaaaaaaaaaaaaaaaaa6004820152919250602090829060249082906001600160a01b03165afa9081156106db575f91612bda57501490565b90506020813d602011612c02575b81612bf56020938361264b565b810103126106e657511490565b3d9150612be8565b601254600160401b811015610c1b57806001612c2b920160125560126125fe565b819291549060031b91821b915f19901b1916179055565b60ff601854161561323c57611e2a611e25612c60926010549061323f565b600554604051633153caeb60e01b81526020600482018190526001600160a01b039092169290918280612c96602482018561271e565b0381865afa80156106db575f925f9161320a575b50604051637a6edadf60e11b815260048101829052935f85602481845afa80156106db575f905f965f916131df575b5015612cf7575b50505050505061010061ff00196013541617601355565b15612f475750601954686c6b935b8bbd3fffff19810190811161062057601955835115612e3b57612d2790612c0a565b612d348351600a54612a65565b600a5581546001600160a01b03165f5160206135525f395f51905f523b156106c2576040519063ca669fa760e01b825260048201528281602481835f5160206135525f395f51905f525af18015610be657908391612e26575b50506005546001600160a01b031690813b156106c257612dce83928392604051948580948193630ffbccdb60e01b835260406004840152604483019061271e565b82602483015203925af180156105ed57612e11575b505080612df6612e029251601454612a72565b60145551600d54612a65565b600d555b5f8080808080612ce0565b612e1c82809261264b565b61022a5780612de3565b81612e309161264b565b6105e957815f612d8d565b92612e4860409294612c0a565b0191612e578351600b54612a65565b600b5581546001600160a01b03165f5160206135525f395f51905f523b156106c2576040519063ca669fa760e01b825260048201528281602481835f5160206135525f395f51905f525af18015610be657908391612f32575b50506005546001600160a01b031690813b156106c257612ef183928392604051948580948193630ffbccdb60e01b835260406004840152604483019061271e565b82602483015203925af180156105ed57612f1d575b5050612f159051601654612a72565b601655612e06565b612f2882809261264b565b61022a5780612f06565b81612f3c9161264b565b6105e957815f612eb0565b90508391929351686c6b935b8bbd40000003686c6b935b8bbd40000081116105c057612f7590601954612a65565b60195560206040518092635eb2ac0f60e11b82528260048301528180612f9e602482018961271e565b03915afa9081156106db575f916131a5575b50156130b85760c96040612fd892015104612fcd81600b54612a65565b600b55601654612a72565b60165581546001600160a01b03165f5160206135525f395f51905f523b156106c2576040519063ca669fa760e01b825260048201528281602481835f5160206135525f395f51905f525af18015610be6579083916130a3575b50506005546001600160a01b031690813b156106c25761307283928392604051948580948193630ffbccdb60e01b835260406004840152604483019061271e565b82602483015203925af180156105ed5761308e575b5050612e06565b61309982809261264b565b61022a5780613087565b816130ad9161264b565b6105e957815f613031565b5190600a82018092116105c0576130d182600a54612a72565b600a556130e082600d54612a72565b600d555f546001600160a01b03165f5160206135525f395f51905f523b156106e6576040519063ca669fa760e01b825260048201525f81602481835f5160206135525f395f51905f525af180156106db57613190575b506005546001600160a01b031690813b1561061157839161317591604051948580948193630ffbccdb60e01b835260406004840152604483019061271e565b86602483015203925af180156105ed5761308e575050612e06565b61319d9193505f9061264b565b5f915f613136565b90506020813d6020116131d7575b816131c06020938361264b565b810103126106e6576131d190612825565b5f612fb0565b3d91506131b3565b9150506131f79195503d805f833e612088818361264b565b9c9850505050509250905090955f612cd9565b90506020813d602011613234575b816132256020938361264b565b810103126106e657515f612caa565b3d9150613218565b50565b8115612a9c570690565b60ff6013541661325857600190565b6011546005546001600160a01b03165f5b82811061327857505050600190565b6132818161259e565b50604051633153caeb60e01b815260206004820152815490915f9183916132a782612613565b918260248501526001811690815f146133b35750600114613370575b5050806020920381865afa9081156106db575f9161333f575b5060405190637a6edadf60e11b825260048201525f81602481865afa9081156106db575f9161331b575b501561331457600101613269565b5050505f90565b61332f91503d805f833e612088818361264b565b985050505050505050505f613306565b90506020813d8211613368575b816133596020938361264b565b810103126106e657515f6132dc565b3d915061334c565b915091505f528160205f20915f925b8184106133995750508060206024819483010101926132c3565b80548486016044015260209093019284925060010161337f565b602095508592506024915092849360ff19166044850152151560051b83010101926132c3565b60ff60135460101c166133eb57600190565b6017545f5160206135725f395f51905f526020604051838152a1601554905f5160206135725f395f51905f526020604051848152a15f5160206135725f395f51905f52602073bbbbbbbbbbbbbbbbbbbbbbbbbbbbbbbbbbbbbbbb31604051908152a16006546040516370a0823160e01b815273bbbbbbbbbbbbbbbbbbbbbbbbbbbbbbbbbbbbbbbb60048201526001600160a01b039091169290602081602481875afa9081156106db575f9161351e575b5060205f5160206135725f395f51905f5291604051908152a173bbbbbbbbbbbbbbbbbbbbbbbbbbbbbbbbbbbbbbbb311491826134d657505090565b6040516370a0823160e01b815273bbbbbbbbbbbbbbbbbbbbbbbbbbbbbbbbbbbbbbbb6004820152919250602090829060249082905afa9081156106db575f91612bda57501490565b90506020813d602011613549575b816135396020938361264b565b810103126106e65751602061349b565b3d915061352c56fe0000000000000000000000007109709ecfa91a80626ff3989d68f67f5b1dd12d8288dcf33d251240d423fe799e50345ae04e585a6e088ba2220aac6a1537c4dba2646970667358221220a36474fe37556d167f54a0b347a6ea7f6ba9d854f33d1ea3ca15086fc4f6f47a64736f6c634300081c0033608034605057601f61013938819003918201601f19168301916001600160401b03831184841017605457808492602094604052833981010312605057515f554260015560405160d090816100698239f35b5f80fd5b634e487b7160e01b5f52604160045260245ffdfe60808060405260043610156011575f80fd5b5f3560e01c806374ef91e2146083578063f7a3080614606d5763feaf968c146037575f80fd5b346069575f36600319011260695760a0905f54600154905f835260208301525f604083015260608201525f6080820152f35b5f80fd5b3460695760203660031901126069576004355f55005b34606957602036600319011260695760043560015500fea26469706673582212200d2990e9f597fa6d09a83a21e2ddc37fa3ce65825c7a4639264250dcf9ef01ab64736f6c634300081c0033608080604052346013576068908160188239f35b5f80fdfe6004361015600b575f80fd5b5f3560e01c63e1a472b914601d575f80fd5b34602e576020366003190112602e57005b5f80fdfea26469706673582212208aef86d923d3096bb0739f6ced802218714aaf4345177a5c4246a9bc6152733764736f6c634300081c00336080806040523461036c57610d15803803809161001c8285610370565b8339810160608282031261036c5781516001600160401b03811161036c5781610046918401610393565b60208301519091906001600160401b03811161036c5760409161006a918501610393565b92015160ff811680910361036c576100b3602093846040519586928651808389018487015e8401908282015f8152815193849201905e01015f815203601f198101855284610370565b82516001600160401b03811161027d57600354600181811c91168015610362575b602082101461025f57601f81116102ff575b506020601f821160011461029c57819293945f92610291575b50508160011b915f199060031b1c1916176003555b81516001600160401b03811161027d57600454600181811c91168015610273575b602082101461025f57601f81116101fc575b50602092601f821160011461019b57928192935f92610190575b50508160011b915f199060031b1c1916176004555b60ff19600554161760055560405161092c90816103e98239f35b015190505f80610161565b601f1982169360045f52805f20915f5b8681106101e457508360019596106101cc575b505050811b01600455610176565b01515f1960f88460031b161c191690555f80806101be565b919260206001819286850151815501940192016101ab565b60045f527f8a35acfbc15ff81a39ae7d344fd709f28e8600b4aa8c65c6b64bfe7fe36bd19b601f830160051c81019160208410610255575b601f0160051c01905b81811061024a5750610147565b5f815560010161023d565b9091508190610234565b634e487b7160e01b5f52602260045260245ffd5b90607f1690610135565b634e487b7160e01b5f52604160045260245ffd5b015190505f806100ff565b601f1982169060035f52805f20915f5b8181106102e7575095836001959697106102cf575b505050811b01600355610114565b01515f1960f88460031b161c191690555f80806102c1565b9192602060018192868b0151815501940192016102ac565b60035f527fc2575a0e9e593c00f959f8c92f12db2869c3395a3b0502d05e2516446f71f85b601f830160051c81019160208410610358575b601f0160051c01905b81811061034d57506100e6565b5f8155600101610340565b9091508190610337565b90607f16906100d4565b5f80fd5b601f909101601f19168101906001600160401b0382119082101761027d57604052565b81601f8201121561036c578051906001600160401b03821161027d57604051926103c7601f8401601f191660200185610370565b8284526020838301011161036c57815f9260208093018386015e830101529056fe6080806040526004361015610012575f80fd5b5f3560e01c90816306fdde031461053657508063095ea7b31461051057806318160ddd146104f357806323b872dd14610436578063313ce5671461041657806339509351146103c857806370a082311461039157806395d89b4114610276578063a0712d68146101c8578063a457c2d714610125578063a9059cbb146100f45763dd62ed3e146100a0575f80fd5b346100f05760403660031901126100f0576100b961062f565b6100c1610645565b6001600160a01b039182165f908152600160209081526040808320949093168252928352819020549051908152f35b5f80fd5b346100f05760403660031901126100f05761011a61011061062f565b6024359033610780565b602060405160018152f35b346100f05760403660031901126100f05761013e61062f565b60243590335f52600160205260405f2060018060a01b0382165f5260205260405f2054918083106101755761011a9203903361067c565b60405162461bcd60e51b815260206004820152602560248201527f45524332303a2064656372656173656420616c6c6f77616e63652062656c6f77604482015264207a65726f60d81b6064820152608490fd5b346100f05760203660031901126100f0576004353315610231576101ee8160025461065b565b600255335f525f60205260405f208181540190556040519081525f7fddf252ad1be2c89b69c2b068fc378daa952ba7f163c4a11628f55a4df523b3ef60203393a3005b60405162461bcd60e51b815260206004820152601f60248201527f45524332303a206d696e7420746f20746865207a65726f2061646472657373006044820152606490fd5b346100f0575f3660031901126100f0576040515f6004548060011c90600181168015610387575b602083108114610373578285529081156103575750600114610302575b50819003601f01601f191681019067ffffffffffffffff8211818310176102ee576102ea82918260405282610605565b0390f35b634e487b7160e01b5f52604160045260245ffd5b905060045f527f8a35acfbc15ff81a39ae7d344fd709f28e8600b4aa8c65c6b64bfe7fe36bd19b5f905b828210610341575060209150820101826102ba565b600181602092548385880101520191019061032c565b90506020925060ff191682840152151560051b820101826102ba565b634e487b7160e01b5f52602260045260245ffd5b91607f169161029d565b346100f05760203660031901126100f0576001600160a01b036103b261062f565b165f525f602052602060405f2054604051908152f35b346100f05760403660031901126100f05761011a6103e461062f565b335f52600160205260405f2060018060a01b0382165f5260205261040f60405f20602435905461065b565b903361067c565b346100f0575f3660031901126100f057602060ff60055416604051908152f35b346100f05760603660031901126100f05761044f61062f565b610457610645565b6001600160a01b0382165f908152600160208181526040808420338552909152909120549260443592918401610492575b61011a9350610780565b8284106104ae576104a98361011a9503338361067c565b610488565b60405162461bcd60e51b815260206004820152601d60248201527f45524332303a20696e73756666696369656e7420616c6c6f77616e63650000006044820152606490fd5b346100f0575f3660031901126100f0576020600254604051908152f35b346100f05760403660031901126100f05761011a61052c61062f565b602435903361067c565b346100f0575f3660031901126100f0575f6003548060011c906001811680156105fb575b6020831081146103735782855290811561035757506001146105a65750819003601f01601f191681019067ffffffffffffffff8211818310176102ee576102ea82918260405282610605565b905060035f527fc2575a0e9e593c00f959f8c92f12db2869c3395a3b0502d05e2516446f71f85b5f905b8282106105e5575060209150820101826102ba565b60018160209254838588010152019101906105d0565b91607f169161055a565b602060409281835280519182918282860152018484015e5f828201840152601f01601f1916010190565b600435906001600160a01b03821682036100f057565b602435906001600160a01b03821682036100f057565b9190820180921161066857565b634e487b7160e01b5f52601160045260245ffd5b6001600160a01b031690811561072f576001600160a01b03169182156106df5760207f8c5be1e5ebec7d5bd14f71427d1e84f3dd0314c0f7b2291e5b200ac8c7c3b92591835f526001825260405f20855f5282528060405f2055604051908152a3565b60405162461bcd60e51b815260206004820152602260248201527f45524332303a20617070726f766520746f20746865207a65726f206164647265604482015261737360f01b6064820152608490fd5b60405162461bcd60e51b8152602060048201526024808201527f45524332303a20617070726f76652066726f6d20746865207a65726f206164646044820152637265737360e01b6064820152608490fd5b6001600160a01b03169081156108a3576001600160a01b031691821561085257815f525f60205260405f20548181106107fe57817fddf252ad1be2c89b69c2b068fc378daa952ba7f163c4a11628f55a4df523b3ef92602092855f525f84520360405f2055845f525f825260405f20818154019055604051908152a3565b60405162461bcd60e51b815260206004820152602660248201527f45524332303a207472616e7366657220616d6f756e7420657863656564732062604482015265616c616e636560d01b6064820152608490fd5b60405162461bcd60e51b815260206004820152602360248201527f45524332303a207472616e7366657220746f20746865207a65726f206164647260448201526265737360e81b6064820152608490fd5b60405162461bcd60e51b815260206004820152602560248201527f45524332303a207472616e736665722066726f6d20746865207a65726f206164604482015264647265737360d81b6064820152608490fdfea2646970667358221220af142047ab1caec6fbe99ceb4bbcb4549819d0ba5abfea0c52e54fdeeed212e164736f6c634300081c0033608080604052346015576159aa908161001a8239f35b5f80fdfe6080806040526004361015610012575f80fd5b5f905f3560e01c90816301ffc9a714613b9d575080630c8c790014613b7f5780630ffbccdb14613b275780631679a96514613ab5578063190e9d4114613a265780631a753657146139fd5780631df1a4331461333e578063248a9ca31461330a5780632576eed1146132eb5780632dbecc1a146132cd5780632e1a7d4d146131dc5780632f2ff15d1461311c5780633153caeb146130e7578063341030f0146130ac57806336568abe14613019578063395cc51214612ede5780633b72214414612e0e5780633cb8beb014612d925780633f24a8e514612d635780633f4ba83a14612c9557806348e2678f1461295a5780634b7e23dc1461291f5780634bcad6f2146129015780634ff0241a146128c657806353cc04a11461280757806358aa9000146127e95780635b499a97146127975780635c975abb146127745780635d36f34f146127015780635f4c5d33146126c15780635fa9237a146126a25780635fcd62551461267857806375e271861461265957806378a66f151461263a5780637d1aacad1461208f5780638028673714611cdc5780638079336c14611cbe5780638456cb5914611c2a57806384f826c714611ba65780638500bc8914611b0e5780638567a2e5146113905780638d01d1c51461137157806391d14854146113275780639922b43b146113085780639dcb511a146112c7578063a217fddf146112ab578063a2a5236c14611282578063a512542114611196578063a9316fd21461115c578063ac966e1514610cc3578063ad18f0da1461085d578063b59f091e14610835578063b6d1d67b146107b9578063bd65581e1461077f578063c8fc9e4e14610744578063c92f58b214610725578063ce33992314610707578063d0c63d35146106ce578063d547741f14610687578063d964c25a1461064c578063d9723ea714610617578063d9ea5b03146104a1578063e34df3c114610482578063ebd0905414610453578063efe867e214610418578063f38b8411146103f95763f4ddb5be146102ff575f80fd5b346103f65760203660031901126103f657600435610101548110156103f45761032790613ee3565b5080546001600160a01b031661033f60018301613e43565b9160ff600282015491816003820154169061035c60048201613f01565b60078201546103c8600884015492600a6009860154950154956103936040519b8c9b8c5261018060208d01526101808c0190613da2565b60408b81019a909a5290151560608b0152815160808b015260208201516001600160a01b031660a08b015297015160c0890152565b60e0870152610100860152610120850152818116151561014085015260081c1615156101608301520390f35b505b80fd5b50346103f657806003193601126103f65760206040516301e133808152f35b50346103f657806003193601126103f65760206040517fbb4ab89723950398fbe0f1fe11ab060da193cf1f8b664c9831ac485bec8c6ca98152f35b50346103f657806003193601126103f657602060405173aaaaaaaaaaaaaaaaaaaaaaaaaaaaaaaaaaaaaaaa8152f35b50346103f657806003193601126103f657602061010654604051908152f35b50346103f6576104b036613d30565b909183805260656020526040842060018060a01b0333165f5260205260ff60405f20541615610613576001600160a01b0390811680855260fd602090815260408087205483885260fe90925286205494921692909183156105c75782865260fd6020908152604080882080546001600160a01b0319166001600160a01b0394909416938417905584885260fe90915280872083905551633fabe5a360e21b81529094908660a0826004818a5afa91821561060657819082936105cf575b5013156105cb5761057f839142613f5f565b116105c7577fcb61de73a9b971ce0608f81d0ce8617289d2a44503653d2c16693dc08bc0db2d9460a0946040519485526020850152604084015260608301526080820152a180f35b8580fd5b8680fd5b90506105f491925060a03d60a0116105ff575b6105ec8183613c80565b81019061462b565b50939250505f61056d565b503d6105e2565b50604051903d90823e3d90fd5b8380fd5b50346103f6576020808061062a36613cf2565b604051928184925191829101835e810161010481520301902054604051908152f35b50346103f657806003193601126103f65760206040517f8a8d1de1c18abb94a793a1c642e9153de53c830daa68b212d4eb80a0fed540518152f35b50346103f65760403660031901126103f6576106cb6004356106a7613c33565b906106c66106c1825f526065602052600160405f20015490565b615365565b6155aa565b80f35b50346103f65760203660031901126103f6576020906040906001600160a01b036106f6613c1d565b16815260fe83522054604051908152f35b50346103f657806003193601126103f65760206040516249d4008152f35b50346103f657806003193601126103f657602061010a54604051908152f35b50346103f657806003193601126103f65760206040517f6ef8b52debbf584bbeee3d104b589533cc529f3789bdbc2bae3dabb3fcde96f68152f35b50346103f657602060ff818061079436613cf2565b604051928184925191829101835e810161010f81520301902054166040519015158152f35b50346103f65760203660031901126103f657808052606560209081526040808320335f90815292529020546004359060ff16156103f45761271081116103f45760407feb1cee51f4786b91756ab6e79cde8b4ae39e831e78f9ef5d813b9e40d37883b7916101075490806101075582519182526020820152a180f35b50346103f657806003193601126103f65760206040515f5160206159555f395f51905f528152f35b50346103f6576101003660031901126103f657610878613c1d565b610880613c33565b6044356001600160a01b038116929083900361061357606435906084356001600160a01b038116908190036105c75760a4359160c4359360e4359588549260ff8460081c16159889809a610cb6575b8015610c9f575b15610c435760ff1985166001178b558a948a610c32575b50888811610c2e5760049260a09261093460ff885460081c1661090f8161562b565b6109188161562b565b6109218161562b565b600160975561092f8161562b565b61562b565b60ff1960c9541660c955868052606560205260408720600180861b0333165f5260205260ff60405f20541615610bda575b600180851b03166001600160601b03841b60ff54161760ff55600180841b0316806001600160601b03841b610100541617610100556109aa60ff875460081c1661562b565b5f5160206159555f395f51905f52865260fd60205260408620600180851b0383166001600160601b03851b82541617905580865260fd60205260408620600180851b0388166001600160601b03851b8254161790555f5160206159555f395f51905f52865260fe602052846040872055855260fe60205286604086205560405192838092633fabe5a360e21b82525afa908115610bcf57839081908293610ba8575b501315610ba457610a5d9042613f5f565b116103f65760a060049260405193848092633fabe5a360e21b82525afa9182156106065781908293610b7d575b5013156105c757610a9b9042613f5f565b116106135761010a5561010b5561138861010755690a968163f0a57b4000006101065561271061010c55610b3f604051610ad481613c65565b83815283602082015283604082015260405190610af082613c49565b848252604051610b01602082613c80565b858152602083015284604083015284606083015260808201528360a08201528360c08201528360e08201528361010082015283610120820152614ad5565b610b465780f35b61ff001981541681557f7f26b83ff96e1f2b6a682f133852f6798a09c465da95921460cefb3847402498602060405160018152a180f35b9050610b9991925060a03d60a0116105ff576105ec8183613c80565b50939250505f610a8a565b8280fd5b9050610bc491925060a03d60a0116105ff576105ec8183613c80565b50939250505f610a4c565b6040513d85823e3d90fd5b868052606560205260408720600180861b0333165f5260205260405f20600160ff198254161790553333887f2f8788117e7eff1d82e926ec794901d17c78024a50270940304540a733656f0d8180a4610965565b8480fd5b61ffff19166101011785555f6108ed565b60405162461bcd60e51b815260206004820152602e60248201527f496e697469616c697a61626c653a20636f6e747261637420697320616c72656160448201526d191e481a5b9a5d1a585b1a5e995960921b6064820152608490fd5b50303b1580156108d65750600160ff8616146108d6565b50600160ff8616106108cf565b50346103f657610cd236613dc6565b90949392917f8b6dced259e7c22d2c562be416e2454fe4c41318f8581c10be50deaca96d3536855260656020526040852060018060a01b0333165f5260205260ff60405f20541615610c2e57621275008210158061114e575b1561110457610d38614c9d565b604051838582376020818581016101028152030190205415806110fb575b156110b65760908603610c2e57610101546040518486823760208186810161010281520301902055610df9604051610d8d81613c65565b86815286602082015286604082015261010754610108549060405192610db284613c49565b338452610dc036898b613cbc565b602085015286604085015289606085015260808401528860a084015260c083015260e08201528661010082015286610120820152614ad5565b6040518385823760208185810161010d8152030190206001600160401b03871161100d57610e3187610e2b8354613d6a565b836149ce565b8587601f81116001146110545780610e5d928991611049575b508160011b915f199060031b1c19161790565b90555b6040518385823760208185810161010f81520301902060ff1981541690553385526101036020526040852054604051848682376020818681016101048152030190205533855261010360205260408520805490600160401b8210156110355790610ecf91600182018155613e1a565b969096611021576001600160401b03841161100d57610ef884610ef28954613d6a565b896149ce565b8596601f8511600114610f985790610f699291610f3986808a9b5f5160206159355f395f51905f529b91610f8d57508160011b915f199060031b1c19161790565b90555b610f5b6040519687963388526101006020890152610100880191613f32565b918583036040870152613f32565b9060608301528460808301528460a08301528460c08301528460e08301520390a180f35b90508901355f610e4a565b80875260208720601f198616885b818110610ff55750905f5160206159355f395f51905f52989987610f699695949310610fdc575b5050600186811b019055610f3c565b8801355f19600389901b60f8161c191690555f80610fcd565b888b0135835560209a8b019a60019093019201610fa6565b634e487b7160e01b86526041600452602486fd5b634e487b7160e01b86526004869052602486fd5b634e487b7160e01b87526041600452602487fd5b90508401355f610e4a565b50818752602087209088601f198116895b81811061109b575010611082575b5050600187811b019055610e60565b8301355f1960038a901b60f8161c191690555f80611073565b8684013585556001909401936020938401938c935001611065565b60405162461bcd60e51b815260206004820152601760248201527f4e6f646520616c726561647920726567697374657265640000000000000000006044820152606490fd5b50821515610d56565b60405162461bcd60e51b815260206004820152601b60248201527f496e76616c69642076616c69646174696f6e206475726174696f6e0000000000604482015280606481015b0390fd5b506301e13380821115610d2b565b50346103f65760203660031901126103f6576020906040906001600160a01b03611184613c1d565b16815261010383522054604051908152f35b50346103f65760203660031901126103f6576111b0613c1d565b818052606560209081526040808420335f908152925290205460ff16156103f4576001600160a01b03165f81815260fc6020526040902054156103f4576020815f5160206159555f395f51905f527f85a3e72f8dd6db3794f93109c3c5f5b79d6112f6979431c45f98b26134b42af29314158061126c575b611241575b611236816157d9565b50604051908152a180f35b80845260fd8252604080852080546001600160a01b031916905581855260fe8352842084905561122d565b50610100546001600160a01b0316811415611228565b50346103f657806003193601126103f65760ff546040516001600160a01b039091168152602090f35b50346103f657806003193601126103f657602090604051908152f35b50346103f65760203660031901126103f6576020906001600160a01b036112ec613c1d565b16815260fd8252604060018060a01b0391205416604051908152f35b50346103f657806003193601126103f657602061010b54604051908152f35b50346103f65760403660031901126103f6576040611343613c33565b9160043581526065602052209060018060a01b03165f52602052602060ff60405f2054166040519015158152f35b50346103f657806003193601126103f657602061010554604051908152f35b50346103f65760803660031901126103f6576113aa613c1d565b906024356001600160401b0381116103f4576113ca903690600401613bf0565b6044356001600160401b038111610613576113e9903690600401613bf0565b9490606435916113f7614ce1565b6113ff614c9d565b6001600160a01b03165f81815260fc6020526040902054156105c7575f5160206159555f395f51905f52865260fd6020526040808720549051633fabe5a360e21b81529060a090829060049082906001600160a01b03165afa8015611b03579060049188918991611add575b5083895260fd6020526040808a20549051633fabe5a360e21b81529360a09185919082906001600160a01b03165afa908115611ad25789938a92611aa9575b5089831380611aa0575b15611a9c576114c39042613f5f565b5f5160206159555f395f51905f528a5260fe60205260408a205410611a98576114ec9042613f5f565b83895260fe602052604089205410611a81579061151561151a9261150f87614bfc565b90613f9b565b613fae565b60405163313ce56760e01b8152602081600481865afa8015611a8d578890611a4c575b60ff91501660120360ff8111611a385760ff16604d8111611a38579061156691600a0a90613fae565b610100549092906001600160a01b03168214611a1f575b82156105cb5761158f83303385615321565b61010554686c6b935b8bbd40000081019081811161195d576101065482116119da5762127500861480156119ce575b80156119c2575b80156119b6575b1561197157811061195d57610105556115e3614c9d565b60405185878237602081878101610102815203019020541580611954575b156110b657609088036105cb576101015460405186888237602081888101610102815203019020556116a560405161163881613c65565b8881528360208201528460408201526101075461010854906040519261165d84613c49565b33845261166b368b8d613cbc565b60208501528860408501526001606085015260808401528a60a084015260c083015260e08201528861010082015288610120820152614ad5565b6040518587823760208187810161010d8152030190206001600160401b0389116118b6576116d789610e2b8354613d6a565b8789601f81116001146118f25780611702928b9161104957508160011b915f199060031b1c19161790565b90555b6040518587823760208187810161010f81520301902060ff1981541690553387526101036020526040872054604051868882376020818881016101048152030190205533875261010360205260408720805490600160401b8210156118de579061177491600182018155613e1a565b9890986118ca576001600160401b0386116118b65761179d866117978b54613d6a565b8b6149ce565b8798601f8711600114611841579061180e92916117de88808c9d5f5160206159355f395f51905f529d9161183657508160011b915f199060031b1c19161790565b90555b611800604051988998338a5261010060208b01526101008a0191613f32565b918783036040890152613f32565b926060850152600160808501528660a085015260c084015260e08301520390a1600160975580f35b90508b01355f610e4a565b80895260208920601f1988168a5b81811061189e5750905f5160206159355f395f51905f529a9b8961180e9695949310611885575b5050600188811b0190556117e1565b8a01355f1960038b901b60f8161c191690555f80611876565b8a8d0135835560209c8d019c6001909301920161184f565b634e487b7160e01b88526041600452602488fd5b634e487b7160e01b88526004889052602488fd5b634e487b7160e01b89526041600452602489fd5b5081895260208920908a601f1981168b5b818110611939575010611920575b5050600189811b019055611705565b8301355f1960038c901b60f8161c191690555f80611911565b8684013585556001909401936020938401938e935001611903565b50841515611601565b634e487b7160e01b5f52601160045260245ffd5b60405162461bcd60e51b815260206004820152601860248201527f496e76616c6964207374616b696e67206475726174696f6e00000000000000006044820152606490fd5b50626ebe0086146115cc565b506249d40086146115c5565b506224ea0086146115be565b60405162461bcd60e51b815260206004820152601a60248201527f53756273696469736174696f6e206361702065786365656465640000000000006044820152606490fd5b91611a316127109161010c5490613f9b565b049161157d565b634e487b7160e01b88526011600452602488fd5b506020813d602011611a85575b81611a6660209383613c80565b81010312611a81575160ff81168103611a815760ff9061153d565b8780fd5b3d9150611a59565b6040513d8a823e3d90fd5b8880fd5b8980fd5b508984136114b4565b909350611ac5915060a03d60a0116105ff576105ec8183613c80565b509492505092905f6114aa565b6040513d8b823e3d90fd5b9050611af8915060a03d60a0116105ff576105ec8183613c80565b50925050905f61146b565b6040513d89823e3d90fd5b50346103f65760403660031901126103f65760043560243582805260656020526040832060018060a01b0333165f5260205260ff60405f20541615610ba457808211610ba4577f32f07544d40b6594a49132ac8f5e83e155ea95048a4793168328979fbe18be1f9160809161010a549161010b54908061010a558261010b55604051938452602084015260408301526060820152a180f35b50346103f65760403660031901126103f657611bc0613c1d565b6001600160a01b0316815261010360205260408120805460243590811015610ba457611beb91613e1a565b919091611c1657611c12611bfe83613e43565b604051918291602083526020830190613da2565b0390f35b634e487b7160e01b81526004819052602490fd5b50346103f657806003193601126103f6577ff146182d150a5b368b6d283f87aeae1f25c21b02ff55cf16848704ade176a5cb8152606560209081526040808320335f908152925290205460ff16156103f657611c84614c9d565b600160ff1960c954161760c9557f62e78cea01bee320cd4e420270b5ea74000d11b0c9f74754ebdbfc544b05a2586020604051338152a180f35b50346103f657806003193601126103f6576020604051621275008152f35b50611ce636613dc6565b9094939291611cf3614ce1565b611cfb614c9d565b611d0482614bfc565b8034036105c7578580808080335af1611d1b613f6c565b50156105c757611d2e9061010954613f52565b6101095561010554686c6b935b8bbd40000081019081811161195d576101065482116119da576212750084148015612083575b8015612077575b801561206b575b1561197157811061195d5761010555611d86614c9d565b60405183858237602081858101610102815203019020541580612062575b156110b65760908603610c2e57610101546040518486823760208186810161010281520301902055611e48604051611ddb81613c65565b34815286602082015286604082015261010754610108549060405192611e0084613c49565b338452611e0e36898b613cbc565b60208501528660408501526001606085015260808401528860a084015260c083015260e08201528661010082015286610120820152614ad5565b6040518385823760208185810161010d8152030190206001600160401b03871161100d57611e7a87610e2b8354613d6a565b8587601f81116001146120005780611ea592899161104957508160011b915f199060031b1c19161790565b90555b6040518385823760208185810161010f81520301902060ff1981541690553385526101036020526040852054604051848682376020818681016101048152030190205533855261010360205260408520805490600160401b8210156110355790611f1791600182018155613e1a565b969096611021576001600160401b03841161100d57611f3a84610ef28954613d6a565b8596601f8511600114611fa55790611f7b9291610f3986808a9b5f5160206159355f395f51905f529b91610f8d57508160011b915f199060031b1c19161790565b906060830152600160808301523460a08301528460c08301528460e08301520390a1600160975580f35b80875260208720601f198616885b818110611fe85750905f5160206159355f395f51905f52989987611f7b9695949310610fdc575050600186811b019055610f3c565b888b0135835560209a8b019a60019093019201611fb3565b50818752602087209088601f198116895b81811061204757501061202e575b5050600187811b019055611ea8565b8301355f1960038a901b60f8161c191690555f8061201f565b8684013585556001909401936020938401938c935001612011565b50821515611da4565b50626ebe008414611d6f565b506249d4008414611d68565b506224ea008414611d61565b5061209936613dc6565b90949392916120a6614ce1565b61010a543410158061262d575b8061261f575b156125ea578480808080335af16120ce613f6c565b5015610c2e575f5160206159555f395f51905f52855260fd6020526040808620549051633fabe5a360e21b81529060a090829060049082906001600160a01b03165afa9182156125df57869187936125b7575b50610100546001600160a01b0390811680895260fd6020526040808a20549051633fabe5a360e21b81529195919260a09184916004918391165afa908115611ad25789928a9261258e575b5089831380612585575b15611a9c576121859042613f5f565b5f5160206159555f395f51905f528a5260fe60205260408a205410611a98576121ae9042613f5f565b84895260fe602052604089205410611a815734686c6b935b8bbd4000000392686c6b935b8bbd400000841161257157600a91611515856121ed93613f9b565b04928315611a8157836122039130903390615321565b61010054610105546001600160a01b03909116926122218183613f52565b61010654106119da576212750086148015612565575b8015612559575b801561254d575b156119715761225391613f52565b6101055561225f614c9d565b60405185878237602081878101610102815203019020541580612544575b156110b657609088036105cb576101015460405186888237602081888101610102815203019020556123206040516122b481613c65565b348152836020820152846040820152610107546101085490604051926122d984613c49565b3384526122e7368b8d613cbc565b60208501528860408501528b606085015260808401528a60a084015260c083015260e08201528861010082015288610120820152614ad5565b6040518587823760208187810161010d8152030190206001600160401b0389116118b65761235289610e2b8354613d6a565b8789601f81116001146124e2578061237d928b9161104957508160011b915f199060031b1c19161790565b90555b6123ab876040518789823760208189810161010f8152030190209060ff801983541691151516179055565b3387526101036020526040872054604051868882376020818881016101048152030190205533875261010360205260408720805490600160401b8210156118de57906123fc91600182018155613e1a565b9890986118ca576001600160401b0386116118b65761241f866117978b54613d6a565b8798601f8711600114612487579061246092916117de88808c9d5f5160206159355f395f51905f529d9161183657508160011b915f199060031b1c19161790565b9260608501528660808501523460a085015260c084015260e08301520390a1600160975580f35b80895260208920601f1988168a5b8181106124ca5750905f5160206159355f395f51905f529a9b896124609695949310611885575050600188811b0190556117e1565b8a8d0135835560209c8d019c60019093019201612495565b5081895260208920908a601f1981168b5b818110612529575010612510575b5050600189811b019055612380565b8301355f1960038c901b60f8161c191690555f80612501565b8684013585556001909401936020938401938e9350016124f3565b5084151561227d565b50626ebe008614612245565b506249d400861461223e565b506224ea008614612237565b634e487b7160e01b89526011600452602489fd5b50828513612176565b9092506125aa915060a03d60a0116105ff576105ec8183613c80565b509392505091905f61216c565b9092506125d3915060a03d60a0116105ff576105ec8183613c80565b5092505090915f612121565b6040513d88823e3d90fd5b60405162461bcd60e51b815260206004820152600d60248201526c496e76616c69642076616c756560981b6044820152606490fd5b50633b9aca003406156120b9565b5061010b543411156120b3565b50346103f657806003193601126103f657602061010954604051908152f35b50346103f657806003193601126103f657602061010754604051908152f35b50346103f657806003193601126103f657610100546040516001600160a01b039091168152602090f35b50346103f657806003193601126103f657602061010854604051908152f35b50346103f657806003193601126103f657610101545f198101919082116126ed57602082604051908152f35b634e487b7160e01b81526011600452602490fd5b50346103f65760203660031901126103f657808052606560209081526040808320335f90815292529020546004359060ff16156103f45760407f3e0916468971c6a0496bb9e570a6490523f6f34b85407a78e713c5d0287fb898916101065490806101065582519182526020820152a180f35b50346103f657806003193601126103f657602060ff60c954166040519015158152f35b50346103f65760203660031901126103f6576004356001600160401b0381116103f4576127cb6127e1913690600401613bf0565b906127d4614ce1565b6127dc614c9d565b614688565b600160975580f35b50346103f657806003193601126103f657602060fb54604051908152f35b50346103f657806003193601126103f65760405180602060fb549182815201809160fb85527f3e7257b7272bb46d49cd6019b04ddee20da7c0cb13f7c1ec3391291b2ccebabc90855b8181106128b05750505082612866910383613c80565b604051928392602084019060208552518091526040840192915b81811061288e575050500390f35b82516001600160a01b0316845285945060209384019390920191600101612880565b8254845260209093019260019283019201612850565b50346103f657806003193601126103f65760206040517ff146182d150a5b368b6d283f87aeae1f25c21b02ff55cf16848704ade176a5cb8152f35b50346103f657806003193601126103f6576020604051626ebe008152f35b50346103f657806003193601126103f65760206040517f0f9dd4db10c87ffcc337f44200a5df16e545591d09c12f63c158b3d592fcf1888152f35b50346103f65760603660031901126103f657612974613c1d565b6044356024356129848183613f5f565b9261298e8461465d565b9361299c6040519586613c80565b8085526129ab601f199161465d565b01855b818110612c205750506001600160a01b0316815b838110612ac65784866040519182916020830160208452825180915260408401602060408360051b870101940192905b828210612a0157505050500390f35b919360019193955060208091603f19898203018552875190848060a01b038251168152610160610120612a438585015161018087860152610180850190613da2565b6040808601518582015260608087015115159086015260808087015180519187019190915260208101516001600160a01b031660a0870152015160c08501529360a081015160e085015260c081015161010085015260e08101518285015261010081015115156101408501520151151591015296019201920185949391926129f2565b818652610103602052612adc8160408820613e1a565b50604051908790805490612aef82613d6a565b9160018116908115612c075750600114612bd3575b5050612b238260206001959484610102612bcc96520301902054613ee3565b50612b2e8684613f5f565b9060ff600a60405192612b4084613c49565b878060a01b038154168452612b56888201613e43565b6020850152600281015460408501528260038201541615156060850152612b7f60048201613f01565b6080850152600781015460a0850152600881015460c0850152600981015460e08501520154818116151561010084015260081c161515610120820152612bc5828a614674565b5287614674565b50016129c2565b90915088526020882088905b828210612bf35750508101612b2382612b04565b600181602092548487015201910190612bdf565b60ff1916855250508015150282019050612b2382612b04565b602090604095939551612c3281613c49565b888152606083820152886040820152886060820152604051612c5381613c65565b898152898482015289604082015260808201528860a08201528860c08201528860e08201528861010082015288610120820152828289010152019391936129ae565b50346103f657806003193601126103f6577f8a8d1de1c18abb94a793a1c642e9153de53c830daa68b212d4eb80a0fed540518152606560209081526040808320335f908152925290205460ff16156103f65760c95460ff811615612d275760ff191660c9557f5db9ee0a495bf2e6ff9c91a7834c1ba4fdd244a5e8aa4e537bd38aeae4b073aa6020604051338152a180f35b60405162461bcd60e51b815260206004820152601460248201527314185d5cd8589b194e881b9bdd081c185d5cd95960621b6044820152606490fd5b50346103f657806003193601126103f657602060405173bbbbbbbbbbbbbbbbbbbbbbbbbbbbbbbbbbbbbbbb8152f35b50346103f65760203660031901126103f657808052606560209081526040808320335f90815292529020546004359060ff16156103f45761271081116103f45760407f70a47d9b6bc76b08da6f8f076f24e0cb3e9c1bfb280f89f72d5e6fe1ffbff577916101085490806101085582519182526020820152a180f35b50346103f657602080612e2036613cf2565b604051928184925191829101835e810161010d815203019020906040519181815491612e4b83613d6a565b8086529260018116908115612eb45750600114612e73575b611c1285611bfe81870382613c80565b815260208120939250905b808210612e9a57509091508101602001611bfe82611c12612e63565b919260018160209254838588010152019101909291612e7e565b869550611c1296935060209250611bfe94915060ff191682840152151560051b8201019293612e63565b50346103f657612eed36613d30565b909183805260656020526040842060018060a01b0333165f5260205260ff60405f20541615610613576001600160a01b03169182156106135783612f3c845f5260fc60205260405f2054151590565b6103f65760049160a0906001600160a01b0316612f588661576e565b5085835260fd60205260408320600180841b0382166001600160601b03841b82541617905585835260fe60205284604084205560405193848092633fabe5a360e21b82525afa9182156106065781908293612ff2575b50131561061357612fbf9042613f5f565b116103f45760207fa317c10673baf4f03b3c1041bd5ddbb537d0333a86fec3607c75f9dbb630f48f91604051908152a180f35b905061300e91925060a03d60a0116105ff576105ec8183613c80565b50939250505f612fae565b50346103f65760403660031901126103f657613033613c33565b336001600160a01b0382160361304f576106cb906004356155aa565b60405162461bcd60e51b815260206004820152602f60248201527f416363657373436f6e74726f6c3a2063616e206f6e6c792072656e6f756e636560448201526e103937b632b9903337b91039b2b63360891b6064820152608490fd5b50346103f657806003193601126103f65760206040517f8b6dced259e7c22d2c562be416e2454fe4c41318f8581c10be50deaca96d35368152f35b50346103f657602080806130fa36613cf2565b604051928184925191829101835e810161010281520301902054604051908152f35b50346103f65760403660031901126103f657600435613139613c33565b906131536106c1825f526065602052600160405f20015490565b80835260656020526040832060018060a01b0383165f5260205260ff60405f2054161561317e578280f35b8083526065602090815260408085206001600160a01b03949094165f81815294909252909220805460ff191660011790553391907f2f8788117e7eff1d82e926ec794901d17c78024a50270940304540a733656f0d8480a45f808280f35b50346103f65760203660031901126103f6576004356131f9614c9d565b7f0f9dd4db10c87ffcc337f44200a5df16e545591d09c12f63c158b3d592fcf1888252606560209081526040808420335f908152925290205460ff16156103f4578180808084335af161324a613f6c565b50156103f4574761010954116132885760207f5b6b431d4476a211bb7d41c20d1aab9ae2321deee0d20be3d9fc9b1093fa6e3d91604051908152a180f35b60405162461bcd60e51b815260206004820152601960248201527f5769746864726177616c20616d6f756e7420746f6f20626967000000000000006044820152606490fd5b50346103f657806003193601126103f65760206040516224ea008152f35b50346103f657806003193601126103f657602061010c54604051908152f35b50346103f65760203660031901126103f65760206133366004355f526065602052600160405f20015490565b604051908152f35b346139155760a036600319011261391557613357613c1d565b6024356001600160401b03811161391557613376903690600401613bf0565b90916044356001600160401b03811161391557613397903690600401613bf0565b335f9081527f1d9c10a110e512a468767bbda60d5ed76f4aa0c91f0ee0510c9ed05475ceff5e6020526040902054919460643592608435929060ff16156139a8575f5160206159555f395f51905f525f5260fd6020527f1df3cf4ed468092b87e8c16b2ef9a90bb8699bfc400ae4ae97452a2c27c21ebe54604051633fabe5a360e21b81529060a090829060049082906001600160a01b03165afa908115613978575f905f92613983575b50610100546001600160a01b039081165f81815260fd602052604090819020549051633fabe5a360e21b81529194919260a09184916004918391165afa908115613978575f925f9261394f575b505f841380613946575b15613915576134a89042613f5f565b5f5160206159555f395f51905f525f5260fe6020527f0ae3abc66e4bda7b39b71e4319fbae3aaf530387468f7ee4237e76041ab137a05410613915576134ee9042613f5f565b835f5260fe60205260405f20541061391557680ae56f730e6d840000820291808304680ae56f730e6d840000149015171561195d5761352c91613fae565b60098102908082046009149015171561195d57600a9004841061391557836135579130903390615321565b61010054610105546001600160a01b039091169290686c6b935b8bbd40000081019081811161195d576101065482116119da57621275008714801561393a575b801561392e575b8015613922575b1561197157811061195d57610105556135bc614c9d565b60405187828237602081898101610102815203019020541580613919575b156110b657609082036139155761010154604051888382376020818a8101610102815203019020556136886040519661361288613c65565b5f88528460208901528560408901526101075461010854906040519261363784613c49565b6001600160a01b03168084529961364f368d88613cbc565b60208501528960408501525f606085015260808401525f60a084015260c083015260e08201525f6101008201525f610120820152614ad5565b6040518782823760208189810161010d8152030190206001600160401b03831161387f576136ba83610e2b8354613d6a565b5f83601f81116001146138b157806136e5925f916138a657508160011b915f199060031b1c19161790565b90555b6040518782823760208189810161010f815203019020600160ff19825416179055855f5261010360205260405f2054604051888382376020818a810161010481520301902055855f5261010360205260405f208054600160401b81101561387f5761375891600182018155613e1a565b613893576001600160401b03881161387f5761377888610e2b8354613d6a565b5f601f8911600114613805575f5160206159355f395f51905f5299926137d994926137bb8b80611800955f916137fa57508160011b915f199060031b1c19161790565b90555b604051998a998a5261010060208b01526101008a0191613f32565b9260608501525f60808501525f60a085015260c084015260e08301520390a1005b90508401358f610e4a565b601f19891690825f5260205f20915f5b818110613867575092611800925f5160206159355f395f51905f529c95928c6137d998961061384e575b505060018b811b0190556137be565b8301355f1960038e901b60f8161c191690558c8061383f565b91926020600181928689013581550194019201613815565b634e487b7160e01b5f52604160045260245ffd5b634e487b7160e01b5f525f60045260245ffd5b90508b01358c610e4a565b50601f19841690825f528460205f20925f5b8d8282106138fb575050106138e2575b5050600183811b0190556136e8565b8a01355f19600386901b60f8161c1916905589806138d3565b8401358555600190940193602093840193889350016138c3565b5f80fd5b508615156135da565b50626ebe0087146135a5565b506249d400871461359e565b506224ea008714613597565b505f8313613499565b90925061396b915060a03d60a0116105ff576105ec8183613c80565b509392505091908c61348f565b6040513d5f823e3d90fd5b905061399e915060a03d60a0116105ff576105ec8183613c80565b5092505089613442565b60405162461bcd60e51b815260206004820152602760248201527f524f4c455f52454749535445525f574954485f464c455849424c455f50524943604482015266455f434845434b60c81b6064820152608490fd5b34613915575f3660031901126139155761010e546040516001600160a01b039091168152602090f35b3461391557602036600319011261391557335f9081527fffdfc1249c027f9191656349feb0761381bb32c9f557e01f419fd08754bf5a1b60205260409020546004359060ff16156139155761271081116139155760407f243f5920d630b2ce83f8881e8e61dfba5c13da5a74bf035e6b28827571b29fa19161010c54908061010c5582519182526020820152a1005b3461391557602036600319011261391557613ace613c1d565b335f9081527fffdfc1249c027f9191656349feb0761381bb32c9f557e01f419fd08754bf5a1b602052604090205460ff16156139155761010e80546001600160a01b0319166001600160a01b0392909216919091179055005b6040366003190112613915576004356001600160401b03811161391557613b52903690600401613bf0565b60243590811515820361391557613b7892613b6b614c9d565b613b73614ce1565b613fcc565b6001609755005b34613915576020366003190112613915576020613336600435614bfc565b34613915576020366003190112613915576004359063ffffffff60e01b821680920361391557602091637965db0b60e01b8114908115613bdf575b5015158152f35b6301ffc9a760e01b14905083613bd8565b9181601f84011215613915578235916001600160401b038311613915576020838186019501011161391557565b600435906001600160a01b038216820361391557565b602435906001600160a01b038216820361391557565b61014081019081106001600160401b0382111761387f57604052565b606081019081106001600160401b0382111761387f57604052565b90601f801991011681019081106001600160401b0382111761387f57604052565b6001600160401b03811161387f57601f01601f191660200190565b929192613cc882613ca1565b91613cd66040519384613c80565b829481845281830111613915578281602093845f960137010152565b602060031982011261391557600435906001600160401b038211613915578060238301121561391557816024613d2d93600401359101613cbc565b90565b6060906003190112613915576004356001600160a01b038116810361391557906024356001600160a01b0381168103613915579060443590565b90600182811c92168015613d98575b6020831014613d8457565b634e487b7160e01b5f52602260045260245ffd5b91607f1691613d79565b805180835260209291819084018484015e5f828201840152601f01601f1916010190565b6060600319820112613915576004356001600160401b0381116139155781613df091600401613bf0565b92909291602435906001600160401b03821161391557613e1291600401613bf0565b909160443590565b8054821015613e2f575f5260205f2001905f90565b634e487b7160e01b5f52603260045260245ffd5b9060405191825f825492613e5684613d6a565b8084529360018116908115613ec15750600114613e7d575b50613e7b92500383613c80565b565b90505f9291925260205f20905f915b818310613ea5575050906020613e7b928201015f613e6e565b6020919350806001915483858901015201910190918492613e8c565b905060209250613e7b94915060ff191682840152151560051b8201015f613e6e565b61010154811015613e2f576101015f52600b60205f20910201905f90565b90604051613f0e81613c65565b8254815260018301546001600160a01b031660208201526002909201546040830152565b908060209392818452848401375f828201840152601f01601f1916010190565b9190820180921161195d57565b9190820391821161195d57565b3d15613f96573d90613f7d82613ca1565b91613f8b6040519384613c80565b82523d5f602084013e565b606090565b8181029291811591840414171561195d57565b8115613fb8570490565b634e487b7160e01b5f52601260045260245ffd5b335f9081527f550cf24ee8cd1238fbb5b2b003ba2815aa7078d8d1f9ebe8aa8f16716a18431f602052604090205490919060ff16156145e157604051818382376020818381016101028152030190205480156145a35761402b90613ee3565b5092600a84019060ff825460081c1661455e577f834288ca549398403511a8b546b7e4885ac51b98630c0ffa3a07858dc5d9e40d6040516020815280614075602082018789613f32565b0390a16144265760ff60038501541661438357600484019081541580614377575b6143645761010061ff00198254161781558154686c6b935b8bbd40000003686c6b935b8bbd400000811161195d576140d19061010554613f5f565b6101055560ff6040518486823760208186810161010f81520301902054165f1461416b575050346139155761414960067fc7b0487e0a21287b5a35f7ddf5ed5d8e9d30338d3ad76e60c0986c52addace48940180549061413560c983048093613f5f565b9055610100546001600160a01b03166152a2565b614160604051928392604084526040840191613f32565b5f60208301520390a1565b819491548034115f146141e15750506007906141a97fc7b0487e0a21287b5a35f7ddf5ed5d8e9d30338d3ad76e60c0986c52addace48955434613f5f565b91829101556141bb3461010954613f52565b610109556141d6604051938493604085526040850191613f32565b9060208301520390a1565b340361391557600160ff198254161790555f935f916008810154806142ed575b506009018054909290156142b15750612710916142219154905490613f9b565b04926142396142308534613f5f565b61010954613f52565b610109555f8080808773bbbbbbbbbbbbbbbbbbbbbbbbbbbbbbbbbbbbbbbb5af1614261613f6c565b5015613915577feb8d450bff74ef3c1d9319f07855afedfdfa4dce6a223c1c1920a3ac1088d3b4935b6142a1604051948594606086526060860191613f32565b91602084015260408301520390a1565b90507feb8d450bff74ef3c1d9319f07855afedfdfa4dce6a223c1c1920a3ac1088d3b49491506142e43461010954613f52565b6101095561428a565b8196506143036127109160066009940154613f9b565b6101005460405163a9059cbb60e01b602082015273bbbbbbbbbbbbbbbbbbbbbbbbbbbbbbbbbbbbbbbb60248201529290910460448084018290528352979161435e916001600160a01b0316614359606483613c80565b61568b565b90614201565b50509091503461391557613e7b91614e0b565b50600685015415614096565b509091346139155761010554686c6b935b8bbd3fffff19810190811161195d5761010555600481018054909190156143ff57505f80936143d88294839454926143cf8461010954613f5f565b61010955614e0b565b73aaaaaaaaaaaaaaaaaaaaaaaaaaaaaaaaaaaaaaaa5af16143f7613f6c565b501561391557565b9050614421613e7b9392600660018060a01b0360058501541693015493614e0b565b6152a2565b9260ff6003829493940154165f1461446c57505050346139155761010554686c6b935b8bbd3fffff19810190811161195d57610105555b805461ff001916610100179055565b60048101549081340361450057600601541590816144f7575b501561449557613e7b9250614e0b565b6144a23461010954613f52565b6101095534686c6b935b8bbd4000000390686c6b935b8bbd400000821161195d576144d260209261010554613f5f565b61010555826040519384928337810161010f81520301902060ff19815416905561445d565b9050155f614485565b60405162461bcd60e51b815260206004820152603060248201527f4d6573736167652076616c7565206d757374206d61746368207468652041564160448201526f160819195c1bdcda5d08185b5bdd5b9d60821b6064820152608490fd5b60405162461bcd60e51b815260206004820152601a60248201527f21726567697374726174696f6e2e776974686472617761626c650000000000006044820152606490fd5b60405162461bcd60e51b81526020600482015260166024820152750726567697374726174696f6e496e64657820213d20360541b6044820152606490fd5b60405162461bcd60e51b815260206004820152600b60248201526a03937b6329032b93937b9160ad1b6044820152606490fd5b519069ffffffffffffffffffff8216820361391557565b908160a09103126139155761463f81614614565b91602082015191604081015191613d2d608060608401519301614614565b6001600160401b03811161387f5760051b60200190565b8051821015613e2f5760209160051b010190565b60405182828237602081848101610102815203019020548015613915576146ae90613ee3565b5080549092906001600160a01b0316330361391557600a830160ff815460081c16156139155760ff6003850154166148ac5760068401549060ff60048601549154165f146147d55790612710614715600861471c614725958461471560098c015483613f9b565b0490613f5f565b97015483613f9b565b926147338161010954613f5f565b610109555b6147428284614e0b565b6101005461475c90859033906001600160a01b03166152e6565b806147bc575b7fee444713008e3c266c8fb74c287dd853d5eb23d60c7e77730b0ed536556efd9a9360018060a01b0361010054166147a7604051958695608087526080870191613f32565b926020850152604084015260608301520390a1565b5f80808084335af16147cc613f6c565b50614762575f80fd5b60078501546147e391613f52565b90809460ff6040518587823760208187810161010f815203019020541661481d575b50506148148161010954613f5f565b61010955614738565b5f9295506020906044600260018060a01b0361010e54169201546040519586938492632ca6ea1960e11b845260048401528660248401525af1908115613978575f91614876575b61486e9250613f52565b925f80614805565b90506020823d6020116148a4575b8161489160209383613c80565b810103126139155761486e915190614864565b3d9150614884565b506004830180549193909115614940575054916148cc8361010954613f5f565b610109556148da8183614e0b565b5f80808086335af16148ea613f6c565b5015613915577fee444713008e3c266c8fb74c287dd853d5eb23d60c7e77730b0ed536556efd9a92614929604051938493608085526080850191613f32565b9060208301525f60408301525f60608301520390a1565b7fee444713008e3c266c8fb74c287dd853d5eb23d60c7e77730b0ed536556efd9a939150600660018060a01b036005830154169101546149808385614e0b565b61498b8133846152e6565b6149a2604051948594608086526080860191613f32565b915f6020850152604084015260608301520390a1565b8181106149c3575050565b5f81556001016149b8565b9190601f81116149dd57505050565b613e7b925f5260205f20906020601f840160051c83019310614a07575b601f0160051c01906149b8565b90915081906149fa565b91909182516001600160401b03811161387f57614a3881614a328454613d6a565b846149ce565b6020601f8211600114614a77578190614a689394955f92614a6c575b50508160011b915f199060031b1c19161790565b9055565b015190505f80614a54565b601f19821690835f52805f20915f5b818110614abd57509583600195969710614aa5575b505050811b019055565b01515f1960f88460031b161c191690555f8080614a9b565b9192602060018192868b015181550194019201614a86565b61010154600160401b81101561387f5760018101610101556101018054821015613e2f575f52600b60205f20910201905f61389357805182546001600160a01b0319166001600160a01b03919091161782556020810151613e7b9261012091600a9190614b459060018301614a11565b60408401516002820155614b6e60608501511515600383019060ff801983541691151516179055565b60808401518051600483015560208101516005830180546001600160a01b039092166001600160a01b031990921691909117905560400151600682015560a0840151600782015560c0840151600882015560e084015160098201556101008401519101805460ff191691151560ff16919091178155910151815461ff00191690151560081b61ff0016179055565b621275008114614c90576224ea008114614c83576249d4008114614c7557626ebe0014614c685760405162461bcd60e51b815260206004820152601b60248201527f496e76616c69642076616c69646174696f6e206475726174696f6e00000000006044820152606490fd5b68022b1c8c1227a0000090565b5068018493fba64ef0000090565b5067d02ab486cedc000090565b50676f05b59d3b20000090565b60ff60c95416614ca957565b60405162461bcd60e51b815260206004820152601060248201526f14185d5cd8589b194e881c185d5cd95960821b6044820152606490fd5b600260975414614cf2576002609755565b60405162461bcd60e51b815260206004820152601f60248201527f5265656e7472616e637947756172643a207265656e7472616e742063616c6c006044820152606490fd5b919091828114614e0657614d4b8354613d6a565b6001600160401b03811161387f57614d6781614a328454613d6a565b5f93601f8211600114614da157614a6892939482915f92614d965750508160011b915f199060031b1c19161790565b015490505f80614a54565b601f198216905f5260205f2094835f5260205f20915f5b818110614dee57509583600195969710614dd657505050811b019055565b01545f1960f88460031b161c191690555f8080614a9b565b9192600180602092868b015481550194019201614db8565b509050565b6040518282823760208184810161010281520301902054801561391557614e3181613ee3565b50546040516001600160a01b03909116908484823760208186810161010481520301902054815f5261010360205260405f20545f19810190811161195d5780820361523a575b50505f5261010360205260405f2080548015615035575f190190614e9b8282613e1a565b61389357614ea98154613d6a565b90816151f7575b5050555f60405184848237602081868101610104815203019020556040518383823760208185810161010d815203019020614eeb8154613d6a565b90816151b4575b50506040518383823760208185810161010f81520301902060ff198154169055610101545f19810190811161195d57808203615049575b5050610101548015615035575f190191614f4283613ee3565b939093613893575f600a85827f04393636f796e0824c4807e9d1a98080042d261b6d4feea240a3d698ee713b52975560018101614f7f8154613d6a565b9081614ff2575b50508260028201558260038201558260048201558260058201558260068201558260078201558260088201558260098201550155610101555f6040518284823760208184810161010281520301902055614fed604051928392602084526020840191613f32565b0390a1565b81601f8693116001146150095750555b5f80614f86565b8183526020832061502591601f0160051c8101906001016149b8565b8082528160208120915555615002565b634e487b7160e01b5f52603160045260245ffd5b615067615061600161505a84613ee3565b5001613e43565b91613ee3565b5061507183613ee3565b9290926138935760209283928082036150a8575b5050604051928184925191829101835e8101610102815203019020555f80614f29565b805482546001600160a01b0319166001600160a01b03919091161782556151729160ff90600a9081906150e16001868101908301614d37565b6002850154600282015561510a84600387015416600383019060ff801983541691151516179055565b6004810160048601808203615179575b505060078501546007820155600885015460088201556009850154600982015501920161515682825416849060ff801983541691151516179055565b5460081c1661ff00825491151560081b169061ff001916179055565b5f80615085565b54905560058581015490820180546001600160a01b0319166001600160a01b0392909216919091179055600680860154908201555f8061511a565b81601f5f93116001146151cb5750555b5f80614ef2565b818352602083206151e791601f0160051c8101906001016149b8565b80825281602081209155556151c4565b81601f5f931160011461520e5750555b5f80614eb0565b8183526020832061522a91601f0160051c8101906001016149b8565b8082528160208120915555615207565b61525361525991845f5261010360205260405f20613e1a565b50613e43565b825f5261010360205261526f8260405f20613e1a565b61389357816152816020938493614a11565b604051928184925191829101835e8101610104815203019020555f80614e77565b90613e7b916040519163a9059cbb60e01b602084015273aaaaaaaaaaaaaaaaaaaaaaaaaaaaaaaaaaaaaaaa6024840152604483015260448252614359606483613c80565b60405163a9059cbb60e01b60208201526001600160a01b039092166024830152604480830193909352918152613e7b91614359606483613c80565b6040516323b872dd60e01b60208201526001600160a01b039283166024820152929091166044830152606480830193909352918152613e7b91614359608483613c80565b5f81815260656020908152604080832033845290915290205460ff16156153895750565b33615394602a613ca1565b916153a26040519384613c80565b602a83526153b0602a613ca1565b602084019290601f1901368437835115613e2f5760308353835160011015613e2f576078602185015360295b6001811161556957506154e4576153f36042613ca1565b906154016040519283613c80565b6042825261540f6042613ca1565b602083019190601f1901368337825115613e2f5760308253825160011015613e2f576078602184015360415b6001811161552857506154e45761114a936037601192846154c495506040519687947f416363657373436f6e74726f6c3a206163636f756e742000000000000000000060208701525180918587015e8401907001034b99036b4b9b9b4b733903937b6329607d1b84830152518092604883015e01015f838201520301601f198101835282613c80565b60405162461bcd60e51b8152602060048201529182916024830190613da2565b606460405162461bcd60e51b815260206004820152602060248201527f537472696e67733a20686578206c656e67746820696e73756666696369656e746044820152fd5b90600f81166010811015613e2f576f181899199a1a9b1b9c1cb0b131b232b360811b901a615556838661588a565b5360041c90801561195d575f190161543b565b90600f81166010811015613e2f576f181899199a1a9b1b9c1cb0b131b232b360811b901a615597838761588a565b5360041c90801561195d575f19016153dc565b805f52606560205260405f2060018060a01b0383165f5260205260ff60405f2054166155d4575050565b5f8181526065602090815260408083206001600160a01b0395909516808452949091528120805460ff19169055339291907ff6391f5c32d9c69d2a47ea670b442974b53935d1edc7fd64eb21e047a839171b9080a4565b1561563257565b60405162461bcd60e51b815260206004820152602b60248201527f496e697469616c697a61626c653a20636f6e7472616374206973206e6f74206960448201526a6e697469616c697a696e6760a81b6064820152608490fd5b906156eb9160018060a01b03165f80604051936156a9604086613c80565b602085527f5361666545524332303a206c6f772d6c6576656c2063616c6c206661696c6564602086015260208151910182855af16156e5613f6c565b9161589b565b8051806156f6575050565b816020918101031261391557602001518015908115036139155761571657565b60405162461bcd60e51b815260206004820152602a60248201527f5361666545524332303a204552433230206f7065726174696f6e20646964206e6044820152691bdd081cdd58d8d9595960b21b6064820152608490fd5b805f5260fc60205260405f2054155f146157d45760fb54600160401b81101561387f576157bd6157a782600185940160fb5560fb613e1a565b819391549060031b91821b915f19901b19161790565b905560fb54905f5260fc60205260405f2055600190565b505f90565b5f81815260fc60205260409020548015615884575f19810181811161195d5760fb545f1981019190821161195d5780820361584c575b50505060fb548015615035575f19016158298160fb613e1a565b8154905f199060031b1b1916905560fb555f5260fc6020525f6040812055600190565b61586e61585d6157a79360fb613e1a565b90549060031b1c92839260fb613e1a565b90555f5260fc60205260405f20555f808061580f565b50505f90565b908151811015613e2f570160200190565b919290156158fd57508151156158af575090565b3b156158b85790565b60405162461bcd60e51b815260206004820152601d60248201527f416464726573733a2063616c6c20746f206e6f6e2d636f6e74726163740000006044820152606490fd5b8251909150156159105750805190602001fd5b60405162461bcd60e51b81526020600482015290819061114a906024830190613da256fe911545ab01a7553b2c4eb100eb4054703d821e76fc5d0504a07b8246aa3b1232000000000000000000000000eeeeeeeeeeeeeeeeeeeeeeeeeeeeeeeeeeeeeeeea2646970667358221220fec90849ec39da9ca6e7f99564cb1bf8e44a97988d5ea3a9fa975abc945cbaca64736f6c634300081c003360808060405234601557611087908161001a8239f35b5f80fdfe6080806040526004361015610012575f80fd5b5f3560e01c90816301ffc9a7146109ae575080631e257a0414610995578063248a9ca3146109625780632e1a7d4d146108d55780632f2ff15d1461081c57806336568abe1461078a5780633f4ba83a146106c95780634b7e23dc1461068f5780634ff0241a14610655578063594dd432146105d65780635c975abb146105b45780635fcd62551461058c5780638456cb591461050557806391d14854146104bc578063a0e8cf061461042c578063a217fddf14610412578063be203094146101cb578063d547741f14610186578063d964c25a1461014c578063e598b45d1461012f5763f768923a14610103575f80fd5b3461012b575f36600319011261012b5760ca546040516001600160a01b039091168152602090f35b5f80fd5b3461012b575f36600319011261012b57602060cb54604051908152f35b3461012b575f36600319011261012b5760206040517f8a8d1de1c18abb94a793a1c642e9153de53c830daa68b212d4eb80a0fed540518152f35b3461012b57604036600319011261012b576101c96004356101a5610a17565b906101c46101bf825f526065602052600160405f20015490565b610bef565b610e44565b005b3461012b57608036600319011261012b576004356001600160a01b0381169081900361012b576101f9610a17565b6064356001600160a01b038116929083900361012b575f549260ff8460081c161593848095610405575b80156103ee575b156103925760ff1981166001175f5584610381575b5061026260ff5f5460081c1661025481610f09565b61025d81610f09565b610f09565b6097805460ff191690555f8181527fffdfc1249c027f9191656349feb0761381bb32c9f557e01f419fd08754bf5a1b602052604090205460ff161561031d575b506bffffffffffffffffffffffff60a01b60c954161760c95560018060a01b03166bffffffffffffffffffffffff60a01b60ca54161760ca5560443560cb556102e757005b61ff00195f54165f557f7f26b83ff96e1f2b6a682f133852f6798a09c465da95921460cefb3847402498602060405160018152a1005b5f8181527fffdfc1249c027f9191656349feb0761381bb32c9f557e01f419fd08754bf5a1b60205260408120805460ff191660011790553391907f2f8788117e7eff1d82e926ec794901d17c78024a50270940304540a733656f0d8180a4836102a2565b61ffff1916610101175f558461023f565b60405162461bcd60e51b815260206004820152602e60248201527f496e697469616c697a61626c653a20636f6e747261637420697320616c72656160448201526d191e481a5b9a5d1a585b1a5e995960921b6064820152608490fd5b50303b15801561022a5750600160ff82161461022a565b50600160ff821610610223565b3461012b575f36600319011261012b5760206040515f8152f35b3461012b57602036600319011261012b57335f9081527fffdfc1249c027f9191656349feb0761381bb32c9f557e01f419fd08754bf5a1b60205260409020546004359060ff16156104ae577febef161b9cbd9ec08b3433611b0382233f383387a4a8fbd5885a16818aa1ac12604060cb548151908152836020820152a160cb55005b6282b42960e81b5f5260045ffd5b3461012b57604036600319011261012b576104d5610a17565b6004355f52606560205260405f209060018060a01b03165f52602052602060ff60405f2054166040519015158152f35b3461012b575f36600319011261012b57335f9081527f384d140b626ac4c73e12cbde6200a05a8aeeab694fa3418c8bb84d4b449fa0c8602052604090205460ff16156104ae57610553610ec5565b600160ff1960975416176097557f62e78cea01bee320cd4e420270b5ea74000d11b0c9f74754ebdbfc544b05a2586020604051338152a1005b3461012b575f36600319011261012b5760c9546040516001600160a01b039091168152602090f35b3461012b575f36600319011261012b57602060ff609754166040519015158152f35b3461012b576105e436610a01565b906105ed610ec5565b60ca546001600160a01b031633036104ae5760209161060b91610a54565b60c95461062490829033906001600160a01b0316610ab3565b7fbacfa9662d479c707dae707c358323f0c7711ef382007957dc9935e629da36b282604051838152a1604051908152f35b3461012b575f36600319011261012b5760206040517ff146182d150a5b368b6d283f87aeae1f25c21b02ff55cf16848704ade176a5cb8152f35b3461012b575f36600319011261012b5760206040517f0f9dd4db10c87ffcc337f44200a5df16e545591d09c12f63c158b3d592fcf1888152f35b3461012b575f36600319011261012b57335f9081527f384d140b626ac4c73e12cbde6200a05a8aeeab694fa3418c8bb84d4b449fa0c8602052604090205460ff16156104ae5760975460ff81161561074e5760ff19166097557f5db9ee0a495bf2e6ff9c91a7834c1ba4fdd244a5e8aa4e537bd38aeae4b073aa6020604051338152a1005b60405162461bcd60e51b815260206004820152601460248201527314185d5cd8589b194e881b9bdd081c185d5cd95960621b6044820152606490fd5b3461012b57604036600319011261012b576107a3610a17565b336001600160a01b038216036107bf576101c990600435610e44565b60405162461bcd60e51b815260206004820152602f60248201527f416363657373436f6e74726f6c3a2063616e206f6e6c792072656e6f756e636560448201526e103937b632b9903337b91039b2b63360891b6064820152608490fd5b3461012b57604036600319011261012b57600435610838610a17565b906108526101bf825f526065602052600160405f20015490565b805f52606560205260405f2060018060a01b0383165f5260205260ff60405f2054161561087b57005b5f8181526065602090815260408083206001600160a01b0395909516808452949091528120805460ff19166001179055339291907f2f8788117e7eff1d82e926ec794901d17c78024a50270940304540a733656f0d9080a4005b3461012b57602036600319011261012b57335f9081527f3d2173f3f4867b524d3e5d3539c8eb468493ae0e0d3bbc3dda942c4ef1c1a48760205260409020546004359060ff16156104ae576020816109597f5b6b431d4476a211bb7d41c20d1aab9ae2321deee0d20be3d9fc9b1093fa6e3d933360018060a01b0360c95416610ab3565b604051908152a1005b3461012b57602036600319011261012b57602061098d6004355f526065602052600160405f20015490565b604051908152f35b3461012b57602061098d6109a836610a01565b90610a54565b3461012b57602036600319011261012b576004359063ffffffff60e01b821680920361012b57602091637965db0b60e01b81149081156109f0575b5015158152f35b6301ffc9a760e01b149050836109e9565b604090600319011261012b576004359060243590565b602435906001600160a01b038216820361012b57565b81810292918115918404141715610a4057565b634e487b7160e01b5f52601160045260245ffd5b603c80612710610a75601894610a7061016d9760cb5490610a2d565b610a2d565b040404040490565b90601f8019910116810190811067ffffffffffffffff821117610a9f57604052565b634e487b7160e01b5f52604160045260245ffd5b905f80610b64949360405194602086019463a9059cbb60e01b865260018060a01b03166024870152604486015260448552610aef606486610a7d565b60018060a01b03169260405194610b07604087610a7d565b602086527f5361666545524332303a206c6f772d6c6576656c2063616c6c206661696c65646020870152519082855af13d15610be7573d91610b4883610f69565b92610b566040519485610a7d565b83523d5f602085013e610fc0565b805180610b6f575050565b816020918101031261012b576020015180159081150361012b57610b8f57565b60405162461bcd60e51b815260206004820152602a60248201527f5361666545524332303a204552433230206f7065726174696f6e20646964206e6044820152691bdd081cdd58d8d9595960b21b6064820152608490fd5b606091610fc0565b5f81815260656020908152604080832033845290915290205460ff1615610c135750565b33610c1e602a610f69565b91610c2c6040519384610a7d565b602a8352610c3a602a610f69565b602084019290601f1901368437835115610def5760308353835160011015610def576078602185015360295b60018111610e035750610d6a57610c7d6042610f69565b90610c8b6040519283610a7d565b60428252610c996042610f69565b602083019190601f1901368337825115610def5760308253825160011015610def576078602184015360415b60018111610dae5750610d6a57610d6693603760119284610d4e95506040519687947f416363657373436f6e74726f6c3a206163636f756e742000000000000000000060208701525180918587015e8401907001034b99036b4b9b9b4b733903937b6329607d1b84830152518092604883015e01015f838201520301601f198101835282610a7d565b60405162461bcd60e51b815291829160048301610f85565b0390fd5b606460405162461bcd60e51b815260206004820152602060248201527f537472696e67733a20686578206c656e67746820696e73756666696369656e746044820152fd5b90600f81166010811015610def576f181899199a1a9b1b9c1cb0b131b232b360811b901a610ddc8386610faf565b5360041c908015610a40575f1901610cc5565b634e487b7160e01b5f52603260045260245ffd5b90600f81166010811015610def576f181899199a1a9b1b9c1cb0b131b232b360811b901a610e318387610faf565b5360041c908015610a40575f1901610c66565b805f52606560205260405f2060018060a01b0383165f5260205260ff60405f205416610e6e575050565b5f8181526065602090815260408083206001600160a01b0395909516808452949091528120805460ff19169055339291907ff6391f5c32d9c69d2a47ea670b442974b53935d1edc7fd64eb21e047a839171b9080a4565b60ff60975416610ed157565b60405162461bcd60e51b815260206004820152601060248201526f14185d5cd8589b194e881c185d5cd95960821b6044820152606490fd5b15610f1057565b60405162461bcd60e51b815260206004820152602b60248201527f496e697469616c697a61626c653a20636f6e7472616374206973206e6f74206960448201526a6e697469616c697a696e6760a81b6064820152608490fd5b67ffffffffffffffff8111610a9f57601f01601f191660200190565b602060409281835280519182918282860152018484015e5f828201840152601f01601f1916010190565b908151811015610def570160200190565b919290156110225750815115610fd4575090565b3b15610fdd5790565b60405162461bcd60e51b815260206004820152601d60248201527f416464726573733a2063616c6c20746f206e6f6e2d636f6e74726163740000006044820152606490fd5b8251909150156110355750805190602001fd5b60405162461bcd60e51b8152908190610d669060048301610f8556fea26469706673582212207e337ca2731adf8f45c195fed7085ecf376dc2575fb64bf8892c8c29f9706a9c64736f6c634300081c00330000000000000000000000007109709ecfa91a80626ff3989d68f67f5b1dd12d405787fa12a823e0f2b7631cc41b3ba8828b3321ca811111fa75cd3aa3bb5acec2575a0e9e593c00f959f8c92f12db2869c3395a3b0502d05e2516446f71f85b","linkReferences":{}},"methodIdentifiers":{"FEE_RECIPIENT()":"ebd09054","SLASHED_TOKEN_RECIPIENT()":"3f24a8e5","VALIDATION_DURATION_EIGHT_WEEKS()":"ce339923","VALIDATION_DURATION_FOUR_WEEKS()":"2dbecc1a","VALIDATION_DURATION_TWELVE_WEEKS()":"4bcad6f2","VALIDATION_DURATION_TWO_WEEKS()":"8079336c","amountArr(uint256)":"32e9aa8c","avaxFee()":"eba34911","avaxSlash()":"1d791f3e","blsKey()":"cf2f00af","blsPoP()":"f9bf4553","blsSignature()":"4e7320ce","boundValue(uint256,uint256,uint256)":"846f81c5","durations(uint256)":"bc20a7af","echidna_check_eth_balance()":"ede32943","echidna_check_fail_registration_withdrawal()":"da69821e","echidna_check_minimum_eth_balance()":"5ab6bc3b","echidna_check_qi_balance()":"bb15ab1b","echidna_check_success_registration_withdrawal()":"666f35a4","echidna_check_success_slashed()":"e3afe87e","echidna_check_total_subsidised()":"afc48a9d","echidna_total_sub_gost()":"9ac35531","failRegistrationIndices(uint256)":"1b422929","gostMinimumContractBalance()":"a049b04c","isRegisteredCalled()":"cb9a2f44","nodeIds(uint256)":"98543166","qiPriceMultiplier()":"2576eed1","register_with_avax_fee(uint256,uint256)":"ad91a52a","register_with_erc20_fee(uint256,uint256)":"27fffcdd","register_with_prevalidated_qiStake(uint256,uint256)":"e862e8ab","register_with_stake(uint256,uint256,uint256)":"b21f41de","register_without_collateral(uint256,uint256)":"c0f819bc","releaseLockTokenFailedCalled()":"6f07a042","releaseLockTokenSlashedCalled()":"3a71765d","releaseLockTokenSuccessCalled()":"774860a4","release_locked_tokens_failed(uint256)":"0d501d87","release_locked_tokens_slash(uint256)":"10fe6eb6","release_locked_tokens_success(uint256)":"6d9ce5b5","successRegistrationIndices(uint256)":"e579a04d","tokenFee()":"45599136","tokenSlash()":"2b247af6","withdraw_eth(uint256)":"30a95e67"},"id":56}