{"src/IgniteStorage.sol":{"IgniteStorage":{"abi":[{"type":"function","name":"accountRegistrationIndicesByNodeId","inputs":[{"name":"","type":"string","internalType":"string"}],"outputs":[{"name":"","type":"uint256","internalType":"uint256"}],"stateMutability":"view"},{"type":"function","name":"avaxSlashPercentage","inputs":[],"outputs":[{"name":"","type":"uint256","internalType":"uint256"}],"stateMutability":"view"},{"type":"function","name":"blsProofOfPossessionByNodeId","inputs":[{"name":"","type":"string","internalType":"string"}],"outputs":[{"name":"","type":"bytes","internalType":"bytes"}],"stateMutability":"view"},{"type":"function","name":"maxPriceAges","inputs":[{"name":"","type":"address","internalType":"address"}],"outputs":[{"name":"","type":"uint256","internalType":"uint256"}],"stateMutability":"view"},{"type":"function","name":"maximumAvaxDeposit","inputs":[],"outputs":[{"name":"","type":"uint256","internalType":"uint256"}],"stateMutability":"view"},{"type":"function","name":"maximumSubsidisationAmount","inputs":[],"outputs":[{"name":"","type":"uint256","internalType":"uint256"}],"stateMutability":"view"},{"type":"function","name":"minimumAvaxDeposit","inputs":[],"outputs":[{"name":"","type":"uint256","internalType":"uint256"}],"stateMutability":"view"},{"type":"function","name":"minimumContractBalance","inputs":[],"outputs":[{"name":"","type":"uint256","internalType":"uint256"}],"stateMutability":"view"},{"type":"function","name":"priceFeeds","inputs":[{"name":"","type":"address","internalType":"address"}],"outputs":[{"name":"","type":"address","internalType":"contract IPriceFeed"}],"stateMutability":"view"},{"type":"function","name":"qi","inputs":[],"outputs":[{"name":"","type":"address","internalType":"contract IERC20Upgradeable"}],"stateMutability":"view"},{"type":"function","name":"qiPriceMultiplier","inputs":[],"outputs":[{"name":"","type":"uint256","internalType":"uint256"}],"stateMutability":"view"},{"type":"function","name":"qiRewardEligibilityByNodeId","inputs":[{"name":"","type":"string","internalType":"string"}],"outputs":[{"name":"","type":"bool","internalType":"bool"}],"stateMutability":"view"},{"type":"function","name":"qiSlashPercentage","inputs":[],"outputs":[{"name":"","type":"uint256","internalType":"uint256"}],"stateMutability":"view"},{"type":"function","name":"registeredNodeIdsByAccount","inputs":[{"name":"","type":"address","internalType":"address"},{"name":"","type":"uint256","internalType":"uint256"}],"outputs":[{"name":"","type":"string","internalType":"string"}],"stateMutability":"view"},{"type":"function","name":"registrationIndicesByNodeId","inputs":[{"name":"","type":"string","internalType":"string"}],"outputs":[{"name":"","type":"uint256","internalType":"uint256"}],"stateMutability":"view"},{"type":"function","name":"registrations","inputs":[{"name":"","type":"uint256","internalType":"uint256"}],"outputs":[{"name":"registerer","type":"address","internalType":"address"},{"name":"nodeId","type":"string","internalType":"string"},{"name":"validationDuration","type":"uint256","internalType":"uint256"},{"name":"feePaid","type":"bool","internalType":"bool"},{"name":"tokenDeposits","type":"tuple","internalType":"struct IgniteStorage.TokenDepositDetails","components":[{"name":"avaxAmount","type":"uint256","internalType":"uint256"},{"name":"token","type":"address","internalType":"address"},{"name":"tokenAmount","type":"uint256","internalType":"uint256"}]},{"name":"rewardAmount","type":"uint256","internalType":"uint256"},{"name":"qiSlashPercentage","type":"uint256","internalType":"uint256"},{"name":"avaxSlashPercentage","type":"uint256","internalType":"uint256"},{"name":"slashed","type":"bool","internalType":"bool"},{"name":"withdrawable","type":"bool","internalType":"bool"}],"stateMutability":"view"},{"type":"function","name":"sAVAX","inputs":[],"outputs":[{"name":"","type":"address","internalType":"contract IStakedAvax"}],"stateMutability":"view"},{"type":"function","name":"totalSubsidisedAmount","inputs":[],"outputs":[{"name":"","type":"uint256","internalType":"uint256"}],"stateMutability":"view"},{"type":"function","name":"validatorRewarder","inputs":[],"outputs":[{"name":"","type":"address","internalType":"contract ValidatorRewarder"}],"stateMutability":"view"}],"userdoc":{},"devdoc":{},"evm":{"bytecode":{"object":"60808060405234601557610904908161001a8239f35b5f80fdfe6080806040526004361015610012575f80fd5b5f3560e01c9081631a753657146106ff575080632576eed1146106e25780633153caeb146106af5780633b722144146105e55780635fa9237a146105c85780635fcd6255146105a057806375e271861461058357806378a66f151461056657806384f826c7146104fd5780638d01d1c5146104e05780639922b43b146104c35780639dcb511a14610483578063a2a5236c1461045b578063bd65581e14610423578063c92f58b214610406578063d0c63d35146103ce578063d9723ea71461039b578063e34df3c11461037e5763f4ddb5be146100ed575f80fd5b3461037a57602036600319011261037a5760043560065481101561037a5760065f52600b027ff652222313e28459528d920b65115c16c04f3efc82aaedc97be59f3f377c0d3f8101546001600160a01b031661016a7ff652222313e28459528d920b65115c16c04f3efc82aaedc97be59f3f377c0d40830161082e565b7ff652222313e28459528d920b65115c16c04f3efc82aaedc97be59f3f377c0d418301549060ff7ff652222313e28459528d920b65115c16c04f3efc82aaedc97be59f3f377c0d42850154169060405194606086019286841067ffffffffffffffff8511176103665760209660ff946040527ff652222313e28459528d920b65115c16c04f3efc82aaedc97be59f3f377c0d43830154815260018060a01b037ff652222313e28459528d920b65115c16c04f3efc82aaedc97be59f3f377c0d44840154168882019081527ff652222313e28459528d920b65115c16c04f3efc82aaedc97be59f3f377c0d4584015490604083019182527ff652222313e28459528d920b65115c16c04f3efc82aaedc97be59f3f377c0d46850154927ff652222313e28459528d920b65115c16c04f3efc82aaedc97be59f3f377c0d47860154946103107ff652222313e28459528d920b65115c16c04f3efc82aaedc97be59f3f377c0d497ff652222313e28459528d920b65115c16c04f3efc82aaedc97be59f3f377c0d48890154980154986101806040519e8f9e8f90815201526101808d01906107f4565b60408c019a909a52151560608b01525160808a0152516001600160a01b031660a08901525160c088015260e0870152610100860152610120850152808216151561014085015260081c1615156101608301520390f35b634e487b7160e01b5f52604160045260245ffd5b5f80fd5b3461037a575f36600319011261037a576020600b54604051908152f35b3461037a57602080806103ad36610744565b604051928184925191829101835e8101600981520301902054604051908152f35b3461037a57602036600319011261037a576001600160a01b036103ef610818565b165f526003602052602060405f2054604051908152f35b3461037a575f36600319011261037a576020600f54604051908152f35b3461037a57602060ff818061043736610744565b604051928184925191829101835e8101601481520301902054166040519015158152f35b3461037a575f36600319011261037a576004546040516001600160a01b039091168152602090f35b3461037a57602036600319011261037a576001600160a01b036104a4610818565b165f526002602052602060018060a01b0360405f205416604051908152f35b3461037a575f36600319011261037a576020601054604051908152f35b3461037a575f36600319011261037a576020600a54604051908152f35b3461037a57604036600319011261037a57610516610818565b6001600160a01b03165f9081526008602052604090208054602435919082101561037a576105629161054e915f5260205f200161082e565b6040519182916020835260208301906107f4565b0390f35b3461037a575f36600319011261037a576020600e54604051908152f35b3461037a575f36600319011261037a576020600c54604051908152f35b3461037a575f36600319011261037a576005546040516001600160a01b039091168152602090f35b3461037a575f36600319011261037a576020600d54604051908152f35b3461037a576020806105f636610744565b604051928184925191829101835e81016012815203019020604051905f90805490610620826107bc565b80855291600181169081156106885750600114610648575b6105628461054e81860382610722565b5f90815260208120939250905b80821061066e5750909150810160200161054e82610638565b919260018160209254838588010152019101909291610655565b60ff191660208087019190915292151560051b8501909201925061054e9150839050610638565b3461037a57602080806106c136610744565b604051928184925191829101835e8101600781520301902054604051908152f35b3461037a575f36600319011261037a576020601154604051908152f35b3461037a575f36600319011261037a576013546001600160a01b03168152602090f35b90601f8019910116810190811067ffffffffffffffff82111761036657604052565b602060031982011261037a5760043567ffffffffffffffff811161037a578160238201121561037a5780600401359067ffffffffffffffff8211610366576040519261079a601f8401601f191660200185610722565b8284526024838301011161037a57815f92602460209301838601378301015290565b90600182811c921680156107ea575b60208310146107d657565b634e487b7160e01b5f52602260045260245ffd5b91607f16916107cb565b805180835260209291819084018484015e5f828201840152601f01601f1916010190565b600435906001600160a01b038216820361037a57565b9060405191825f825492610841846107bc565b80845293600181169081156108ac5750600114610868575b5061086692500383610722565b565b90505f9291925260205f20905f915b818310610890575050906020610866928201015f610859565b6020919350806001915483858901015201910190918492610877565b90506020925061086694915060ff191682840152151560051b8201015f61085956fea2646970667358221220e54f3e78dc84b7b8610c2bb61cf06109a10fce66a32625ab412c57ae9fb7f2cd64736f6c634300081c0033","linkReferences":{}},"methodIdentifiers":{"accountRegistrationIndicesByNodeId(string)":"d9723ea7","avaxSlashPercentage()":"5fa9237a","blsProofOfPossessionByNodeId(string)":"3b722144","maxPriceAges(address)":"d0c63d35","maximumAvaxDeposit()":"9922b43b","maximumSubsidisationAmount()":"e34df3c1","minimumAvaxDeposit()":"c92f58b2","minimumContractBalance()":"78a66f15","priceFeeds(address)":"9dcb511a","qi()":"5fcd6255","qiPriceMultiplier()":"2576eed1","qiRewardEligibilityByNodeId(string)":"bd65581e","qiSlashPercentage()":"75e27186","registeredNodeIdsByAccount(address,uint256)":"84f826c7","registrationIndicesByNodeId(string)":"3153caeb","registrations(uint256)":"f4ddb5be","sAVAX()":"a2a5236c","totalSubsidisedAmount()":"8d01d1c5","validatorRewarder()":"1a753657"}}}}}