{"src/ValidatorRewarder.sol":{"ValidatorRewarder":{"abi":[{"type":"constructor","inputs":[],"stateMutability":"nonpayable"},{"type":"function","name":"DEFAULT_ADMIN_ROLE","inputs":[],"outputs":[{"name":"","type":"bytes32","internalType":"bytes32"}],"stateMutability":"view"},{"type":"function","name":"ROLE_PAUSE","inputs":[],"outputs":[{"name":"","type":"bytes32","internalType":"bytes32"}],"stateMutability":"view"},{"type":"function","name":"ROLE_UNPAUSE","inputs":[],"outputs":[{"name":"","type":"bytes32","internalType":"bytes32"}],"stateMutability":"view"},{"type":"function","name":"ROLE_WITHDRAW","inputs":[],"outputs":[{"name":"","type":"bytes32","internalType":"bytes32"}],"stateMutability":"view"},{"type":"function","name":"calculateRewardAmount","inputs":[{"name":"validationDuration","type":"uint256","internalType":"uint256"},{"name":"stakeAmount","type":"uint256","internalType":"uint256"}],"outputs":[{"name":"","type":"uint256","internalType":"uint256"}],"stateMutability":"view"},{"type":"function","name":"claimRewards","inputs":[{"name":"validationDuration","type":"uint256","internalType":"uint256"},{"name":"stakeAmount","type":"uint256","internalType":"uint256"}],"outputs":[{"name":"","type":"uint256","internalType":"uint256"}],"stateMutability":"nonpayable"},{"type":"function","name":"getRoleAdmin","inputs":[{"name":"role","type":"bytes32","internalType":"bytes32"}],"outputs":[{"name":"","type":"bytes32","internalType":"bytes32"}],"stateMutability":"view"},{"type":"function","name":"grantRole","inputs":[{"name":"role","type":"bytes32","internalType":"bytes32"},{"name":"account","type":"address","internalType":"address"}],"outputs":[],"stateMutability":"nonpayable"},{"type":"function","name":"hasRole","inputs":[{"name":"role","type":"bytes32","internalType":"bytes32"},{"name":"account","type":"address","internalType":"address"}],"outputs":[{"name":"","type":"bool","internalType":"bool"}],"stateMutability":"view"},{"type":"function","name":"ignite","inputs":[],"outputs":[{"name":"","type":"address","internalType":"address"}],"stateMutability":"view"},{"type":"function","name":"initialize","inputs":[{"name":"_qi","type":"address","internalType":"address"},{"name":"_ignite","type":"address","internalType":"address"},{"name":"_targetApr","type":"uint256","internalType":"uint256"},{"name":"_admin","type":"address","internalType":"address"}],"outputs":[],"stateMutability":"nonpayable"},{"type":"function","name":"pause","inputs":[],"outputs":[],"stateMutability":"nonpayable"},{"type":"function","name":"paused","inputs":[],"outputs":[{"name":"","type":"bool","internalType":"bool"}],"stateMutability":"view"},{"type":"function","name":"qi","inputs":[],"outputs":[{"name":"","type":"address","internalType":"contract IERC20Upgradeable"}],"stateMutability":"view"},{"type":"function","name":"renounceRole","inputs":[{"name":"role","type":"bytes32","internalType":"bytes32"},{"name":"account","type":"address","internalType":"address"}],"outputs":[],"stateMutability":"nonpayable"},{"type":"function","name":"revokeRole","inputs":[{"name":"role","type":"bytes32","internalType":"bytes32"},{"name":"account","type":"address","internalType":"address"}],"outputs":[],"stateMutability":"nonpayable"},{"type":"function","name":"setTargetApr","inputs":[{"name":"newTargetApr","type":"uint256","internalType":"uint256"}],"outputs":[],"stateMutability":"nonpayable"},{"type":"function","name":"supportsInterface","inputs":[{"name":"interfaceId","type":"bytes4","internalType":"bytes4"}],"outputs":[{"name":"","type":"bool","internalType":"bool"}],"stateMutability":"view"},{"type":"function","name":"targetApr","inputs":[],"outputs":[{"name":"","type":"uint256","internalType":"uint256"}],"stateMutability":"view"},{"type":"function","name":"unpause","inputs":[],"outputs":[],"stateMutability":"nonpayable"},{"type":"function","name":"withdraw","inputs":[{"name":"amount","type":"uint256","internalType":"uint256"}],"outputs":[],"stateMutability":"nonpayable"},{"type":"event","name":"ClaimRewards","inputs":[{"name":"amount","type":"uint256","indexed":false,"internalType":"uint256"}],"anonymous":false},{"type":"event","name":"Initialized","inputs":[{"name":"version","type":"uint8","indexed":false,"internalType":"uint8"}],"anonymous":false},{"type":"event","name":"NewTargetApr","inputs":[{"name":"oldTargetApr","type":"uint256","indexed":false,"internalType":"uint256"},{"name":"newTargetApr","type":"uint256","indexed":false,"internalType":"uint256"}],"anonymous":false},{"type":"event","name":"Paused","inputs":[{"name":"account","type":"address","indexed":false,"internalType":"address"}],"anonymous":false},{"type":"event","name":"RoleAdminChanged","inputs":[{"name":"role","type":"bytes32","indexed":true,"internalType":"bytes32"},{"name":"previousAdminRole","type":"bytes32","indexed":true,"internalType":"bytes32"},{"name":"newAdminRole","type":"bytes32","indexed":true,"internalType":"bytes32"}],"anonymous":false},{"type":"event","name":"RoleGranted","inputs":[{"name":"role","type":"bytes32","indexed":true,"internalType":"bytes32"},{"name":"account","type":"address","indexed":true,"internalType":"address"},{"name":"sender","type":"address","indexed":true,"internalType":"address"}],"anonymous":false},{"type":"event","name":"RoleRevoked","inputs":[{"name":"role","type":"bytes32","indexed":true,"internalType":"bytes32"},{"name":"account","type":"address","indexed":true,"internalType":"address"},{"name":"sender","type":"address","indexed":true,"internalType":"address"}],"anonymous":false},{"type":"event","name":"Unpaused","inputs":[{"name":"account","type":"address","indexed":false,"internalType":"address"}],"anonymous":false},{"type":"event","name":"Withdraw","inputs":[{"name":"amount","type":"uint256","indexed":false,"internalType":"uint256"}],"anonymous":false},{"type":"error","name":"Unauthorized","inputs":[]}],"userdoc":{},"devdoc":{},"evm":{"bytecode":{"object":"6080806040523460bb575f549060ff8260081c166069575060ff808216106030575b60405161108790816100c08239f35b60ff90811916175f557f7f26b83ff96e1f2b6a682f133852f6798a09c465da95921460cefb3847402498602060405160ff8152a15f6021565b62461bcd60e51b815260206004820152602760248201527f496e697469616c697a61626c653a20636f6e747261637420697320696e697469604482015266616c697a696e6760c81b6064820152608490fd5b5f80fdfe6080806040526004361015610012575f80fd5b5f3560e01c90816301ffc9a7146109ae575080631e257a0414610995578063248a9ca3146109625780632e1a7d4d146108d55780632f2ff15d1461081c57806336568abe1461078a5780633f4ba83a146106c95780634b7e23dc1461068f5780634ff0241a14610655578063594dd432146105d65780635c975abb146105b45780635fcd62551461058c5780638456cb591461050557806391d14854146104bc578063a0e8cf061461042c578063a217fddf14610412578063be203094146101cb578063d547741f14610186578063d964c25a1461014c578063e598b45d1461012f5763f768923a14610103575f80fd5b3461012b575f36600319011261012b5760ca546040516001600160a01b039091168152602090f35b5f80fd5b3461012b575f36600319011261012b57602060cb54604051908152f35b3461012b575f36600319011261012b5760206040517f8a8d1de1c18abb94a793a1c642e9153de53c830daa68b212d4eb80a0fed540518152f35b3461012b57604036600319011261012b576101c96004356101a5610a17565b906101c46101bf825f526065602052600160405f20015490565b610bef565b610e44565b005b3461012b57608036600319011261012b576004356001600160a01b0381169081900361012b576101f9610a17565b6064356001600160a01b038116929083900361012b575f549260ff8460081c161593848095610405575b80156103ee575b156103925760ff1981166001175f5584610381575b5061026260ff5f5460081c1661025481610f09565b61025d81610f09565b610f09565b6097805460ff191690555f8181527fffdfc1249c027f9191656349feb0761381bb32c9f557e01f419fd08754bf5a1b602052604090205460ff161561031d575b506bffffffffffffffffffffffff60a01b60c954161760c95560018060a01b03166bffffffffffffffffffffffff60a01b60ca54161760ca5560443560cb556102e757005b61ff00195f54165f557f7f26b83ff96e1f2b6a682f133852f6798a09c465da95921460cefb3847402498602060405160018152a1005b5f8181527fffdfc1249c027f9191656349feb0761381bb32c9f557e01f419fd08754bf5a1b60205260408120805460ff191660011790553391907f2f8788117e7eff1d82e926ec794901d17c78024a50270940304540a733656f0d8180a4836102a2565b61ffff1916610101175f558461023f565b60405162461bcd60e51b815260206004820152602e60248201527f496e697469616c697a61626c653a20636f6e747261637420697320616c72656160448201526d191e481a5b9a5d1a585b1a5e995960921b6064820152608490fd5b50303b15801561022a5750600160ff82161461022a565b50600160ff821610610223565b3461012b575f36600319011261012b5760206040515f8152f35b3461012b57602036600319011261012b57335f9081527fffdfc1249c027f9191656349feb0761381bb32c9f557e01f419fd08754bf5a1b60205260409020546004359060ff16156104ae577febef161b9cbd9ec08b3433611b0382233f383387a4a8fbd5885a16818aa1ac12604060cb548151908152836020820152a160cb55005b6282b42960e81b5f5260045ffd5b3461012b57604036600319011261012b576104d5610a17565b6004355f52606560205260405f209060018060a01b03165f52602052602060ff60405f2054166040519015158152f35b3461012b575f36600319011261012b57335f9081527f384d140b626ac4c73e12cbde6200a05a8aeeab694fa3418c8bb84d4b449fa0c8602052604090205460ff16156104ae57610553610ec5565b600160ff1960975416176097557f62e78cea01bee320cd4e420270b5ea74000d11b0c9f74754ebdbfc544b05a2586020604051338152a1005b3461012b575f36600319011261012b5760c9546040516001600160a01b039091168152602090f35b3461012b575f36600319011261012b57602060ff609754166040519015158152f35b3461012b576105e436610a01565b906105ed610ec5565b60ca546001600160a01b031633036104ae5760209161060b91610a54565b60c95461062490829033906001600160a01b0316610ab3565b7fbacfa9662d479c707dae707c358323f0c7711ef382007957dc9935e629da36b282604051838152a1604051908152f35b3461012b575f36600319011261012b5760206040517ff146182d150a5b368b6d283f87aeae1f25c21b02ff55cf16848704ade176a5cb8152f35b3461012b575f36600319011261012b5760206040517f0f9dd4db10c87ffcc337f44200a5df16e545591d09c12f63c158b3d592fcf1888152f35b3461012b575f36600319011261012b57335f9081527f384d140b626ac4c73e12cbde6200a05a8aeeab694fa3418c8bb84d4b449fa0c8602052604090205460ff16156104ae5760975460ff81161561074e5760ff19166097557f5db9ee0a495bf2e6ff9c91a7834c1ba4fdd244a5e8aa4e537bd38aeae4b073aa6020604051338152a1005b60405162461bcd60e51b815260206004820152601460248201527314185d5cd8589b194e881b9bdd081c185d5cd95960621b6044820152606490fd5b3461012b57604036600319011261012b576107a3610a17565b336001600160a01b038216036107bf576101c990600435610e44565b60405162461bcd60e51b815260206004820152602f60248201527f416363657373436f6e74726f6c3a2063616e206f6e6c792072656e6f756e636560448201526e103937b632b9903337b91039b2b63360891b6064820152608490fd5b3461012b57604036600319011261012b57600435610838610a17565b906108526101bf825f526065602052600160405f20015490565b805f52606560205260405f2060018060a01b0383165f5260205260ff60405f2054161561087b57005b5f8181526065602090815260408083206001600160a01b0395909516808452949091528120805460ff19166001179055339291907f2f8788117e7eff1d82e926ec794901d17c78024a50270940304540a733656f0d9080a4005b3461012b57602036600319011261012b57335f9081527f3d2173f3f4867b524d3e5d3539c8eb468493ae0e0d3bbc3dda942c4ef1c1a48760205260409020546004359060ff16156104ae576020816109597f5b6b431d4476a211bb7d41c20d1aab9ae2321deee0d20be3d9fc9b1093fa6e3d933360018060a01b0360c95416610ab3565b604051908152a1005b3461012b57602036600319011261012b57602061098d6004355f526065602052600160405f20015490565b604051908152f35b3461012b57602061098d6109a836610a01565b90610a54565b3461012b57602036600319011261012b576004359063ffffffff60e01b821680920361012b57602091637965db0b60e01b81149081156109f0575b5015158152f35b6301ffc9a760e01b149050836109e9565b604090600319011261012b576004359060243590565b602435906001600160a01b038216820361012b57565b81810292918115918404141715610a4057565b634e487b7160e01b5f52601160045260245ffd5b603c80612710610a75601894610a7061016d9760cb5490610a2d565b610a2d565b040404040490565b90601f8019910116810190811067ffffffffffffffff821117610a9f57604052565b634e487b7160e01b5f52604160045260245ffd5b905f80610b64949360405194602086019463a9059cbb60e01b865260018060a01b03166024870152604486015260448552610aef606486610a7d565b60018060a01b03169260405194610b07604087610a7d565b602086527f5361666545524332303a206c6f772d6c6576656c2063616c6c206661696c65646020870152519082855af13d15610be7573d91610b4883610f69565b92610b566040519485610a7d565b83523d5f602085013e610fc0565b805180610b6f575050565b816020918101031261012b576020015180159081150361012b57610b8f57565b60405162461bcd60e51b815260206004820152602a60248201527f5361666545524332303a204552433230206f7065726174696f6e20646964206e6044820152691bdd081cdd58d8d9595960b21b6064820152608490fd5b606091610fc0565b5f81815260656020908152604080832033845290915290205460ff1615610c135750565b33610c1e602a610f69565b91610c2c6040519384610a7d565b602a8352610c3a602a610f69565b602084019290601f1901368437835115610def5760308353835160011015610def576078602185015360295b60018111610e035750610d6a57610c7d6042610f69565b90610c8b6040519283610a7d565b60428252610c996042610f69565b602083019190601f1901368337825115610def5760308253825160011015610def576078602184015360415b60018111610dae5750610d6a57610d6693603760119284610d4e95506040519687947f416363657373436f6e74726f6c3a206163636f756e742000000000000000000060208701525180918587015e8401907001034b99036b4b9b9b4b733903937b6329607d1b84830152518092604883015e01015f838201520301601f198101835282610a7d565b60405162461bcd60e51b815291829160048301610f85565b0390fd5b606460405162461bcd60e51b815260206004820152602060248201527f537472696e67733a20686578206c656e67746820696e73756666696369656e746044820152fd5b90600f81166010811015610def576f181899199a1a9b1b9c1cb0b131b232b360811b901a610ddc8386610faf565b5360041c908015610a40575f1901610cc5565b634e487b7160e01b5f52603260045260245ffd5b90600f81166010811015610def576f181899199a1a9b1b9c1cb0b131b232b360811b901a610e318387610faf565b5360041c908015610a40575f1901610c66565b805f52606560205260405f2060018060a01b0383165f5260205260ff60405f205416610e6e575050565b5f8181526065602090815260408083206001600160a01b0395909516808452949091528120805460ff19169055339291907ff6391f5c32d9c69d2a47ea670b442974b53935d1edc7fd64eb21e047a839171b9080a4565b60ff60975416610ed157565b60405162461bcd60e51b815260206004820152601060248201526f14185d5cd8589b194e881c185d5cd95960821b6044820152606490fd5b15610f1057565b60405162461bcd60e51b815260206004820152602b60248201527f496e697469616c697a61626c653a20636f6e7472616374206973206e6f74206960448201526a6e697469616c697a696e6760a81b6064820152608490fd5b67ffffffffffffffff8111610a9f57601f01601f191660200190565b602060409281835280519182918282860152018484015e5f828201840152601f01601f1916010190565b908151811015610def570160200190565b919290156110225750815115610fd4575090565b3b15610fdd5790565b60405162461bcd60e51b815260206004820152601d60248201527f416464726573733a2063616c6c20746f206e6f6e2d636f6e74726163740000006044820152606490fd5b8251909150156110355750805190602001fd5b60405162461bcd60e51b8152908190610d669060048301610f8556fea2646970667358221220dc62a8306972d6e57dd54f9786e2f86c2fbb2c9cd5ee9fd8749a4ddc42c25ba464736f6c634300081c0033","linkReferences":{}},"methodIdentifiers":{"DEFAULT_ADMIN_ROLE()":"a217fddf","ROLE_PAUSE()":"4ff0241a","ROLE_UNPAUSE()":"d964c25a","ROLE_WITHDRAW()":"4b7e23dc","calculateRewardAmount(uint256,uint256)":"1e257a04","claimRewards(uint256,uint256)":"594dd432","getRoleAdmin(bytes32)":"248a9ca3","grantRole(bytes32,address)":"2f2ff15d","hasRole(bytes32,address)":"91d14854","ignite()":"f768923a","initialize(address,address,uint256,address)":"be203094","pause()":"8456cb59","paused()":"5c975abb","qi()":"5fcd6255","renounceRole(bytes32,address)":"36568abe","revokeRole(bytes32,address)":"d547741f","setTargetApr(uint256)":"a0e8cf06","supportsInterface(bytes4)":"01ffc9a7","targetApr()":"e598b45d","unpause()":"3f4ba83a","withdraw(uint256)":"2e1a7d4d"}}}}}