{"test/chiemara/CryticTester.sol":{"CryticTester":{"abi":[{"type":"constructor","inputs":[],"stateMutability":"payable"},{"type":"function","name":"VALIDATION_DURATION_EIGHT_WEEKS","inputs":[],"outputs":[{"name":"","type":"uint256","internalType":"uint256"}],"stateMutability":"view"},{"type":"function","name":"VALIDATION_DURATION_FOUR_WEEKS","inputs":[],"outputs":[{"name":"","type":"uint256","internalType":"uint256"}],"stateMutability":"view"},{"type":"function","name":"VALIDATION_DURATION_TWELVE_WEEKS","inputs":[],"outputs":[{"name":"","type":"uint256","internalType":"uint256"}],"stateMutability":"view"},{"type":"function","name":"VALIDATION_DURATION_TWO_WEEKS","inputs":[],"outputs":[{"name":"","type":"uint256","internalType":"uint256"}],"stateMutability":"view"},{"type":"function","name":"amountArr","inputs":[{"name":"","type":"uint256","internalType":"uint256"}],"outputs":[{"name":"","type":"uint256","internalType":"uint256"}],"stateMutability":"view"},{"type":"function","name":"blsKey","inputs":[],"outputs":[{"name":"","type":"bytes","internalType":"bytes"}],"stateMutability":"view"},{"type":"function","name":"blsPoP","inputs":[],"outputs":[{"name":"","type":"bytes","internalType":"bytes"}],"stateMutability":"view"},{"type":"function","name":"blsSignature","inputs":[],"outputs":[{"name":"","type":"bytes","internalType":"bytes"}],"stateMutability":"view"},{"type":"function","name":"boundValue","inputs":[{"name":"value","type":"uint256","internalType":"uint256"},{"name":"min","type":"uint256","internalType":"uint256"},{"name":"max","type":"uint256","internalType":"uint256"}],"outputs":[{"name":"","type":"uint256","internalType":"uint256"}],"stateMutability":"pure"},{"type":"function","name":"durations","inputs":[{"name":"","type":"uint256","internalType":"uint256"}],"outputs":[{"name":"","type":"uint256","internalType":"uint256"}],"stateMutability":"view"},{"type":"function","name":"echidna_check_eth_balance","inputs":[],"outputs":[{"name":"","type":"bool","internalType":"bool"}],"stateMutability":"view"},{"type":"function","name":"echidna_check_qi_balance","inputs":[],"outputs":[{"name":"","type":"bool","internalType":"bool"}],"stateMutability":"view"},{"type":"function","name":"qiPriceMultiplier","inputs":[],"outputs":[{"name":"","type":"uint256","internalType":"uint256"}],"stateMutability":"view"},{"type":"function","name":"register_With_Avax_Fee","inputs":[{"name":"userIndex","type":"uint256","internalType":"uint256"},{"name":"validationDurationIndex","type":"uint256","internalType":"uint256"},{"name":"nodeId","type":"uint256","internalType":"uint256"}],"outputs":[],"stateMutability":"nonpayable"},{"type":"function","name":"register_With_Erc20_Fee","inputs":[{"name":"userIndex","type":"uint256","internalType":"uint256"},{"name":"nodeId","type":"uint256","internalType":"uint256"},{"name":"validationDurationIndex","type":"uint256","internalType":"uint256"}],"outputs":[],"stateMutability":"nonpayable"},{"type":"function","name":"register_With_Prevalidated_QiStake","inputs":[{"name":"userIndex","type":"uint256","internalType":"uint256"},{"name":"nodeId","type":"uint256","internalType":"uint256"},{"name":"validationDurationIndex","type":"uint256","internalType":"uint256"}],"outputs":[],"stateMutability":"nonpayable"},{"type":"function","name":"register_With_Stake","inputs":[{"name":"userIndex","type":"uint256","internalType":"uint256"},{"name":"amountIndex","type":"uint256","internalType":"uint256"},{"name":"nodeId","type":"uint256","internalType":"uint256"},{"name":"validationDurationIndex","type":"uint256","internalType":"uint256"}],"outputs":[],"stateMutability":"nonpayable"},{"type":"function","name":"register_Without_Collateral","inputs":[{"name":"userIndex","type":"uint256","internalType":"uint256"},{"name":"nodeId","type":"uint256","internalType":"uint256"},{"name":"validationDurationIndex","type":"uint256","internalType":"uint256"}],"outputs":[],"stateMutability":"nonpayable"},{"type":"function","name":"withdraw_eth","inputs":[{"name":"amount","type":"uint256","internalType":"uint256"}],"outputs":[],"stateMutability":"nonpayable"},{"type":"event","name":"Log","inputs":[{"name":"","type":"string","indexed":false,"internalType":"string"}],"anonymous":false},{"type":"event","name":"LogUint","inputs":[{"name":"","type":"uint256","indexed":false,"internalType":"uint256"}],"anonymous":false}],"userdoc":{},"devdoc":{},"evm":{"bytecode":{"object":"60806040525f80546001600160a01b031916632345764317815560025461002590611285565b601f811161123c575b50606160029081555f527f8d609cdd38ffc9ad01c91d1ae4fccb8cd6c75a6ad33a401da42283b0c3b59bba5f5160206193175f395f51905f52556ff5abc172335ea4d9c31baa936818f0ab60801b7f405787fa12a823e0f2b7631cc41b3ba8828b3321ca811111fa75cd3aa3bb5acf556003546100aa90611285565b601f81116111f3575b5060c160039081555f9081527f8c12c805e7dfe4bfe38be44685ee852d931d73b3c0820a1343d731909120cee45f5160206193375f395f51905f52557f895f9b60990520a90d06a031a42e0f8616d415b543408c24be0da90d5e7fa8247fc2575a0e9e593c00f959f8c92f12db2869c3395a3b0502d05e2516446f71f85c557f2f4fd32dadf34c790996ca474dbdbcd763f82c53880db19fd3b30d13cee278b47fc2575a0e9e593c00f959f8c92f12db2869c3395a3b0502d05e2516446f71f85d556040516002549092919061018881611285565b90600181169081156111d85750600114611196575b50825f600354926101ad84611285565b936001811690811561117e575060011461113a575b506101d6925003601f1981018452836112d3565b81516001600160401b038111610fee576101f1600454611285565b601f81116110e1575b50602092601f821160011461108057928192935f92611075575b50508160011b915f199060031b1c1916176004555b612710600c5560405161028081016001600160401b03811182821017610fee5760405268015af1d78b58c4000081526802b5e3af16b18800006020820152680410d586a20a4c0000604082015268056bc75e2d6310000060608201526806c6b935b8bbd400006080820152680821ab0d441498000060a082015268097c9ce4cf6d5c000060c0820152680ad78ebc5ac620000060e0820152680c328093e61ee40000610100820152680d8d726b7177a80000610120820152680ee86442fcd06c0000610140820152681043561a882930000061016082015268119e47f21381f400006101808201526812f939c99edab800006101a08201526814542ba12a337c00006101c08201526815af1d78b58c4000006101e082015268170a0f5040e50400006102008201526818650127cc3dc800006102208201526819bff2ff57968c0000610240820152681b1ae4d6e2ef500000610260820152600e546014600e558060141061101f575b50600e5f5260205f20905f5b60148110611002578360015468010000000000000000811015610fee578060016103cd92016001556001611322565b81546001600160a01b0360039290921b91821b191660019182901b179091555468010000000000000000811015610fee5780600161041092016001556001611322565b81546001600160a01b0360039290921b91821b1916600290911b17905560015468010000000000000000811015610fee5780600161045392016001556001611322565b8154600391821b91821b6001600160a01b039283901b19909116179091555f54165f5160206192f75f395f51905f523b15610fea576040519063ca669fa760e01b825260048201525f81602481835f5160206192f75f395f51905f525af18015610fdf57610fcc575b5060405161013990818101906001600160401b03821181831017610f5057602081612a7a9385858339620f4240815203019084f08015610ac557600880546001600160a01b0319166001600160a01b0392831617905583548491165f5160206192f75f395f51905f523b15610ab5576040519063ca669fa760e01b825260048201528181602481835f5160206192f75f395f51905f525af18015610ae557610fb7575b505060405191808301916001600160401b03831184841017610fa35791839160209383396377359400815203019082f08015610f4357600980546001600160a01b0319166001600160a01b0392831617905581548291165f5160206192f75f395f51905f523b15610eba576040519063ca669fa760e01b825260048201528181602481835f5160206192f75f395f51905f525af18015610ae557610f8e575b50506040516080808201906001600160401b03821183831017610f5057908291612bb38339039082f08015610f4357600780546001600160a01b0319166001600160a01b0392831617905581548291165f5160206192f75f395f51905f523b15610eba576040519063ca669fa760e01b825260048201528181602481835f5160206192f75f395f51905f525af18015610ae557610f79575b5050604051610d15808201906001600160401b03821183831017610f505760e0918391612c33833960608152600560608201526442454e514960d81b608082015260a06020820152600260a082015261514960f01b60c08201526012604082015203019082f08015610f4357600680546001600160a01b0319166001600160a01b0392831617905581548291165f5160206192f75f395f51905f523b15610eba576040519063ca669fa760e01b825260048201528181602481835f5160206192f75f395f51905f525af18015610ae557610f64575b50506040516159af808201906001600160401b03821183831017610f50579082916139488339039082f08015610f4357600580546001600160a01b0319166001600160a01b0392831617905581548291165f5160206192f75f395f51905f523b15610eba576040519063ca669fa760e01b825260048201528181602481835f5160206192f75f395f51905f525af18015610ae557610f2e575b506005546007546006546009546008546001600160a01b039182169490821693928216929082169116813b15610f2a5785610104928195604051978896879563568c786d60e11b875260048701526024860152604485015262015180606485015260848401526201518060a484015268015af1d78b58c4000060c4840152685150ae84a8cdf0000060e48401525af18015610ae557610f15575b505b600154811015610b2f57816108b4826112f6565b905460039190911b1c6001600160a01b03165f5160206192f75f395f51905f523b15610ab5576040519063ca669fa760e01b825260048201528181602481835f5160206192f75f395f51905f525af18015610ae557610b1a575b506006546001600160a01b0316803b15610ab55781809160246040518094819363140e25ad60e31b83526e01ed09bead87c0378d8e640000000060048401525af18015610ae557610b05575b50610964826112f6565b905460039190911b1c6001600160a01b03165f5160206192f75f395f51905f523b15610ab5576040519063c88a5e6d60e01b825260048201526e01ed09bead87c0378d8e640000000060248201528181604481835f5160206192f75f395f51905f525af18015610ae557610af0575b506109dd826112f6565b905460039190911b1c6001600160a01b03165f5160206192f75f395f51905f523b15610ab5576040519063ca669fa760e01b825260048201528181602481835f5160206192f75f395f51905f525af18015610ae557610ad0575b5060065460055460405163095ea7b360e01b81526001600160a01b0391821660048201525f19602482015292602092849260449284929091165af18015610ac557610a86575b506001016108a0565b6020813d8211610abd575b81610a9e602093836112d3565b81010312610ab9575180151503610ab55782610a7d565b5080fd5b8280fd5b3d9150610a91565b6040513d85823e3d90fd5b81610ada916112d3565b610ab5578183610a37565b6040513d84823e3d90fd5b81610afa916112d3565b610ab55781836109d3565b81610b0f916112d3565b610ab557818361095a565b81610b24916112d3565b610ab557818361090e565b50805481906001600160a01b03165f5160206192f75f395f51905f523b15610eba576040519063ca669fa760e01b825260048201528181602481835f5160206192f75f395f51905f525af18015610ae557610f00575b5060055481546001600160a01b039182169116813b15610ed2578291604483926040519485938492632f2ff15d60e01b84527f0f9dd4db10c87ffcc337f44200a5df16e545591d09c12f63c158b3d592fcf188600485015260248401525af18015610ae557610eeb575b5080546001600160a01b03165f5160206192f75f395f51905f523b15610eba576040519063ca669fa760e01b825260048201528181602481835f5160206192f75f395f51905f525af18015610ae557610ed6575b5060055481546001600160a01b039182169116813b15610ed2578291604483926040519485938492632f2ff15d60e01b84527fbb4ab89723950398fbe0f1fe11ab060da193cf1f8b664c9831ac485bec8c6ca9600485015260248401525af18015610ae557610ebd575b5080546001600160a01b03165f5160206192f75f395f51905f523b15610eba576040519063ca669fa760e01b825260048201528181602481835f5160206192f75f395f51905f525af18015610ae557610ea5575b506005546006546008546001600160a01b03928316929182169116823b15610ea05760648492836040519586948593631cae628960e11b8552600485015260248401526201518060448401525af18015610ae557610e88575b5050600d5468010000000000000000811015610e7457806001610d829201600d55600d611322565b81549060031b9062127500821b915f19901b1916179055600d5468010000000000000000811015610e7457806001610dbf9201600d55600d611322565b81549060031b906224ea00821b915f19901b1916179055600d5468010000000000000000811015610e7457806001610dfc9201600d55600d611322565b81549060031b906249d400821b915f19901b1916179055600d549068010000000000000000821015610e6057610e3a8260018101600d55600d611322565b81549060031b90626ebe00821b915f19901b191617905560405161174290816113388239f35b634e487b7160e01b81526041600452602490fd5b634e487b7160e01b82526041600452602482fd5b81610e92916112d3565b610e9d578082610d5a565b80fd5b505050fd5b81610eaf916112d3565b610e9d578082610d01565b50fd5b81610ec7916112d3565b610e9d578082610cad565b5050fd5b81610ee0916112d3565b610e9d578082610c43565b81610ef5916112d3565b610e9d578082610bef565b81610f0a916112d3565b610e9d578082610b85565b81610f1f916112d3565b610e9d57808261089e565b8580fd5b81610f38916112d3565b610e9d578082610804565b50604051903d90823e3d90fd5b634e487b7160e01b84526041600452602484fd5b81610f6e916112d3565b610e9d57808261076b565b81610f83916112d3565b610e9d578082610696565b81610f98916112d3565b610e9d5780826105fe565b634e487b7160e01b85526041600452602485fd5b81610fc1916112d3565b610ab957828461055f565b610fd891505f906112d3565b5f816104bc565b6040513d5f823e3d90fd5b5f80fd5b634e487b7160e01b5f52604160045260245ffd5b81516001600160481b03168184015560209091019060010161039e565b600e5f5261106f907fbb7b4a454dc3493923482f07822329ed19e8244eff582cc204f8554c3620c3fd017fbb7b4a454dc3493923482f07822329ed19e8244eff582cc204f8554c3620c4116112bd565b5f610392565b015190505f80610214565b601f1982169360045f52805f20915f5b8681106110c957508360019596106110b1575b505050811b01600455610229565b01515f1960f88460031b161c191690555f80806110a3565b91926020600181928685015181550194019201611090565b60045f5261112a907f8a35acfbc15ff81a39ae7d344fd709f28e8600b4aa8c65c6b64bfe7fe36bd19b601f840160051c81019160208510611130575b601f0160051c01906112bd565b5f6101fa565b909150819061111d565b60035f9081529091505f5160206193375f395f51905f525b848210611167575050916101d692015f6101c2565b805482840152869350602090910190600101611152565b60ff19168252506101d693801515020190505f6101c2565b60025f9081529091505f5160206193175f395f51905f525b8282106111c257505082016020015f61019d565b60018160209254838589010152019101906111ae565b90506020925060ff191682850152801515028301015f61019d565b60035f5261123690601f0160051c5f5160206193375f395f51905f52017fc2575a0e9e593c00f959f8c92f12db2869c3395a3b0502d05e2516446f71f85e6112bd565b5f6100b3565b60025f5261127f90601f0160051c5f5160206193175f395f51905f52017f405787fa12a823e0f2b7631cc41b3ba8828b3321ca811111fa75cd3aa3bb5ad06112bd565b5f61002e565b90600182811c921680156112b3575b602083101461129f57565b634e487b7160e01b5f52602260045260245ffd5b91607f1691611294565b8181106112c8575050565b5f81556001016112bd565b601f909101601f19168101906001600160401b03821190821017610fee57604052565b60015481101561130e5760015f5260205f2001905f90565b634e487b7160e01b5f52603260045260245ffd5b805482101561130e575f5260205f2001905f9056fe60806040526004361015610011575f80fd5b5f5f3560e01c806303a9b9c9146111485780632576eed11461112a5780632dbecc1a1461110c57806330a95e6714610f4357806332e9aa8c14610f185780634bcad6f214610efa5780634e7320ce14610e545780635406509814610ccd57806354d1087c14610a815780638079336c14610a63578063846f81c514610a2c57806386b11036146106dc578063bb15ab1b1461063e578063bc20a7af14610604578063ce339923146105e6578063cf2f00af14610540578063ede3294314610512578063f9bf45531461042f5763faec5be3146100eb575f80fd5b346103765760803660031901126103765780600e549161041b57610111826024356116e2565b61011f6001546004356116e2565b5f9061016261014a61013d610138600d546064356116e2565b6114be565b90549060031b1c926114ea565b905460039190911b1c6001600160a01b031693611502565b90549060031b1c600460a0600180821b036009541660405192838092633fabe5a360e21b82525afa801561039e576004915f916103f7575b50600854604051633fabe5a360e21b81529260a09184919082906001600160a01b03165afa91821561039e575f926103c1575b5082686c6b935b8bbd40000003686c6b935b8bbd40000081116103ad5761020b926101fd61020292600a946115f8565b61160b565b04600b54611629565b600b5561021a81600a54611629565b600a555f5160206116ed5f395f51905f523b156103a9576040519363ca669fa760e01b855260048501525f84602481835f5160206116ed5f395f51905f525af1801561039e57610388575b82935060018060a01b03600554169060405191664e6f646549442d60c81b602084015260443560278401526027835261029f604784611552565b803b15610384576102d46102e592869460405196879586948593637d1aacad60e01b8552606060048601526064850190611588565b838103600319016024850152611636565b90604483015203925af1801561037957610361575b507f0ac68d08c5119b8cdb4058edbf0d4168f208ec3935d26a8f1f0d92eb9d4de8bf6020600a54604051908152a17f0ac68d08c5119b8cdb4058edbf0d4168f208ec3935d26a8f1f0d92eb9d4de8bf602060018060a01b036005541631604051908152a180f35b8161036b91611552565b6103765780826102fa565b80fd5b6040513d84823e3d90fd5b8480fd5b9150915f61039591611552565b5f908290610265565b6040513d5f823e3d90fd5b5f80fd5b634e487b7160e01b5f52601160045260245ffd5b6103e491925060a03d60a0116103f0575b6103dc8183611552565b8101906115c3565b505050905090866101cd565b503d6103d2565b610410915060a03d60a0116103f0576103dc8183611552565b50505090508661019a565b634e487b7160e01b81526011600452602490fd5b50346103765780600319360112610376576040515f6004546104508161151a565b80845290600181169081156104ee5750600114610490575b61048c8361047881850382611552565b604051918291602083526020830190611588565b0390f35b60045f9081527f8a35acfbc15ff81a39ae7d344fd709f28e8600b4aa8c65c6b64bfe7fe36bd19b939250905b8082106104d457509091508101602001610478610468565b9192600181602092548385880101520191019092916104bc565b60ff191660208086019190915291151560051b840190910191506104789050610468565b5034610376578060031936011261037657600554600a546040516001600160a01b0390921631148152602090f35b50346103765780600319360112610376576040515f6002546105618161151a565b80845290600181169081156104ee57506001146105885761048c8361047881850382611552565b60025f9081527f405787fa12a823e0f2b7631cc41b3ba8828b3321ca811111fa75cd3aa3bb5ace939250905b8082106105cc57509091508101602001610478610468565b9192600181602092548385880101520191019092916105b4565b503461037657806003193601126103765760206040516249d4008152f35b50346103765760203660031901126103765760043590600d5482101561037657602061062f836114be565b90549060031b1c604051908152f35b50346103765780600319360112610376576006546005546040516370a0823160e01b81526001600160a01b039182166004820152929160209184916024918391165afa9081156106d0579061069d575b602090600b5414604051908152f35b506020813d6020116106c8575b816106b760209383611552565b810103126103a9576020905161068e565b3d91506106aa565b604051903d90823e3d90fd5b5034610376576106eb366114a4565b929091816001549261041b575061070f91610705916116e2565b92600d54906116e2565b9061072a61071d5f936114be565b90549060031b1c936114ea565b60018060a01b0391549060031b1c16926024602060018060a01b036005541660405192838092620c8c7960e81b82528660048301525afa801561039e575f906109f9575b600954604051633fabe5a360e21b8152925060a090839060049082906001600160a01b03165afa90811561039e576004925f926109d3575b50600854604051633fabe5a360e21b81529360a09185919082906001600160a01b03165afa90811561039e576107e8935f926109ab575b506101fd91926115f8565b60065460405163313ce56760e01b815290602090829060049082906001600160a01b03165afa801561039e575f9061096e575b60ff91501660120360ff81116103ad5760ff16604d81116103ad5761020261084d6108569361271093600a0a9061160b565b600c54906115f8565b600b555f5160206116ed5f395f51905f523b156103a9576040519363ca669fa760e01b855260048501525f84602481835f5160206116ed5f395f51905f525af1801561039e57610958575b600554600654604051664e6f646549442d60c81b602082015260278082019590955293845293945084936001600160a01b0390811691166108e3604785611552565b803b1561038457610930938561091f93819560405197889687958694638567a2e560e01b86526004860152608060248601526084850190611588565b838103600319016044850152611636565b90606483015203925af18015610379576109475750f35b8161095191611552565b6103765780f35b9150915f61096591611552565b5f9082906108a1565b506020813d6020116109a3575b8161098860209383611552565b810103126103a9575160ff811681036103a95760ff9061081b565b3d915061097b565b6101fd92506109c89060a03d60a0116103f0576103dc8183611552565b5050509050916107dd565b6109ed91925060a03d60a0116103f0576103dc8183611552565b5050509050905f6107a6565b506020813d602011610a24575b81610a1360209383611552565b810103126103a9576004905161076e565b3d9150610a06565b5034610376576020610a5b610a4f610a55610a46366114a4565b908094916116d5565b906116e2565b90611629565b604051908152f35b50346103765780600319360112610376576020604051621275008152f35b503461037657610a90366114a4565b91836001949294549261041b5750610ab591610aab916116e2565b91600d54906116e2565b90610ad0610ac35f936114be565b90549060031b1c916114ea565b90545f546001600160a01b03908116959260031b9190911c165f5160206116ed5f395f51905f523b156103a9576040519463ca669fa760e01b865260048601525f85602481835f5160206116ed5f395f51905f525af1801561039e57610cb7575b60055493945084936001600160a01b0316803b1561038457848091604460405180948193632f2ff15d60e01b83527f8b6dced259e7c22d2c562be416e2454fe4c41318f8581c10be50deaca96d353660048401528760248401525af1908115610cac578591610c97575b50505f5160206116ed5f395f51905f523b15610c6e576040519063ca669fa760e01b825260048201528381602481835f5160206116ed5f395f51905f525af1908115610c8c578491610c73575b5050600554604051664e6f646549442d60c81b60208201526027808201939093529182526001600160a01b031690610c21604782611552565b813b15610c6e5783916102d483610c57936040519687958694859363ac966e1560e01b8552606060048601526064850190611588565b90604483015203925af18015610379576109475750f35b505050fd5b81610c7d91611552565b610c8857825f610be8565b5050fd5b6040513d86823e3d90fd5b81610ca191611552565b610c6e57835f610b9b565b6040513d87823e3d90fd5b9250925f610cc491611552565b5f918390610b31565b503461037657610cdc366114a4565b929091816001549261041b5750610cf691610aab916116e2565b90610d04610ac35f936114be565b60018060a01b0391549060031b1c16926024602060018060a01b036005541660405192838092620c8c7960e81b82528760048301525afa90811561039e575f91610e22575b50610d5681600a54611629565b600a555f5160206116ed5f395f51905f523b156103a9576040519463ca669fa760e01b865260048601525f85602481835f5160206116ed5f395f51905f525af1801561039e57610e0c575b83945060018060a01b036005541660405192664e6f646549442d60c81b6020850152602784015260278352610dd7604784611552565b803b15610384576102d4610c5792869460405196879586948593638028673760e01b8552606060048601526064850190611588565b9250925f610e1991611552565b5f918390610da1565b90506020813d602011610e4c575b81610e3d60209383611552565b810103126103a957515f610d49565b3d9150610e30565b50346103765780600319360112610376576040515f600354610e758161151a565b80845290600181169081156104ee5750600114610e9c5761048c8361047881850382611552565b60035f9081527fc2575a0e9e593c00f959f8c92f12db2869c3395a3b0502d05e2516446f71f85b939250905b808210610ee057509091508101602001610478610468565b919260018160209254838588010152019101909291610ec8565b50346103765780600319360112610376576020604051626ebe008152f35b50346103765760203660031901126103765760043590600e5482101561037657602061062f83611502565b5034610376576020366003190112610376576005546040516378a66f1560e01b81526001600160a01b0390911690602081600481855afa9081156110a75783916110da575b5060018101918282116110c65790610fa091316116d5565b600181018091116110b25781610a55610fbd8594610fc5946116d5565b6004356116e2565b610fd181600a546116d5565b600a5581546001600160a01b03165f5160206116ed5f395f51905f523b15610c88576040519063ca669fa760e01b825260048201528281602481835f5160206116ed5f395f51905f525af180156110a757839061108d575b50506005546001600160a01b031690813b15610c88578291602483926040519586938492632e1a7d4d60e01b845260048401525af180156110805761106b5780f35b61107491611552565b805f12610376575f8180f35b50604051903d90823e3d90fd5b61109691611552565b815f126110a4575f82611029565b50fd5b6040513d85823e3d90fd5b634e487b7160e01b83526011600452602483fd5b634e487b7160e01b84526011600452602484fd5b90506020813d602011611104575b816110f560209383611552565b810103126103a957515f610f88565b3d91506110e8565b503461037657806003193601126103765760206040516224ea008152f35b50346103765780600319360112610376576020600c54604051908152f35b346103a95761116a61070561115c366114a4565b9391600193919354906116e2565b9061117861071d5f936114be565b90545f5460039290921b1c6001600160a01b0390811691165f5160206116ed5f395f51905f523b156103a9576040519063ca669fa760e01b825260048201525f81602481835f5160206116ed5f395f51905f525af1801561039e5761148f575b506005546001600160a01b0316803b1561148b57838091604460405180948193632f2ff15d60e01b83527f6ef8b52debbf584bbeee3d104b589533cc529f3789bdbc2bae3dabb3fcde96f660048401528760248401525af18015610c8c57908491611472575b5050600954604051633fabe5a360e21b81529060a090829060049082906001600160a01b03165afa908115610c8c5790600491859161144e575b50600854604051633fabe5a360e21b81529260a09184919082906001600160a01b03165afa918215610cac578592611428575b50680ae56f730e6d840000810290808204680ae56f730e6d840000149015171561141457906112d99161160b565b936009850294808604600914901517156110c657600a849504926112ff84600b54611629565b600b555f5160206116ed5f395f51905f523b156103845760405163ca669fa760e01b8152600481018490528581602481835f5160206116ed5f395f51905f525af19081156114095786916113f4575b5050600554604051664e6f646549442d60c81b60208201526027808201939093529182526001600160a01b031690611387604782611552565b813b156113f0578580946113c3946113d49760405198899788968795631df1a43360e01b8752600487015260a0602487015260a4860190611588565b848103600319016044860152611636565b916064840152608483015203925af18015610379576109475750f35b8580fd5b816113fe91611552565b61038457848761134e565b6040513d88823e3d90fd5b634e487b7160e01b85526011600452602485fd5b61144291925060a03d60a0116103f0576103dc8183611552565b505050905090866112ab565b611467915060a03d60a0116103f0576103dc8183611552565b505050905086611278565b8161147c91611552565b61148757828561123e565b8280fd5b8380fd5b61149c9193505f90611552565b5f91846111d8565b60609060031901126103a957600435906024359060443590565b600d548110156114d657600d5f5260205f2001905f90565b634e487b7160e01b5f52603260045260245ffd5b6001548110156114d65760015f5260205f2001905f90565b600e548110156114d657600e5f5260205f2001905f90565b90600182811c92168015611548575b602083101461153457565b634e487b7160e01b5f52602260045260245ffd5b91607f1691611529565b90601f8019910116810190811067ffffffffffffffff82111761157457604052565b634e487b7160e01b5f52604160045260245ffd5b805180835260209291819084018484015e5f828201840152601f01601f1916010190565b519069ffffffffffffffffffff821682036103a957565b908160a09103126103a9576115d7816115ac565b916020820151916040810151916115f56080606084015193016115ac565b90565b818102929181159184041417156103ad57565b8115611615570490565b634e487b7160e01b5f52601260045260245ffd5b919082018092116103ad57565b6004545f92916116458261151a565b80825291600181169081156116b95750600114611660575050565b60045f9081529293509091907f8a35acfbc15ff81a39ae7d344fd709f28e8600b4aa8c65c6b64bfe7fe36bd19b5b83831061169f575060209250010190565b60018160209294939454838587010152019101919061168e565b9050602093945060ff929192191683830152151560051b010190565b919082039182116103ad57565b811561161557069056fe0000000000000000000000007109709ecfa91a80626ff3989d68f67f5b1dd12da264697066735822122029bc7bc694dd45c4a4c3f652f7b07f07d62865043747298982663245432f9b6264736f6c634300081c0033608034605057601f61013938819003918201601f19168301916001600160401b03831184841017605457808492602094604052833981010312605057515f554260015560405160d090816100698239f35b5f80fd5b634e487b7160e01b5f52604160045260245ffdfe60808060405260043610156011575f80fd5b5f3560e01c806374ef91e2146083578063f7a3080614606d5763feaf968c146037575f80fd5b346069575f36600319011260695760a0905f54600154905f835260208301525f604083015260608201525f6080820152f35b5f80fd5b3460695760203660031901126069576004355f55005b34606957602036600319011260695760043560015500fea264697066735822122025c2c2945d02f9f1d9e28327f97a89f01c5a04b372ccf00a8464f1c3229e87e764736f6c634300081c0033608080604052346013576068908160188239f35b5f80fdfe6004361015600b575f80fd5b5f3560e01c63e1a472b914601d575f80fd5b34602e576020366003190112602e57005b5f80fdfea26469706673582212208cda1373862fb1a4ac550f5ab40f2d94bb00b62e555d5af2b15a26aa8de8556264736f6c634300081c00336080806040523461036c57610d15803803809161001c8285610370565b8339810160608282031261036c5781516001600160401b03811161036c5781610046918401610393565b60208301519091906001600160401b03811161036c5760409161006a918501610393565b92015160ff811680910361036c576100b3602093846040519586928651808389018487015e8401908282015f8152815193849201905e01015f815203601f198101855284610370565b82516001600160401b03811161027d57600354600181811c91168015610362575b602082101461025f57601f81116102ff575b506020601f821160011461029c57819293945f92610291575b50508160011b915f199060031b1c1916176003555b81516001600160401b03811161027d57600454600181811c91168015610273575b602082101461025f57601f81116101fc575b50602092601f821160011461019b57928192935f92610190575b50508160011b915f199060031b1c1916176004555b60ff19600554161760055560405161092c90816103e98239f35b015190505f80610161565b601f1982169360045f52805f20915f5b8681106101e457508360019596106101cc575b505050811b01600455610176565b01515f1960f88460031b161c191690555f80806101be565b919260206001819286850151815501940192016101ab565b60045f527f8a35acfbc15ff81a39ae7d344fd709f28e8600b4aa8c65c6b64bfe7fe36bd19b601f830160051c81019160208410610255575b601f0160051c01905b81811061024a5750610147565b5f815560010161023d565b9091508190610234565b634e487b7160e01b5f52602260045260245ffd5b90607f1690610135565b634e487b7160e01b5f52604160045260245ffd5b015190505f806100ff565b601f1982169060035f52805f20915f5b8181106102e7575095836001959697106102cf575b505050811b01600355610114565b01515f1960f88460031b161c191690555f80806102c1565b9192602060018192868b0151815501940192016102ac565b60035f527fc2575a0e9e593c00f959f8c92f12db2869c3395a3b0502d05e2516446f71f85b601f830160051c81019160208410610358575b601f0160051c01905b81811061034d57506100e6565b5f8155600101610340565b9091508190610337565b90607f16906100d4565b5f80fd5b601f909101601f19168101906001600160401b0382119082101761027d57604052565b81601f8201121561036c578051906001600160401b03821161027d57604051926103c7601f8401601f191660200185610370565b8284526020838301011161036c57815f9260208093018386015e830101529056fe6080806040526004361015610012575f80fd5b5f3560e01c90816306fdde031461053657508063095ea7b31461051057806318160ddd146104f357806323b872dd14610436578063313ce5671461041657806339509351146103c857806370a082311461039157806395d89b4114610276578063a0712d68146101c8578063a457c2d714610125578063a9059cbb146100f45763dd62ed3e146100a0575f80fd5b346100f05760403660031901126100f0576100b961062f565b6100c1610645565b6001600160a01b039182165f908152600160209081526040808320949093168252928352819020549051908152f35b5f80fd5b346100f05760403660031901126100f05761011a61011061062f565b6024359033610780565b602060405160018152f35b346100f05760403660031901126100f05761013e61062f565b60243590335f52600160205260405f2060018060a01b0382165f5260205260405f2054918083106101755761011a9203903361067c565b60405162461bcd60e51b815260206004820152602560248201527f45524332303a2064656372656173656420616c6c6f77616e63652062656c6f77604482015264207a65726f60d81b6064820152608490fd5b346100f05760203660031901126100f0576004353315610231576101ee8160025461065b565b600255335f525f60205260405f208181540190556040519081525f7fddf252ad1be2c89b69c2b068fc378daa952ba7f163c4a11628f55a4df523b3ef60203393a3005b60405162461bcd60e51b815260206004820152601f60248201527f45524332303a206d696e7420746f20746865207a65726f2061646472657373006044820152606490fd5b346100f0575f3660031901126100f0576040515f6004548060011c90600181168015610387575b602083108114610373578285529081156103575750600114610302575b50819003601f01601f191681019067ffffffffffffffff8211818310176102ee576102ea82918260405282610605565b0390f35b634e487b7160e01b5f52604160045260245ffd5b905060045f527f8a35acfbc15ff81a39ae7d344fd709f28e8600b4aa8c65c6b64bfe7fe36bd19b5f905b828210610341575060209150820101826102ba565b600181602092548385880101520191019061032c565b90506020925060ff191682840152151560051b820101826102ba565b634e487b7160e01b5f52602260045260245ffd5b91607f169161029d565b346100f05760203660031901126100f0576001600160a01b036103b261062f565b165f525f602052602060405f2054604051908152f35b346100f05760403660031901126100f05761011a6103e461062f565b335f52600160205260405f2060018060a01b0382165f5260205261040f60405f20602435905461065b565b903361067c565b346100f0575f3660031901126100f057602060ff60055416604051908152f35b346100f05760603660031901126100f05761044f61062f565b610457610645565b6001600160a01b0382165f908152600160208181526040808420338552909152909120549260443592918401610492575b61011a9350610780565b8284106104ae576104a98361011a9503338361067c565b610488565b60405162461bcd60e51b815260206004820152601d60248201527f45524332303a20696e73756666696369656e7420616c6c6f77616e63650000006044820152606490fd5b346100f0575f3660031901126100f0576020600254604051908152f35b346100f05760403660031901126100f05761011a61052c61062f565b602435903361067c565b346100f0575f3660031901126100f0575f6003548060011c906001811680156105fb575b6020831081146103735782855290811561035757506001146105a65750819003601f01601f191681019067ffffffffffffffff8211818310176102ee576102ea82918260405282610605565b905060035f527fc2575a0e9e593c00f959f8c92f12db2869c3395a3b0502d05e2516446f71f85b5f905b8282106105e5575060209150820101826102ba565b60018160209254838588010152019101906105d0565b91607f169161055a565b602060409281835280519182918282860152018484015e5f828201840152601f01601f1916010190565b600435906001600160a01b03821682036100f057565b602435906001600160a01b03821682036100f057565b9190820180921161066857565b634e487b7160e01b5f52601160045260245ffd5b6001600160a01b031690811561072f576001600160a01b03169182156106df5760207f8c5be1e5ebec7d5bd14f71427d1e84f3dd0314c0f7b2291e5b200ac8c7c3b92591835f526001825260405f20855f5282528060405f2055604051908152a3565b60405162461bcd60e51b815260206004820152602260248201527f45524332303a20617070726f766520746f20746865207a65726f206164647265604482015261737360f01b6064820152608490fd5b60405162461bcd60e51b8152602060048201526024808201527f45524332303a20617070726f76652066726f6d20746865207a65726f206164646044820152637265737360e01b6064820152608490fd5b6001600160a01b03169081156108a3576001600160a01b031691821561085257815f525f60205260405f20548181106107fe57817fddf252ad1be2c89b69c2b068fc378daa952ba7f163c4a11628f55a4df523b3ef92602092855f525f84520360405f2055845f525f825260405f20818154019055604051908152a3565b60405162461bcd60e51b815260206004820152602660248201527f45524332303a207472616e7366657220616d6f756e7420657863656564732062604482015265616c616e636560d01b6064820152608490fd5b60405162461bcd60e51b815260206004820152602360248201527f45524332303a207472616e7366657220746f20746865207a65726f206164647260448201526265737360e81b6064820152608490fd5b60405162461bcd60e51b815260206004820152602560248201527f45524332303a207472616e736665722066726f6d20746865207a65726f206164604482015264647265737360d81b6064820152608490fdfea26469706673582212207357e292cee4cd4932a7c052df29591a6aa40d9635bf1ad4177fbcb6cb4d8bdb64736f6c634300081c003360808060405234601557615995908161001a8239f35b5f80fdfe6080806040526004361015610012575f80fd5b5f905f3560e01c90816301ffc9a714613b9d575080630c8c790014613b7f5780630ffbccdb14613b275780631679a96514613ab5578063190e9d4114613a265780631a753657146139fd5780631df1a4331461333e578063248a9ca31461330a5780632576eed1146132eb5780632dbecc1a146132cd5780632e1a7d4d146131dc5780632f2ff15d1461311c5780633153caeb146130e7578063341030f0146130ac57806336568abe14613019578063395cc51214612ede5780633b72214414612e0e5780633cb8beb014612d925780633f24a8e514612d635780633f4ba83a14612c9557806348e2678f1461295a5780634b7e23dc1461291f5780634bcad6f2146129015780634ff0241a146128c657806353cc04a11461280757806358aa9000146127e95780635b499a97146127975780635c975abb146127745780635d36f34f146127015780635f4c5d33146126c15780635fa9237a146126a25780635fcd62551461267857806375e271861461265957806378a66f151461263a5780637d1aacad1461208f5780638028673714611cdc5780638079336c14611cbe5780638456cb5914611c2a57806384f826c714611ba65780638500bc8914611b0e5780638567a2e5146113905780638d01d1c51461137157806391d14854146113275780639922b43b146113085780639dcb511a146112c7578063a217fddf146112ab578063a2a5236c14611282578063a512542114611196578063a9316fd21461115c578063ac966e1514610cc3578063ad18f0da1461085d578063b59f091e14610835578063b6d1d67b146107b9578063bd65581e1461077f578063c8fc9e4e14610744578063c92f58b214610725578063ce33992314610707578063d0c63d35146106ce578063d547741f14610687578063d964c25a1461064c578063d9723ea714610617578063d9ea5b03146104a1578063e34df3c114610482578063ebd0905414610453578063efe867e214610418578063f38b8411146103f95763f4ddb5be146102ff575f80fd5b346103f65760203660031901126103f657600435610101548110156103f45761032790613ee3565b5080546001600160a01b031661033f60018301613e43565b9160ff600282015491816003820154169061035c60048201613f01565b60078201546103c8600884015492600a6009860154950154956103936040519b8c9b8c5261018060208d01526101808c0190613da2565b60408b81019a909a5290151560608b0152815160808b015260208201516001600160a01b031660a08b015297015160c0890152565b60e0870152610100860152610120850152818116151561014085015260081c1615156101608301520390f35b505b80fd5b50346103f657806003193601126103f65760206040516301e133808152f35b50346103f657806003193601126103f65760206040517fbb4ab89723950398fbe0f1fe11ab060da193cf1f8b664c9831ac485bec8c6ca98152f35b50346103f657806003193601126103f657602060405173aaaaaaaaaaaaaaaaaaaaaaaaaaaaaaaaaaaaaaaa8152f35b50346103f657806003193601126103f657602061010654604051908152f35b50346103f6576104b036613d30565b909183805260656020526040842060018060a01b0333165f5260205260ff60405f20541615610613576001600160a01b0390811680855260fd602090815260408087205483885260fe90925286205494921692909183156105c75782865260fd6020908152604080882080546001600160a01b0319166001600160a01b0394909416938417905584885260fe90915280872083905551633fabe5a360e21b81529094908660a0826004818a5afa91821561060657819082936105cf575b5013156105cb5761057f839142613f5f565b116105c7577fcb61de73a9b971ce0608f81d0ce8617289d2a44503653d2c16693dc08bc0db2d9460a0946040519485526020850152604084015260608301526080820152a180f35b8580fd5b8680fd5b90506105f491925060a03d60a0116105ff575b6105ec8183613c80565b810190614616565b50939250505f61056d565b503d6105e2565b50604051903d90823e3d90fd5b8380fd5b50346103f6576020808061062a36613cf2565b604051928184925191829101835e810161010481520301902054604051908152f35b50346103f657806003193601126103f65760206040517f8a8d1de1c18abb94a793a1c642e9153de53c830daa68b212d4eb80a0fed540518152f35b50346103f65760403660031901126103f6576106cb6004356106a7613c33565b906106c66106c1825f526065602052600160405f20015490565b615350565b615595565b80f35b50346103f65760203660031901126103f6576020906040906001600160a01b036106f6613c1d565b16815260fe83522054604051908152f35b50346103f657806003193601126103f65760206040516249d4008152f35b50346103f657806003193601126103f657602061010a54604051908152f35b50346103f657806003193601126103f65760206040517f6ef8b52debbf584bbeee3d104b589533cc529f3789bdbc2bae3dabb3fcde96f68152f35b50346103f657602060ff818061079436613cf2565b604051928184925191829101835e810161010f81520301902054166040519015158152f35b50346103f65760203660031901126103f657808052606560209081526040808320335f90815292529020546004359060ff16156103f45761271081116103f45760407feb1cee51f4786b91756ab6e79cde8b4ae39e831e78f9ef5d813b9e40d37883b7916101075490806101075582519182526020820152a180f35b50346103f657806003193601126103f65760206040515f5160206159405f395f51905f528152f35b50346103f6576101003660031901126103f657610878613c1d565b610880613c33565b6044356001600160a01b038116929083900361061357606435906084356001600160a01b038116908190036105c75760a4359160c4359360e4359588549260ff8460081c16159889809a610cb6575b8015610c9f575b15610c435760ff1985166001178b558a948a610c32575b50888811610c2e5760049260a09261093460ff885460081c1661090f81615616565b61091881615616565b61092181615616565b600160975561092f81615616565b615616565b60ff1960c9541660c955868052606560205260408720600180861b0333165f5260205260ff60405f20541615610bda575b600180851b03166001600160601b03841b60ff54161760ff55600180841b0316806001600160601b03841b610100541617610100556109aa60ff875460081c16615616565b5f5160206159405f395f51905f52865260fd60205260408620600180851b0383166001600160601b03851b82541617905580865260fd60205260408620600180851b0388166001600160601b03851b8254161790555f5160206159405f395f51905f52865260fe602052846040872055855260fe60205286604086205560405192838092633fabe5a360e21b82525afa908115610bcf57839081908293610ba8575b501315610ba457610a5d9042613f5f565b116103f65760a060049260405193848092633fabe5a360e21b82525afa9182156106065781908293610b7d575b5013156105c757610a9b9042613f5f565b116106135761010a5561010b5561138861010755690a968163f0a57b4000006101065561271061010c55610b3f604051610ad481613c65565b83815283602082015283604082015260405190610af082613c49565b848252604051610b01602082613c80565b858152602083015284604083015284606083015260808201528360a08201528360c08201528360e08201528361010082015283610120820152614ac0565b610b465780f35b61ff001981541681557f7f26b83ff96e1f2b6a682f133852f6798a09c465da95921460cefb3847402498602060405160018152a180f35b9050610b9991925060a03d60a0116105ff576105ec8183613c80565b50939250505f610a8a565b8280fd5b9050610bc491925060a03d60a0116105ff576105ec8183613c80565b50939250505f610a4c565b6040513d85823e3d90fd5b868052606560205260408720600180861b0333165f5260205260405f20600160ff198254161790553333887f2f8788117e7eff1d82e926ec794901d17c78024a50270940304540a733656f0d8180a4610965565b8480fd5b61ffff19166101011785555f6108ed565b60405162461bcd60e51b815260206004820152602e60248201527f496e697469616c697a61626c653a20636f6e747261637420697320616c72656160448201526d191e481a5b9a5d1a585b1a5e995960921b6064820152608490fd5b50303b1580156108d65750600160ff8616146108d6565b50600160ff8616106108cf565b50346103f657610cd236613dc6565b90949392917f8b6dced259e7c22d2c562be416e2454fe4c41318f8581c10be50deaca96d3536855260656020526040852060018060a01b0333165f5260205260ff60405f20541615610c2e57621275008210158061114e575b1561110457610d38614c88565b604051838582376020818581016101028152030190205415806110fb575b156110b65760908603610c2e57610101546040518486823760208186810161010281520301902055610df9604051610d8d81613c65565b86815286602082015286604082015261010754610108549060405192610db284613c49565b338452610dc036898b613cbc565b602085015286604085015289606085015260808401528860a084015260c083015260e08201528661010082015286610120820152614ac0565b6040518385823760208185810161010d8152030190206001600160401b03871161100d57610e3187610e2b8354613d6a565b836149b9565b8587601f81116001146110545780610e5d928991611049575b508160011b915f199060031b1c19161790565b90555b6040518385823760208185810161010f81520301902060ff1981541690553385526101036020526040852054604051848682376020818681016101048152030190205533855261010360205260408520805490600160401b8210156110355790610ecf91600182018155613e1a565b969096611021576001600160401b03841161100d57610ef884610ef28954613d6a565b896149b9565b8596601f8511600114610f985790610f699291610f3986808a9b5f5160206159205f395f51905f529b91610f8d57508160011b915f199060031b1c19161790565b90555b610f5b6040519687963388526101006020890152610100880191613f32565b918583036040870152613f32565b9060608301528460808301528460a08301528460c08301528460e08301520390a180f35b90508901355f610e4a565b80875260208720601f198616885b818110610ff55750905f5160206159205f395f51905f52989987610f699695949310610fdc575b5050600186811b019055610f3c565b8801355f19600389901b60f8161c191690555f80610fcd565b888b0135835560209a8b019a60019093019201610fa6565b634e487b7160e01b86526041600452602486fd5b634e487b7160e01b86526004869052602486fd5b634e487b7160e01b87526041600452602487fd5b90508401355f610e4a565b50818752602087209088601f198116895b81811061109b575010611082575b5050600187811b019055610e60565b8301355f1960038a901b60f8161c191690555f80611073565b8684013585556001909401936020938401938c935001611065565b60405162461bcd60e51b815260206004820152601760248201527f4e6f646520616c726561647920726567697374657265640000000000000000006044820152606490fd5b50821515610d56565b60405162461bcd60e51b815260206004820152601b60248201527f496e76616c69642076616c69646174696f6e206475726174696f6e0000000000604482015280606481015b0390fd5b506301e13380821115610d2b565b50346103f65760203660031901126103f6576020906040906001600160a01b03611184613c1d565b16815261010383522054604051908152f35b50346103f65760203660031901126103f6576111b0613c1d565b818052606560209081526040808420335f908152925290205460ff16156103f4576001600160a01b03165f81815260fc6020526040902054156103f4576020815f5160206159405f395f51905f527f85a3e72f8dd6db3794f93109c3c5f5b79d6112f6979431c45f98b26134b42af29314158061126c575b611241575b611236816157c4565b50604051908152a180f35b80845260fd8252604080852080546001600160a01b031916905581855260fe8352842084905561122d565b50610100546001600160a01b0316811415611228565b50346103f657806003193601126103f65760ff546040516001600160a01b039091168152602090f35b50346103f657806003193601126103f657602090604051908152f35b50346103f65760203660031901126103f6576020906001600160a01b036112ec613c1d565b16815260fd8252604060018060a01b0391205416604051908152f35b50346103f657806003193601126103f657602061010b54604051908152f35b50346103f65760403660031901126103f6576040611343613c33565b9160043581526065602052209060018060a01b03165f52602052602060ff60405f2054166040519015158152f35b50346103f657806003193601126103f657602061010554604051908152f35b50346103f65760803660031901126103f6576113aa613c1d565b906024356001600160401b0381116103f4576113ca903690600401613bf0565b6044356001600160401b038111610613576113e9903690600401613bf0565b9490606435916113f7614ccc565b6113ff614c88565b6001600160a01b03165f81815260fc6020526040902054156105c7575f5160206159405f395f51905f52865260fd6020526040808720549051633fabe5a360e21b81529060a090829060049082906001600160a01b03165afa8015611b03579060049188918991611add575b5083895260fd6020526040808a20549051633fabe5a360e21b81529360a09185919082906001600160a01b03165afa908115611ad25789938a92611aa9575b5089831380611aa0575b15611a9c576114c39042613f5f565b5f5160206159405f395f51905f528a5260fe60205260408a205410611a98576114ec9042613f5f565b83895260fe602052604089205410611a81579061151561151a9261150f87614be7565b90613f9b565b613fae565b60405163313ce56760e01b8152602081600481865afa8015611a8d578890611a4c575b60ff91501660120360ff8111611a385760ff16604d8111611a38579061156691600a0a90613fae565b610100549092906001600160a01b03168214611a1f575b82156105cb5761158f8330338561530c565b61010554686c6b935b8bbd40000081019081811161195d576101065482116119da5762127500861480156119ce575b80156119c2575b80156119b6575b1561197157811061195d57610105556115e3614c88565b60405185878237602081878101610102815203019020541580611954575b156110b657609088036105cb576101015460405186888237602081888101610102815203019020556116a560405161163881613c65565b8881528360208201528460408201526101075461010854906040519261165d84613c49565b33845261166b368b8d613cbc565b60208501528860408501526001606085015260808401528a60a084015260c083015260e08201528861010082015288610120820152614ac0565b6040518587823760208187810161010d8152030190206001600160401b0389116118b6576116d789610e2b8354613d6a565b8789601f81116001146118f25780611702928b9161104957508160011b915f199060031b1c19161790565b90555b6040518587823760208187810161010f81520301902060ff1981541690553387526101036020526040872054604051868882376020818881016101048152030190205533875261010360205260408720805490600160401b8210156118de579061177491600182018155613e1a565b9890986118ca576001600160401b0386116118b65761179d866117978b54613d6a565b8b6149b9565b8798601f8711600114611841579061180e92916117de88808c9d5f5160206159205f395f51905f529d9161183657508160011b915f199060031b1c19161790565b90555b611800604051988998338a5261010060208b01526101008a0191613f32565b918783036040890152613f32565b926060850152600160808501528660a085015260c084015260e08301520390a1600160975580f35b90508b01355f610e4a565b80895260208920601f1988168a5b81811061189e5750905f5160206159205f395f51905f529a9b8961180e9695949310611885575b5050600188811b0190556117e1565b8a01355f1960038b901b60f8161c191690555f80611876565b8a8d0135835560209c8d019c6001909301920161184f565b634e487b7160e01b88526041600452602488fd5b634e487b7160e01b88526004889052602488fd5b634e487b7160e01b89526041600452602489fd5b5081895260208920908a601f1981168b5b818110611939575010611920575b5050600189811b019055611705565b8301355f1960038c901b60f8161c191690555f80611911565b8684013585556001909401936020938401938e935001611903565b50841515611601565b634e487b7160e01b5f52601160045260245ffd5b60405162461bcd60e51b815260206004820152601860248201527f496e76616c6964207374616b696e67206475726174696f6e00000000000000006044820152606490fd5b50626ebe0086146115cc565b506249d40086146115c5565b506224ea0086146115be565b60405162461bcd60e51b815260206004820152601a60248201527f53756273696469736174696f6e206361702065786365656465640000000000006044820152606490fd5b91611a316127109161010c5490613f9b565b049161157d565b634e487b7160e01b88526011600452602488fd5b506020813d602011611a85575b81611a6660209383613c80565b81010312611a81575160ff81168103611a815760ff9061153d565b8780fd5b3d9150611a59565b6040513d8a823e3d90fd5b8880fd5b8980fd5b508984136114b4565b909350611ac5915060a03d60a0116105ff576105ec8183613c80565b509492505092905f6114aa565b6040513d8b823e3d90fd5b9050611af8915060a03d60a0116105ff576105ec8183613c80565b50925050905f61146b565b6040513d89823e3d90fd5b50346103f65760403660031901126103f65760043560243582805260656020526040832060018060a01b0333165f5260205260ff60405f20541615610ba457808211610ba4577f32f07544d40b6594a49132ac8f5e83e155ea95048a4793168328979fbe18be1f9160809161010a549161010b54908061010a558261010b55604051938452602084015260408301526060820152a180f35b50346103f65760403660031901126103f657611bc0613c1d565b6001600160a01b0316815261010360205260408120805460243590811015610ba457611beb91613e1a565b919091611c1657611c12611bfe83613e43565b604051918291602083526020830190613da2565b0390f35b634e487b7160e01b81526004819052602490fd5b50346103f657806003193601126103f6577ff146182d150a5b368b6d283f87aeae1f25c21b02ff55cf16848704ade176a5cb8152606560209081526040808320335f908152925290205460ff16156103f657611c84614c88565b600160ff1960c954161760c9557f62e78cea01bee320cd4e420270b5ea74000d11b0c9f74754ebdbfc544b05a2586020604051338152a180f35b50346103f657806003193601126103f6576020604051621275008152f35b50611ce636613dc6565b9094939291611cf3614ccc565b611cfb614c88565b611d0482614be7565b8034036105c7578580808080335af1611d1b613f6c565b50156105c757611d2e9061010954613f52565b6101095561010554686c6b935b8bbd40000081019081811161195d576101065482116119da576212750084148015612083575b8015612077575b801561206b575b1561197157811061195d5761010555611d86614c88565b60405183858237602081858101610102815203019020541580612062575b156110b65760908603610c2e57610101546040518486823760208186810161010281520301902055611e48604051611ddb81613c65565b34815286602082015286604082015261010754610108549060405192611e0084613c49565b338452611e0e36898b613cbc565b60208501528660408501526001606085015260808401528860a084015260c083015260e08201528661010082015286610120820152614ac0565b6040518385823760208185810161010d8152030190206001600160401b03871161100d57611e7a87610e2b8354613d6a565b8587601f81116001146120005780611ea592899161104957508160011b915f199060031b1c19161790565b90555b6040518385823760208185810161010f81520301902060ff1981541690553385526101036020526040852054604051848682376020818681016101048152030190205533855261010360205260408520805490600160401b8210156110355790611f1791600182018155613e1a565b969096611021576001600160401b03841161100d57611f3a84610ef28954613d6a565b8596601f8511600114611fa55790611f7b9291610f3986808a9b5f5160206159205f395f51905f529b91610f8d57508160011b915f199060031b1c19161790565b906060830152600160808301523460a08301528460c08301528460e08301520390a1600160975580f35b80875260208720601f198616885b818110611fe85750905f5160206159205f395f51905f52989987611f7b9695949310610fdc575050600186811b019055610f3c565b888b0135835560209a8b019a60019093019201611fb3565b50818752602087209088601f198116895b81811061204757501061202e575b5050600187811b019055611ea8565b8301355f1960038a901b60f8161c191690555f8061201f565b8684013585556001909401936020938401938c935001612011565b50821515611da4565b50626ebe008414611d6f565b506249d4008414611d68565b506224ea008414611d61565b5061209936613dc6565b90949392916120a6614ccc565b61010a543410158061262d575b8061261f575b156125ea578480808080335af16120ce613f6c565b5015610c2e575f5160206159405f395f51905f52855260fd6020526040808620549051633fabe5a360e21b81529060a090829060049082906001600160a01b03165afa9182156125df57869187936125b7575b50610100546001600160a01b0390811680895260fd6020526040808a20549051633fabe5a360e21b81529195919260a09184916004918391165afa908115611ad25789928a9261258e575b5089831380612585575b15611a9c576121859042613f5f565b5f5160206159405f395f51905f528a5260fe60205260408a205410611a98576121ae9042613f5f565b84895260fe602052604089205410611a815734686c6b935b8bbd4000000392686c6b935b8bbd400000841161257157600a91611515856121ed93613f9b565b04928315611a815783612203913090339061530c565b61010054610105546001600160a01b03909116926122218183613f52565b61010654106119da576212750086148015612565575b8015612559575b801561254d575b156119715761225391613f52565b6101055561225f614c88565b60405185878237602081878101610102815203019020541580612544575b156110b657609088036105cb576101015460405186888237602081888101610102815203019020556123206040516122b481613c65565b348152836020820152846040820152610107546101085490604051926122d984613c49565b3384526122e7368b8d613cbc565b60208501528860408501528b606085015260808401528a60a084015260c083015260e08201528861010082015288610120820152614ac0565b6040518587823760208187810161010d8152030190206001600160401b0389116118b65761235289610e2b8354613d6a565b8789601f81116001146124e2578061237d928b9161104957508160011b915f199060031b1c19161790565b90555b6123ab876040518789823760208189810161010f8152030190209060ff801983541691151516179055565b3387526101036020526040872054604051868882376020818881016101048152030190205533875261010360205260408720805490600160401b8210156118de57906123fc91600182018155613e1a565b9890986118ca576001600160401b0386116118b65761241f866117978b54613d6a565b8798601f8711600114612487579061246092916117de88808c9d5f5160206159205f395f51905f529d9161183657508160011b915f199060031b1c19161790565b9260608501528660808501523460a085015260c084015260e08301520390a1600160975580f35b80895260208920601f1988168a5b8181106124ca5750905f5160206159205f395f51905f529a9b896124609695949310611885575050600188811b0190556117e1565b8a8d0135835560209c8d019c60019093019201612495565b5081895260208920908a601f1981168b5b818110612529575010612510575b5050600189811b019055612380565b8301355f1960038c901b60f8161c191690555f80612501565b8684013585556001909401936020938401938e9350016124f3565b5084151561227d565b50626ebe008614612245565b506249d400861461223e565b506224ea008614612237565b634e487b7160e01b89526011600452602489fd5b50828513612176565b9092506125aa915060a03d60a0116105ff576105ec8183613c80565b509392505091905f61216c565b9092506125d3915060a03d60a0116105ff576105ec8183613c80565b5092505090915f612121565b6040513d88823e3d90fd5b60405162461bcd60e51b815260206004820152600d60248201526c496e76616c69642076616c756560981b6044820152606490fd5b50633b9aca003406156120b9565b5061010b543411156120b3565b50346103f657806003193601126103f657602061010954604051908152f35b50346103f657806003193601126103f657602061010754604051908152f35b50346103f657806003193601126103f657610100546040516001600160a01b039091168152602090f35b50346103f657806003193601126103f657602061010854604051908152f35b50346103f657806003193601126103f657610101545f198101919082116126ed57602082604051908152f35b634e487b7160e01b81526011600452602490fd5b50346103f65760203660031901126103f657808052606560209081526040808320335f90815292529020546004359060ff16156103f45760407f3e0916468971c6a0496bb9e570a6490523f6f34b85407a78e713c5d0287fb898916101065490806101065582519182526020820152a180f35b50346103f657806003193601126103f657602060ff60c954166040519015158152f35b50346103f65760203660031901126103f6576004356001600160401b0381116103f4576127cb6127e1913690600401613bf0565b906127d4614ccc565b6127dc614c88565b614673565b600160975580f35b50346103f657806003193601126103f657602060fb54604051908152f35b50346103f657806003193601126103f65760405180602060fb549182815201809160fb85527f3e7257b7272bb46d49cd6019b04ddee20da7c0cb13f7c1ec3391291b2ccebabc90855b8181106128b05750505082612866910383613c80565b604051928392602084019060208552518091526040840192915b81811061288e575050500390f35b82516001600160a01b0316845285945060209384019390920191600101612880565b8254845260209093019260019283019201612850565b50346103f657806003193601126103f65760206040517ff146182d150a5b368b6d283f87aeae1f25c21b02ff55cf16848704ade176a5cb8152f35b50346103f657806003193601126103f6576020604051626ebe008152f35b50346103f657806003193601126103f65760206040517f0f9dd4db10c87ffcc337f44200a5df16e545591d09c12f63c158b3d592fcf1888152f35b50346103f65760603660031901126103f657612974613c1d565b6044356024356129848183613f5f565b9261298e84614648565b9361299c6040519586613c80565b8085526129ab601f1991614648565b01855b818110612c205750506001600160a01b0316815b838110612ac65784866040519182916020830160208452825180915260408401602060408360051b870101940192905b828210612a0157505050500390f35b919360019193955060208091603f19898203018552875190848060a01b038251168152610160610120612a438585015161018087860152610180850190613da2565b6040808601518582015260608087015115159086015260808087015180519187019190915260208101516001600160a01b031660a0870152015160c08501529360a081015160e085015260c081015161010085015260e08101518285015261010081015115156101408501520151151591015296019201920185949391926129f2565b818652610103602052612adc8160408820613e1a565b50604051908790805490612aef82613d6a565b9160018116908115612c075750600114612bd3575b5050612b238260206001959484610102612bcc96520301902054613ee3565b50612b2e8684613f5f565b9060ff600a60405192612b4084613c49565b878060a01b038154168452612b56888201613e43565b6020850152600281015460408501528260038201541615156060850152612b7f60048201613f01565b6080850152600781015460a0850152600881015460c0850152600981015460e08501520154818116151561010084015260081c161515610120820152612bc5828a61465f565b528761465f565b50016129c2565b90915088526020882088905b828210612bf35750508101612b2382612b04565b600181602092548487015201910190612bdf565b60ff1916855250508015150282019050612b2382612b04565b602090604095939551612c3281613c49565b888152606083820152886040820152886060820152604051612c5381613c65565b898152898482015289604082015260808201528860a08201528860c08201528860e08201528861010082015288610120820152828289010152019391936129ae565b50346103f657806003193601126103f6577f8a8d1de1c18abb94a793a1c642e9153de53c830daa68b212d4eb80a0fed540518152606560209081526040808320335f908152925290205460ff16156103f65760c95460ff811615612d275760ff191660c9557f5db9ee0a495bf2e6ff9c91a7834c1ba4fdd244a5e8aa4e537bd38aeae4b073aa6020604051338152a180f35b60405162461bcd60e51b815260206004820152601460248201527314185d5cd8589b194e881b9bdd081c185d5cd95960621b6044820152606490fd5b50346103f657806003193601126103f657602060405173bbbbbbbbbbbbbbbbbbbbbbbbbbbbbbbbbbbbbbbb8152f35b50346103f65760203660031901126103f657808052606560209081526040808320335f90815292529020546004359060ff16156103f45761271081116103f45760407f70a47d9b6bc76b08da6f8f076f24e0cb3e9c1bfb280f89f72d5e6fe1ffbff577916101085490806101085582519182526020820152a180f35b50346103f657602080612e2036613cf2565b604051928184925191829101835e810161010d815203019020906040519181815491612e4b83613d6a565b8086529260018116908115612eb45750600114612e73575b611c1285611bfe81870382613c80565b815260208120939250905b808210612e9a57509091508101602001611bfe82611c12612e63565b919260018160209254838588010152019101909291612e7e565b869550611c1296935060209250611bfe94915060ff191682840152151560051b8201019293612e63565b50346103f657612eed36613d30565b909183805260656020526040842060018060a01b0333165f5260205260ff60405f20541615610613576001600160a01b03169182156106135783612f3c845f5260fc60205260405f2054151590565b6103f65760049160a0906001600160a01b0316612f5886615759565b5085835260fd60205260408320600180841b0382166001600160601b03841b82541617905585835260fe60205284604084205560405193848092633fabe5a360e21b82525afa9182156106065781908293612ff2575b50131561061357612fbf9042613f5f565b116103f45760207fa317c10673baf4f03b3c1041bd5ddbb537d0333a86fec3607c75f9dbb630f48f91604051908152a180f35b905061300e91925060a03d60a0116105ff576105ec8183613c80565b50939250505f612fae565b50346103f65760403660031901126103f657613033613c33565b336001600160a01b0382160361304f576106cb90600435615595565b60405162461bcd60e51b815260206004820152602f60248201527f416363657373436f6e74726f6c3a2063616e206f6e6c792072656e6f756e636560448201526e103937b632b9903337b91039b2b63360891b6064820152608490fd5b50346103f657806003193601126103f65760206040517f8b6dced259e7c22d2c562be416e2454fe4c41318f8581c10be50deaca96d35368152f35b50346103f657602080806130fa36613cf2565b604051928184925191829101835e810161010281520301902054604051908152f35b50346103f65760403660031901126103f657600435613139613c33565b906131536106c1825f526065602052600160405f20015490565b80835260656020526040832060018060a01b0383165f5260205260ff60405f2054161561317e578280f35b8083526065602090815260408085206001600160a01b03949094165f81815294909252909220805460ff191660011790553391907f2f8788117e7eff1d82e926ec794901d17c78024a50270940304540a733656f0d8480a45f808280f35b50346103f65760203660031901126103f6576004356131f9614c88565b7f0f9dd4db10c87ffcc337f44200a5df16e545591d09c12f63c158b3d592fcf1888252606560209081526040808420335f908152925290205460ff16156103f4578180808084335af161324a613f6c565b50156103f4574761010954116132885760207f5b6b431d4476a211bb7d41c20d1aab9ae2321deee0d20be3d9fc9b1093fa6e3d91604051908152a180f35b60405162461bcd60e51b815260206004820152601960248201527f5769746864726177616c20616d6f756e7420746f6f20626967000000000000006044820152606490fd5b50346103f657806003193601126103f65760206040516224ea008152f35b50346103f657806003193601126103f657602061010c54604051908152f35b50346103f65760203660031901126103f65760206133366004355f526065602052600160405f20015490565b604051908152f35b346139155760a036600319011261391557613357613c1d565b6024356001600160401b03811161391557613376903690600401613bf0565b90916044356001600160401b03811161391557613397903690600401613bf0565b335f9081527f1d9c10a110e512a468767bbda60d5ed76f4aa0c91f0ee0510c9ed05475ceff5e6020526040902054919460643592608435929060ff16156139a8575f5160206159405f395f51905f525f5260fd6020527f1df3cf4ed468092b87e8c16b2ef9a90bb8699bfc400ae4ae97452a2c27c21ebe54604051633fabe5a360e21b81529060a090829060049082906001600160a01b03165afa908115613978575f905f92613983575b50610100546001600160a01b039081165f81815260fd602052604090819020549051633fabe5a360e21b81529194919260a09184916004918391165afa908115613978575f925f9261394f575b505f841380613946575b15613915576134a89042613f5f565b5f5160206159405f395f51905f525f5260fe6020527f0ae3abc66e4bda7b39b71e4319fbae3aaf530387468f7ee4237e76041ab137a05410613915576134ee9042613f5f565b835f5260fe60205260405f20541061391557680ae56f730e6d840000820291808304680ae56f730e6d840000149015171561195d5761352c91613fae565b60098102908082046009149015171561195d57600a900484106139155783613557913090339061530c565b61010054610105546001600160a01b039091169290686c6b935b8bbd40000081019081811161195d576101065482116119da57621275008714801561393a575b801561392e575b8015613922575b1561197157811061195d57610105556135bc614c88565b60405187828237602081898101610102815203019020541580613919575b156110b657609082036139155761010154604051888382376020818a8101610102815203019020556136886040519661361288613c65565b5f88528460208901528560408901526101075461010854906040519261363784613c49565b6001600160a01b03168084529961364f368d88613cbc565b60208501528960408501525f606085015260808401525f60a084015260c083015260e08201525f6101008201525f610120820152614ac0565b6040518782823760208189810161010d8152030190206001600160401b03831161387f576136ba83610e2b8354613d6a565b5f83601f81116001146138b157806136e5925f916138a657508160011b915f199060031b1c19161790565b90555b6040518782823760208189810161010f815203019020600160ff19825416179055855f5261010360205260405f2054604051888382376020818a810161010481520301902055855f5261010360205260405f208054600160401b81101561387f5761375891600182018155613e1a565b613893576001600160401b03881161387f5761377888610e2b8354613d6a565b5f601f8911600114613805575f5160206159205f395f51905f5299926137d994926137bb8b80611800955f916137fa57508160011b915f199060031b1c19161790565b90555b604051998a998a5261010060208b01526101008a0191613f32565b9260608501525f60808501525f60a085015260c084015260e08301520390a1005b90508401358f610e4a565b601f19891690825f5260205f20915f5b818110613867575092611800925f5160206159205f395f51905f529c95928c6137d998961061384e575b505060018b811b0190556137be565b8301355f1960038e901b60f8161c191690558c8061383f565b91926020600181928689013581550194019201613815565b634e487b7160e01b5f52604160045260245ffd5b634e487b7160e01b5f525f60045260245ffd5b90508b01358c610e4a565b50601f19841690825f528460205f20925f5b8d8282106138fb575050106138e2575b5050600183811b0190556136e8565b8a01355f19600386901b60f8161c1916905589806138d3565b8401358555600190940193602093840193889350016138c3565b5f80fd5b508615156135da565b50626ebe0087146135a5565b506249d400871461359e565b506224ea008714613597565b505f8313613499565b90925061396b915060a03d60a0116105ff576105ec8183613c80565b509392505091908c61348f565b6040513d5f823e3d90fd5b905061399e915060a03d60a0116105ff576105ec8183613c80565b5092505089613442565b60405162461bcd60e51b815260206004820152602760248201527f524f4c455f52454749535445525f574954485f464c455849424c455f50524943604482015266455f434845434b60c81b6064820152608490fd5b34613915575f3660031901126139155761010e546040516001600160a01b039091168152602090f35b3461391557602036600319011261391557335f9081527fffdfc1249c027f9191656349feb0761381bb32c9f557e01f419fd08754bf5a1b60205260409020546004359060ff16156139155761271081116139155760407f243f5920d630b2ce83f8881e8e61dfba5c13da5a74bf035e6b28827571b29fa19161010c54908061010c5582519182526020820152a1005b3461391557602036600319011261391557613ace613c1d565b335f9081527fffdfc1249c027f9191656349feb0761381bb32c9f557e01f419fd08754bf5a1b602052604090205460ff16156139155761010e80546001600160a01b0319166001600160a01b0392909216919091179055005b6040366003190112613915576004356001600160401b03811161391557613b52903690600401613bf0565b60243590811515820361391557613b7892613b6b614c88565b613b73614ccc565b613fcc565b6001609755005b34613915576020366003190112613915576020613336600435614be7565b34613915576020366003190112613915576004359063ffffffff60e01b821680920361391557602091637965db0b60e01b8114908115613bdf575b5015158152f35b6301ffc9a760e01b14905083613bd8565b9181601f84011215613915578235916001600160401b038311613915576020838186019501011161391557565b600435906001600160a01b038216820361391557565b602435906001600160a01b038216820361391557565b61014081019081106001600160401b0382111761387f57604052565b606081019081106001600160401b0382111761387f57604052565b90601f801991011681019081106001600160401b0382111761387f57604052565b6001600160401b03811161387f57601f01601f191660200190565b929192613cc882613ca1565b91613cd66040519384613c80565b829481845281830111613915578281602093845f960137010152565b602060031982011261391557600435906001600160401b038211613915578060238301121561391557816024613d2d93600401359101613cbc565b90565b6060906003190112613915576004356001600160a01b038116810361391557906024356001600160a01b0381168103613915579060443590565b90600182811c92168015613d98575b6020831014613d8457565b634e487b7160e01b5f52602260045260245ffd5b91607f1691613d79565b805180835260209291819084018484015e5f828201840152601f01601f1916010190565b6060600319820112613915576004356001600160401b0381116139155781613df091600401613bf0565b92909291602435906001600160401b03821161391557613e1291600401613bf0565b909160443590565b8054821015613e2f575f5260205f2001905f90565b634e487b7160e01b5f52603260045260245ffd5b9060405191825f825492613e5684613d6a565b8084529360018116908115613ec15750600114613e7d575b50613e7b92500383613c80565b565b90505f9291925260205f20905f915b818310613ea5575050906020613e7b928201015f613e6e565b6020919350806001915483858901015201910190918492613e8c565b905060209250613e7b94915060ff191682840152151560051b8201015f613e6e565b61010154811015613e2f576101015f52600b60205f20910201905f90565b90604051613f0e81613c65565b8254815260018301546001600160a01b031660208201526002909201546040830152565b908060209392818452848401375f828201840152601f01601f1916010190565b9190820180921161195d57565b9190820391821161195d57565b3d15613f96573d90613f7d82613ca1565b91613f8b6040519384613c80565b82523d5f602084013e565b606090565b8181029291811591840414171561195d57565b8115613fb8570490565b634e487b7160e01b5f52601260045260245ffd5b335f9081527f550cf24ee8cd1238fbb5b2b003ba2815aa7078d8d1f9ebe8aa8f16716a18431f602052604090205490919060ff16156145cc576040518183823760208183810161010281520301902054801561458e5761402b90613ee3565b5092600a84019060ff825460081c16614549577f834288ca549398403511a8b546b7e4885ac51b98630c0ffa3a07858dc5d9e40d6040516020815280614075602082018789613f32565b0390a16144265760ff60038501541661438357600484019081541580614377575b6143645761010061ff00198254161781558154686c6b935b8bbd40000003686c6b935b8bbd400000811161195d576140d19061010554613f5f565b6101055560ff6040518486823760208186810161010f81520301902054165f1461416b575050346139155761414960067fc7b0487e0a21287b5a35f7ddf5ed5d8e9d30338d3ad76e60c0986c52addace48940180549061413560c983048093613f5f565b9055610100546001600160a01b031661528d565b614160604051928392604084526040840191613f32565b5f60208301520390a1565b819491548034115f146141e15750506007906141a97fc7b0487e0a21287b5a35f7ddf5ed5d8e9d30338d3ad76e60c0986c52addace48955434613f5f565b91829101556141bb3461010954613f52565b610109556141d6604051938493604085526040850191613f32565b9060208301520390a1565b340361391557600160ff198254161790555f935f916008810154806142ed575b506009018054909290156142b15750612710916142219154905490613f9b565b04926142396142308534613f5f565b61010954613f52565b610109555f8080808773bbbbbbbbbbbbbbbbbbbbbbbbbbbbbbbbbbbbbbbb5af1614261613f6c565b5015613915577feb8d450bff74ef3c1d9319f07855afedfdfa4dce6a223c1c1920a3ac1088d3b4935b6142a1604051948594606086526060860191613f32565b91602084015260408301520390a1565b90507feb8d450bff74ef3c1d9319f07855afedfdfa4dce6a223c1c1920a3ac1088d3b49491506142e43461010954613f52565b6101095561428a565b8196506143036127109160066009940154613f9b565b6101005460405163a9059cbb60e01b602082015273bbbbbbbbbbbbbbbbbbbbbbbbbbbbbbbbbbbbbbbb60248201529290910460448084018290528352979161435e916001600160a01b0316614359606483613c80565b615676565b90614201565b50509091503461391557613e7b91614df6565b50600685015415614096565b509091346139155761010554686c6b935b8bbd3fffff19810190811161195d5761010555600481018054909190156143ff57505f80936143d88294839454926143cf8461010954613f5f565b61010955614df6565b73aaaaaaaaaaaaaaaaaaaaaaaaaaaaaaaaaaaaaaaa5af16143f7613f6c565b501561391557565b9050614421613e7b9392600660018060a01b0360058501541693015493614df6565b61528d565b9260ff6003829493940154165f1461446c57505050346139155761010554686c6b935b8bbd3fffff19810190811161195d57610105555b805461ff001916610100179055565b600481015434036144eb576006015461448957613e7b9250614df6565b6144963461010954613f52565b6101095534686c6b935b8bbd4000000390686c6b935b8bbd400000821161195d576144c660209261010554613f5f565b61010555826040519384928337810161010f81520301902060ff19815416905561445d565b60405162461bcd60e51b815260206004820152603060248201527f4d6573736167652076616c7565206d757374206d61746368207468652041564160448201526f160819195c1bdcda5d08185b5bdd5b9d60821b6064820152608490fd5b60405162461bcd60e51b815260206004820152601a60248201527f21726567697374726174696f6e2e776974686472617761626c650000000000006044820152606490fd5b60405162461bcd60e51b81526020600482015260166024820152750726567697374726174696f6e496e64657820213d20360541b6044820152606490fd5b60405162461bcd60e51b815260206004820152600b60248201526a03937b6329032b93937b9160ad1b6044820152606490fd5b519069ffffffffffffffffffff8216820361391557565b908160a09103126139155761462a816145ff565b91602082015191604081015191613d2d6080606084015193016145ff565b6001600160401b03811161387f5760051b60200190565b8051821015613e2f5760209160051b010190565b604051828282376020818481016101028152030190205480156139155761469990613ee3565b5080549092906001600160a01b0316330361391557600a830160ff815460081c16156139155760ff6003850154166148975760068401549060ff60048601549154165f146147c057906127106147006008614707614710958461470060098c015483613f9b565b0490613f5f565b97015483613f9b565b9261471e8161010954613f5f565b610109555b61472d8284614df6565b6101005461474790859033906001600160a01b03166152d1565b806147a7575b7fee444713008e3c266c8fb74c287dd853d5eb23d60c7e77730b0ed536556efd9a9360018060a01b036101005416614792604051958695608087526080870191613f32565b926020850152604084015260608301520390a1565b5f80808084335af16147b7613f6c565b5061474d575f80fd5b60078501546147ce91613f52565b90809460ff6040518587823760208187810161010f8152030190205416614808575b50506147ff8161010954613f5f565b61010955614723565b5f9295506020906044600260018060a01b0361010e54169201546040519586938492632ca6ea1960e11b845260048401528660248401525af1908115613978575f91614861575b6148599250613f52565b925f806147f0565b90506020823d60201161488f575b8161487c60209383613c80565b810103126139155761485991519061484f565b3d915061486f565b50600483018054919390911561492b575054916148b78361010954613f5f565b610109556148c58183614df6565b5f80808086335af16148d5613f6c565b5015613915577fee444713008e3c266c8fb74c287dd853d5eb23d60c7e77730b0ed536556efd9a92614914604051938493608085526080850191613f32565b9060208301525f60408301525f60608301520390a1565b7fee444713008e3c266c8fb74c287dd853d5eb23d60c7e77730b0ed536556efd9a939150600660018060a01b0360058301541691015461496b8385614df6565b6149768133846152d1565b61498d604051948594608086526080860191613f32565b915f6020850152604084015260608301520390a1565b8181106149ae575050565b5f81556001016149a3565b9190601f81116149c857505050565b613e7b925f5260205f20906020601f840160051c830193106149f2575b601f0160051c01906149a3565b90915081906149e5565b91909182516001600160401b03811161387f57614a2381614a1d8454613d6a565b846149b9565b6020601f8211600114614a62578190614a539394955f92614a57575b50508160011b915f199060031b1c19161790565b9055565b015190505f80614a3f565b601f19821690835f52805f20915f5b818110614aa857509583600195969710614a90575b505050811b019055565b01515f1960f88460031b161c191690555f8080614a86565b9192602060018192868b015181550194019201614a71565b61010154600160401b81101561387f5760018101610101556101018054821015613e2f575f52600b60205f20910201905f61389357805182546001600160a01b0319166001600160a01b03919091161782556020810151613e7b9261012091600a9190614b3090600183016149fc565b60408401516002820155614b5960608501511515600383019060ff801983541691151516179055565b60808401518051600483015560208101516005830180546001600160a01b039092166001600160a01b031990921691909117905560400151600682015560a0840151600782015560c0840151600882015560e084015160098201556101008401519101805460ff191691151560ff16919091178155910151815461ff00191690151560081b61ff0016179055565b621275008114614c7b576224ea008114614c6e576249d4008114614c6057626ebe0014614c535760405162461bcd60e51b815260206004820152601b60248201527f496e76616c69642076616c69646174696f6e206475726174696f6e00000000006044820152606490fd5b68022b1c8c1227a0000090565b5068018493fba64ef0000090565b5067d02ab486cedc000090565b50676f05b59d3b20000090565b60ff60c95416614c9457565b60405162461bcd60e51b815260206004820152601060248201526f14185d5cd8589b194e881c185d5cd95960821b6044820152606490fd5b600260975414614cdd576002609755565b60405162461bcd60e51b815260206004820152601f60248201527f5265656e7472616e637947756172643a207265656e7472616e742063616c6c006044820152606490fd5b919091828114614df157614d368354613d6a565b6001600160401b03811161387f57614d5281614a1d8454613d6a565b5f93601f8211600114614d8c57614a5392939482915f92614d815750508160011b915f199060031b1c19161790565b015490505f80614a3f565b601f198216905f5260205f2094835f5260205f20915f5b818110614dd957509583600195969710614dc157505050811b019055565b01545f1960f88460031b161c191690555f8080614a86565b9192600180602092868b015481550194019201614da3565b509050565b6040518282823760208184810161010281520301902054801561391557614e1c81613ee3565b50546040516001600160a01b03909116908484823760208186810161010481520301902054815f5261010360205260405f20545f19810190811161195d57808203615225575b50505f5261010360205260405f2080548015615020575f190190614e868282613e1a565b61389357614e948154613d6a565b90816151e2575b5050555f60405184848237602081868101610104815203019020556040518383823760208185810161010d815203019020614ed68154613d6a565b908161519f575b50506040518383823760208185810161010f81520301902060ff198154169055610101545f19810190811161195d57808203615034575b5050610101548015615020575f190191614f2d83613ee3565b939093613893575f600a85827f04393636f796e0824c4807e9d1a98080042d261b6d4feea240a3d698ee713b52975560018101614f6a8154613d6a565b9081614fdd575b50508260028201558260038201558260048201558260058201558260068201558260078201558260088201558260098201550155610101555f6040518284823760208184810161010281520301902055614fd8604051928392602084526020840191613f32565b0390a1565b81601f869311600114614ff45750555b5f80614f71565b8183526020832061501091601f0160051c8101906001016149a3565b8082528160208120915555614fed565b634e487b7160e01b5f52603160045260245ffd5b61505261504c600161504584613ee3565b5001613e43565b91613ee3565b5061505c83613ee3565b929092613893576020928392808203615093575b5050604051928184925191829101835e8101610102815203019020555f80614f14565b805482546001600160a01b0319166001600160a01b039190911617825561515d9160ff90600a9081906150cc6001868101908301614d22565b600285015460028201556150f584600387015416600383019060ff801983541691151516179055565b6004810160048601808203615164575b505060078501546007820155600885015460088201556009850154600982015501920161514182825416849060ff801983541691151516179055565b5460081c1661ff00825491151560081b169061ff001916179055565b5f80615070565b54905560058581015490820180546001600160a01b0319166001600160a01b0392909216919091179055600680860154908201555f80615105565b81601f5f93116001146151b65750555b5f80614edd565b818352602083206151d291601f0160051c8101906001016149a3565b80825281602081209155556151af565b81601f5f93116001146151f95750555b5f80614e9b565b8183526020832061521591601f0160051c8101906001016149a3565b80825281602081209155556151f2565b61523e61524491845f5261010360205260405f20613e1a565b50613e43565b825f5261010360205261525a8260405f20613e1a565b613893578161526c60209384936149fc565b604051928184925191829101835e8101610104815203019020555f80614e62565b90613e7b916040519163a9059cbb60e01b602084015273aaaaaaaaaaaaaaaaaaaaaaaaaaaaaaaaaaaaaaaa6024840152604483015260448252614359606483613c80565b60405163a9059cbb60e01b60208201526001600160a01b039092166024830152604480830193909352918152613e7b91614359606483613c80565b6040516323b872dd60e01b60208201526001600160a01b039283166024820152929091166044830152606480830193909352918152613e7b91614359608483613c80565b5f81815260656020908152604080832033845290915290205460ff16156153745750565b3361537f602a613ca1565b9161538d6040519384613c80565b602a835261539b602a613ca1565b602084019290601f1901368437835115613e2f5760308353835160011015613e2f576078602185015360295b6001811161555457506154cf576153de6042613ca1565b906153ec6040519283613c80565b604282526153fa6042613ca1565b602083019190601f1901368337825115613e2f5760308253825160011015613e2f576078602184015360415b6001811161551357506154cf5761114a936037601192846154af95506040519687947f416363657373436f6e74726f6c3a206163636f756e742000000000000000000060208701525180918587015e8401907001034b99036b4b9b9b4b733903937b6329607d1b84830152518092604883015e01015f838201520301601f198101835282613c80565b60405162461bcd60e51b8152602060048201529182916024830190613da2565b606460405162461bcd60e51b815260206004820152602060248201527f537472696e67733a20686578206c656e67746820696e73756666696369656e746044820152fd5b90600f81166010811015613e2f576f181899199a1a9b1b9c1cb0b131b232b360811b901a6155418386615875565b5360041c90801561195d575f1901615426565b90600f81166010811015613e2f576f181899199a1a9b1b9c1cb0b131b232b360811b901a6155828387615875565b5360041c90801561195d575f19016153c7565b805f52606560205260405f2060018060a01b0383165f5260205260ff60405f2054166155bf575050565b5f8181526065602090815260408083206001600160a01b0395909516808452949091528120805460ff19169055339291907ff6391f5c32d9c69d2a47ea670b442974b53935d1edc7fd64eb21e047a839171b9080a4565b1561561d57565b60405162461bcd60e51b815260206004820152602b60248201527f496e697469616c697a61626c653a20636f6e7472616374206973206e6f74206960448201526a6e697469616c697a696e6760a81b6064820152608490fd5b906156d69160018060a01b03165f8060405193615694604086613c80565b602085527f5361666545524332303a206c6f772d6c6576656c2063616c6c206661696c6564602086015260208151910182855af16156d0613f6c565b91615886565b8051806156e1575050565b816020918101031261391557602001518015908115036139155761570157565b60405162461bcd60e51b815260206004820152602a60248201527f5361666545524332303a204552433230206f7065726174696f6e20646964206e6044820152691bdd081cdd58d8d9595960b21b6064820152608490fd5b805f5260fc60205260405f2054155f146157bf5760fb54600160401b81101561387f576157a861579282600185940160fb5560fb613e1a565b819391549060031b91821b915f19901b19161790565b905560fb54905f5260fc60205260405f2055600190565b505f90565b5f81815260fc6020526040902054801561586f575f19810181811161195d5760fb545f1981019190821161195d57808203615837575b50505060fb548015615020575f19016158148160fb613e1a565b8154905f199060031b1b1916905560fb555f5260fc6020525f6040812055600190565b6158596158486157929360fb613e1a565b90549060031b1c92839260fb613e1a565b90555f5260fc60205260405f20555f80806157fa565b50505f90565b908151811015613e2f570160200190565b919290156158e8575081511561589a575090565b3b156158a35790565b60405162461bcd60e51b815260206004820152601d60248201527f416464726573733a2063616c6c20746f206e6f6e2d636f6e74726163740000006044820152606490fd5b8251909150156158fb5750805190602001fd5b60405162461bcd60e51b81526020600482015290819061114a906024830190613da256fe911545ab01a7553b2c4eb100eb4054703d821e76fc5d0504a07b8246aa3b1232000000000000000000000000eeeeeeeeeeeeeeeeeeeeeeeeeeeeeeeeeeeeeeeea2646970667358221220a208d5bf7c805b9a56cee79562168df47b974a2a5c2f840f5b02df308fa7febd64736f6c634300081c00330000000000000000000000007109709ecfa91a80626ff3989d68f67f5b1dd12d405787fa12a823e0f2b7631cc41b3ba8828b3321ca811111fa75cd3aa3bb5acec2575a0e9e593c00f959f8c92f12db2869c3395a3b0502d05e2516446f71f85b","linkReferences":{}},"methodIdentifiers":{"VALIDATION_DURATION_EIGHT_WEEKS()":"ce339923","VALIDATION_DURATION_FOUR_WEEKS()":"2dbecc1a","VALIDATION_DURATION_TWELVE_WEEKS()":"4bcad6f2","VALIDATION_DURATION_TWO_WEEKS()":"8079336c","amountArr(uint256)":"32e9aa8c","blsKey()":"cf2f00af","blsPoP()":"f9bf4553","blsSignature()":"4e7320ce","boundValue(uint256,uint256,uint256)":"846f81c5","durations(uint256)":"bc20a7af","echidna_check_eth_balance()":"ede32943","echidna_check_qi_balance()":"bb15ab1b","qiPriceMultiplier()":"2576eed1","register_With_Avax_Fee(uint256,uint256,uint256)":"54065098","register_With_Erc20_Fee(uint256,uint256,uint256)":"86b11036","register_With_Prevalidated_QiStake(uint256,uint256,uint256)":"03a9b9c9","register_With_Stake(uint256,uint256,uint256,uint256)":"faec5be3","register_Without_Collateral(uint256,uint256,uint256)":"54d1087c","withdraw_eth(uint256)":"30a95e67"}}}}}