{"test/contracts/StakedAvax.sol":{"StakedAvax":{"abi":[{"type":"function","name":"accrueRewards","inputs":[{"name":"amount","type":"uint256","internalType":"uint256"}],"outputs":[],"stateMutability":"nonpayable"}],"userdoc":{},"devdoc":{},"evm":{"bytecode":{"object":"608080604052346013576068908160188239f35b5f80fdfe6004361015600b575f80fd5b5f3560e01c63e1a472b914601d575f80fd5b34602e576020366003190112602e57005b5f80fdfea26469706673582212208cda1373862fb1a4ac550f5ab40f2d94bb00b62e555d5af2b15a26aa8de8556264736f6c634300081c0033","linkReferences":{}},"methodIdentifiers":{"accrueRewards(uint256)":"e1a472b9"}}}}}