{"abi":[{"type":"function","name":"ignite","inputs":[],"outputs":[{"name":"","type":"address","internalType":"address"}],"stateMutability":"view"},{"type":"function","name":"qi","inputs":[],"outputs":[{"name":"","type":"address","internalType":"contract IERC20Upgradeable"}],"stateMutability":"view"},{"type":"function","name":"targetApr","inputs":[],"outputs":[{"name":"","type":"uint256","internalType":"uint256"}],"stateMutability":"view"}],"bytecode":{"object":"0x6080806040523460135760d4908160188239f35b5f80fdfe60808060405260043610156011575f80fd5b5f3560e01c9081635fcd625514607e57508063e598b45d1460635763f768923a146039575f80fd5b34605f575f366003190112605f576001546040516001600160a01b039091168152602090f35b5f80fd5b34605f575f366003190112605f576020600254604051908152f35b34605f575f366003190112605f575f546001600160a01b03168152602090f3fea2646970667358221220151c1cfa9b6884f8ef31e467e6da1b4ea0d76082ca6f843f4080283a35c69f5964736f6c634300081a0033","linkReferences":{}},"methodIdentifiers":{"ignite()":"f768923a","qi()":"5fcd6255","targetApr()":"e598b45d"},"id":22}